{"contracts/Crowdfunding.sol":{"Crowdfunding":{"abi":[{"inputs":[{"internalType":"address","name":"_starter","type":"address"},{"internalType":"string","name":"_metadataCID","type":"string"},{"internalType":"uint256","name":"_target","type":"uint256"},{"internalType":"uint256","name":"_deadline","type":"uint256"},{"internalType":"address","name":"_tokenAddress","type":"address"}],"stateMutability":"nonpayable","type":"constructor"},{"inputs":[],"name":"SafeApproveFailed","type":"error"},{"inputs":[],"name":"SafeTransferFailed","type":"error"},{"inputs":[{"internalType":"address","name":"by","type":"address"},{"internalType":"uint256","name":"amount","type":"uint256"}],"name":"addContribution","outputs":[{"internalType":"uint256","name":"contributionAdded","type":"uint256"}],"stateMutability":"nonpayable","type":"function"},{"inputs":[{"internalType":"uint256","name":"","type":"uint256"}],"name":"burnings","outputs":[{"internalType":"address","name":"to","type":"address"},{"internalType":"uint256","name":"amount","type":"uint256"},{"internalType":"uint256","name":"timestamp","type":"uint256"}],"stateMutability":"view","type":"function"},{"inputs":[{"internalType":"uint256","name":"amount","type":"uint256"}],"name":"contributionAllowed","outputs":[{"internalType":"uint256","name":"","type":"uint256"}],"stateMutability":"view","type":"function"},{"inputs":[{"internalType":"uint256","name":"","type":"uint256"}],"name":"contributions","outputs":[{"internalType":"address","name":"contributor","type":"address"},{"internalType":"uint256","name":"amount","type":"uint256"},{"internalType":"uint256","name":"timestamp","type":"uint256"}],"stateMutability":"view","type":"function"},{"inputs":[],"name":"current","outputs":[{"internalType":"uint256","name":"","type":"uint256"}],"stateMutability":"view","type":"function"},{"inputs":[],"name":"deadline","outputs":[{"internalType":"uint256","name":"","type":"uint256"}],"stateMutability":"view","type":"function"},{"inputs":[{"internalType":"uint256","name":"_target","type":"uint256"},{"internalType":"uint256","name":"_deadline","type":"uint256"}],"name":"editCrowdfunding","outputs":[],"stateMutability":"nonpayable","type":"function"},{"inputs":[{"internalType":"string","name":"newCID","type":"string"}],"name":"editMetadataCID","outputs":[],"stateMutability":"nonpayable","type":"function"},{"inputs":[],"name":"factoryAddress","outputs":[{"internalType":"address","name":"","type":"address"}],"stateMutability":"view","type":"function"},{"inputs":[],"name":"getContributions","outputs":[{"components":[{"internalType":"address","name":"contributor","type":"address"},{"internalType":"uint256","name":"amount","type":"uint256"},{"internalType":"uint256","name":"timestamp","type":"uint256"}],"internalType":"struct Crowdfunding.Contribution[]","name":"","type":"tuple[]"}],"stateMutability":"view","type":"function"},{"inputs":[],"name":"getTarget","outputs":[{"internalType":"uint256","name":"","type":"uint256"}],"stateMutability":"view","type":"function"},{"inputs":[],"name":"isOpen","outputs":[{"internalType":"bool","name":"","type":"bool"}],"stateMutability":"view","type":"function"},{"inputs":[],"name":"metadataCID","outputs":[{"internalType":"string","name":"","type":"string"}],"stateMutability":"view","type":"function"},{"inputs":[{"internalType":"address","name":"to","type":"address"},{"internalType":"uint256","name":"amount","type":"uint256"}],"name":"removeContribution","outputs":[],"stateMutability":"nonpayable","type":"function"},{"inputs":[],"name":"startAt","outputs":[{"internalType":"uint256","name":"","type":"uint256"}],"stateMutability":"view","type":"function"},{"inputs":[],"name":"starter","outputs":[{"internalType":"address","name":"","type":"address"}],"stateMutability":"view","type":"function"},{"inputs":[],"name":"target","outputs":[{"internalType":"uint256","name":"","type":"uint256"}],"stateMutability":"view","type":"function"},{"inputs":[],"name":"tokenAddress","outputs":[{"internalType":"address","name":"","type":"address"}],"stateMutability":"view","type":"function"}],"evm":{"bytecode":{"linkReferences":{},"object":"60806040523480156200001157600080fd5b5060405162002938380380620029388339818101604052810190620000379190620003c7565b4282116200007c576040517f08c379a00000000000000000000000000000000000000000000000000000000081526004016200007390620004f5565b60405180910390fd5b84600560016101000a81548173ffffffffffffffffffffffffffffffffffffffff021916908373ffffffffffffffffffffffffffffffffffffffff16021790555033600760006101000a81548173ffffffffffffffffffffffffffffffffffffffff021916908373ffffffffffffffffffffffffffffffffffffffff16021790555083600090816200010f919062000758565b508260018190555060006002819055508160038190555080600660006101000a81548173ffffffffffffffffffffffffffffffffffffffff021916908373ffffffffffffffffffffffffffffffffffffffff160217905550426004819055506001600560006101000a81548160ff02191690831515021790555050505050506200083f565b6000604051905090565b600080fd5b600080fd5b600073ffffffffffffffffffffffffffffffffffffffff82169050919050565b6000620001d582620001a8565b9050919050565b620001e781620001c8565b8114620001f357600080fd5b50565b6000815190506200020781620001dc565b92915050565b600080fd5b600080fd5b6000601f19601f8301169050919050565b7f4e487b7100000000000000000000000000000000000000000000000000000000600052604160045260246000fd5b620002628262000217565b810181811067ffffffffffffffff8211171562000284576200028362000228565b5b80604052505050565b60006200029962000194565b9050620002a7828262000257565b919050565b600067ffffffffffffffff821115620002ca57620002c962000228565b5b620002d58262000217565b9050602081019050919050565b60005b8381101562000302578082015181840152602081019050620002e5565b60008484015250505050565b6000620003256200031f84620002ac565b6200028d565b90508281526020810184848401111562000344576200034362000212565b5b62000351848285620002e2565b509392505050565b600082601f8301126200037157620003706200020d565b5b8151620003838482602086016200030e565b91505092915050565b6000819050919050565b620003a1816200038c565b8114620003ad57600080fd5b50565b600081519050620003c18162000396565b92915050565b600080600080600060a08688031215620003e657620003e56200019e565b5b6000620003f688828901620001f6565b955050602086015167ffffffffffffffff8111156200041a5762000419620001a3565b5b620004288882890162000359565b94505060406200043b88828901620003b0565b93505060606200044e88828901620003b0565b92505060806200046188828901620001f6565b9150509295509295909350565b600082825260208201905092915050565b7f43726f776466756e64696e673a20446561646c696e65206d757374206265206960008201527f6e20667574757265000000000000000000000000000000000000000000000000602082015250565b6000620004dd6028836200046e565b9150620004ea826200047f565b604082019050919050565b600060208201905081810360008301526200051081620004ce565b9050919050565b600081519050919050565b7f4e487b7100000000000000000000000000000000000000000000000000000000600052602260045260246000fd5b600060028204905060018216806200056a57607f821691505b60208210810362000580576200057f62000522565b5b50919050565b60008190508160005260206000209050919050565b60006020601f8301049050919050565b600082821b905092915050565b600060088302620005ea7fffffffffffffffffffffffffffffffffffffffffffffffffffffffffffffffff82620005ab565b620005f68683620005ab565b95508019841693508086168417925050509392505050565b6000819050919050565b600062000639620006336200062d846200038c565b6200060e565b6200038c565b9050919050565b6000819050919050565b620006558362000618565b6200066d620006648262000640565b848454620005b8565b825550505050565b600090565b6200068462000675565b620006918184846200064a565b505050565b5b81811015620006b957620006ad6000826200067a565b60018101905062000697565b5050565b601f8211156200070857620006d28162000586565b620006dd846200059b565b81016020851015620006ed578190505b62000705620006fc856200059b565b83018262000696565b50505b505050565b600082821c905092915050565b60006200072d600019846008026200070d565b1980831691505092915050565b60006200074883836200071a565b9150826002028217905092915050565b620007638262000517565b67ffffffffffffffff8111156200077f576200077e62000228565b5b6200078b825462000551565b62000798828285620006bd565b600060209050601f831160018114620007d05760008415620007bb578287015190505b620007c785826200073a565b86555062000837565b601f198416620007e08662000586565b60005b828110156200080a57848901518255600182019150602085019450602081019050620007e3565b868310156200082a578489015162000826601f8916826200071a565b8355505b6001600288020188555050505b505050505050565b6120e9806200084f6000396000f3fe608060405234801561001057600080fd5b50600436106101165760003560e01c80639d76ea58116100a2578063d4b8399211610071578063d4b83992146102e9578063d9de130714610307578063dda0a81a14610323578063f00e6a2a14610341578063f5a8492f1461035f57610116565b80639d76ea58146102735780639fa6a6e314610291578063c7446565146102af578063cb7cbb8d146102cd57610116565b806347535d7b116100e957806347535d7b146101cd57806358871c46146101eb57806383e4901914610209578063966dae0e1461023957806399af5cc71461025757610116565b80631cee07001461011b5780631ef480071461014d57806329dcb0cf1461017f57806339ecacac1461019d575b600080fd5b610135600480360381019061013091906110d1565b61037d565b6040516101449392919061114e565b60405180910390f35b610167600480360381019061016291906110d1565b6103d7565b6040516101769392919061114e565b60405180910390f35b610187610431565b6040516101949190611185565b60405180910390f35b6101b760048036038101906101b291906111cc565b610437565b6040516101c49190611185565b60405180910390f35b6101d561074b565b6040516101e29190611227565b60405180910390f35b6101f361075e565b60405161020091906112d2565b60405180910390f35b610223600480360381019061021e91906110d1565b6107ec565b6040516102309190611185565b60405180910390f35b61024161084e565b60405161024e91906112f4565b60405180910390f35b610271600480360381019061026c919061130f565b610874565b005b61027b61099e565b60405161028891906112f4565b60405180910390f35b6102996109c4565b6040516102a69190611185565b60405180910390f35b6102b76109ca565b6040516102c49190611185565b60405180910390f35b6102e760048036038101906102e29190611484565b6109d0565b005b6102f16109e3565b6040516102fe9190611185565b60405180910390f35b610321600480360381019061031c91906111cc565b6109e9565b005b61032b610b9b565b60405161033891906115dc565b60405180910390f35b610349610c64565b6040516103569190611185565b60405180910390f35b610367610c6e565b60405161037491906112f4565b60405180910390f35b6008818154811061038d57600080fd5b90600052602060002090600302016000915090508060000160009054906101000a900473ffffffffffffffffffffffffffffffffffffffff16908060010154908060020154905083565b600981815481106103e757600080fd5b90600052602060002090600302016000915090508060000160009054906101000a900473ffffffffffffffffffffffffffffffffffffffff16908060010154908060020154905083565b60035481565b6000600354421061047d576040517f08c379a000000000000000000000000000000000000000000000000000000000815260040161047490611670565b60405180910390fd5b600760009054906101000a900473ffffffffffffffffffffffffffffffffffffffff1673ffffffffffffffffffffffffffffffffffffffff163373ffffffffffffffffffffffffffffffffffffffff161461050d576040517f08c379a0000000000000000000000000000000000000000000000000000000008152600401610504906116dc565b60405180910390fd5b600560009054906101000a900460ff1661055c576040517f08c379a00000000000000000000000000000000000000000000000000000000081526004016105539061176e565b60405180910390fd5b6000821161059f576040517f08c379a000000000000000000000000000000000000000000000000000000000815260040161059690611800565b60405180910390fd5b600154600254106105e5576040517f08c379a00000000000000000000000000000000000000000000000000000000081526004016105dc90611892565b60405180910390fd5b6105ee826107ec565b90506105f981610c94565b806002600082825461060b91906118e1565b9250508190555061061a611046565b83816000019073ffffffffffffffffffffffffffffffffffffffff16908173ffffffffffffffffffffffffffffffffffffffff16815250508181602001818152505042816040018181525050600881908060018154018082558091505060019003906000526020600020906003020160009091909190915060008201518160000160006101000a81548173ffffffffffffffffffffffffffffffffffffffff021916908373ffffffffffffffffffffffffffffffffffffffff1602179055506020820151816001015560408201518160020155505061071d600660009054906101000a900473ffffffffffffffffffffffffffffffffffffffff16853085610d2d565b60015460025410610744576000600560006101000a81548160ff0219169083151502179055505b5092915050565b600560009054906101000a900460ff1681565b6000805461076b90611944565b80601f016020809104026020016040519081016040528092919081815260200182805461079790611944565b80156107e45780601f106107b9576101008083540402835291602001916107e4565b820191906000526020600020905b8154815290600101906020018083116107c757829003601f168201915b505050505081565b6000600154600254106108025760009050610849565b6003544211156108155760009050610849565b60008290506001548160025461082b91906118e1565b1115610844576002546001546108419190611975565b90505b809150505b919050565b600760009054906101000a900473ffffffffffffffffffffffffffffffffffffffff1681565b600560019054906101000a900473ffffffffffffffffffffffffffffffffffffffff1673ffffffffffffffffffffffffffffffffffffffff163373ffffffffffffffffffffffffffffffffffffffff1614610904576040517f08c379a00000000000000000000000000000000000000000000000000000000081526004016108fb906119f5565b60405180910390fd5b6002548211610948576040517f08c379a000000000000000000000000000000000000000000000000000000000815260040161093f90611a87565b60405180910390fd5b600354811161098c576040517f08c379a000000000000000000000000000000000000000000000000000000000815260040161098390611b19565b60405180910390fd5b81600181905550806003819055505050565b600660009054906101000a900473ffffffffffffffffffffffffffffffffffffffff1681565b60025481565b60045481565b80600090816109df9190611ce5565b5050565b60015481565b600760009054906101000a900473ffffffffffffffffffffffffffffffffffffffff1673ffffffffffffffffffffffffffffffffffffffff163373ffffffffffffffffffffffffffffffffffffffff1614610a79576040517f08c379a0000000000000000000000000000000000000000000000000000000008152600401610a70906116dc565b60405180910390fd5b600560009054906101000a900460ff1615610ac9576040517f08c379a0000000000000000000000000000000000000000000000000000000008152600401610ac090611e29565b60405180910390fd5b60008111610b0c576040517f08c379a0000000000000000000000000000000000000000000000000000000008152600401610b0390611ebb565b60405180910390fd5b806002541015610b51576040517f08c379a0000000000000000000000000000000000000000000000000000000008152600401610b4890611f4d565b60405180910390fd5b8060026000828254610b639190611975565b92505081905550610b97600660009054906101000a900473ffffffffffffffffffffffffffffffffffffffff168383610e98565b5050565b60606008805480602002602001604051908101604052809291908181526020016000905b82821015610c5b57838290600052602060002090600302016040518060600160405290816000820160009054906101000a900473ffffffffffffffffffffffffffffffffffffffff1673ffffffffffffffffffffffffffffffffffffffff1673ffffffffffffffffffffffffffffffffffffffff1681526020016001820154815260200160028201548152505081526020019060010190610bbf565b50505050905090565b6000600154905090565b600560019054906101000a900473ffffffffffffffffffffffffffffffffffffffff1681565b610d2a81604051602401610ca89190611185565b6040516020818303038152906040527ff82c50f1000000000000000000000000000000000000000000000000000000007bffffffffffffffffffffffffffffffffffffffffffffffffffffffff19166020820180517bffffffffffffffffffffffffffffffffffffffffffffffffffffffff8381831617835250505050611000565b50565b6000808573ffffffffffffffffffffffffffffffffffffffff16858585604051602401610d5c93929190611f6d565b6040516020818303038152906040527f23b872dd000000000000000000000000000000000000000000000000000000007bffffffffffffffffffffffffffffffffffffffffffffffffffffffff19166020820180517bffffffffffffffffffffffffffffffffffffffffffffffffffffffff8381831617835250505050604051610de69190611feb565b6000604051808303816000865af19150503d8060008114610e23576040519150601f19603f3d011682016040523d82523d6000602084013e610e28565b606091505b5091509150811580610e5957506000815114158015610e58575080806020019051810190610e56919061202e565b155b5b15610e90576040517ffb7f507900000000000000000000000000000000000000000000000000000000815260040160405180910390fd5b505050505050565b6000808473ffffffffffffffffffffffffffffffffffffffff168484604051602401610ec592919061205b565b6040516020818303038152906040527fa9059cbb000000000000000000000000000000000000000000000000000000007bffffffffffffffffffffffffffffffffffffffffffffffffffffffff19166020820180517bffffffffffffffffffffffffffffffffffffffffffffffffffffffff8381831617835250505050604051610f4f9190611feb565b6000604051808303816000865af19150503d8060008114610f8c576040519150601f19603f3d011682016040523d82523d6000602084013e610f91565b606091505b5091509150811580610fc257506000815114158015610fc1575080806020019051810190610fbf919061202e565b155b5b15610ff9576040517ffb7f507900000000000000000000000000000000000000000000000000000000815260040160405180910390fd5b5050505050565b6110178161100f61101a61103b565b63ffffffff16565b50565b60006a636f6e736f6c652e6c6f679050600080835160208501845afa505050565b61107d819050919050565b6040518060600160405280600073ffffffffffffffffffffffffffffffffffffffff16815260200160008152602001600081525090565b611085612084565b565b6000604051905090565b600080fd5b600080fd5b6000819050919050565b6110ae8161109b565b81146110b957600080fd5b50565b6000813590506110cb816110a5565b92915050565b6000602082840312156110e7576110e6611091565b5b60006110f5848285016110bc565b91505092915050565b600073ffffffffffffffffffffffffffffffffffffffff82169050919050565b6000611129826110fe565b9050919050565b6111398161111e565b82525050565b6111488161109b565b82525050565b60006060820190506111636000830186611130565b611170602083018561113f565b61117d604083018461113f565b949350505050565b600060208201905061119a600083018461113f565b92915050565b6111a98161111e565b81146111b457600080fd5b50565b6000813590506111c6816111a0565b92915050565b600080604083850312156111e3576111e2611091565b5b60006111f1858286016111b7565b9250506020611202858286016110bc565b9150509250929050565b60008115159050919050565b6112218161120c565b82525050565b600060208201905061123c6000830184611218565b92915050565b600081519050919050565b600082825260208201905092915050565b60005b8381101561127c578082015181840152602081019050611261565b60008484015250505050565b6000601f19601f8301169050919050565b60006112a482611242565b6112ae818561124d565b93506112be81856020860161125e565b6112c781611288565b840191505092915050565b600060208201905081810360008301526112ec8184611299565b905092915050565b60006020820190506113096000830184611130565b92915050565b6000806040838503121561132657611325611091565b5b6000611334858286016110bc565b9250506020611345858286016110bc565b9150509250929050565b600080fd5b600080fd5b7f4e487b7100000000000000000000000000000000000000000000000000000000600052604160045260246000fd5b61139182611288565b810181811067ffffffffffffffff821117156113b0576113af611359565b5b80604052505050565b60006113c3611087565b90506113cf8282611388565b919050565b600067ffffffffffffffff8211156113ef576113ee611359565b5b6113f882611288565b9050602081019050919050565b82818337600083830152505050565b6000611427611422846113d4565b6113b9565b90508281526020810184848401111561144357611442611354565b5b61144e848285611405565b509392505050565b600082601f83011261146b5761146a61134f565b5b813561147b848260208601611414565b91505092915050565b60006020828403121561149a57611499611091565b5b600082013567ffffffffffffffff8111156114b8576114b7611096565b5b6114c484828501611456565b91505092915050565b600081519050919050565b600082825260208201905092915050565b6000819050602082019050919050565b6115028161111e565b82525050565b6115118161109b565b82525050565b60608201600082015161152d60008501826114f9565b5060208201516115406020850182611508565b5060408201516115536040850182611508565b50505050565b60006115658383611517565b60608301905092915050565b6000602082019050919050565b6000611589826114cd565b61159381856114d8565b935061159e836114e9565b8060005b838110156115cf5781516115b68882611559565b97506115c183611571565b9250506001810190506115a2565b5085935050505092915050565b600060208201905081810360008301526115f6818461157e565b905092915050565b7f43726f776466756e64696e673a20616c7265616479206578636565642064656160008201527f646c696e65000000000000000000000000000000000000000000000000000000602082015250565b600061165a60258361124d565b9150611665826115fe565b604082019050919050565b600060208201905081810360008301526116898161164d565b9050919050565b7f43726f776466756e64696e673a206f6e6c79466163746f727900000000000000600082015250565b60006116c660198361124d565b91506116d182611690565b602082019050919050565b600060208201905081810360008301526116f5816116b9565b9050919050565b7f43726f776466756e64696e672e616464436f6e747269627574696f6e3a20437260008201527f6f776466756e64696e67206973206e6f7420666f722073616c65000000000000602082015250565b6000611758603a8361124d565b9150611763826116fc565b604082019050919050565b600060208201905081810360008301526117878161174b565b9050919050565b7f43726f776466756e64696e672e616464436f6e747269627574696f6e3a20696e60008201527f76616c696420616d6f756e740000000000000000000000000000000000000000602082015250565b60006117ea602c8361124d565b91506117f58261178e565b604082019050919050565b60006020820190508181036000830152611819816117dd565b9050919050565b7f43726f776466756e64696e672e616464436f6e747269627574696f6e3a20637260008201527f6f776466756e64696e6720616c72656164792072656163682074617267657400602082015250565b600061187c603f8361124d565b915061188782611820565b604082019050919050565b600060208201905081810360008301526118ab8161186f565b9050919050565b7f4e487b7100000000000000000000000000000000000000000000000000000000600052601160045260246000fd5b60006118ec8261109b565b91506118f78361109b565b925082820190508082111561190f5761190e6118b2565b5b92915050565b7f4e487b7100000000000000000000000000000000000000000000000000000000600052602260045260246000fd5b6000600282049050600182168061195c57607f821691505b60208210810361196f5761196e611915565b5b50919050565b60006119808261109b565b915061198b8361109b565b92508282039050818111156119a3576119a26118b2565b5b92915050565b7f43726f776466756e64696e673a206f6e6c795374617274657200000000000000600082015250565b60006119df60198361124d565b91506119ea826119a9565b602082019050919050565b60006020820190508181036000830152611a0e816119d2565b9050919050565b7f43726f776466756e64696e673a2074617267657420697320746f6f20736d616c60008201527f6c00000000000000000000000000000000000000000000000000000000000000602082015250565b6000611a7160218361124d565b9150611a7c82611a15565b604082019050919050565b60006020820190508181036000830152611aa081611a64565b9050919050565b7f43726f776466756e64696e673a206e657720646561646c696e6520697320736860008201527f6f72746572207468616e206265666f7265000000000000000000000000000000602082015250565b6000611b0360318361124d565b9150611b0e82611aa7565b604082019050919050565b60006020820190508181036000830152611b3281611af6565b9050919050565b60008190508160005260206000209050919050565b60006020601f8301049050919050565b600082821b905092915050565b600060088302611b9b7fffffffffffffffffffffffffffffffffffffffffffffffffffffffffffffffff82611b5e565b611ba58683611b5e565b95508019841693508086168417925050509392505050565b6000819050919050565b6000611be2611bdd611bd88461109b565b611bbd565b61109b565b9050919050565b6000819050919050565b611bfc83611bc7565b611c10611c0882611be9565b848454611b6b565b825550505050565b600090565b611c25611c18565b611c30818484611bf3565b505050565b5b81811015611c5457611c49600082611c1d565b600181019050611c36565b5050565b601f821115611c9957611c6a81611b39565b611c7384611b4e565b81016020851015611c82578190505b611c96611c8e85611b4e565b830182611c35565b50505b505050565b600082821c905092915050565b6000611cbc60001984600802611c9e565b1980831691505092915050565b6000611cd58383611cab565b9150826002028217905092915050565b611cee82611242565b67ffffffffffffffff811115611d0757611d06611359565b5b611d118254611944565b611d1c828285611c58565b600060209050601f831160018114611d4f5760008415611d3d578287015190505b611d478582611cc9565b865550611daf565b601f198416611d5d86611b39565b60005b82811015611d8557848901518255600182019150602085019450602081019050611d60565b86831015611da25784890151611d9e601f891682611cab565b8355505b6001600288020188555050505b505050505050565b7f43726f776466756e64696e672e72656d6f7665436f6e747269627574696f6e3a60008201527f2043726f776466756e64696e67206973207374696c6c20696e2073616c650000602082015250565b6000611e13603e8361124d565b9150611e1e82611db7565b604082019050919050565b60006020820190508181036000830152611e4281611e06565b9050919050565b7f43726f776466756e64696e672e72656d6f7665436f6e747269627574696f6e3a60008201527f20696e76616c696420616d6f756e740000000000000000000000000000000000602082015250565b6000611ea5602f8361124d565b9150611eb082611e49565b604082019050919050565b60006020820190508181036000830152611ed481611e98565b9050919050565b7f43726f776466756e64696e672e72656d6f7665436f6e747269627574696f6e3a60008201527f20696e73756666696369656e7420616d6f756e74000000000000000000000000602082015250565b6000611f3760348361124d565b9150611f4282611edb565b604082019050919050565b60006020820190508181036000830152611f6681611f2a565b9050919050565b6000606082019050611f826000830186611130565b611f8f6020830185611130565b611f9c604083018461113f565b949350505050565b600081519050919050565b600081905092915050565b6000611fc582611fa4565b611fcf8185611faf565b9350611fdf81856020860161125e565b80840191505092915050565b6000611ff78284611fba565b915081905092915050565b61200b8161120c565b811461201657600080fd5b50565b60008151905061202881612002565b92915050565b60006020828403121561204457612043611091565b5b600061205284828501612019565b91505092915050565b60006040820190506120706000830185611130565b61207d602083018461113f565b9392505050565b7f4e487b7100000000000000000000000000000000000000000000000000000000600052605160045260246000fdfea264697066735822122081810df3b605e35817f657b7caa5ffb7ece9762ec108861a3568d1ca759651ee64736f6c63430008140033","opcodes":"PUSH1 0x80 PUSH1 0x40 MSTORE CALLVALUE DUP1 ISZERO PUSH3 0x11 JUMPI PUSH1 0x0 DUP1 REVERT JUMPDEST POP PUSH1 0x40 MLOAD PUSH3 0x2938 CODESIZE SUB DUP1 PUSH3 0x2938 DUP4 CODECOPY DUP2 DUP2 ADD PUSH1 0x40 MSTORE DUP2 ADD SWAP1 PUSH3 0x37 SWAP2 SWAP1 PUSH3 0x3C7 JUMP JUMPDEST TIMESTAMP DUP3 GT PUSH3 0x7C JUMPI PUSH1 0x40 MLOAD PUSH32 0x8C379A000000000000000000000000000000000000000000000000000000000 DUP2 MSTORE PUSH1 0x4 ADD PUSH3 0x73 SWAP1 PUSH3 0x4F5 JUMP JUMPDEST PUSH1 0x40 MLOAD DUP1 SWAP2 SUB SWAP1 REVERT JUMPDEST DUP5 PUSH1 0x5 PUSH1 0x1 PUSH2 0x100 EXP DUP2 SLOAD DUP2 PUSH20 0xFFFFFFFFFFFFFFFFFFFFFFFFFFFFFFFFFFFFFFFF MUL NOT AND SWAP1 DUP4 PUSH20 0xFFFFFFFFFFFFFFFFFFFFFFFFFFFFFFFFFFFFFFFF AND MUL OR SWAP1 SSTORE POP CALLER PUSH1 0x7 PUSH1 0x0 PUSH2 0x100 EXP DUP2 SLOAD DUP2 PUSH20 0xFFFFFFFFFFFFFFFFFFFFFFFFFFFFFFFFFFFFFFFF MUL NOT AND SWAP1 DUP4 PUSH20 0xFFFFFFFFFFFFFFFFFFFFFFFFFFFFFFFFFFFFFFFF AND MUL OR SWAP1 SSTORE POP DUP4 PUSH1 0x0 SWAP1 DUP2 PUSH3 0x10F SWAP2 SWAP1 PUSH3 0x758 JUMP JUMPDEST POP DUP3 PUSH1 0x1 DUP2 SWAP1 SSTORE POP PUSH1 0x0 PUSH1 0x2 DUP2 SWAP1 SSTORE POP DUP2 PUSH1 0x3 DUP2 SWAP1 SSTORE POP DUP1 PUSH1 0x6 PUSH1 0x0 PUSH2 0x100 EXP DUP2 SLOAD DUP2 PUSH20 0xFFFFFFFFFFFFFFFFFFFFFFFFFFFFFFFFFFFFFFFF MUL NOT AND SWAP1 DUP4 PUSH20 0xFFFFFFFFFFFFFFFFFFFFFFFFFFFFFFFFFFFFFFFF AND MUL OR SWAP1 SSTORE POP TIMESTAMP PUSH1 0x4 DUP2 SWAP1 SSTORE POP PUSH1 0x1 PUSH1 0x5 PUSH1 0x0 PUSH2 0x100 EXP DUP2 SLOAD DUP2 PUSH1 0xFF MUL NOT AND SWAP1 DUP4 ISZERO ISZERO MUL OR SWAP1 SSTORE POP POP POP POP POP POP PUSH3 0x83F JUMP JUMPDEST PUSH1 0x0 PUSH1 0x40 MLOAD SWAP1 POP SWAP1 JUMP JUMPDEST PUSH1 0x0 DUP1 REVERT JUMPDEST PUSH1 0x0 DUP1 REVERT JUMPDEST PUSH1 0x0 PUSH20 0xFFFFFFFFFFFFFFFFFFFFFFFFFFFFFFFFFFFFFFFF DUP3 AND SWAP1 POP SWAP2 SWAP1 POP JUMP JUMPDEST PUSH1 0x0 PUSH3 0x1D5 DUP3 PUSH3 0x1A8 JUMP JUMPDEST SWAP1 POP SWAP2 SWAP1 POP JUMP JUMPDEST PUSH3 0x1E7 DUP2 PUSH3 0x1C8 JUMP JUMPDEST DUP2 EQ PUSH3 0x1F3 JUMPI PUSH1 0x0 DUP1 REVERT JUMPDEST POP JUMP JUMPDEST PUSH1 0x0 DUP2 MLOAD SWAP1 POP PUSH3 0x207 DUP2 PUSH3 0x1DC JUMP JUMPDEST SWAP3 SWAP2 POP POP JUMP JUMPDEST PUSH1 0x0 DUP1 REVERT JUMPDEST PUSH1 0x0 DUP1 REVERT JUMPDEST PUSH1 0x0 PUSH1 0x1F NOT PUSH1 0x1F DUP4 ADD AND SWAP1 POP SWAP2 SWAP1 POP JUMP JUMPDEST PUSH32 0x4E487B7100000000000000000000000000000000000000000000000000000000 PUSH1 0x0 MSTORE PUSH1 0x41 PUSH1 0x4 MSTORE PUSH1 0x24 PUSH1 0x0 REVERT JUMPDEST PUSH3 0x262 DUP3 PUSH3 0x217 JUMP JUMPDEST DUP2 ADD DUP2 DUP2 LT PUSH8 0xFFFFFFFFFFFFFFFF DUP3 GT OR ISZERO PUSH3 0x284 JUMPI PUSH3 0x283 PUSH3 0x228 JUMP JUMPDEST JUMPDEST DUP1 PUSH1 0x40 MSTORE POP POP POP JUMP JUMPDEST PUSH1 0x0 PUSH3 0x299 PUSH3 0x194 JUMP JUMPDEST SWAP1 POP PUSH3 0x2A7 DUP3 DUP3 PUSH3 0x257 JUMP JUMPDEST SWAP2 SWAP1 POP JUMP JUMPDEST PUSH1 0x0 PUSH8 0xFFFFFFFFFFFFFFFF DUP3 GT ISZERO PUSH3 0x2CA JUMPI PUSH3 0x2C9 PUSH3 0x228 JUMP JUMPDEST JUMPDEST PUSH3 0x2D5 DUP3 PUSH3 0x217 JUMP JUMPDEST SWAP1 POP PUSH1 0x20 DUP2 ADD SWAP1 POP SWAP2 SWAP1 POP JUMP JUMPDEST PUSH1 0x0 JUMPDEST DUP4 DUP2 LT ISZERO PUSH3 0x302 JUMPI DUP1 DUP3 ADD MLOAD DUP2 DUP5 ADD MSTORE PUSH1 0x20 DUP2 ADD SWAP1 POP PUSH3 0x2E5 JUMP JUMPDEST PUSH1 0x0 DUP5 DUP5 ADD MSTORE POP POP POP POP JUMP JUMPDEST PUSH1 0x0 PUSH3 0x325 PUSH3 0x31F DUP5 PUSH3 0x2AC JUMP JUMPDEST PUSH3 0x28D JUMP JUMPDEST SWAP1 POP DUP3 DUP2 MSTORE PUSH1 0x20 DUP2 ADD DUP5 DUP5 DUP5 ADD GT ISZERO PUSH3 0x344 JUMPI PUSH3 0x343 PUSH3 0x212 JUMP JUMPDEST JUMPDEST PUSH3 0x351 DUP5 DUP3 DUP6 PUSH3 0x2E2 JUMP JUMPDEST POP SWAP4 SWAP3 POP POP POP JUMP JUMPDEST PUSH1 0x0 DUP3 PUSH1 0x1F DUP4 ADD SLT PUSH3 0x371 JUMPI PUSH3 0x370 PUSH3 0x20D JUMP JUMPDEST JUMPDEST DUP2 MLOAD PUSH3 0x383 DUP5 DUP3 PUSH1 0x20 DUP7 ADD PUSH3 0x30E JUMP JUMPDEST SWAP2 POP POP SWAP3 SWAP2 POP POP JUMP JUMPDEST PUSH1 0x0 DUP2 SWAP1 POP SWAP2 SWAP1 POP JUMP JUMPDEST PUSH3 0x3A1 DUP2 PUSH3 0x38C JUMP JUMPDEST DUP2 EQ PUSH3 0x3AD JUMPI PUSH1 0x0 DUP1 REVERT JUMPDEST POP JUMP JUMPDEST PUSH1 0x0 DUP2 MLOAD SWAP1 POP PUSH3 0x3C1 DUP2 PUSH3 0x396 JUMP JUMPDEST SWAP3 SWAP2 POP POP JUMP JUMPDEST PUSH1 0x0 DUP1 PUSH1 0x0 DUP1 PUSH1 0x0 PUSH1 0xA0 DUP7 DUP9 SUB SLT ISZERO PUSH3 0x3E6 JUMPI PUSH3 0x3E5 PUSH3 0x19E JUMP JUMPDEST JUMPDEST PUSH1 0x0 PUSH3 0x3F6 DUP9 DUP3 DUP10 ADD PUSH3 0x1F6 JUMP JUMPDEST SWAP6 POP POP PUSH1 0x20 DUP7 ADD MLOAD PUSH8 0xFFFFFFFFFFFFFFFF DUP2 GT ISZERO PUSH3 0x41A JUMPI PUSH3 0x419 PUSH3 0x1A3 JUMP JUMPDEST JUMPDEST PUSH3 0x428 DUP9 DUP3 DUP10 ADD PUSH3 0x359 JUMP JUMPDEST SWAP5 POP POP PUSH1 0x40 PUSH3 0x43B DUP9 DUP3 DUP10 ADD PUSH3 0x3B0 JUMP JUMPDEST SWAP4 POP POP PUSH1 0x60 PUSH3 0x44E DUP9 DUP3 DUP10 ADD PUSH3 0x3B0 JUMP JUMPDEST SWAP3 POP POP PUSH1 0x80 PUSH3 0x461 DUP9 DUP3 DUP10 ADD PUSH3 0x1F6 JUMP JUMPDEST SWAP2 POP POP SWAP3 SWAP6 POP SWAP3 SWAP6 SWAP1 SWAP4 POP JUMP JUMPDEST PUSH1 0x0 DUP3 DUP3 MSTORE PUSH1 0x20 DUP3 ADD SWAP1 POP SWAP3 SWAP2 POP POP JUMP JUMPDEST PUSH32 0x43726F776466756E64696E673A20446561646C696E65206D7573742062652069 PUSH1 0x0 DUP3 ADD MSTORE PUSH32 0x6E20667574757265000000000000000000000000000000000000000000000000 PUSH1 0x20 DUP3 ADD MSTORE POP JUMP JUMPDEST PUSH1 0x0 PUSH3 0x4DD PUSH1 0x28 DUP4 PUSH3 0x46E JUMP JUMPDEST SWAP2 POP PUSH3 0x4EA DUP3 PUSH3 0x47F JUMP JUMPDEST PUSH1 0x40 DUP3 ADD SWAP1 POP SWAP2 SWAP1 POP JUMP JUMPDEST PUSH1 0x0 PUSH1 0x20 DUP3 ADD SWAP1 POP DUP2 DUP2 SUB PUSH1 0x0 DUP4 ADD MSTORE PUSH3 0x510 DUP2 PUSH3 0x4CE JUMP JUMPDEST SWAP1 POP SWAP2 SWAP1 POP JUMP JUMPDEST PUSH1 0x0 DUP2 MLOAD SWAP1 POP SWAP2 SWAP1 POP JUMP JUMPDEST PUSH32 0x4E487B7100000000000000000000000000000000000000000000000000000000 PUSH1 0x0 MSTORE PUSH1 0x22 PUSH1 0x4 MSTORE PUSH1 0x24 PUSH1 0x0 REVERT JUMPDEST PUSH1 0x0 PUSH1 0x2 DUP3 DIV SWAP1 POP PUSH1 0x1 DUP3 AND DUP1 PUSH3 0x56A JUMPI PUSH1 0x7F DUP3 AND SWAP2 POP JUMPDEST PUSH1 0x20 DUP3 LT DUP2 SUB PUSH3 0x580 JUMPI PUSH3 0x57F PUSH3 0x522 JUMP JUMPDEST JUMPDEST POP SWAP2 SWAP1 POP JUMP JUMPDEST PUSH1 0x0 DUP2 SWAP1 POP DUP2 PUSH1 0x0 MSTORE PUSH1 0x20 PUSH1 0x0 KECCAK256 SWAP1 POP SWAP2 SWAP1 POP JUMP JUMPDEST PUSH1 0x0 PUSH1 0x20 PUSH1 0x1F DUP4 ADD DIV SWAP1 POP SWAP2 SWAP1 POP JUMP JUMPDEST PUSH1 0x0 DUP3 DUP3 SHL SWAP1 POP SWAP3 SWAP2 POP POP JUMP JUMPDEST PUSH1 0x0 PUSH1 0x8 DUP4 MUL PUSH3 0x5EA PUSH32 0xFFFFFFFFFFFFFFFFFFFFFFFFFFFFFFFFFFFFFFFFFFFFFFFFFFFFFFFFFFFFFFFF DUP3 PUSH3 0x5AB JUMP JUMPDEST PUSH3 0x5F6 DUP7 DUP4 PUSH3 0x5AB JUMP JUMPDEST SWAP6 POP DUP1 NOT DUP5 AND SWAP4 POP DUP1 DUP7 AND DUP5 OR SWAP3 POP POP POP SWAP4 SWAP3 POP POP POP JUMP JUMPDEST PUSH1 0x0 DUP2 SWAP1 POP SWAP2 SWAP1 POP JUMP JUMPDEST PUSH1 0x0 PUSH3 0x639 PUSH3 0x633 PUSH3 0x62D DUP5 PUSH3 0x38C JUMP JUMPDEST PUSH3 0x60E JUMP JUMPDEST PUSH3 0x38C JUMP JUMPDEST SWAP1 POP SWAP2 SWAP1 POP JUMP JUMPDEST PUSH1 0x0 DUP2 SWAP1 POP SWAP2 SWAP1 POP JUMP JUMPDEST PUSH3 0x655 DUP4 PUSH3 0x618 JUMP JUMPDEST PUSH3 0x66D PUSH3 0x664 DUP3 PUSH3 0x640 JUMP JUMPDEST DUP5 DUP5 SLOAD PUSH3 0x5B8 JUMP JUMPDEST DUP3 SSTORE POP POP POP POP JUMP JUMPDEST PUSH1 0x0 SWAP1 JUMP JUMPDEST PUSH3 0x684 PUSH3 0x675 JUMP JUMPDEST PUSH3 0x691 DUP2 DUP5 DUP5 PUSH3 0x64A JUMP JUMPDEST POP POP POP JUMP JUMPDEST JUMPDEST DUP2 DUP2 LT ISZERO PUSH3 0x6B9 JUMPI PUSH3 0x6AD PUSH1 0x0 DUP3 PUSH3 0x67A JUMP JUMPDEST PUSH1 0x1 DUP2 ADD SWAP1 POP PUSH3 0x697 JUMP JUMPDEST POP POP JUMP JUMPDEST PUSH1 0x1F DUP3 GT ISZERO PUSH3 0x708 JUMPI PUSH3 0x6D2 DUP2 PUSH3 0x586 JUMP JUMPDEST PUSH3 0x6DD DUP5 PUSH3 0x59B JUMP JUMPDEST DUP2 ADD PUSH1 0x20 DUP6 LT ISZERO PUSH3 0x6ED JUMPI DUP2 SWAP1 POP JUMPDEST PUSH3 0x705 PUSH3 0x6FC DUP6 PUSH3 0x59B JUMP JUMPDEST DUP4 ADD DUP3 PUSH3 0x696 JUMP JUMPDEST POP POP JUMPDEST POP POP POP JUMP JUMPDEST PUSH1 0x0 DUP3 DUP3 SHR SWAP1 POP SWAP3 SWAP2 POP POP JUMP JUMPDEST PUSH1 0x0 PUSH3 0x72D PUSH1 0x0 NOT DUP5 PUSH1 0x8 MUL PUSH3 0x70D JUMP JUMPDEST NOT DUP1 DUP4 AND SWAP2 POP POP SWAP3 SWAP2 POP POP JUMP JUMPDEST PUSH1 0x0 PUSH3 0x748 DUP4 DUP4 PUSH3 0x71A JUMP JUMPDEST SWAP2 POP DUP3 PUSH1 0x2 MUL DUP3 OR SWAP1 POP SWAP3 SWAP2 POP POP JUMP JUMPDEST PUSH3 0x763 DUP3 PUSH3 0x517 JUMP JUMPDEST PUSH8 0xFFFFFFFFFFFFFFFF DUP2 GT ISZERO PUSH3 0x77F JUMPI PUSH3 0x77E PUSH3 0x228 JUMP JUMPDEST JUMPDEST PUSH3 0x78B DUP3 SLOAD PUSH3 0x551 JUMP JUMPDEST PUSH3 0x798 DUP3 DUP3 DUP6 PUSH3 0x6BD JUMP JUMPDEST PUSH1 0x0 PUSH1 0x20 SWAP1 POP PUSH1 0x1F DUP4 GT PUSH1 0x1 DUP2 EQ PUSH3 0x7D0 JUMPI PUSH1 0x0 DUP5 ISZERO PUSH3 0x7BB JUMPI DUP3 DUP8 ADD MLOAD SWAP1 POP JUMPDEST PUSH3 0x7C7 DUP6 DUP3 PUSH3 0x73A JUMP JUMPDEST DUP7 SSTORE POP PUSH3 0x837 JUMP JUMPDEST PUSH1 0x1F NOT DUP5 AND PUSH3 0x7E0 DUP7 PUSH3 0x586 JUMP JUMPDEST PUSH1 0x0 JUMPDEST DUP3 DUP2 LT ISZERO PUSH3 0x80A JUMPI DUP5 DUP10 ADD MLOAD DUP3 SSTORE PUSH1 0x1 DUP3 ADD SWAP2 POP PUSH1 0x20 DUP6 ADD SWAP5 POP PUSH1 0x20 DUP2 ADD SWAP1 POP PUSH3 0x7E3 JUMP JUMPDEST DUP7 DUP4 LT ISZERO PUSH3 0x82A JUMPI DUP5 DUP10 ADD MLOAD PUSH3 0x826 PUSH1 0x1F DUP10 AND DUP3 PUSH3 0x71A JUMP JUMPDEST DUP4 SSTORE POP JUMPDEST PUSH1 0x1 PUSH1 0x2 DUP9 MUL ADD DUP9 SSTORE POP POP POP JUMPDEST POP POP POP POP POP POP JUMP JUMPDEST PUSH2 0x20E9 DUP1 PUSH3 0x84F PUSH1 0x0 CODECOPY PUSH1 0x0 RETURN INVALID PUSH1 0x80 PUSH1 0x40 MSTORE CALLVALUE DUP1 ISZERO PUSH2 0x10 JUMPI PUSH1 0x0 DUP1 REVERT JUMPDEST POP PUSH1 0x4 CALLDATASIZE LT PUSH2 0x116 JUMPI PUSH1 0x0 CALLDATALOAD PUSH1 0xE0 SHR DUP1 PUSH4 0x9D76EA58 GT PUSH2 0xA2 JUMPI DUP1 PUSH4 0xD4B83992 GT PUSH2 0x71 JUMPI DUP1 PUSH4 0xD4B83992 EQ PUSH2 0x2E9 JUMPI DUP1 PUSH4 0xD9DE1307 EQ PUSH2 0x307 JUMPI DUP1 PUSH4 0xDDA0A81A EQ PUSH2 0x323 JUMPI DUP1 PUSH4 0xF00E6A2A EQ PUSH2 0x341 JUMPI DUP1 PUSH4 0xF5A8492F EQ PUSH2 0x35F JUMPI PUSH2 0x116 JUMP JUMPDEST DUP1 PUSH4 0x9D76EA58 EQ PUSH2 0x273 JUMPI DUP1 PUSH4 0x9FA6A6E3 EQ PUSH2 0x291 JUMPI DUP1 PUSH4 0xC7446565 EQ PUSH2 0x2AF JUMPI DUP1 PUSH4 0xCB7CBB8D EQ PUSH2 0x2CD JUMPI PUSH2 0x116 JUMP JUMPDEST DUP1 PUSH4 0x47535D7B GT PUSH2 0xE9 JUMPI DUP1 PUSH4 0x47535D7B EQ PUSH2 0x1CD JUMPI DUP1 PUSH4 0x58871C46 EQ PUSH2 0x1EB JUMPI DUP1 PUSH4 0x83E49019 EQ PUSH2 0x209 JUMPI DUP1 PUSH4 0x966DAE0E EQ PUSH2 0x239 JUMPI DUP1 PUSH4 0x99AF5CC7 EQ PUSH2 0x257 JUMPI PUSH2 0x116 JUMP JUMPDEST DUP1 PUSH4 0x1CEE0700 EQ PUSH2 0x11B JUMPI DUP1 PUSH4 0x1EF48007 EQ PUSH2 0x14D JUMPI DUP1 PUSH4 0x29DCB0CF EQ PUSH2 0x17F JUMPI DUP1 PUSH4 0x39ECACAC EQ PUSH2 0x19D JUMPI JUMPDEST PUSH1 0x0 DUP1 REVERT JUMPDEST PUSH2 0x135 PUSH1 0x4 DUP1 CALLDATASIZE SUB DUP2 ADD SWAP1 PUSH2 0x130 SWAP2 SWAP1 PUSH2 0x10D1 JUMP JUMPDEST PUSH2 0x37D JUMP JUMPDEST PUSH1 0x40 MLOAD PUSH2 0x144 SWAP4 SWAP3 SWAP2 SWAP1 PUSH2 0x114E JUMP JUMPDEST PUSH1 0x40 MLOAD DUP1 SWAP2 SUB SWAP1 RETURN JUMPDEST PUSH2 0x167 PUSH1 0x4 DUP1 CALLDATASIZE SUB DUP2 ADD SWAP1 PUSH2 0x162 SWAP2 SWAP1 PUSH2 0x10D1 JUMP JUMPDEST PUSH2 0x3D7 JUMP JUMPDEST PUSH1 0x40 MLOAD PUSH2 0x176 SWAP4 SWAP3 SWAP2 SWAP1 PUSH2 0x114E JUMP JUMPDEST PUSH1 0x40 MLOAD DUP1 SWAP2 SUB SWAP1 RETURN JUMPDEST PUSH2 0x187 PUSH2 0x431 JUMP JUMPDEST PUSH1 0x40 MLOAD PUSH2 0x194 SWAP2 SWAP1 PUSH2 0x1185 JUMP JUMPDEST PUSH1 0x40 MLOAD DUP1 SWAP2 SUB SWAP1 RETURN JUMPDEST PUSH2 0x1B7 PUSH1 0x4 DUP1 CALLDATASIZE SUB DUP2 ADD SWAP1 PUSH2 0x1B2 SWAP2 SWAP1 PUSH2 0x11CC JUMP JUMPDEST PUSH2 0x437 JUMP JUMPDEST PUSH1 0x40 MLOAD PUSH2 0x1C4 SWAP2 SWAP1 PUSH2 0x1185 JUMP JUMPDEST PUSH1 0x40 MLOAD DUP1 SWAP2 SUB SWAP1 RETURN JUMPDEST PUSH2 0x1D5 PUSH2 0x74B JUMP JUMPDEST PUSH1 0x40 MLOAD PUSH2 0x1E2 SWAP2 SWAP1 PUSH2 0x1227 JUMP JUMPDEST PUSH1 0x40 MLOAD DUP1 SWAP2 SUB SWAP1 RETURN JUMPDEST PUSH2 0x1F3 PUSH2 0x75E JUMP JUMPDEST PUSH1 0x40 MLOAD PUSH2 0x200 SWAP2 SWAP1 PUSH2 0x12D2 JUMP JUMPDEST PUSH1 0x40 MLOAD DUP1 SWAP2 SUB SWAP1 RETURN JUMPDEST PUSH2 0x223 PUSH1 0x4 DUP1 CALLDATASIZE SUB DUP2 ADD SWAP1 PUSH2 0x21E SWAP2 SWAP1 PUSH2 0x10D1 JUMP JUMPDEST PUSH2 0x7EC JUMP JUMPDEST PUSH1 0x40 MLOAD PUSH2 0x230 SWAP2 SWAP1 PUSH2 0x1185 JUMP JUMPDEST PUSH1 0x40 MLOAD DUP1 SWAP2 SUB SWAP1 RETURN JUMPDEST PUSH2 0x241 PUSH2 0x84E JUMP JUMPDEST PUSH1 0x40 MLOAD PUSH2 0x24E SWAP2 SWAP1 PUSH2 0x12F4 JUMP JUMPDEST PUSH1 0x40 MLOAD DUP1 SWAP2 SUB SWAP1 RETURN JUMPDEST PUSH2 0x271 PUSH1 0x4 DUP1 CALLDATASIZE SUB DUP2 ADD SWAP1 PUSH2 0x26C SWAP2 SWAP1 PUSH2 0x130F JUMP JUMPDEST PUSH2 0x874 JUMP JUMPDEST STOP JUMPDEST PUSH2 0x27B PUSH2 0x99E JUMP JUMPDEST PUSH1 0x40 MLOAD PUSH2 0x288 SWAP2 SWAP1 PUSH2 0x12F4 JUMP JUMPDEST PUSH1 0x40 MLOAD DUP1 SWAP2 SUB SWAP1 RETURN JUMPDEST PUSH2 0x299 PUSH2 0x9C4 JUMP JUMPDEST PUSH1 0x40 MLOAD PUSH2 0x2A6 SWAP2 SWAP1 PUSH2 0x1185 JUMP JUMPDEST PUSH1 0x40 MLOAD DUP1 SWAP2 SUB SWAP1 RETURN JUMPDEST PUSH2 0x2B7 PUSH2 0x9CA JUMP JUMPDEST PUSH1 0x40 MLOAD PUSH2 0x2C4 SWAP2 SWAP1 PUSH2 0x1185 JUMP JUMPDEST PUSH1 0x40 MLOAD DUP1 SWAP2 SUB SWAP1 RETURN JUMPDEST PUSH2 0x2E7 PUSH1 0x4 DUP1 CALLDATASIZE SUB DUP2 ADD SWAP1 PUSH2 0x2E2 SWAP2 SWAP1 PUSH2 0x1484 JUMP JUMPDEST PUSH2 0x9D0 JUMP JUMPDEST STOP JUMPDEST PUSH2 0x2F1 PUSH2 0x9E3 JUMP JUMPDEST PUSH1 0x40 MLOAD PUSH2 0x2FE SWAP2 SWAP1 PUSH2 0x1185 JUMP JUMPDEST PUSH1 0x40 MLOAD DUP1 SWAP2 SUB SWAP1 RETURN JUMPDEST PUSH2 0x321 PUSH1 0x4 DUP1 CALLDATASIZE SUB DUP2 ADD SWAP1 PUSH2 0x31C SWAP2 SWAP1 PUSH2 0x11CC JUMP JUMPDEST PUSH2 0x9E9 JUMP JUMPDEST STOP JUMPDEST PUSH2 0x32B PUSH2 0xB9B JUMP JUMPDEST PUSH1 0x40 MLOAD PUSH2 0x338 SWAP2 SWAP1 PUSH2 0x15DC JUMP JUMPDEST PUSH1 0x40 MLOAD DUP1 SWAP2 SUB SWAP1 RETURN JUMPDEST PUSH2 0x349 PUSH2 0xC64 JUMP JUMPDEST PUSH1 0x40 MLOAD PUSH2 0x356 SWAP2 SWAP1 PUSH2 0x1185 JUMP JUMPDEST PUSH1 0x40 MLOAD DUP1 SWAP2 SUB SWAP1 RETURN JUMPDEST PUSH2 0x367 PUSH2 0xC6E JUMP JUMPDEST PUSH1 0x40 MLOAD PUSH2 0x374 SWAP2 SWAP1 PUSH2 0x12F4 JUMP JUMPDEST PUSH1 0x40 MLOAD DUP1 SWAP2 SUB SWAP1 RETURN JUMPDEST PUSH1 0x8 DUP2 DUP2 SLOAD DUP2 LT PUSH2 0x38D JUMPI PUSH1 0x0 DUP1 REVERT JUMPDEST SWAP1 PUSH1 0x0 MSTORE PUSH1 0x20 PUSH1 0x0 KECCAK256 SWAP1 PUSH1 0x3 MUL ADD PUSH1 0x0 SWAP2 POP SWAP1 POP DUP1 PUSH1 0x0 ADD PUSH1 0x0 SWAP1 SLOAD SWAP1 PUSH2 0x100 EXP SWAP1 DIV PUSH20 0xFFFFFFFFFFFFFFFFFFFFFFFFFFFFFFFFFFFFFFFF AND SWAP1 DUP1 PUSH1 0x1 ADD SLOAD SWAP1 DUP1 PUSH1 0x2 ADD SLOAD SWAP1 POP DUP4 JUMP JUMPDEST PUSH1 0x9 DUP2 DUP2 SLOAD DUP2 LT PUSH2 0x3E7 JUMPI PUSH1 0x0 DUP1 REVERT JUMPDEST SWAP1 PUSH1 0x0 MSTORE PUSH1 0x20 PUSH1 0x0 KECCAK256 SWAP1 PUSH1 0x3 MUL ADD PUSH1 0x0 SWAP2 POP SWAP1 POP DUP1 PUSH1 0x0 ADD PUSH1 0x0 SWAP1 SLOAD SWAP1 PUSH2 0x100 EXP SWAP1 DIV PUSH20 0xFFFFFFFFFFFFFFFFFFFFFFFFFFFFFFFFFFFFFFFF AND SWAP1 DUP1 PUSH1 0x1 ADD SLOAD SWAP1 DUP1 PUSH1 0x2 ADD SLOAD SWAP1 POP DUP4 JUMP JUMPDEST PUSH1 0x3 SLOAD DUP2 JUMP JUMPDEST PUSH1 0x0 PUSH1 0x3 SLOAD TIMESTAMP LT PUSH2 0x47D JUMPI PUSH1 0x40 MLOAD PUSH32 0x8C379A000000000000000000000000000000000000000000000000000000000 DUP2 MSTORE PUSH1 0x4 ADD PUSH2 0x474 SWAP1 PUSH2 0x1670 JUMP JUMPDEST PUSH1 0x40 MLOAD DUP1 SWAP2 SUB SWAP1 REVERT JUMPDEST PUSH1 0x7 PUSH1 0x0 SWAP1 SLOAD SWAP1 PUSH2 0x100 EXP SWAP1 DIV PUSH20 0xFFFFFFFFFFFFFFFFFFFFFFFFFFFFFFFFFFFFFFFF AND PUSH20 0xFFFFFFFFFFFFFFFFFFFFFFFFFFFFFFFFFFFFFFFF AND CALLER PUSH20 0xFFFFFFFFFFFFFFFFFFFFFFFFFFFFFFFFFFFFFFFF AND EQ PUSH2 0x50D JUMPI PUSH1 0x40 MLOAD PUSH32 0x8C379A000000000000000000000000000000000000000000000000000000000 DUP2 MSTORE PUSH1 0x4 ADD PUSH2 0x504 SWAP1 PUSH2 0x16DC JUMP JUMPDEST PUSH1 0x40 MLOAD DUP1 SWAP2 SUB SWAP1 REVERT JUMPDEST PUSH1 0x5 PUSH1 0x0 SWAP1 SLOAD SWAP1 PUSH2 0x100 EXP SWAP1 DIV PUSH1 0xFF AND PUSH2 0x55C JUMPI PUSH1 0x40 MLOAD PUSH32 0x8C379A000000000000000000000000000000000000000000000000000000000 DUP2 MSTORE PUSH1 0x4 ADD PUSH2 0x553 SWAP1 PUSH2 0x176E JUMP JUMPDEST PUSH1 0x40 MLOAD DUP1 SWAP2 SUB SWAP1 REVERT JUMPDEST PUSH1 0x0 DUP3 GT PUSH2 0x59F JUMPI PUSH1 0x40 MLOAD PUSH32 0x8C379A000000000000000000000000000000000000000000000000000000000 DUP2 MSTORE PUSH1 0x4 ADD PUSH2 0x596 SWAP1 PUSH2 0x1800 JUMP JUMPDEST PUSH1 0x40 MLOAD DUP1 SWAP2 SUB SWAP1 REVERT JUMPDEST PUSH1 0x1 SLOAD PUSH1 0x2 SLOAD LT PUSH2 0x5E5 JUMPI PUSH1 0x40 MLOAD PUSH32 0x8C379A000000000000000000000000000000000000000000000000000000000 DUP2 MSTORE PUSH1 0x4 ADD PUSH2 0x5DC SWAP1 PUSH2 0x1892 JUMP JUMPDEST PUSH1 0x40 MLOAD DUP1 SWAP2 SUB SWAP1 REVERT JUMPDEST PUSH2 0x5EE DUP3 PUSH2 0x7EC JUMP JUMPDEST SWAP1 POP PUSH2 0x5F9 DUP2 PUSH2 0xC94 JUMP JUMPDEST DUP1 PUSH1 0x2 PUSH1 0x0 DUP3 DUP3 SLOAD PUSH2 0x60B SWAP2 SWAP1 PUSH2 0x18E1 JUMP JUMPDEST SWAP3 POP POP DUP2 SWAP1 SSTORE POP PUSH2 0x61A PUSH2 0x1046 JUMP JUMPDEST DUP4 DUP2 PUSH1 0x0 ADD SWAP1 PUSH20 0xFFFFFFFFFFFFFFFFFFFFFFFFFFFFFFFFFFFFFFFF AND SWAP1 DUP2 PUSH20 0xFFFFFFFFFFFFFFFFFFFFFFFFFFFFFFFFFFFFFFFF AND DUP2 MSTORE POP POP DUP2 DUP2 PUSH1 0x20 ADD DUP2 DUP2 MSTORE POP POP TIMESTAMP DUP2 PUSH1 0x40 ADD DUP2 DUP2 MSTORE POP POP PUSH1 0x8 DUP2 SWAP1 DUP1 PUSH1 0x1 DUP2 SLOAD ADD DUP1 DUP3 SSTORE DUP1 SWAP2 POP POP PUSH1 0x1 SWAP1 SUB SWAP1 PUSH1 0x0 MSTORE PUSH1 0x20 PUSH1 0x0 KECCAK256 SWAP1 PUSH1 0x3 MUL ADD PUSH1 0x0 SWAP1 SWAP2 SWAP1 SWAP2 SWAP1 SWAP2 POP PUSH1 0x0 DUP3 ADD MLOAD DUP2 PUSH1 0x0 ADD PUSH1 0x0 PUSH2 0x100 EXP DUP2 SLOAD DUP2 PUSH20 0xFFFFFFFFFFFFFFFFFFFFFFFFFFFFFFFFFFFFFFFF MUL NOT AND SWAP1 DUP4 PUSH20 0xFFFFFFFFFFFFFFFFFFFFFFFFFFFFFFFFFFFFFFFF AND MUL OR SWAP1 SSTORE POP PUSH1 0x20 DUP3 ADD MLOAD DUP2 PUSH1 0x1 ADD SSTORE PUSH1 0x40 DUP3 ADD MLOAD DUP2 PUSH1 0x2 ADD SSTORE POP POP PUSH2 0x71D PUSH1 0x6 PUSH1 0x0 SWAP1 SLOAD SWAP1 PUSH2 0x100 EXP SWAP1 DIV PUSH20 0xFFFFFFFFFFFFFFFFFFFFFFFFFFFFFFFFFFFFFFFF AND DUP6 ADDRESS DUP6 PUSH2 0xD2D JUMP JUMPDEST PUSH1 0x1 SLOAD PUSH1 0x2 SLOAD LT PUSH2 0x744 JUMPI PUSH1 0x0 PUSH1 0x5 PUSH1 0x0 PUSH2 0x100 EXP DUP2 SLOAD DUP2 PUSH1 0xFF MUL NOT AND SWAP1 DUP4 ISZERO ISZERO MUL OR SWAP1 SSTORE POP JUMPDEST POP SWAP3 SWAP2 POP POP JUMP JUMPDEST PUSH1 0x5 PUSH1 0x0 SWAP1 SLOAD SWAP1 PUSH2 0x100 EXP SWAP1 DIV PUSH1 0xFF AND DUP2 JUMP JUMPDEST PUSH1 0x0 DUP1 SLOAD PUSH2 0x76B SWAP1 PUSH2 0x1944 JUMP JUMPDEST DUP1 PUSH1 0x1F ADD PUSH1 0x20 DUP1 SWAP2 DIV MUL PUSH1 0x20 ADD PUSH1 0x40 MLOAD SWAP1 DUP2 ADD PUSH1 0x40 MSTORE DUP1 SWAP3 SWAP2 SWAP1 DUP2 DUP2 MSTORE PUSH1 0x20 ADD DUP3 DUP1 SLOAD PUSH2 0x797 SWAP1 PUSH2 0x1944 JUMP JUMPDEST DUP1 ISZERO PUSH2 0x7E4 JUMPI DUP1 PUSH1 0x1F LT PUSH2 0x7B9 JUMPI PUSH2 0x100 DUP1 DUP4 SLOAD DIV MUL DUP4 MSTORE SWAP2 PUSH1 0x20 ADD SWAP2 PUSH2 0x7E4 JUMP JUMPDEST DUP3 ADD SWAP2 SWAP1 PUSH1 0x0 MSTORE PUSH1 0x20 PUSH1 0x0 KECCAK256 SWAP1 JUMPDEST DUP2 SLOAD DUP2 MSTORE SWAP1 PUSH1 0x1 ADD SWAP1 PUSH1 0x20 ADD DUP1 DUP4 GT PUSH2 0x7C7 JUMPI DUP3 SWAP1 SUB PUSH1 0x1F AND DUP3 ADD SWAP2 JUMPDEST POP POP POP POP POP DUP2 JUMP JUMPDEST PUSH1 0x0 PUSH1 0x1 SLOAD PUSH1 0x2 SLOAD LT PUSH2 0x802 JUMPI PUSH1 0x0 SWAP1 POP PUSH2 0x849 JUMP JUMPDEST PUSH1 0x3 SLOAD TIMESTAMP GT ISZERO PUSH2 0x815 JUMPI PUSH1 0x0 SWAP1 POP PUSH2 0x849 JUMP JUMPDEST PUSH1 0x0 DUP3 SWAP1 POP PUSH1 0x1 SLOAD DUP2 PUSH1 0x2 SLOAD PUSH2 0x82B SWAP2 SWAP1 PUSH2 0x18E1 JUMP JUMPDEST GT ISZERO PUSH2 0x844 JUMPI PUSH1 0x2 SLOAD PUSH1 0x1 SLOAD PUSH2 0x841 SWAP2 SWAP1 PUSH2 0x1975 JUMP JUMPDEST SWAP1 POP JUMPDEST DUP1 SWAP2 POP POP JUMPDEST SWAP2 SWAP1 POP JUMP JUMPDEST PUSH1 0x7 PUSH1 0x0 SWAP1 SLOAD SWAP1 PUSH2 0x100 EXP SWAP1 DIV PUSH20 0xFFFFFFFFFFFFFFFFFFFFFFFFFFFFFFFFFFFFFFFF AND DUP2 JUMP JUMPDEST PUSH1 0x5 PUSH1 0x1 SWAP1 SLOAD SWAP1 PUSH2 0x100 EXP SWAP1 DIV PUSH20 0xFFFFFFFFFFFFFFFFFFFFFFFFFFFFFFFFFFFFFFFF AND PUSH20 0xFFFFFFFFFFFFFFFFFFFFFFFFFFFFFFFFFFFFFFFF AND CALLER PUSH20 0xFFFFFFFFFFFFFFFFFFFFFFFFFFFFFFFFFFFFFFFF AND EQ PUSH2 0x904 JUMPI PUSH1 0x40 MLOAD PUSH32 0x8C379A000000000000000000000000000000000000000000000000000000000 DUP2 MSTORE PUSH1 0x4 ADD PUSH2 0x8FB SWAP1 PUSH2 0x19F5 JUMP JUMPDEST PUSH1 0x40 MLOAD DUP1 SWAP2 SUB SWAP1 REVERT JUMPDEST PUSH1 0x2 SLOAD DUP3 GT PUSH2 0x948 JUMPI PUSH1 0x40 MLOAD PUSH32 0x8C379A000000000000000000000000000000000000000000000000000000000 DUP2 MSTORE PUSH1 0x4 ADD PUSH2 0x93F SWAP1 PUSH2 0x1A87 JUMP JUMPDEST PUSH1 0x40 MLOAD DUP1 SWAP2 SUB SWAP1 REVERT JUMPDEST PUSH1 0x3 SLOAD DUP2 GT PUSH2 0x98C JUMPI PUSH1 0x40 MLOAD PUSH32 0x8C379A000000000000000000000000000000000000000000000000000000000 DUP2 MSTORE PUSH1 0x4 ADD PUSH2 0x983 SWAP1 PUSH2 0x1B19 JUMP JUMPDEST PUSH1 0x40 MLOAD DUP1 SWAP2 SUB SWAP1 REVERT JUMPDEST DUP2 PUSH1 0x1 DUP2 SWAP1 SSTORE POP DUP1 PUSH1 0x3 DUP2 SWAP1 SSTORE POP POP POP JUMP JUMPDEST PUSH1 0x6 PUSH1 0x0 SWAP1 SLOAD SWAP1 PUSH2 0x100 EXP SWAP1 DIV PUSH20 0xFFFFFFFFFFFFFFFFFFFFFFFFFFFFFFFFFFFFFFFF AND DUP2 JUMP JUMPDEST PUSH1 0x2 SLOAD DUP2 JUMP JUMPDEST PUSH1 0x4 SLOAD DUP2 JUMP JUMPDEST DUP1 PUSH1 0x0 SWAP1 DUP2 PUSH2 0x9DF SWAP2 SWAP1 PUSH2 0x1CE5 JUMP JUMPDEST POP POP JUMP JUMPDEST PUSH1 0x1 SLOAD DUP2 JUMP JUMPDEST PUSH1 0x7 PUSH1 0x0 SWAP1 SLOAD SWAP1 PUSH2 0x100 EXP SWAP1 DIV PUSH20 0xFFFFFFFFFFFFFFFFFFFFFFFFFFFFFFFFFFFFFFFF AND PUSH20 0xFFFFFFFFFFFFFFFFFFFFFFFFFFFFFFFFFFFFFFFF AND CALLER PUSH20 0xFFFFFFFFFFFFFFFFFFFFFFFFFFFFFFFFFFFFFFFF AND EQ PUSH2 0xA79 JUMPI PUSH1 0x40 MLOAD PUSH32 0x8C379A000000000000000000000000000000000000000000000000000000000 DUP2 MSTORE PUSH1 0x4 ADD PUSH2 0xA70 SWAP1 PUSH2 0x16DC JUMP JUMPDEST PUSH1 0x40 MLOAD DUP1 SWAP2 SUB SWAP1 REVERT JUMPDEST PUSH1 0x5 PUSH1 0x0 SWAP1 SLOAD SWAP1 PUSH2 0x100 EXP SWAP1 DIV PUSH1 0xFF AND ISZERO PUSH2 0xAC9 JUMPI PUSH1 0x40 MLOAD PUSH32 0x8C379A000000000000000000000000000000000000000000000000000000000 DUP2 MSTORE PUSH1 0x4 ADD PUSH2 0xAC0 SWAP1 PUSH2 0x1E29 JUMP JUMPDEST PUSH1 0x40 MLOAD DUP1 SWAP2 SUB SWAP1 REVERT JUMPDEST PUSH1 0x0 DUP2 GT PUSH2 0xB0C JUMPI PUSH1 0x40 MLOAD PUSH32 0x8C379A000000000000000000000000000000000000000000000000000000000 DUP2 MSTORE PUSH1 0x4 ADD PUSH2 0xB03 SWAP1 PUSH2 0x1EBB JUMP JUMPDEST PUSH1 0x40 MLOAD DUP1 SWAP2 SUB SWAP1 REVERT JUMPDEST DUP1 PUSH1 0x2 SLOAD LT ISZERO PUSH2 0xB51 JUMPI PUSH1 0x40 MLOAD PUSH32 0x8C379A000000000000000000000000000000000000000000000000000000000 DUP2 MSTORE PUSH1 0x4 ADD PUSH2 0xB48 SWAP1 PUSH2 0x1F4D JUMP JUMPDEST PUSH1 0x40 MLOAD DUP1 SWAP2 SUB SWAP1 REVERT JUMPDEST DUP1 PUSH1 0x2 PUSH1 0x0 DUP3 DUP3 SLOAD PUSH2 0xB63 SWAP2 SWAP1 PUSH2 0x1975 JUMP JUMPDEST SWAP3 POP POP DUP2 SWAP1 SSTORE POP PUSH2 0xB97 PUSH1 0x6 PUSH1 0x0 SWAP1 SLOAD SWAP1 PUSH2 0x100 EXP SWAP1 DIV PUSH20 0xFFFFFFFFFFFFFFFFFFFFFFFFFFFFFFFFFFFFFFFF AND DUP4 DUP4 PUSH2 0xE98 JUMP JUMPDEST POP POP JUMP JUMPDEST PUSH1 0x60 PUSH1 0x8 DUP1 SLOAD DUP1 PUSH1 0x20 MUL PUSH1 0x20 ADD PUSH1 0x40 MLOAD SWAP1 DUP2 ADD PUSH1 0x40 MSTORE DUP1 SWAP3 SWAP2 SWAP1 DUP2 DUP2 MSTORE PUSH1 0x20 ADD PUSH1 0x0 SWAP1 JUMPDEST DUP3 DUP3 LT ISZERO PUSH2 0xC5B JUMPI DUP4 DUP3 SWAP1 PUSH1 0x0 MSTORE PUSH1 0x20 PUSH1 0x0 KECCAK256 SWAP1 PUSH1 0x3 MUL ADD PUSH1 0x40 MLOAD DUP1 PUSH1 0x60 ADD PUSH1 0x40 MSTORE SWAP1 DUP2 PUSH1 0x0 DUP3 ADD PUSH1 0x0 SWAP1 SLOAD SWAP1 PUSH2 0x100 EXP SWAP1 DIV PUSH20 0xFFFFFFFFFFFFFFFFFFFFFFFFFFFFFFFFFFFFFFFF AND PUSH20 0xFFFFFFFFFFFFFFFFFFFFFFFFFFFFFFFFFFFFFFFF AND PUSH20 0xFFFFFFFFFFFFFFFFFFFFFFFFFFFFFFFFFFFFFFFF AND DUP2 MSTORE PUSH1 0x20 ADD PUSH1 0x1 DUP3 ADD SLOAD DUP2 MSTORE PUSH1 0x20 ADD PUSH1 0x2 DUP3 ADD SLOAD DUP2 MSTORE POP POP DUP2 MSTORE PUSH1 0x20 ADD SWAP1 PUSH1 0x1 ADD SWAP1 PUSH2 0xBBF JUMP JUMPDEST POP POP POP POP SWAP1 POP SWAP1 JUMP JUMPDEST PUSH1 0x0 PUSH1 0x1 SLOAD SWAP1 POP SWAP1 JUMP JUMPDEST PUSH1 0x5 PUSH1 0x1 SWAP1 SLOAD SWAP1 PUSH2 0x100 EXP SWAP1 DIV PUSH20 0xFFFFFFFFFFFFFFFFFFFFFFFFFFFFFFFFFFFFFFFF AND DUP2 JUMP JUMPDEST PUSH2 0xD2A DUP2 PUSH1 0x40 MLOAD PUSH1 0x24 ADD PUSH2 0xCA8 SWAP2 SWAP1 PUSH2 0x1185 JUMP JUMPDEST PUSH1 0x40 MLOAD PUSH1 0x20 DUP2 DUP4 SUB SUB DUP2 MSTORE SWAP1 PUSH1 0x40 MSTORE PUSH32 0xF82C50F100000000000000000000000000000000000000000000000000000000 PUSH28 0xFFFFFFFFFFFFFFFFFFFFFFFFFFFFFFFFFFFFFFFFFFFFFFFFFFFFFFFF NOT AND PUSH1 0x20 DUP3 ADD DUP1 MLOAD PUSH28 0xFFFFFFFFFFFFFFFFFFFFFFFFFFFFFFFFFFFFFFFFFFFFFFFFFFFFFFFF DUP4 DUP2 DUP4 AND OR DUP4 MSTORE POP POP POP POP PUSH2 0x1000 JUMP JUMPDEST POP JUMP JUMPDEST PUSH1 0x0 DUP1 DUP6 PUSH20 0xFFFFFFFFFFFFFFFFFFFFFFFFFFFFFFFFFFFFFFFF AND DUP6 DUP6 DUP6 PUSH1 0x40 MLOAD PUSH1 0x24 ADD PUSH2 0xD5C SWAP4 SWAP3 SWAP2 SWAP1 PUSH2 0x1F6D JUMP JUMPDEST PUSH1 0x40 MLOAD PUSH1 0x20 DUP2 DUP4 SUB SUB DUP2 MSTORE SWAP1 PUSH1 0x40 MSTORE PUSH32 0x23B872DD00000000000000000000000000000000000000000000000000000000 PUSH28 0xFFFFFFFFFFFFFFFFFFFFFFFFFFFFFFFFFFFFFFFFFFFFFFFFFFFFFFFF NOT AND PUSH1 0x20 DUP3 ADD DUP1 MLOAD PUSH28 0xFFFFFFFFFFFFFFFFFFFFFFFFFFFFFFFFFFFFFFFFFFFFFFFFFFFFFFFF DUP4 DUP2 DUP4 AND OR DUP4 MSTORE POP POP POP POP PUSH1 0x40 MLOAD PUSH2 0xDE6 SWAP2 SWAP1 PUSH2 0x1FEB JUMP JUMPDEST PUSH1 0x0 PUSH1 0x40 MLOAD DUP1 DUP4 SUB DUP2 PUSH1 0x0 DUP7 GAS CALL SWAP2 POP POP RETURNDATASIZE DUP1 PUSH1 0x0 DUP2 EQ PUSH2 0xE23 JUMPI PUSH1 0x40 MLOAD SWAP2 POP PUSH1 0x1F NOT PUSH1 0x3F RETURNDATASIZE ADD AND DUP3 ADD PUSH1 0x40 MSTORE RETURNDATASIZE DUP3 MSTORE RETURNDATASIZE PUSH1 0x0 PUSH1 0x20 DUP5 ADD RETURNDATACOPY PUSH2 0xE28 JUMP JUMPDEST PUSH1 0x60 SWAP2 POP JUMPDEST POP SWAP2 POP SWAP2 POP DUP2 ISZERO DUP1 PUSH2 0xE59 JUMPI POP PUSH1 0x0 DUP2 MLOAD EQ ISZERO DUP1 ISZERO PUSH2 0xE58 JUMPI POP DUP1 DUP1 PUSH1 0x20 ADD SWAP1 MLOAD DUP2 ADD SWAP1 PUSH2 0xE56 SWAP2 SWAP1 PUSH2 0x202E JUMP JUMPDEST ISZERO JUMPDEST JUMPDEST ISZERO PUSH2 0xE90 JUMPI PUSH1 0x40 MLOAD PUSH32 0xFB7F507900000000000000000000000000000000000000000000000000000000 DUP2 MSTORE PUSH1 0x4 ADD PUSH1 0x40 MLOAD DUP1 SWAP2 SUB SWAP1 REVERT JUMPDEST POP POP POP POP POP POP JUMP JUMPDEST PUSH1 0x0 DUP1 DUP5 PUSH20 0xFFFFFFFFFFFFFFFFFFFFFFFFFFFFFFFFFFFFFFFF AND DUP5 DUP5 PUSH1 0x40 MLOAD PUSH1 0x24 ADD PUSH2 0xEC5 SWAP3 SWAP2 SWAP1 PUSH2 0x205B JUMP JUMPDEST PUSH1 0x40 MLOAD PUSH1 0x20 DUP2 DUP4 SUB SUB DUP2 MSTORE SWAP1 PUSH1 0x40 MSTORE PUSH32 0xA9059CBB00000000000000000000000000000000000000000000000000000000 PUSH28 0xFFFFFFFFFFFFFFFFFFFFFFFFFFFFFFFFFFFFFFFFFFFFFFFFFFFFFFFF NOT AND PUSH1 0x20 DUP3 ADD DUP1 MLOAD PUSH28 0xFFFFFFFFFFFFFFFFFFFFFFFFFFFFFFFFFFFFFFFFFFFFFFFFFFFFFFFF DUP4 DUP2 DUP4 AND OR DUP4 MSTORE POP POP POP POP PUSH1 0x40 MLOAD PUSH2 0xF4F SWAP2 SWAP1 PUSH2 0x1FEB JUMP JUMPDEST PUSH1 0x0 PUSH1 0x40 MLOAD DUP1 DUP4 SUB DUP2 PUSH1 0x0 DUP7 GAS CALL SWAP2 POP POP RETURNDATASIZE DUP1 PUSH1 0x0 DUP2 EQ PUSH2 0xF8C JUMPI PUSH1 0x40 MLOAD SWAP2 POP PUSH1 0x1F NOT PUSH1 0x3F RETURNDATASIZE ADD AND DUP3 ADD PUSH1 0x40 MSTORE RETURNDATASIZE DUP3 MSTORE RETURNDATASIZE PUSH1 0x0 PUSH1 0x20 DUP5 ADD RETURNDATACOPY PUSH2 0xF91 JUMP JUMPDEST PUSH1 0x60 SWAP2 POP JUMPDEST POP SWAP2 POP SWAP2 POP DUP2 ISZERO DUP1 PUSH2 0xFC2 JUMPI POP PUSH1 0x0 DUP2 MLOAD EQ ISZERO DUP1 ISZERO PUSH2 0xFC1 JUMPI POP DUP1 DUP1 PUSH1 0x20 ADD SWAP1 MLOAD DUP2 ADD SWAP1 PUSH2 0xFBF SWAP2 SWAP1 PUSH2 0x202E JUMP JUMPDEST ISZERO JUMPDEST JUMPDEST ISZERO PUSH2 0xFF9 JUMPI PUSH1 0x40 MLOAD PUSH32 0xFB7F507900000000000000000000000000000000000000000000000000000000 DUP2 MSTORE PUSH1 0x4 ADD PUSH1 0x40 MLOAD DUP1 SWAP2 SUB SWAP1 REVERT JUMPDEST POP POP POP POP POP JUMP JUMPDEST PUSH2 0x1017 DUP2 PUSH2 0x100F PUSH2 0x101A PUSH2 0x103B JUMP JUMPDEST PUSH4 0xFFFFFFFF AND JUMP JUMPDEST POP JUMP JUMPDEST PUSH1 0x0 PUSH11 0x636F6E736F6C652E6C6F67 SWAP1 POP PUSH1 0x0 DUP1 DUP4 MLOAD PUSH1 0x20 DUP6 ADD DUP5 GAS STATICCALL POP POP POP JUMP JUMPDEST PUSH2 0x107D DUP2 SWAP1 POP SWAP2 SWAP1 POP JUMP JUMPDEST PUSH1 0x40 MLOAD DUP1 PUSH1 0x60 ADD PUSH1 0x40 MSTORE DUP1 PUSH1 0x0 PUSH20 0xFFFFFFFFFFFFFFFFFFFFFFFFFFFFFFFFFFFFFFFF AND DUP2 MSTORE PUSH1 0x20 ADD PUSH1 0x0 DUP2 MSTORE PUSH1 0x20 ADD PUSH1 0x0 DUP2 MSTORE POP SWAP1 JUMP JUMPDEST PUSH2 0x1085 PUSH2 0x2084 JUMP JUMPDEST JUMP JUMPDEST PUSH1 0x0 PUSH1 0x40 MLOAD SWAP1 POP SWAP1 JUMP JUMPDEST PUSH1 0x0 DUP1 REVERT JUMPDEST PUSH1 0x0 DUP1 REVERT JUMPDEST PUSH1 0x0 DUP2 SWAP1 POP SWAP2 SWAP1 POP JUMP JUMPDEST PUSH2 0x10AE DUP2 PUSH2 0x109B JUMP JUMPDEST DUP2 EQ PUSH2 0x10B9 JUMPI PUSH1 0x0 DUP1 REVERT JUMPDEST POP JUMP JUMPDEST PUSH1 0x0 DUP2 CALLDATALOAD SWAP1 POP PUSH2 0x10CB DUP2 PUSH2 0x10A5 JUMP JUMPDEST SWAP3 SWAP2 POP POP JUMP JUMPDEST PUSH1 0x0 PUSH1 0x20 DUP3 DUP5 SUB SLT ISZERO PUSH2 0x10E7 JUMPI PUSH2 0x10E6 PUSH2 0x1091 JUMP JUMPDEST JUMPDEST PUSH1 0x0 PUSH2 0x10F5 DUP5 DUP3 DUP6 ADD PUSH2 0x10BC JUMP JUMPDEST SWAP2 POP POP SWAP3 SWAP2 POP POP JUMP JUMPDEST PUSH1 0x0 PUSH20 0xFFFFFFFFFFFFFFFFFFFFFFFFFFFFFFFFFFFFFFFF DUP3 AND SWAP1 POP SWAP2 SWAP1 POP JUMP JUMPDEST PUSH1 0x0 PUSH2 0x1129 DUP3 PUSH2 0x10FE JUMP JUMPDEST SWAP1 POP SWAP2 SWAP1 POP JUMP JUMPDEST PUSH2 0x1139 DUP2 PUSH2 0x111E JUMP JUMPDEST DUP3 MSTORE POP POP JUMP JUMPDEST PUSH2 0x1148 DUP2 PUSH2 0x109B JUMP JUMPDEST DUP3 MSTORE POP POP JUMP JUMPDEST PUSH1 0x0 PUSH1 0x60 DUP3 ADD SWAP1 POP PUSH2 0x1163 PUSH1 0x0 DUP4 ADD DUP7 PUSH2 0x1130 JUMP JUMPDEST PUSH2 0x1170 PUSH1 0x20 DUP4 ADD DUP6 PUSH2 0x113F JUMP JUMPDEST PUSH2 0x117D PUSH1 0x40 DUP4 ADD DUP5 PUSH2 0x113F JUMP JUMPDEST SWAP5 SWAP4 POP POP POP POP JUMP JUMPDEST PUSH1 0x0 PUSH1 0x20 DUP3 ADD SWAP1 POP PUSH2 0x119A PUSH1 0x0 DUP4 ADD DUP5 PUSH2 0x113F JUMP JUMPDEST SWAP3 SWAP2 POP POP JUMP JUMPDEST PUSH2 0x11A9 DUP2 PUSH2 0x111E JUMP JUMPDEST DUP2 EQ PUSH2 0x11B4 JUMPI PUSH1 0x0 DUP1 REVERT JUMPDEST POP JUMP JUMPDEST PUSH1 0x0 DUP2 CALLDATALOAD SWAP1 POP PUSH2 0x11C6 DUP2 PUSH2 0x11A0 JUMP JUMPDEST SWAP3 SWAP2 POP POP JUMP JUMPDEST PUSH1 0x0 DUP1 PUSH1 0x40 DUP4 DUP6 SUB SLT ISZERO PUSH2 0x11E3 JUMPI PUSH2 0x11E2 PUSH2 0x1091 JUMP JUMPDEST JUMPDEST PUSH1 0x0 PUSH2 0x11F1 DUP6 DUP3 DUP7 ADD PUSH2 0x11B7 JUMP JUMPDEST SWAP3 POP POP PUSH1 0x20 PUSH2 0x1202 DUP6 DUP3 DUP7 ADD PUSH2 0x10BC JUMP JUMPDEST SWAP2 POP POP SWAP3 POP SWAP3 SWAP1 POP JUMP JUMPDEST PUSH1 0x0 DUP2 ISZERO ISZERO SWAP1 POP SWAP2 SWAP1 POP JUMP JUMPDEST PUSH2 0x1221 DUP2 PUSH2 0x120C JUMP JUMPDEST DUP3 MSTORE POP POP JUMP JUMPDEST PUSH1 0x0 PUSH1 0x20 DUP3 ADD SWAP1 POP PUSH2 0x123C PUSH1 0x0 DUP4 ADD DUP5 PUSH2 0x1218 JUMP JUMPDEST SWAP3 SWAP2 POP POP JUMP JUMPDEST PUSH1 0x0 DUP2 MLOAD SWAP1 POP SWAP2 SWAP1 POP JUMP JUMPDEST PUSH1 0x0 DUP3 DUP3 MSTORE PUSH1 0x20 DUP3 ADD SWAP1 POP SWAP3 SWAP2 POP POP JUMP JUMPDEST PUSH1 0x0 JUMPDEST DUP4 DUP2 LT ISZERO PUSH2 0x127C JUMPI DUP1 DUP3 ADD MLOAD DUP2 DUP5 ADD MSTORE PUSH1 0x20 DUP2 ADD SWAP1 POP PUSH2 0x1261 JUMP JUMPDEST PUSH1 0x0 DUP5 DUP5 ADD MSTORE POP POP POP POP JUMP JUMPDEST PUSH1 0x0 PUSH1 0x1F NOT PUSH1 0x1F DUP4 ADD AND SWAP1 POP SWAP2 SWAP1 POP JUMP JUMPDEST PUSH1 0x0 PUSH2 0x12A4 DUP3 PUSH2 0x1242 JUMP JUMPDEST PUSH2 0x12AE DUP2 DUP6 PUSH2 0x124D JUMP JUMPDEST SWAP4 POP PUSH2 0x12BE DUP2 DUP6 PUSH1 0x20 DUP7 ADD PUSH2 0x125E JUMP JUMPDEST PUSH2 0x12C7 DUP2 PUSH2 0x1288 JUMP JUMPDEST DUP5 ADD SWAP2 POP POP SWAP3 SWAP2 POP POP JUMP JUMPDEST PUSH1 0x0 PUSH1 0x20 DUP3 ADD SWAP1 POP DUP2 DUP2 SUB PUSH1 0x0 DUP4 ADD MSTORE PUSH2 0x12EC DUP2 DUP5 PUSH2 0x1299 JUMP JUMPDEST SWAP1 POP SWAP3 SWAP2 POP POP JUMP JUMPDEST PUSH1 0x0 PUSH1 0x20 DUP3 ADD SWAP1 POP PUSH2 0x1309 PUSH1 0x0 DUP4 ADD DUP5 PUSH2 0x1130 JUMP JUMPDEST SWAP3 SWAP2 POP POP JUMP JUMPDEST PUSH1 0x0 DUP1 PUSH1 0x40 DUP4 DUP6 SUB SLT ISZERO PUSH2 0x1326 JUMPI PUSH2 0x1325 PUSH2 0x1091 JUMP JUMPDEST JUMPDEST PUSH1 0x0 PUSH2 0x1334 DUP6 DUP3 DUP7 ADD PUSH2 0x10BC JUMP JUMPDEST SWAP3 POP POP PUSH1 0x20 PUSH2 0x1345 DUP6 DUP3 DUP7 ADD PUSH2 0x10BC JUMP JUMPDEST SWAP2 POP POP SWAP3 POP SWAP3 SWAP1 POP JUMP JUMPDEST PUSH1 0x0 DUP1 REVERT JUMPDEST PUSH1 0x0 DUP1 REVERT JUMPDEST PUSH32 0x4E487B7100000000000000000000000000000000000000000000000000000000 PUSH1 0x0 MSTORE PUSH1 0x41 PUSH1 0x4 MSTORE PUSH1 0x24 PUSH1 0x0 REVERT JUMPDEST PUSH2 0x1391 DUP3 PUSH2 0x1288 JUMP JUMPDEST DUP2 ADD DUP2 DUP2 LT PUSH8 0xFFFFFFFFFFFFFFFF DUP3 GT OR ISZERO PUSH2 0x13B0 JUMPI PUSH2 0x13AF PUSH2 0x1359 JUMP JUMPDEST JUMPDEST DUP1 PUSH1 0x40 MSTORE POP POP POP JUMP JUMPDEST PUSH1 0x0 PUSH2 0x13C3 PUSH2 0x1087 JUMP JUMPDEST SWAP1 POP PUSH2 0x13CF DUP3 DUP3 PUSH2 0x1388 JUMP JUMPDEST SWAP2 SWAP1 POP JUMP JUMPDEST PUSH1 0x0 PUSH8 0xFFFFFFFFFFFFFFFF DUP3 GT ISZERO PUSH2 0x13EF JUMPI PUSH2 0x13EE PUSH2 0x1359 JUMP JUMPDEST JUMPDEST PUSH2 0x13F8 DUP3 PUSH2 0x1288 JUMP JUMPDEST SWAP1 POP PUSH1 0x20 DUP2 ADD SWAP1 POP SWAP2 SWAP1 POP JUMP JUMPDEST DUP3 DUP2 DUP4 CALLDATACOPY PUSH1 0x0 DUP4 DUP4 ADD MSTORE POP POP POP JUMP JUMPDEST PUSH1 0x0 PUSH2 0x1427 PUSH2 0x1422 DUP5 PUSH2 0x13D4 JUMP JUMPDEST PUSH2 0x13B9 JUMP JUMPDEST SWAP1 POP DUP3 DUP2 MSTORE PUSH1 0x20 DUP2 ADD DUP5 DUP5 DUP5 ADD GT ISZERO PUSH2 0x1443 JUMPI PUSH2 0x1442 PUSH2 0x1354 JUMP JUMPDEST JUMPDEST PUSH2 0x144E DUP5 DUP3 DUP6 PUSH2 0x1405 JUMP JUMPDEST POP SWAP4 SWAP3 POP POP POP JUMP JUMPDEST PUSH1 0x0 DUP3 PUSH1 0x1F DUP4 ADD SLT PUSH2 0x146B JUMPI PUSH2 0x146A PUSH2 0x134F JUMP JUMPDEST JUMPDEST DUP2 CALLDATALOAD PUSH2 0x147B DUP5 DUP3 PUSH1 0x20 DUP7 ADD PUSH2 0x1414 JUMP JUMPDEST SWAP2 POP POP SWAP3 SWAP2 POP POP JUMP JUMPDEST PUSH1 0x0 PUSH1 0x20 DUP3 DUP5 SUB SLT ISZERO PUSH2 0x149A JUMPI PUSH2 0x1499 PUSH2 0x1091 JUMP JUMPDEST JUMPDEST PUSH1 0x0 DUP3 ADD CALLDATALOAD PUSH8 0xFFFFFFFFFFFFFFFF DUP2 GT ISZERO PUSH2 0x14B8 JUMPI PUSH2 0x14B7 PUSH2 0x1096 JUMP JUMPDEST JUMPDEST PUSH2 0x14C4 DUP5 DUP3 DUP6 ADD PUSH2 0x1456 JUMP JUMPDEST SWAP2 POP POP SWAP3 SWAP2 POP POP JUMP JUMPDEST PUSH1 0x0 DUP2 MLOAD SWAP1 POP SWAP2 SWAP1 POP JUMP JUMPDEST PUSH1 0x0 DUP3 DUP3 MSTORE PUSH1 0x20 DUP3 ADD SWAP1 POP SWAP3 SWAP2 POP POP JUMP JUMPDEST PUSH1 0x0 DUP2 SWAP1 POP PUSH1 0x20 DUP3 ADD SWAP1 POP SWAP2 SWAP1 POP JUMP JUMPDEST PUSH2 0x1502 DUP2 PUSH2 0x111E JUMP JUMPDEST DUP3 MSTORE POP POP JUMP JUMPDEST PUSH2 0x1511 DUP2 PUSH2 0x109B JUMP JUMPDEST DUP3 MSTORE POP POP JUMP JUMPDEST PUSH1 0x60 DUP3 ADD PUSH1 0x0 DUP3 ADD MLOAD PUSH2 0x152D PUSH1 0x0 DUP6 ADD DUP3 PUSH2 0x14F9 JUMP JUMPDEST POP PUSH1 0x20 DUP3 ADD MLOAD PUSH2 0x1540 PUSH1 0x20 DUP6 ADD DUP3 PUSH2 0x1508 JUMP JUMPDEST POP PUSH1 0x40 DUP3 ADD MLOAD PUSH2 0x1553 PUSH1 0x40 DUP6 ADD DUP3 PUSH2 0x1508 JUMP JUMPDEST POP POP POP POP JUMP JUMPDEST PUSH1 0x0 PUSH2 0x1565 DUP4 DUP4 PUSH2 0x1517 JUMP JUMPDEST PUSH1 0x60 DUP4 ADD SWAP1 POP SWAP3 SWAP2 POP POP JUMP JUMPDEST PUSH1 0x0 PUSH1 0x20 DUP3 ADD SWAP1 POP SWAP2 SWAP1 POP JUMP JUMPDEST PUSH1 0x0 PUSH2 0x1589 DUP3 PUSH2 0x14CD JUMP JUMPDEST PUSH2 0x1593 DUP2 DUP6 PUSH2 0x14D8 JUMP JUMPDEST SWAP4 POP PUSH2 0x159E DUP4 PUSH2 0x14E9 JUMP JUMPDEST DUP1 PUSH1 0x0 JUMPDEST DUP4 DUP2 LT ISZERO PUSH2 0x15CF JUMPI DUP2 MLOAD PUSH2 0x15B6 DUP9 DUP3 PUSH2 0x1559 JUMP JUMPDEST SWAP8 POP PUSH2 0x15C1 DUP4 PUSH2 0x1571 JUMP JUMPDEST SWAP3 POP POP PUSH1 0x1 DUP2 ADD SWAP1 POP PUSH2 0x15A2 JUMP JUMPDEST POP DUP6 SWAP4 POP POP POP POP SWAP3 SWAP2 POP POP JUMP JUMPDEST PUSH1 0x0 PUSH1 0x20 DUP3 ADD SWAP1 POP DUP2 DUP2 SUB PUSH1 0x0 DUP4 ADD MSTORE PUSH2 0x15F6 DUP2 DUP5 PUSH2 0x157E JUMP JUMPDEST SWAP1 POP SWAP3 SWAP2 POP POP JUMP JUMPDEST PUSH32 0x43726F776466756E64696E673A20616C72656164792065786365656420646561 PUSH1 0x0 DUP3 ADD MSTORE PUSH32 0x646C696E65000000000000000000000000000000000000000000000000000000 PUSH1 0x20 DUP3 ADD MSTORE POP JUMP JUMPDEST PUSH1 0x0 PUSH2 0x165A PUSH1 0x25 DUP4 PUSH2 0x124D JUMP JUMPDEST SWAP2 POP PUSH2 0x1665 DUP3 PUSH2 0x15FE JUMP JUMPDEST PUSH1 0x40 DUP3 ADD SWAP1 POP SWAP2 SWAP1 POP JUMP JUMPDEST PUSH1 0x0 PUSH1 0x20 DUP3 ADD SWAP1 POP DUP2 DUP2 SUB PUSH1 0x0 DUP4 ADD MSTORE PUSH2 0x1689 DUP2 PUSH2 0x164D JUMP JUMPDEST SWAP1 POP SWAP2 SWAP1 POP JUMP JUMPDEST PUSH32 0x43726F776466756E64696E673A206F6E6C79466163746F727900000000000000 PUSH1 0x0 DUP3 ADD MSTORE POP JUMP JUMPDEST PUSH1 0x0 PUSH2 0x16C6 PUSH1 0x19 DUP4 PUSH2 0x124D JUMP JUMPDEST SWAP2 POP PUSH2 0x16D1 DUP3 PUSH2 0x1690 JUMP JUMPDEST PUSH1 0x20 DUP3 ADD SWAP1 POP SWAP2 SWAP1 POP JUMP JUMPDEST PUSH1 0x0 PUSH1 0x20 DUP3 ADD SWAP1 POP DUP2 DUP2 SUB PUSH1 0x0 DUP4 ADD MSTORE PUSH2 0x16F5 DUP2 PUSH2 0x16B9 JUMP JUMPDEST SWAP1 POP SWAP2 SWAP1 POP JUMP JUMPDEST PUSH32 0x43726F776466756E64696E672E616464436F6E747269627574696F6E3A204372 PUSH1 0x0 DUP3 ADD MSTORE PUSH32 0x6F776466756E64696E67206973206E6F7420666F722073616C65000000000000 PUSH1 0x20 DUP3 ADD MSTORE POP JUMP JUMPDEST PUSH1 0x0 PUSH2 0x1758 PUSH1 0x3A DUP4 PUSH2 0x124D JUMP JUMPDEST SWAP2 POP PUSH2 0x1763 DUP3 PUSH2 0x16FC JUMP JUMPDEST PUSH1 0x40 DUP3 ADD SWAP1 POP SWAP2 SWAP1 POP JUMP JUMPDEST PUSH1 0x0 PUSH1 0x20 DUP3 ADD SWAP1 POP DUP2 DUP2 SUB PUSH1 0x0 DUP4 ADD MSTORE PUSH2 0x1787 DUP2 PUSH2 0x174B JUMP JUMPDEST SWAP1 POP SWAP2 SWAP1 POP JUMP JUMPDEST PUSH32 0x43726F776466756E64696E672E616464436F6E747269627574696F6E3A20696E PUSH1 0x0 DUP3 ADD MSTORE PUSH32 0x76616C696420616D6F756E740000000000000000000000000000000000000000 PUSH1 0x20 DUP3 ADD MSTORE POP JUMP JUMPDEST PUSH1 0x0 PUSH2 0x17EA PUSH1 0x2C DUP4 PUSH2 0x124D JUMP JUMPDEST SWAP2 POP PUSH2 0x17F5 DUP3 PUSH2 0x178E JUMP JUMPDEST PUSH1 0x40 DUP3 ADD SWAP1 POP SWAP2 SWAP1 POP JUMP JUMPDEST PUSH1 0x0 PUSH1 0x20 DUP3 ADD SWAP1 POP DUP2 DUP2 SUB PUSH1 0x0 DUP4 ADD MSTORE PUSH2 0x1819 DUP2 PUSH2 0x17DD JUMP JUMPDEST SWAP1 POP SWAP2 SWAP1 POP JUMP JUMPDEST PUSH32 0x43726F776466756E64696E672E616464436F6E747269627574696F6E3A206372 PUSH1 0x0 DUP3 ADD MSTORE PUSH32 0x6F776466756E64696E6720616C72656164792072656163682074617267657400 PUSH1 0x20 DUP3 ADD MSTORE POP JUMP JUMPDEST PUSH1 0x0 PUSH2 0x187C PUSH1 0x3F DUP4 PUSH2 0x124D JUMP JUMPDEST SWAP2 POP PUSH2 0x1887 DUP3 PUSH2 0x1820 JUMP JUMPDEST PUSH1 0x40 DUP3 ADD SWAP1 POP SWAP2 SWAP1 POP JUMP JUMPDEST PUSH1 0x0 PUSH1 0x20 DUP3 ADD SWAP1 POP DUP2 DUP2 SUB PUSH1 0x0 DUP4 ADD MSTORE PUSH2 0x18AB DUP2 PUSH2 0x186F JUMP JUMPDEST SWAP1 POP SWAP2 SWAP1 POP JUMP JUMPDEST PUSH32 0x4E487B7100000000000000000000000000000000000000000000000000000000 PUSH1 0x0 MSTORE PUSH1 0x11 PUSH1 0x4 MSTORE PUSH1 0x24 PUSH1 0x0 REVERT JUMPDEST PUSH1 0x0 PUSH2 0x18EC DUP3 PUSH2 0x109B JUMP JUMPDEST SWAP2 POP PUSH2 0x18F7 DUP4 PUSH2 0x109B JUMP JUMPDEST SWAP3 POP DUP3 DUP3 ADD SWAP1 POP DUP1 DUP3 GT ISZERO PUSH2 0x190F JUMPI PUSH2 0x190E PUSH2 0x18B2 JUMP JUMPDEST JUMPDEST SWAP3 SWAP2 POP POP JUMP JUMPDEST PUSH32 0x4E487B7100000000000000000000000000000000000000000000000000000000 PUSH1 0x0 MSTORE PUSH1 0x22 PUSH1 0x4 MSTORE PUSH1 0x24 PUSH1 0x0 REVERT JUMPDEST PUSH1 0x0 PUSH1 0x2 DUP3 DIV SWAP1 POP PUSH1 0x1 DUP3 AND DUP1 PUSH2 0x195C JUMPI PUSH1 0x7F DUP3 AND SWAP2 POP JUMPDEST PUSH1 0x20 DUP3 LT DUP2 SUB PUSH2 0x196F JUMPI PUSH2 0x196E PUSH2 0x1915 JUMP JUMPDEST JUMPDEST POP SWAP2 SWAP1 POP JUMP JUMPDEST PUSH1 0x0 PUSH2 0x1980 DUP3 PUSH2 0x109B JUMP JUMPDEST SWAP2 POP PUSH2 0x198B DUP4 PUSH2 0x109B JUMP JUMPDEST SWAP3 POP DUP3 DUP3 SUB SWAP1 POP DUP2 DUP2 GT ISZERO PUSH2 0x19A3 JUMPI PUSH2 0x19A2 PUSH2 0x18B2 JUMP JUMPDEST JUMPDEST SWAP3 SWAP2 POP POP JUMP JUMPDEST PUSH32 0x43726F776466756E64696E673A206F6E6C795374617274657200000000000000 PUSH1 0x0 DUP3 ADD MSTORE POP JUMP JUMPDEST PUSH1 0x0 PUSH2 0x19DF PUSH1 0x19 DUP4 PUSH2 0x124D JUMP JUMPDEST SWAP2 POP PUSH2 0x19EA DUP3 PUSH2 0x19A9 JUMP JUMPDEST PUSH1 0x20 DUP3 ADD SWAP1 POP SWAP2 SWAP1 POP JUMP JUMPDEST PUSH1 0x0 PUSH1 0x20 DUP3 ADD SWAP1 POP DUP2 DUP2 SUB PUSH1 0x0 DUP4 ADD MSTORE PUSH2 0x1A0E DUP2 PUSH2 0x19D2 JUMP JUMPDEST SWAP1 POP SWAP2 SWAP1 POP JUMP JUMPDEST PUSH32 0x43726F776466756E64696E673A2074617267657420697320746F6F20736D616C PUSH1 0x0 DUP3 ADD MSTORE PUSH32 0x6C00000000000000000000000000000000000000000000000000000000000000 PUSH1 0x20 DUP3 ADD MSTORE POP JUMP JUMPDEST PUSH1 0x0 PUSH2 0x1A71 PUSH1 0x21 DUP4 PUSH2 0x124D JUMP JUMPDEST SWAP2 POP PUSH2 0x1A7C DUP3 PUSH2 0x1A15 JUMP JUMPDEST PUSH1 0x40 DUP3 ADD SWAP1 POP SWAP2 SWAP1 POP JUMP JUMPDEST PUSH1 0x0 PUSH1 0x20 DUP3 ADD SWAP1 POP DUP2 DUP2 SUB PUSH1 0x0 DUP4 ADD MSTORE PUSH2 0x1AA0 DUP2 PUSH2 0x1A64 JUMP JUMPDEST SWAP1 POP SWAP2 SWAP1 POP JUMP JUMPDEST PUSH32 0x43726F776466756E64696E673A206E657720646561646C696E65206973207368 PUSH1 0x0 DUP3 ADD MSTORE PUSH32 0x6F72746572207468616E206265666F7265000000000000000000000000000000 PUSH1 0x20 DUP3 ADD MSTORE POP JUMP JUMPDEST PUSH1 0x0 PUSH2 0x1B03 PUSH1 0x31 DUP4 PUSH2 0x124D JUMP JUMPDEST SWAP2 POP PUSH2 0x1B0E DUP3 PUSH2 0x1AA7 JUMP JUMPDEST PUSH1 0x40 DUP3 ADD SWAP1 POP SWAP2 SWAP1 POP JUMP JUMPDEST PUSH1 0x0 PUSH1 0x20 DUP3 ADD SWAP1 POP DUP2 DUP2 SUB PUSH1 0x0 DUP4 ADD MSTORE PUSH2 0x1B32 DUP2 PUSH2 0x1AF6 JUMP JUMPDEST SWAP1 POP SWAP2 SWAP1 POP JUMP JUMPDEST PUSH1 0x0 DUP2 SWAP1 POP DUP2 PUSH1 0x0 MSTORE PUSH1 0x20 PUSH1 0x0 KECCAK256 SWAP1 POP SWAP2 SWAP1 POP JUMP JUMPDEST PUSH1 0x0 PUSH1 0x20 PUSH1 0x1F DUP4 ADD DIV SWAP1 POP SWAP2 SWAP1 POP JUMP JUMPDEST PUSH1 0x0 DUP3 DUP3 SHL SWAP1 POP SWAP3 SWAP2 POP POP JUMP JUMPDEST PUSH1 0x0 PUSH1 0x8 DUP4 MUL PUSH2 0x1B9B PUSH32 0xFFFFFFFFFFFFFFFFFFFFFFFFFFFFFFFFFFFFFFFFFFFFFFFFFFFFFFFFFFFFFFFF DUP3 PUSH2 0x1B5E JUMP JUMPDEST PUSH2 0x1BA5 DUP7 DUP4 PUSH2 0x1B5E JUMP JUMPDEST SWAP6 POP DUP1 NOT DUP5 AND SWAP4 POP DUP1 DUP7 AND DUP5 OR SWAP3 POP POP POP SWAP4 SWAP3 POP POP POP JUMP JUMPDEST PUSH1 0x0 DUP2 SWAP1 POP SWAP2 SWAP1 POP JUMP JUMPDEST PUSH1 0x0 PUSH2 0x1BE2 PUSH2 0x1BDD PUSH2 0x1BD8 DUP5 PUSH2 0x109B JUMP JUMPDEST PUSH2 0x1BBD JUMP JUMPDEST PUSH2 0x109B JUMP JUMPDEST SWAP1 POP SWAP2 SWAP1 POP JUMP JUMPDEST PUSH1 0x0 DUP2 SWAP1 POP SWAP2 SWAP1 POP JUMP JUMPDEST PUSH2 0x1BFC DUP4 PUSH2 0x1BC7 JUMP JUMPDEST PUSH2 0x1C10 PUSH2 0x1C08 DUP3 PUSH2 0x1BE9 JUMP JUMPDEST DUP5 DUP5 SLOAD PUSH2 0x1B6B JUMP JUMPDEST DUP3 SSTORE POP POP POP POP JUMP JUMPDEST PUSH1 0x0 SWAP1 JUMP JUMPDEST PUSH2 0x1C25 PUSH2 0x1C18 JUMP JUMPDEST PUSH2 0x1C30 DUP2 DUP5 DUP5 PUSH2 0x1BF3 JUMP JUMPDEST POP POP POP JUMP JUMPDEST JUMPDEST DUP2 DUP2 LT ISZERO PUSH2 0x1C54 JUMPI PUSH2 0x1C49 PUSH1 0x0 DUP3 PUSH2 0x1C1D JUMP JUMPDEST PUSH1 0x1 DUP2 ADD SWAP1 POP PUSH2 0x1C36 JUMP JUMPDEST POP POP JUMP JUMPDEST PUSH1 0x1F DUP3 GT ISZERO PUSH2 0x1C99 JUMPI PUSH2 0x1C6A DUP2 PUSH2 0x1B39 JUMP JUMPDEST PUSH2 0x1C73 DUP5 PUSH2 0x1B4E JUMP JUMPDEST DUP2 ADD PUSH1 0x20 DUP6 LT ISZERO PUSH2 0x1C82 JUMPI DUP2 SWAP1 POP JUMPDEST PUSH2 0x1C96 PUSH2 0x1C8E DUP6 PUSH2 0x1B4E JUMP JUMPDEST DUP4 ADD DUP3 PUSH2 0x1C35 JUMP JUMPDEST POP POP JUMPDEST POP POP POP JUMP JUMPDEST PUSH1 0x0 DUP3 DUP3 SHR SWAP1 POP SWAP3 SWAP2 POP POP JUMP JUMPDEST PUSH1 0x0 PUSH2 0x1CBC PUSH1 0x0 NOT DUP5 PUSH1 0x8 MUL PUSH2 0x1C9E JUMP JUMPDEST NOT DUP1 DUP4 AND SWAP2 POP POP SWAP3 SWAP2 POP POP JUMP JUMPDEST PUSH1 0x0 PUSH2 0x1CD5 DUP4 DUP4 PUSH2 0x1CAB JUMP JUMPDEST SWAP2 POP DUP3 PUSH1 0x2 MUL DUP3 OR SWAP1 POP SWAP3 SWAP2 POP POP JUMP JUMPDEST PUSH2 0x1CEE DUP3 PUSH2 0x1242 JUMP JUMPDEST PUSH8 0xFFFFFFFFFFFFFFFF DUP2 GT ISZERO PUSH2 0x1D07 JUMPI PUSH2 0x1D06 PUSH2 0x1359 JUMP JUMPDEST JUMPDEST PUSH2 0x1D11 DUP3 SLOAD PUSH2 0x1944 JUMP JUMPDEST PUSH2 0x1D1C DUP3 DUP3 DUP6 PUSH2 0x1C58 JUMP JUMPDEST PUSH1 0x0 PUSH1 0x20 SWAP1 POP PUSH1 0x1F DUP4 GT PUSH1 0x1 DUP2 EQ PUSH2 0x1D4F JUMPI PUSH1 0x0 DUP5 ISZERO PUSH2 0x1D3D JUMPI DUP3 DUP8 ADD MLOAD SWAP1 POP JUMPDEST PUSH2 0x1D47 DUP6 DUP3 PUSH2 0x1CC9 JUMP JUMPDEST DUP7 SSTORE POP PUSH2 0x1DAF JUMP JUMPDEST PUSH1 0x1F NOT DUP5 AND PUSH2 0x1D5D DUP7 PUSH2 0x1B39 JUMP JUMPDEST PUSH1 0x0 JUMPDEST DUP3 DUP2 LT ISZERO PUSH2 0x1D85 JUMPI DUP5 DUP10 ADD MLOAD DUP3 SSTORE PUSH1 0x1 DUP3 ADD SWAP2 POP PUSH1 0x20 DUP6 ADD SWAP5 POP PUSH1 0x20 DUP2 ADD SWAP1 POP PUSH2 0x1D60 JUMP JUMPDEST DUP7 DUP4 LT ISZERO PUSH2 0x1DA2 JUMPI DUP5 DUP10 ADD MLOAD PUSH2 0x1D9E PUSH1 0x1F DUP10 AND DUP3 PUSH2 0x1CAB JUMP JUMPDEST DUP4 SSTORE POP JUMPDEST PUSH1 0x1 PUSH1 0x2 DUP9 MUL ADD DUP9 SSTORE POP POP POP JUMPDEST POP POP POP POP POP POP JUMP JUMPDEST PUSH32 0x43726F776466756E64696E672E72656D6F7665436F6E747269627574696F6E3A PUSH1 0x0 DUP3 ADD MSTORE PUSH32 0x2043726F776466756E64696E67206973207374696C6C20696E2073616C650000 PUSH1 0x20 DUP3 ADD MSTORE POP JUMP JUMPDEST PUSH1 0x0 PUSH2 0x1E13 PUSH1 0x3E DUP4 PUSH2 0x124D JUMP JUMPDEST SWAP2 POP PUSH2 0x1E1E DUP3 PUSH2 0x1DB7 JUMP JUMPDEST PUSH1 0x40 DUP3 ADD SWAP1 POP SWAP2 SWAP1 POP JUMP JUMPDEST PUSH1 0x0 PUSH1 0x20 DUP3 ADD SWAP1 POP DUP2 DUP2 SUB PUSH1 0x0 DUP4 ADD MSTORE PUSH2 0x1E42 DUP2 PUSH2 0x1E06 JUMP JUMPDEST SWAP1 POP SWAP2 SWAP1 POP JUMP JUMPDEST PUSH32 0x43726F776466756E64696E672E72656D6F7665436F6E747269627574696F6E3A PUSH1 0x0 DUP3 ADD MSTORE PUSH32 0x20696E76616C696420616D6F756E740000000000000000000000000000000000 PUSH1 0x20 DUP3 ADD MSTORE POP JUMP JUMPDEST PUSH1 0x0 PUSH2 0x1EA5 PUSH1 0x2F DUP4 PUSH2 0x124D JUMP JUMPDEST SWAP2 POP PUSH2 0x1EB0 DUP3 PUSH2 0x1E49 JUMP JUMPDEST PUSH1 0x40 DUP3 ADD SWAP1 POP SWAP2 SWAP1 POP JUMP JUMPDEST PUSH1 0x0 PUSH1 0x20 DUP3 ADD SWAP1 POP DUP2 DUP2 SUB PUSH1 0x0 DUP4 ADD MSTORE PUSH2 0x1ED4 DUP2 PUSH2 0x1E98 JUMP JUMPDEST SWAP1 POP SWAP2 SWAP1 POP JUMP JUMPDEST PUSH32 0x43726F776466756E64696E672E72656D6F7665436F6E747269627574696F6E3A PUSH1 0x0 DUP3 ADD MSTORE PUSH32 0x20696E73756666696369656E7420616D6F756E74000000000000000000000000 PUSH1 0x20 DUP3 ADD MSTORE POP JUMP JUMPDEST PUSH1 0x0 PUSH2 0x1F37 PUSH1 0x34 DUP4 PUSH2 0x124D JUMP JUMPDEST SWAP2 POP PUSH2 0x1F42 DUP3 PUSH2 0x1EDB JUMP JUMPDEST PUSH1 0x40 DUP3 ADD SWAP1 POP SWAP2 SWAP1 POP JUMP JUMPDEST PUSH1 0x0 PUSH1 0x20 DUP3 ADD SWAP1 POP DUP2 DUP2 SUB PUSH1 0x0 DUP4 ADD MSTORE PUSH2 0x1F66 DUP2 PUSH2 0x1F2A JUMP JUMPDEST SWAP1 POP SWAP2 SWAP1 POP JUMP JUMPDEST PUSH1 0x0 PUSH1 0x60 DUP3 ADD SWAP1 POP PUSH2 0x1F82 PUSH1 0x0 DUP4 ADD DUP7 PUSH2 0x1130 JUMP JUMPDEST PUSH2 0x1F8F PUSH1 0x20 DUP4 ADD DUP6 PUSH2 0x1130 JUMP JUMPDEST PUSH2 0x1F9C PUSH1 0x40 DUP4 ADD DUP5 PUSH2 0x113F JUMP JUMPDEST SWAP5 SWAP4 POP POP POP POP JUMP JUMPDEST PUSH1 0x0 DUP2 MLOAD SWAP1 POP SWAP2 SWAP1 POP JUMP JUMPDEST PUSH1 0x0 DUP2 SWAP1 POP SWAP3 SWAP2 POP POP JUMP JUMPDEST PUSH1 0x0 PUSH2 0x1FC5 DUP3 PUSH2 0x1FA4 JUMP JUMPDEST PUSH2 0x1FCF DUP2 DUP6 PUSH2 0x1FAF JUMP JUMPDEST SWAP4 POP PUSH2 0x1FDF DUP2 DUP6 PUSH1 0x20 DUP7 ADD PUSH2 0x125E JUMP JUMPDEST DUP1 DUP5 ADD SWAP2 POP POP SWAP3 SWAP2 POP POP JUMP JUMPDEST PUSH1 0x0 PUSH2 0x1FF7 DUP3 DUP5 PUSH2 0x1FBA JUMP JUMPDEST SWAP2 POP DUP2 SWAP1 POP SWAP3 SWAP2 POP POP JUMP JUMPDEST PUSH2 0x200B DUP2 PUSH2 0x120C JUMP JUMPDEST DUP2 EQ PUSH2 0x2016 JUMPI PUSH1 0x0 DUP1 REVERT JUMPDEST POP JUMP JUMPDEST PUSH1 0x0 DUP2 MLOAD SWAP1 POP PUSH2 0x2028 DUP2 PUSH2 0x2002 JUMP JUMPDEST SWAP3 SWAP2 POP POP JUMP JUMPDEST PUSH1 0x0 PUSH1 0x20 DUP3 DUP5 SUB SLT ISZERO PUSH2 0x2044 JUMPI PUSH2 0x2043 PUSH2 0x1091 JUMP JUMPDEST JUMPDEST PUSH1 0x0 PUSH2 0x2052 DUP5 DUP3 DUP6 ADD PUSH2 0x2019 JUMP JUMPDEST SWAP2 POP POP SWAP3 SWAP2 POP POP JUMP JUMPDEST PUSH1 0x0 PUSH1 0x40 DUP3 ADD SWAP1 POP PUSH2 0x2070 PUSH1 0x0 DUP4 ADD DUP6 PUSH2 0x1130 JUMP JUMPDEST PUSH2 0x207D PUSH1 0x20 DUP4 ADD DUP5 PUSH2 0x113F JUMP JUMPDEST SWAP4 SWAP3 POP POP POP JUMP JUMPDEST PUSH32 0x4E487B7100000000000000000000000000000000000000000000000000000000 PUSH1 0x0 MSTORE PUSH1 0x51 PUSH1 0x4 MSTORE PUSH1 0x24 PUSH1 0x0 REVERT INVALID LOG2 PUSH5 0x6970667358 0x22 SLT KECCAK256 DUP2 DUP2 0xD RETURN 0xB6 SDIV 0xE3 PC OR 0xF6 JUMPI 0xB7 0xCA 0xA5 SELFDESTRUCT 0xB7 0xEC 0xE9 PUSH23 0x2EC108861A3568D1CA759651EE64736F6C634300081400 CALLER "},"methodIdentifiers":{"addContribution(address,uint256)":"39ecacac","burnings(uint256)":"1ef48007","contributionAllowed(uint256)":"83e49019","contributions(uint256)":"1cee0700","current()":"9fa6a6e3","deadline()":"29dcb0cf","editCrowdfunding(uint256,uint256)":"99af5cc7","editMetadataCID(string)":"cb7cbb8d","factoryAddress()":"966dae0e","getContributions()":"dda0a81a","getTarget()":"f00e6a2a","isOpen()":"47535d7b","metadataCID()":"58871c46","removeContribution(address,uint256)":"d9de1307","startAt()":"c7446565","starter()":"f5a8492f","target()":"d4b83992","tokenAddress()":"9d76ea58"}}}}}