{"contracts/Crowdfunding.sol":{"Crowdfunding":{"abi":[{"inputs":[{"internalType":"address","name":"_starter","type":"address"},{"internalType":"string","name":"_title","type":"string"},{"internalType":"string[]","name":"_categories","type":"string[]"},{"internalType":"uint256","name":"_target","type":"uint256"},{"internalType":"uint256","name":"_deadline","type":"uint256"},{"internalType":"address","name":"_tokenAddress","type":"address"}],"stateMutability":"nonpayable","type":"constructor"},{"inputs":[],"name":"SafeApproveFailed","type":"error"},{"inputs":[],"name":"SafeTransferFailed","type":"error"},{"inputs":[{"internalType":"address","name":"by","type":"address"},{"internalType":"uint256","name":"amount","type":"uint256"}],"name":"addContribution","outputs":[{"internalType":"uint256","name":"contributionAdded","type":"uint256"}],"stateMutability":"nonpayable","type":"function"},{"inputs":[{"internalType":"uint256","name":"","type":"uint256"}],"name":"burnings","outputs":[{"internalType":"address","name":"to","type":"address"},{"internalType":"uint256","name":"amount","type":"uint256"},{"internalType":"uint256","name":"timestamp","type":"uint256"}],"stateMutability":"view","type":"function"},{"inputs":[{"internalType":"uint256","name":"","type":"uint256"}],"name":"categories","outputs":[{"internalType":"string","name":"","type":"string"}],"stateMutability":"view","type":"function"},{"inputs":[{"internalType":"uint256","name":"amount","type":"uint256"}],"name":"contributionAllowed","outputs":[{"internalType":"uint256","name":"","type":"uint256"}],"stateMutability":"view","type":"function"},{"inputs":[{"internalType":"uint256","name":"","type":"uint256"}],"name":"contributions","outputs":[{"internalType":"address","name":"contributor","type":"address"},{"internalType":"uint256","name":"amount","type":"uint256"},{"internalType":"uint256","name":"timestamp","type":"uint256"}],"stateMutability":"view","type":"function"},{"inputs":[],"name":"current","outputs":[{"internalType":"uint256","name":"","type":"uint256"}],"stateMutability":"view","type":"function"},{"inputs":[],"name":"deadline","outputs":[{"internalType":"uint256","name":"","type":"uint256"}],"stateMutability":"view","type":"function"},{"inputs":[{"internalType":"string","name":"_title","type":"string"},{"internalType":"string[]","name":"_categories","type":"string[]"},{"internalType":"uint256","name":"_target","type":"uint256"},{"internalType":"uint256","name":"_deadline","type":"uint256"}],"name":"editCrowdfunding","outputs":[],"stateMutability":"nonpayable","type":"function"},{"inputs":[],"name":"factoryAddress","outputs":[{"internalType":"address","name":"","type":"address"}],"stateMutability":"view","type":"function"},{"inputs":[],"name":"getCategories","outputs":[{"internalType":"string[]","name":"","type":"string[]"}],"stateMutability":"view","type":"function"},{"inputs":[],"name":"getContributions","outputs":[{"components":[{"internalType":"address","name":"contributor","type":"address"},{"internalType":"uint256","name":"amount","type":"uint256"},{"internalType":"uint256","name":"timestamp","type":"uint256"}],"internalType":"struct Crowdfunding.Contribution[]","name":"","type":"tuple[]"}],"stateMutability":"view","type":"function"},{"inputs":[],"name":"getTarget","outputs":[{"internalType":"uint256","name":"","type":"uint256"}],"stateMutability":"view","type":"function"},{"inputs":[],"name":"isOpen","outputs":[{"internalType":"bool","name":"","type":"bool"}],"stateMutability":"view","type":"function"},{"inputs":[{"internalType":"address","name":"to","type":"address"},{"internalType":"uint256","name":"amount","type":"uint256"}],"name":"removeContribution","outputs":[],"stateMutability":"nonpayable","type":"function"},{"inputs":[],"name":"startAt","outputs":[{"internalType":"uint256","name":"","type":"uint256"}],"stateMutability":"view","type":"function"},{"inputs":[],"name":"starter","outputs":[{"internalType":"address","name":"","type":"address"}],"stateMutability":"view","type":"function"},{"inputs":[],"name":"target","outputs":[{"internalType":"uint256","name":"","type":"uint256"}],"stateMutability":"view","type":"function"},{"inputs":[],"name":"title","outputs":[{"internalType":"string","name":"","type":"string"}],"stateMutability":"view","type":"function"},{"inputs":[],"name":"tokenAddress","outputs":[{"internalType":"address","name":"","type":"address"}],"stateMutability":"view","type":"function"}],"evm":{"bytecode":{"linkReferences":{},"object":"60806040523480156200001157600080fd5b5060405162003078380380620030788339818101604052810190620000379190620005ca565b4282116200007c576040517f08c379a000000000000000000000000000000000000000000000000000000000815260040162000073906200072b565b60405180910390fd5b85600660016101000a81548173ffffffffffffffffffffffffffffffffffffffff021916908373ffffffffffffffffffffffffffffffffffffffff16021790555033600860006101000a81548173ffffffffffffffffffffffffffffffffffffffff021916908373ffffffffffffffffffffffffffffffffffffffff16021790555084600090816200010f91906200098e565b50836001908051906020019062000128929190620001ae565b508260028190555060006003819055508160048190555080600760006101000a81548173ffffffffffffffffffffffffffffffffffffffff021916908373ffffffffffffffffffffffffffffffffffffffff160217905550426005819055506001600660006101000a81548160ff02191690831515021790555050505050505062000a75565b828054828255906000526020600020908101928215620001fb579160200282015b82811115620001fa578251829081620001e991906200098e565b5091602001919060010190620001cf565b5b5090506200020a91906200020e565b5090565b5b8082111562000232576000818162000228919062000236565b506001016200020f565b5090565b508054620002449062000787565b6000825580601f1062000258575062000279565b601f0160209004906000526020600020908101906200027891906200027c565b5b50565b5b80821115620002975760008160009055506001016200027d565b5090565b6000604051905090565b600080fd5b600080fd5b600073ffffffffffffffffffffffffffffffffffffffff82169050919050565b6000620002dc82620002af565b9050919050565b620002ee81620002cf565b8114620002fa57600080fd5b50565b6000815190506200030e81620002e3565b92915050565b600080fd5b600080fd5b6000601f19601f8301169050919050565b7f4e487b7100000000000000000000000000000000000000000000000000000000600052604160045260246000fd5b62000369826200031e565b810181811067ffffffffffffffff821117156200038b576200038a6200032f565b5b80604052505050565b6000620003a06200029b565b9050620003ae82826200035e565b919050565b600067ffffffffffffffff821115620003d157620003d06200032f565b5b620003dc826200031e565b9050602081019050919050565b60005b8381101562000409578082015181840152602081019050620003ec565b60008484015250505050565b60006200042c6200042684620003b3565b62000394565b9050828152602081018484840111156200044b576200044a62000319565b5b62000458848285620003e9565b509392505050565b600082601f83011262000478576200047762000314565b5b81516200048a84826020860162000415565b91505092915050565b600067ffffffffffffffff821115620004b157620004b06200032f565b5b602082029050602081019050919050565b600080fd5b6000620004de620004d88462000493565b62000394565b90508083825260208201905060208402830185811115620005045762000503620004c2565b5b835b818110156200055257805167ffffffffffffffff8111156200052d576200052c62000314565b5b8086016200053c898262000460565b8552602085019450505060208101905062000506565b5050509392505050565b600082601f83011262000574576200057362000314565b5b815162000586848260208601620004c7565b91505092915050565b6000819050919050565b620005a4816200058f565b8114620005b057600080fd5b50565b600081519050620005c48162000599565b92915050565b60008060008060008060c08789031215620005ea57620005e9620002a5565b5b6000620005fa89828a01620002fd565b965050602087015167ffffffffffffffff8111156200061e576200061d620002aa565b5b6200062c89828a0162000460565b955050604087015167ffffffffffffffff81111562000650576200064f620002aa565b5b6200065e89828a016200055c565b94505060606200067189828a01620005b3565b93505060806200068489828a01620005b3565b92505060a06200069789828a01620002fd565b9150509295509295509295565b600082825260208201905092915050565b7f43726f776466756e64696e673a20446561646c696e65206d757374206265206960008201527f6e20667574757265000000000000000000000000000000000000000000000000602082015250565b600062000713602883620006a4565b91506200072082620006b5565b604082019050919050565b60006020820190508181036000830152620007468162000704565b9050919050565b600081519050919050565b7f4e487b7100000000000000000000000000000000000000000000000000000000600052602260045260246000fd5b60006002820490506001821680620007a057607f821691505b602082108103620007b657620007b562000758565b5b50919050565b60008190508160005260206000209050919050565b60006020601f8301049050919050565b600082821b905092915050565b600060088302620008207fffffffffffffffffffffffffffffffffffffffffffffffffffffffffffffffff82620007e1565b6200082c8683620007e1565b95508019841693508086168417925050509392505050565b6000819050919050565b60006200086f6200086962000863846200058f565b62000844565b6200058f565b9050919050565b6000819050919050565b6200088b836200084e565b620008a36200089a8262000876565b848454620007ee565b825550505050565b600090565b620008ba620008ab565b620008c781848462000880565b505050565b5b81811015620008ef57620008e3600082620008b0565b600181019050620008cd565b5050565b601f8211156200093e576200090881620007bc565b6200091384620007d1565b8101602085101562000923578190505b6200093b6200093285620007d1565b830182620008cc565b50505b505050565b600082821c905092915050565b6000620009636000198460080262000943565b1980831691505092915050565b60006200097e838362000950565b9150826002028217905092915050565b62000999826200074d565b67ffffffffffffffff811115620009b557620009b46200032f565b5b620009c1825462000787565b620009ce828285620008f3565b600060209050601f83116001811462000a065760008415620009f1578287015190505b620009fd858262000970565b86555062000a6d565b601f19841662000a1686620007bc565b60005b8281101562000a405784890151825560018201915060208501945060208101905062000a19565b8683101562000a60578489015162000a5c601f89168262000950565b8355505b6001600288020188555050505b505050505050565b6125f38062000a856000396000f3fe608060405234801561001057600080fd5b50600436106101215760003560e01c8063966dae0e116100ad578063d4b8399211610071578063d4b8399214610326578063d9de130714610344578063dda0a81a14610360578063f00e6a2a1461037e578063f5a8492f1461039c57610121565b8063966dae0e1461027e5780639d76ea581461029c5780639fa6a6e3146102ba578063c6cdbe5e146102d8578063c74465651461030857610121565b806339ecacac116100f457806339ecacac146101c457806347535d7b146101f45780634a79d50c146102125780634db0412c1461023057806383e490191461024e57610121565b80631cee0700146101265780631ef480071461015857806329dcb0cf1461018a57806333b4e294146101a8575b600080fd5b610140600480360381019061013b91906113b1565b6103ba565b60405161014f9392919061142e565b60405180910390f35b610172600480360381019061016d91906113b1565b610414565b6040516101819392919061142e565b60405180910390f35b61019261046e565b60405161019f9190611465565b60405180910390f35b6101c260048036038101906101bd91906116ac565b610474565b005b6101de60048036038101906101d99190611777565b6105c7565b6040516101eb9190611465565b60405180910390f35b6101fc6108db565b60405161020991906117d2565b60405180910390f35b61021a6108ee565b604051610227919061186c565b60405180910390f35b61023861097c565b604051610245919061199a565b60405180910390f35b610268600480360381019061026391906113b1565b610a55565b6040516102759190611465565b60405180910390f35b610286610ab7565b60405161029391906119bc565b60405180910390f35b6102a4610add565b6040516102b191906119bc565b60405180910390f35b6102c2610b03565b6040516102cf9190611465565b60405180910390f35b6102f260048036038101906102ed91906113b1565b610b09565b6040516102ff919061186c565b60405180910390f35b610310610bb5565b60405161031d9190611465565b60405180910390f35b61032e610bbb565b60405161033b9190611465565b60405180910390f35b61035e60048036038101906103599190611777565b610bc1565b005b610368610da1565b6040516103759190611ae6565b60405180910390f35b610386610e6a565b6040516103939190611465565b60405180910390f35b6103a4610e74565b6040516103b191906119bc565b60405180910390f35b600981815481106103ca57600080fd5b90600052602060002090600302016000915090508060000160009054906101000a900473ffffffffffffffffffffffffffffffffffffffff16908060010154908060020154905083565b600a818154811061042457600080fd5b90600052602060002090600302016000915090508060000160009054906101000a900473ffffffffffffffffffffffffffffffffffffffff16908060010154908060020154905083565b60045481565b600660019054906101000a900473ffffffffffffffffffffffffffffffffffffffff1673ffffffffffffffffffffffffffffffffffffffff163373ffffffffffffffffffffffffffffffffffffffff1614610504576040517f08c379a00000000000000000000000000000000000000000000000000000000081526004016104fb90611b54565b60405180910390fd5b6003548211610548576040517f08c379a000000000000000000000000000000000000000000000000000000000815260040161053f90611be6565b60405180910390fd5b600454811161058c576040517f08c379a000000000000000000000000000000000000000000000000000000000815260040161058390611c78565b60405180910390fd5b836000908161059b9190611ea4565b5082600190805190602001906105b292919061124c565b50816002819055508060048190555050505050565b6000600454421061060d576040517f08c379a000000000000000000000000000000000000000000000000000000000815260040161060490611fe8565b60405180910390fd5b600860009054906101000a900473ffffffffffffffffffffffffffffffffffffffff1673ffffffffffffffffffffffffffffffffffffffff163373ffffffffffffffffffffffffffffffffffffffff161461069d576040517f08c379a000000000000000000000000000000000000000000000000000000000815260040161069490612054565b60405180910390fd5b600660009054906101000a900460ff166106ec576040517f08c379a00000000000000000000000000000000000000000000000000000000081526004016106e3906120e6565b60405180910390fd5b6000821161072f576040517f08c379a000000000000000000000000000000000000000000000000000000000815260040161072690612178565b60405180910390fd5b60025460035410610775576040517f08c379a000000000000000000000000000000000000000000000000000000000815260040161076c9061220a565b60405180910390fd5b61077e82610a55565b905061078981610e9a565b806003600082825461079b9190612259565b925050819055506107aa6112a5565b83816000019073ffffffffffffffffffffffffffffffffffffffff16908173ffffffffffffffffffffffffffffffffffffffff16815250508181602001818152505042816040018181525050600981908060018154018082558091505060019003906000526020600020906003020160009091909190915060008201518160000160006101000a81548173ffffffffffffffffffffffffffffffffffffffff021916908373ffffffffffffffffffffffffffffffffffffffff160217905550602082015181600101556040820151816002015550506108ad600760009054906101000a900473ffffffffffffffffffffffffffffffffffffffff16853085610f33565b600254600354106108d4576000600660006101000a81548160ff0219169083151502179055505b5092915050565b600660009054906101000a900460ff1681565b600080546108fb90611cc7565b80601f016020809104026020016040519081016040528092919081815260200182805461092790611cc7565b80156109745780601f1061094957610100808354040283529160200191610974565b820191906000526020600020905b81548152906001019060200180831161095757829003601f168201915b505050505081565b60606001805480602002602001604051908101604052809291908181526020016000905b82821015610a4c5783829060005260206000200180546109bf90611cc7565b80601f01602080910402602001604051908101604052809291908181526020018280546109eb90611cc7565b8015610a385780601f10610a0d57610100808354040283529160200191610a38565b820191906000526020600020905b815481529060010190602001808311610a1b57829003601f168201915b5050505050815260200190600101906109a0565b50505050905090565b600060025460035410610a6b5760009050610ab2565b600454421115610a7e5760009050610ab2565b600082905060025481600354610a949190612259565b1115610aad57600354600254610aaa919061228d565b90505b809150505b919050565b600860009054906101000a900473ffffffffffffffffffffffffffffffffffffffff1681565b600760009054906101000a900473ffffffffffffffffffffffffffffffffffffffff1681565b60035481565b60018181548110610b1957600080fd5b906000526020600020016000915090508054610b3490611cc7565b80601f0160208091040260200160405190810160405280929190818152602001828054610b6090611cc7565b8015610bad5780601f10610b8257610100808354040283529160200191610bad565b820191906000526020600020905b815481529060010190602001808311610b9057829003601f168201915b505050505081565b60055481565b60025481565b600860009054906101000a900473ffffffffffffffffffffffffffffffffffffffff1673ffffffffffffffffffffffffffffffffffffffff163373ffffffffffffffffffffffffffffffffffffffff1614610c51576040517f08c379a0000000000000000000000000000000000000000000000000000000008152600401610c4890612054565b60405180910390fd5b600660009054906101000a900460ff1615610ca1576040517f08c379a0000000000000000000000000000000000000000000000000000000008152600401610c9890612333565b60405180910390fd5b60008111610ce4576040517f08c379a0000000000000000000000000000000000000000000000000000000008152600401610cdb906123c5565b60405180910390fd5b806003541015610d29576040517f08c379a0000000000000000000000000000000000000000000000000000000008152600401610d2090612457565b60405180910390fd5b8060036000828254610d3b919061228d565b92505081905550610d6f600760009054906101000a900473ffffffffffffffffffffffffffffffffffffffff16838361109e565b610d9d600760009054906101000a900473ffffffffffffffffffffffffffffffffffffffff16308484610f33565b5050565b60606009805480602002602001604051908101604052809291908181526020016000905b82821015610e6157838290600052602060002090600302016040518060600160405290816000820160009054906101000a900473ffffffffffffffffffffffffffffffffffffffff1673ffffffffffffffffffffffffffffffffffffffff1673ffffffffffffffffffffffffffffffffffffffff1681526020016001820154815260200160028201548152505081526020019060010190610dc5565b50505050905090565b6000600254905090565b600660019054906101000a900473ffffffffffffffffffffffffffffffffffffffff1681565b610f3081604051602401610eae9190611465565b6040516020818303038152906040527ff82c50f1000000000000000000000000000000000000000000000000000000007bffffffffffffffffffffffffffffffffffffffffffffffffffffffff19166020820180517bffffffffffffffffffffffffffffffffffffffffffffffffffffffff8381831617835250505050611206565b50565b6000808573ffffffffffffffffffffffffffffffffffffffff16858585604051602401610f6293929190612477565b6040516020818303038152906040527f23b872dd000000000000000000000000000000000000000000000000000000007bffffffffffffffffffffffffffffffffffffffffffffffffffffffff19166020820180517bffffffffffffffffffffffffffffffffffffffffffffffffffffffff8381831617835250505050604051610fec91906124f5565b6000604051808303816000865af19150503d8060008114611029576040519150601f19603f3d011682016040523d82523d6000602084013e61102e565b606091505b509150915081158061105f5750600081511415801561105e57508080602001905181019061105c9190612538565b155b5b15611096576040517ffb7f507900000000000000000000000000000000000000000000000000000000815260040160405180910390fd5b505050505050565b6000808473ffffffffffffffffffffffffffffffffffffffff1684846040516024016110cb929190612565565b6040516020818303038152906040527f095ea7b3000000000000000000000000000000000000000000000000000000007bffffffffffffffffffffffffffffffffffffffffffffffffffffffff19166020820180517bffffffffffffffffffffffffffffffffffffffffffffffffffffffff838183161783525050505060405161115591906124f5565b6000604051808303816000865af19150503d8060008114611192576040519150601f19603f3d011682016040523d82523d6000602084013e611197565b606091505b50915091508115806111c8575060008151141580156111c75750808060200190518101906111c59190612538565b155b5b156111ff576040517f8c51c63a00000000000000000000000000000000000000000000000000000000815260040160405180910390fd5b5050505050565b61121d81611215611220611241565b63ffffffff16565b50565b60006a636f6e736f6c652e6c6f679050600080835160208501845afa505050565b6112dc819050919050565b828054828255906000526020600020908101928215611294579160200282015b828111156112935782518290816112839190611ea4565b509160200191906001019061126c565b5b5090506112a191906112e6565b5090565b6040518060600160405280600073ffffffffffffffffffffffffffffffffffffffff16815260200160008152602001600081525090565b6112e461258e565b565b5b8082111561130657600081816112fd919061130a565b506001016112e7565b5090565b50805461131690611cc7565b6000825580601f106113285750611347565b601f016020900490600052602060002090810190611346919061134a565b5b50565b5b8082111561136357600081600090555060010161134b565b5090565b6000604051905090565b600080fd5b600080fd5b6000819050919050565b61138e8161137b565b811461139957600080fd5b50565b6000813590506113ab81611385565b92915050565b6000602082840312156113c7576113c6611371565b5b60006113d58482850161139c565b91505092915050565b600073ffffffffffffffffffffffffffffffffffffffff82169050919050565b6000611409826113de565b9050919050565b611419816113fe565b82525050565b6114288161137b565b82525050565b60006060820190506114436000830186611410565b611450602083018561141f565b61145d604083018461141f565b949350505050565b600060208201905061147a600083018461141f565b92915050565b600080fd5b600080fd5b6000601f19601f8301169050919050565b7f4e487b7100000000000000000000000000000000000000000000000000000000600052604160045260246000fd5b6114d38261148a565b810181811067ffffffffffffffff821117156114f2576114f161149b565b5b80604052505050565b6000611505611367565b905061151182826114ca565b919050565b600067ffffffffffffffff8211156115315761153061149b565b5b61153a8261148a565b9050602081019050919050565b82818337600083830152505050565b600061156961156484611516565b6114fb565b90508281526020810184848401111561158557611584611485565b5b611590848285611547565b509392505050565b600082601f8301126115ad576115ac611480565b5b81356115bd848260208601611556565b91505092915050565b600067ffffffffffffffff8211156115e1576115e061149b565b5b602082029050602081019050919050565b600080fd5b600061160a611605846115c6565b6114fb565b9050808382526020820190506020840283018581111561162d5761162c6115f2565b5b835b8181101561167457803567ffffffffffffffff81111561165257611651611480565b5b80860161165f8982611598565b8552602085019450505060208101905061162f565b5050509392505050565b600082601f83011261169357611692611480565b5b81356116a38482602086016115f7565b91505092915050565b600080600080608085870312156116c6576116c5611371565b5b600085013567ffffffffffffffff8111156116e4576116e3611376565b5b6116f087828801611598565b945050602085013567ffffffffffffffff81111561171157611710611376565b5b61171d8782880161167e565b935050604061172e8782880161139c565b925050606061173f8782880161139c565b91505092959194509250565b611754816113fe565b811461175f57600080fd5b50565b6000813590506117718161174b565b92915050565b6000806040838503121561178e5761178d611371565b5b600061179c85828601611762565b92505060206117ad8582860161139c565b9150509250929050565b60008115159050919050565b6117cc816117b7565b82525050565b60006020820190506117e760008301846117c3565b92915050565b600081519050919050565b600082825260208201905092915050565b60005b8381101561182757808201518184015260208101905061180c565b60008484015250505050565b600061183e826117ed565b61184881856117f8565b9350611858818560208601611809565b6118618161148a565b840191505092915050565b600060208201905081810360008301526118868184611833565b905092915050565b600081519050919050565b600082825260208201905092915050565b6000819050602082019050919050565b600082825260208201905092915050565b60006118d6826117ed565b6118e081856118ba565b93506118f0818560208601611809565b6118f98161148a565b840191505092915050565b600061191083836118cb565b905092915050565b6000602082019050919050565b60006119308261188e565b61193a8185611899565b93508360208202850161194c856118aa565b8060005b8581101561198857848403895281516119698582611904565b945061197483611918565b925060208a01995050600181019050611950565b50829750879550505050505092915050565b600060208201905081810360008301526119b48184611925565b905092915050565b60006020820190506119d16000830184611410565b92915050565b600081519050919050565b600082825260208201905092915050565b6000819050602082019050919050565b611a0c816113fe565b82525050565b611a1b8161137b565b82525050565b606082016000820151611a376000850182611a03565b506020820151611a4a6020850182611a12565b506040820151611a5d6040850182611a12565b50505050565b6000611a6f8383611a21565b60608301905092915050565b6000602082019050919050565b6000611a93826119d7565b611a9d81856119e2565b9350611aa8836119f3565b8060005b83811015611ad9578151611ac08882611a63565b9750611acb83611a7b565b925050600181019050611aac565b5085935050505092915050565b60006020820190508181036000830152611b008184611a88565b905092915050565b7f43726f776466756e64696e673a206f6e6c795374617274657200000000000000600082015250565b6000611b3e6019836117f8565b9150611b4982611b08565b602082019050919050565b60006020820190508181036000830152611b6d81611b31565b9050919050565b7f43726f776466756e64696e673a2074617267657420697320746f6f20736d616c60008201527f6c00000000000000000000000000000000000000000000000000000000000000602082015250565b6000611bd06021836117f8565b9150611bdb82611b74565b604082019050919050565b60006020820190508181036000830152611bff81611bc3565b9050919050565b7f43726f776466756e64696e673a206e657720646561646c696e6520697320736860008201527f6f72746572207468616e206265666f7265000000000000000000000000000000602082015250565b6000611c626031836117f8565b9150611c6d82611c06565b604082019050919050565b60006020820190508181036000830152611c9181611c55565b9050919050565b7f4e487b7100000000000000000000000000000000000000000000000000000000600052602260045260246000fd5b60006002820490506001821680611cdf57607f821691505b602082108103611cf257611cf1611c98565b5b50919050565b60008190508160005260206000209050919050565b60006020601f8301049050919050565b600082821b905092915050565b600060088302611d5a7fffffffffffffffffffffffffffffffffffffffffffffffffffffffffffffffff82611d1d565b611d648683611d1d565b95508019841693508086168417925050509392505050565b6000819050919050565b6000611da1611d9c611d978461137b565b611d7c565b61137b565b9050919050565b6000819050919050565b611dbb83611d86565b611dcf611dc782611da8565b848454611d2a565b825550505050565b600090565b611de4611dd7565b611def818484611db2565b505050565b5b81811015611e1357611e08600082611ddc565b600181019050611df5565b5050565b601f821115611e5857611e2981611cf8565b611e3284611d0d565b81016020851015611e41578190505b611e55611e4d85611d0d565b830182611df4565b50505b505050565b600082821c905092915050565b6000611e7b60001984600802611e5d565b1980831691505092915050565b6000611e948383611e6a565b9150826002028217905092915050565b611ead826117ed565b67ffffffffffffffff811115611ec657611ec561149b565b5b611ed08254611cc7565b611edb828285611e17565b600060209050601f831160018114611f0e5760008415611efc578287015190505b611f068582611e88565b865550611f6e565b601f198416611f1c86611cf8565b60005b82811015611f4457848901518255600182019150602085019450602081019050611f1f565b86831015611f615784890151611f5d601f891682611e6a565b8355505b6001600288020188555050505b505050505050565b7f43726f776466756e64696e673a20616c7265616479206578636565642064656160008201527f646c696e65000000000000000000000000000000000000000000000000000000602082015250565b6000611fd26025836117f8565b9150611fdd82611f76565b604082019050919050565b6000602082019050818103600083015261200181611fc5565b9050919050565b7f43726f776466756e64696e673a206f6e6c79466163746f727900000000000000600082015250565b600061203e6019836117f8565b915061204982612008565b602082019050919050565b6000602082019050818103600083015261206d81612031565b9050919050565b7f43726f776466756e64696e672e616464436f6e747269627574696f6e3a20437260008201527f6f776466756e64696e67206973206e6f7420666f722073616c65000000000000602082015250565b60006120d0603a836117f8565b91506120db82612074565b604082019050919050565b600060208201905081810360008301526120ff816120c3565b9050919050565b7f43726f776466756e64696e672e616464436f6e747269627574696f6e3a20696e60008201527f76616c696420616d6f756e740000000000000000000000000000000000000000602082015250565b6000612162602c836117f8565b915061216d82612106565b604082019050919050565b6000602082019050818103600083015261219181612155565b9050919050565b7f43726f776466756e64696e672e616464436f6e747269627574696f6e3a20637260008201527f6f776466756e64696e6720616c72656164792072656163682074617267657400602082015250565b60006121f4603f836117f8565b91506121ff82612198565b604082019050919050565b60006020820190508181036000830152612223816121e7565b9050919050565b7f4e487b7100000000000000000000000000000000000000000000000000000000600052601160045260246000fd5b60006122648261137b565b915061226f8361137b565b92508282019050808211156122875761228661222a565b5b92915050565b60006122988261137b565b91506122a38361137b565b92508282039050818111156122bb576122ba61222a565b5b92915050565b7f43726f776466756e64696e672e72656d6f7665436f6e747269627574696f6e3a60008201527f2043726f776466756e64696e67206973207374696c6c20696e2073616c650000602082015250565b600061231d603e836117f8565b9150612328826122c1565b604082019050919050565b6000602082019050818103600083015261234c81612310565b9050919050565b7f43726f776466756e64696e672e72656d6f7665436f6e747269627574696f6e3a60008201527f20696e76616c696420616d6f756e740000000000000000000000000000000000602082015250565b60006123af602f836117f8565b91506123ba82612353565b604082019050919050565b600060208201905081810360008301526123de816123a2565b9050919050565b7f43726f776466756e64696e672e72656d6f7665436f6e747269627574696f6e3a60008201527f20696e73756666696369656e7420616d6f756e74000000000000000000000000602082015250565b60006124416034836117f8565b915061244c826123e5565b604082019050919050565b6000602082019050818103600083015261247081612434565b9050919050565b600060608201905061248c6000830186611410565b6124996020830185611410565b6124a6604083018461141f565b949350505050565b600081519050919050565b600081905092915050565b60006124cf826124ae565b6124d981856124b9565b93506124e9818560208601611809565b80840191505092915050565b600061250182846124c4565b915081905092915050565b612515816117b7565b811461252057600080fd5b50565b6000815190506125328161250c565b92915050565b60006020828403121561254e5761254d611371565b5b600061255c84828501612523565b91505092915050565b600060408201905061257a6000830185611410565b612587602083018461141f565b9392505050565b7f4e487b7100000000000000000000000000000000000000000000000000000000600052605160045260246000fdfea2646970667358221220c2f19ba784cad87e3372fbc528c2d157243786877a43bf9f885f4ea49576c43264736f6c63430008140033","opcodes":"PUSH1 0x80 PUSH1 0x40 MSTORE CALLVALUE DUP1 ISZERO PUSH3 0x11 JUMPI PUSH1 0x0 DUP1 REVERT JUMPDEST POP PUSH1 0x40 MLOAD PUSH3 0x3078 CODESIZE SUB DUP1 PUSH3 0x3078 DUP4 CODECOPY DUP2 DUP2 ADD PUSH1 0x40 MSTORE DUP2 ADD SWAP1 PUSH3 0x37 SWAP2 SWAP1 PUSH3 0x5CA JUMP JUMPDEST TIMESTAMP DUP3 GT PUSH3 0x7C JUMPI PUSH1 0x40 MLOAD PUSH32 0x8C379A000000000000000000000000000000000000000000000000000000000 DUP2 MSTORE PUSH1 0x4 ADD PUSH3 0x73 SWAP1 PUSH3 0x72B JUMP JUMPDEST PUSH1 0x40 MLOAD DUP1 SWAP2 SUB SWAP1 REVERT JUMPDEST DUP6 PUSH1 0x6 PUSH1 0x1 PUSH2 0x100 EXP DUP2 SLOAD DUP2 PUSH20 0xFFFFFFFFFFFFFFFFFFFFFFFFFFFFFFFFFFFFFFFF MUL NOT AND SWAP1 DUP4 PUSH20 0xFFFFFFFFFFFFFFFFFFFFFFFFFFFFFFFFFFFFFFFF AND MUL OR SWAP1 SSTORE POP CALLER PUSH1 0x8 PUSH1 0x0 PUSH2 0x100 EXP DUP2 SLOAD DUP2 PUSH20 0xFFFFFFFFFFFFFFFFFFFFFFFFFFFFFFFFFFFFFFFF MUL NOT AND SWAP1 DUP4 PUSH20 0xFFFFFFFFFFFFFFFFFFFFFFFFFFFFFFFFFFFFFFFF AND MUL OR SWAP1 SSTORE POP DUP5 PUSH1 0x0 SWAP1 DUP2 PUSH3 0x10F SWAP2 SWAP1 PUSH3 0x98E JUMP JUMPDEST POP DUP4 PUSH1 0x1 SWAP1 DUP1 MLOAD SWAP1 PUSH1 0x20 ADD SWAP1 PUSH3 0x128 SWAP3 SWAP2 SWAP1 PUSH3 0x1AE JUMP JUMPDEST POP DUP3 PUSH1 0x2 DUP2 SWAP1 SSTORE POP PUSH1 0x0 PUSH1 0x3 DUP2 SWAP1 SSTORE POP DUP2 PUSH1 0x4 DUP2 SWAP1 SSTORE POP DUP1 PUSH1 0x7 PUSH1 0x0 PUSH2 0x100 EXP DUP2 SLOAD DUP2 PUSH20 0xFFFFFFFFFFFFFFFFFFFFFFFFFFFFFFFFFFFFFFFF MUL NOT AND SWAP1 DUP4 PUSH20 0xFFFFFFFFFFFFFFFFFFFFFFFFFFFFFFFFFFFFFFFF AND MUL OR SWAP1 SSTORE POP TIMESTAMP PUSH1 0x5 DUP2 SWAP1 SSTORE POP PUSH1 0x1 PUSH1 0x6 PUSH1 0x0 PUSH2 0x100 EXP DUP2 SLOAD DUP2 PUSH1 0xFF MUL NOT AND SWAP1 DUP4 ISZERO ISZERO MUL OR SWAP1 SSTORE POP POP POP POP POP POP POP PUSH3 0xA75 JUMP JUMPDEST DUP3 DUP1 SLOAD DUP3 DUP3 SSTORE SWAP1 PUSH1 0x0 MSTORE PUSH1 0x20 PUSH1 0x0 KECCAK256 SWAP1 DUP2 ADD SWAP3 DUP3 ISZERO PUSH3 0x1FB JUMPI SWAP2 PUSH1 0x20 MUL DUP3 ADD JUMPDEST DUP3 DUP2 GT ISZERO PUSH3 0x1FA JUMPI DUP3 MLOAD DUP3 SWAP1 DUP2 PUSH3 0x1E9 SWAP2 SWAP1 PUSH3 0x98E JUMP JUMPDEST POP SWAP2 PUSH1 0x20 ADD SWAP2 SWAP1 PUSH1 0x1 ADD SWAP1 PUSH3 0x1CF JUMP JUMPDEST JUMPDEST POP SWAP1 POP PUSH3 0x20A SWAP2 SWAP1 PUSH3 0x20E JUMP JUMPDEST POP SWAP1 JUMP JUMPDEST JUMPDEST DUP1 DUP3 GT ISZERO PUSH3 0x232 JUMPI PUSH1 0x0 DUP2 DUP2 PUSH3 0x228 SWAP2 SWAP1 PUSH3 0x236 JUMP JUMPDEST POP PUSH1 0x1 ADD PUSH3 0x20F JUMP JUMPDEST POP SWAP1 JUMP JUMPDEST POP DUP1 SLOAD PUSH3 0x244 SWAP1 PUSH3 0x787 JUMP JUMPDEST PUSH1 0x0 DUP3 SSTORE DUP1 PUSH1 0x1F LT PUSH3 0x258 JUMPI POP PUSH3 0x279 JUMP JUMPDEST PUSH1 0x1F ADD PUSH1 0x20 SWAP1 DIV SWAP1 PUSH1 0x0 MSTORE PUSH1 0x20 PUSH1 0x0 KECCAK256 SWAP1 DUP2 ADD SWAP1 PUSH3 0x278 SWAP2 SWAP1 PUSH3 0x27C JUMP JUMPDEST JUMPDEST POP JUMP JUMPDEST JUMPDEST DUP1 DUP3 GT ISZERO PUSH3 0x297 JUMPI PUSH1 0x0 DUP2 PUSH1 0x0 SWAP1 SSTORE POP PUSH1 0x1 ADD PUSH3 0x27D JUMP JUMPDEST POP SWAP1 JUMP JUMPDEST PUSH1 0x0 PUSH1 0x40 MLOAD SWAP1 POP SWAP1 JUMP JUMPDEST PUSH1 0x0 DUP1 REVERT JUMPDEST PUSH1 0x0 DUP1 REVERT JUMPDEST PUSH1 0x0 PUSH20 0xFFFFFFFFFFFFFFFFFFFFFFFFFFFFFFFFFFFFFFFF DUP3 AND SWAP1 POP SWAP2 SWAP1 POP JUMP JUMPDEST PUSH1 0x0 PUSH3 0x2DC DUP3 PUSH3 0x2AF JUMP JUMPDEST SWAP1 POP SWAP2 SWAP1 POP JUMP JUMPDEST PUSH3 0x2EE DUP2 PUSH3 0x2CF JUMP JUMPDEST DUP2 EQ PUSH3 0x2FA JUMPI PUSH1 0x0 DUP1 REVERT JUMPDEST POP JUMP JUMPDEST PUSH1 0x0 DUP2 MLOAD SWAP1 POP PUSH3 0x30E DUP2 PUSH3 0x2E3 JUMP JUMPDEST SWAP3 SWAP2 POP POP JUMP JUMPDEST PUSH1 0x0 DUP1 REVERT JUMPDEST PUSH1 0x0 DUP1 REVERT JUMPDEST PUSH1 0x0 PUSH1 0x1F NOT PUSH1 0x1F DUP4 ADD AND SWAP1 POP SWAP2 SWAP1 POP JUMP JUMPDEST PUSH32 0x4E487B7100000000000000000000000000000000000000000000000000000000 PUSH1 0x0 MSTORE PUSH1 0x41 PUSH1 0x4 MSTORE PUSH1 0x24 PUSH1 0x0 REVERT JUMPDEST PUSH3 0x369 DUP3 PUSH3 0x31E JUMP JUMPDEST DUP2 ADD DUP2 DUP2 LT PUSH8 0xFFFFFFFFFFFFFFFF DUP3 GT OR ISZERO PUSH3 0x38B JUMPI PUSH3 0x38A PUSH3 0x32F JUMP JUMPDEST JUMPDEST DUP1 PUSH1 0x40 MSTORE POP POP POP JUMP JUMPDEST PUSH1 0x0 PUSH3 0x3A0 PUSH3 0x29B JUMP JUMPDEST SWAP1 POP PUSH3 0x3AE DUP3 DUP3 PUSH3 0x35E JUMP JUMPDEST SWAP2 SWAP1 POP JUMP JUMPDEST PUSH1 0x0 PUSH8 0xFFFFFFFFFFFFFFFF DUP3 GT ISZERO PUSH3 0x3D1 JUMPI PUSH3 0x3D0 PUSH3 0x32F JUMP JUMPDEST JUMPDEST PUSH3 0x3DC DUP3 PUSH3 0x31E JUMP JUMPDEST SWAP1 POP PUSH1 0x20 DUP2 ADD SWAP1 POP SWAP2 SWAP1 POP JUMP JUMPDEST PUSH1 0x0 JUMPDEST DUP4 DUP2 LT ISZERO PUSH3 0x409 JUMPI DUP1 DUP3 ADD MLOAD DUP2 DUP5 ADD MSTORE PUSH1 0x20 DUP2 ADD SWAP1 POP PUSH3 0x3EC JUMP JUMPDEST PUSH1 0x0 DUP5 DUP5 ADD MSTORE POP POP POP POP JUMP JUMPDEST PUSH1 0x0 PUSH3 0x42C PUSH3 0x426 DUP5 PUSH3 0x3B3 JUMP JUMPDEST PUSH3 0x394 JUMP JUMPDEST SWAP1 POP DUP3 DUP2 MSTORE PUSH1 0x20 DUP2 ADD DUP5 DUP5 DUP5 ADD GT ISZERO PUSH3 0x44B JUMPI PUSH3 0x44A PUSH3 0x319 JUMP JUMPDEST JUMPDEST PUSH3 0x458 DUP5 DUP3 DUP6 PUSH3 0x3E9 JUMP JUMPDEST POP SWAP4 SWAP3 POP POP POP JUMP JUMPDEST PUSH1 0x0 DUP3 PUSH1 0x1F DUP4 ADD SLT PUSH3 0x478 JUMPI PUSH3 0x477 PUSH3 0x314 JUMP JUMPDEST JUMPDEST DUP2 MLOAD PUSH3 0x48A DUP5 DUP3 PUSH1 0x20 DUP7 ADD PUSH3 0x415 JUMP JUMPDEST SWAP2 POP POP SWAP3 SWAP2 POP POP JUMP JUMPDEST PUSH1 0x0 PUSH8 0xFFFFFFFFFFFFFFFF DUP3 GT ISZERO PUSH3 0x4B1 JUMPI PUSH3 0x4B0 PUSH3 0x32F JUMP JUMPDEST JUMPDEST PUSH1 0x20 DUP3 MUL SWAP1 POP PUSH1 0x20 DUP2 ADD SWAP1 POP SWAP2 SWAP1 POP JUMP JUMPDEST PUSH1 0x0 DUP1 REVERT JUMPDEST PUSH1 0x0 PUSH3 0x4DE PUSH3 0x4D8 DUP5 PUSH3 0x493 JUMP JUMPDEST PUSH3 0x394 JUMP JUMPDEST SWAP1 POP DUP1 DUP4 DUP3 MSTORE PUSH1 0x20 DUP3 ADD SWAP1 POP PUSH1 0x20 DUP5 MUL DUP4 ADD DUP6 DUP2 GT ISZERO PUSH3 0x504 JUMPI PUSH3 0x503 PUSH3 0x4C2 JUMP JUMPDEST JUMPDEST DUP4 JUMPDEST DUP2 DUP2 LT ISZERO PUSH3 0x552 JUMPI DUP1 MLOAD PUSH8 0xFFFFFFFFFFFFFFFF DUP2 GT ISZERO PUSH3 0x52D JUMPI PUSH3 0x52C PUSH3 0x314 JUMP JUMPDEST JUMPDEST DUP1 DUP7 ADD PUSH3 0x53C DUP10 DUP3 PUSH3 0x460 JUMP JUMPDEST DUP6 MSTORE PUSH1 0x20 DUP6 ADD SWAP5 POP POP POP PUSH1 0x20 DUP2 ADD SWAP1 POP PUSH3 0x506 JUMP JUMPDEST POP POP POP SWAP4 SWAP3 POP POP POP JUMP JUMPDEST PUSH1 0x0 DUP3 PUSH1 0x1F DUP4 ADD SLT PUSH3 0x574 JUMPI PUSH3 0x573 PUSH3 0x314 JUMP JUMPDEST JUMPDEST DUP2 MLOAD PUSH3 0x586 DUP5 DUP3 PUSH1 0x20 DUP7 ADD PUSH3 0x4C7 JUMP JUMPDEST SWAP2 POP POP SWAP3 SWAP2 POP POP JUMP JUMPDEST PUSH1 0x0 DUP2 SWAP1 POP SWAP2 SWAP1 POP JUMP JUMPDEST PUSH3 0x5A4 DUP2 PUSH3 0x58F JUMP JUMPDEST DUP2 EQ PUSH3 0x5B0 JUMPI PUSH1 0x0 DUP1 REVERT JUMPDEST POP JUMP JUMPDEST PUSH1 0x0 DUP2 MLOAD SWAP1 POP PUSH3 0x5C4 DUP2 PUSH3 0x599 JUMP JUMPDEST SWAP3 SWAP2 POP POP JUMP JUMPDEST PUSH1 0x0 DUP1 PUSH1 0x0 DUP1 PUSH1 0x0 DUP1 PUSH1 0xC0 DUP8 DUP10 SUB SLT ISZERO PUSH3 0x5EA JUMPI PUSH3 0x5E9 PUSH3 0x2A5 JUMP JUMPDEST JUMPDEST PUSH1 0x0 PUSH3 0x5FA DUP10 DUP3 DUP11 ADD PUSH3 0x2FD JUMP JUMPDEST SWAP7 POP POP PUSH1 0x20 DUP8 ADD MLOAD PUSH8 0xFFFFFFFFFFFFFFFF DUP2 GT ISZERO PUSH3 0x61E JUMPI PUSH3 0x61D PUSH3 0x2AA JUMP JUMPDEST JUMPDEST PUSH3 0x62C DUP10 DUP3 DUP11 ADD PUSH3 0x460 JUMP JUMPDEST SWAP6 POP POP PUSH1 0x40 DUP8 ADD MLOAD PUSH8 0xFFFFFFFFFFFFFFFF DUP2 GT ISZERO PUSH3 0x650 JUMPI PUSH3 0x64F PUSH3 0x2AA JUMP JUMPDEST JUMPDEST PUSH3 0x65E DUP10 DUP3 DUP11 ADD PUSH3 0x55C JUMP JUMPDEST SWAP5 POP POP PUSH1 0x60 PUSH3 0x671 DUP10 DUP3 DUP11 ADD PUSH3 0x5B3 JUMP JUMPDEST SWAP4 POP POP PUSH1 0x80 PUSH3 0x684 DUP10 DUP3 DUP11 ADD PUSH3 0x5B3 JUMP JUMPDEST SWAP3 POP POP PUSH1 0xA0 PUSH3 0x697 DUP10 DUP3 DUP11 ADD PUSH3 0x2FD JUMP JUMPDEST SWAP2 POP POP SWAP3 SWAP6 POP SWAP3 SWAP6 POP SWAP3 SWAP6 JUMP JUMPDEST PUSH1 0x0 DUP3 DUP3 MSTORE PUSH1 0x20 DUP3 ADD SWAP1 POP SWAP3 SWAP2 POP POP JUMP JUMPDEST PUSH32 0x43726F776466756E64696E673A20446561646C696E65206D7573742062652069 PUSH1 0x0 DUP3 ADD MSTORE PUSH32 0x6E20667574757265000000000000000000000000000000000000000000000000 PUSH1 0x20 DUP3 ADD MSTORE POP JUMP JUMPDEST PUSH1 0x0 PUSH3 0x713 PUSH1 0x28 DUP4 PUSH3 0x6A4 JUMP JUMPDEST SWAP2 POP PUSH3 0x720 DUP3 PUSH3 0x6B5 JUMP JUMPDEST PUSH1 0x40 DUP3 ADD SWAP1 POP SWAP2 SWAP1 POP JUMP JUMPDEST PUSH1 0x0 PUSH1 0x20 DUP3 ADD SWAP1 POP DUP2 DUP2 SUB PUSH1 0x0 DUP4 ADD MSTORE PUSH3 0x746 DUP2 PUSH3 0x704 JUMP JUMPDEST SWAP1 POP SWAP2 SWAP1 POP JUMP JUMPDEST PUSH1 0x0 DUP2 MLOAD SWAP1 POP SWAP2 SWAP1 POP JUMP JUMPDEST PUSH32 0x4E487B7100000000000000000000000000000000000000000000000000000000 PUSH1 0x0 MSTORE PUSH1 0x22 PUSH1 0x4 MSTORE PUSH1 0x24 PUSH1 0x0 REVERT JUMPDEST PUSH1 0x0 PUSH1 0x2 DUP3 DIV SWAP1 POP PUSH1 0x1 DUP3 AND DUP1 PUSH3 0x7A0 JUMPI PUSH1 0x7F DUP3 AND SWAP2 POP JUMPDEST PUSH1 0x20 DUP3 LT DUP2 SUB PUSH3 0x7B6 JUMPI PUSH3 0x7B5 PUSH3 0x758 JUMP JUMPDEST JUMPDEST POP SWAP2 SWAP1 POP JUMP JUMPDEST PUSH1 0x0 DUP2 SWAP1 POP DUP2 PUSH1 0x0 MSTORE PUSH1 0x20 PUSH1 0x0 KECCAK256 SWAP1 POP SWAP2 SWAP1 POP JUMP JUMPDEST PUSH1 0x0 PUSH1 0x20 PUSH1 0x1F DUP4 ADD DIV SWAP1 POP SWAP2 SWAP1 POP JUMP JUMPDEST PUSH1 0x0 DUP3 DUP3 SHL SWAP1 POP SWAP3 SWAP2 POP POP JUMP JUMPDEST PUSH1 0x0 PUSH1 0x8 DUP4 MUL PUSH3 0x820 PUSH32 0xFFFFFFFFFFFFFFFFFFFFFFFFFFFFFFFFFFFFFFFFFFFFFFFFFFFFFFFFFFFFFFFF DUP3 PUSH3 0x7E1 JUMP JUMPDEST PUSH3 0x82C DUP7 DUP4 PUSH3 0x7E1 JUMP JUMPDEST SWAP6 POP DUP1 NOT DUP5 AND SWAP4 POP DUP1 DUP7 AND DUP5 OR SWAP3 POP POP POP SWAP4 SWAP3 POP POP POP JUMP JUMPDEST PUSH1 0x0 DUP2 SWAP1 POP SWAP2 SWAP1 POP JUMP JUMPDEST PUSH1 0x0 PUSH3 0x86F PUSH3 0x869 PUSH3 0x863 DUP5 PUSH3 0x58F JUMP JUMPDEST PUSH3 0x844 JUMP JUMPDEST PUSH3 0x58F JUMP JUMPDEST SWAP1 POP SWAP2 SWAP1 POP JUMP JUMPDEST PUSH1 0x0 DUP2 SWAP1 POP SWAP2 SWAP1 POP JUMP JUMPDEST PUSH3 0x88B DUP4 PUSH3 0x84E JUMP JUMPDEST PUSH3 0x8A3 PUSH3 0x89A DUP3 PUSH3 0x876 JUMP JUMPDEST DUP5 DUP5 SLOAD PUSH3 0x7EE JUMP JUMPDEST DUP3 SSTORE POP POP POP POP JUMP JUMPDEST PUSH1 0x0 SWAP1 JUMP JUMPDEST PUSH3 0x8BA PUSH3 0x8AB JUMP JUMPDEST PUSH3 0x8C7 DUP2 DUP5 DUP5 PUSH3 0x880 JUMP JUMPDEST POP POP POP JUMP JUMPDEST JUMPDEST DUP2 DUP2 LT ISZERO PUSH3 0x8EF JUMPI PUSH3 0x8E3 PUSH1 0x0 DUP3 PUSH3 0x8B0 JUMP JUMPDEST PUSH1 0x1 DUP2 ADD SWAP1 POP PUSH3 0x8CD JUMP JUMPDEST POP POP JUMP JUMPDEST PUSH1 0x1F DUP3 GT ISZERO PUSH3 0x93E JUMPI PUSH3 0x908 DUP2 PUSH3 0x7BC JUMP JUMPDEST PUSH3 0x913 DUP5 PUSH3 0x7D1 JUMP JUMPDEST DUP2 ADD PUSH1 0x20 DUP6 LT ISZERO PUSH3 0x923 JUMPI DUP2 SWAP1 POP JUMPDEST PUSH3 0x93B PUSH3 0x932 DUP6 PUSH3 0x7D1 JUMP JUMPDEST DUP4 ADD DUP3 PUSH3 0x8CC JUMP JUMPDEST POP POP JUMPDEST POP POP POP JUMP JUMPDEST PUSH1 0x0 DUP3 DUP3 SHR SWAP1 POP SWAP3 SWAP2 POP POP JUMP JUMPDEST PUSH1 0x0 PUSH3 0x963 PUSH1 0x0 NOT DUP5 PUSH1 0x8 MUL PUSH3 0x943 JUMP JUMPDEST NOT DUP1 DUP4 AND SWAP2 POP POP SWAP3 SWAP2 POP POP JUMP JUMPDEST PUSH1 0x0 PUSH3 0x97E DUP4 DUP4 PUSH3 0x950 JUMP JUMPDEST SWAP2 POP DUP3 PUSH1 0x2 MUL DUP3 OR SWAP1 POP SWAP3 SWAP2 POP POP JUMP JUMPDEST PUSH3 0x999 DUP3 PUSH3 0x74D JUMP JUMPDEST PUSH8 0xFFFFFFFFFFFFFFFF DUP2 GT ISZERO PUSH3 0x9B5 JUMPI PUSH3 0x9B4 PUSH3 0x32F JUMP JUMPDEST JUMPDEST PUSH3 0x9C1 DUP3 SLOAD PUSH3 0x787 JUMP JUMPDEST PUSH3 0x9CE DUP3 DUP3 DUP6 PUSH3 0x8F3 JUMP JUMPDEST PUSH1 0x0 PUSH1 0x20 SWAP1 POP PUSH1 0x1F DUP4 GT PUSH1 0x1 DUP2 EQ PUSH3 0xA06 JUMPI PUSH1 0x0 DUP5 ISZERO PUSH3 0x9F1 JUMPI DUP3 DUP8 ADD MLOAD SWAP1 POP JUMPDEST PUSH3 0x9FD DUP6 DUP3 PUSH3 0x970 JUMP JUMPDEST DUP7 SSTORE POP PUSH3 0xA6D JUMP JUMPDEST PUSH1 0x1F NOT DUP5 AND PUSH3 0xA16 DUP7 PUSH3 0x7BC JUMP JUMPDEST PUSH1 0x0 JUMPDEST DUP3 DUP2 LT ISZERO PUSH3 0xA40 JUMPI DUP5 DUP10 ADD MLOAD DUP3 SSTORE PUSH1 0x1 DUP3 ADD SWAP2 POP PUSH1 0x20 DUP6 ADD SWAP5 POP PUSH1 0x20 DUP2 ADD SWAP1 POP PUSH3 0xA19 JUMP JUMPDEST DUP7 DUP4 LT ISZERO PUSH3 0xA60 JUMPI DUP5 DUP10 ADD MLOAD PUSH3 0xA5C PUSH1 0x1F DUP10 AND DUP3 PUSH3 0x950 JUMP JUMPDEST DUP4 SSTORE POP JUMPDEST PUSH1 0x1 PUSH1 0x2 DUP9 MUL ADD DUP9 SSTORE POP POP POP JUMPDEST POP POP POP POP POP POP JUMP JUMPDEST PUSH2 0x25F3 DUP1 PUSH3 0xA85 PUSH1 0x0 CODECOPY PUSH1 0x0 RETURN INVALID PUSH1 0x80 PUSH1 0x40 MSTORE CALLVALUE DUP1 ISZERO PUSH2 0x10 JUMPI PUSH1 0x0 DUP1 REVERT JUMPDEST POP PUSH1 0x4 CALLDATASIZE LT PUSH2 0x121 JUMPI PUSH1 0x0 CALLDATALOAD PUSH1 0xE0 SHR DUP1 PUSH4 0x966DAE0E GT PUSH2 0xAD JUMPI DUP1 PUSH4 0xD4B83992 GT PUSH2 0x71 JUMPI DUP1 PUSH4 0xD4B83992 EQ PUSH2 0x326 JUMPI DUP1 PUSH4 0xD9DE1307 EQ PUSH2 0x344 JUMPI DUP1 PUSH4 0xDDA0A81A EQ PUSH2 0x360 JUMPI DUP1 PUSH4 0xF00E6A2A EQ PUSH2 0x37E JUMPI DUP1 PUSH4 0xF5A8492F EQ PUSH2 0x39C JUMPI PUSH2 0x121 JUMP JUMPDEST DUP1 PUSH4 0x966DAE0E EQ PUSH2 0x27E JUMPI DUP1 PUSH4 0x9D76EA58 EQ PUSH2 0x29C JUMPI DUP1 PUSH4 0x9FA6A6E3 EQ PUSH2 0x2BA JUMPI DUP1 PUSH4 0xC6CDBE5E EQ PUSH2 0x2D8 JUMPI DUP1 PUSH4 0xC7446565 EQ PUSH2 0x308 JUMPI PUSH2 0x121 JUMP JUMPDEST DUP1 PUSH4 0x39ECACAC GT PUSH2 0xF4 JUMPI DUP1 PUSH4 0x39ECACAC EQ PUSH2 0x1C4 JUMPI DUP1 PUSH4 0x47535D7B EQ PUSH2 0x1F4 JUMPI DUP1 PUSH4 0x4A79D50C EQ PUSH2 0x212 JUMPI DUP1 PUSH4 0x4DB0412C EQ PUSH2 0x230 JUMPI DUP1 PUSH4 0x83E49019 EQ PUSH2 0x24E JUMPI PUSH2 0x121 JUMP JUMPDEST DUP1 PUSH4 0x1CEE0700 EQ PUSH2 0x126 JUMPI DUP1 PUSH4 0x1EF48007 EQ PUSH2 0x158 JUMPI DUP1 PUSH4 0x29DCB0CF EQ PUSH2 0x18A JUMPI DUP1 PUSH4 0x33B4E294 EQ PUSH2 0x1A8 JUMPI JUMPDEST PUSH1 0x0 DUP1 REVERT JUMPDEST PUSH2 0x140 PUSH1 0x4 DUP1 CALLDATASIZE SUB DUP2 ADD SWAP1 PUSH2 0x13B SWAP2 SWAP1 PUSH2 0x13B1 JUMP JUMPDEST PUSH2 0x3BA JUMP JUMPDEST PUSH1 0x40 MLOAD PUSH2 0x14F SWAP4 SWAP3 SWAP2 SWAP1 PUSH2 0x142E JUMP JUMPDEST PUSH1 0x40 MLOAD DUP1 SWAP2 SUB SWAP1 RETURN JUMPDEST PUSH2 0x172 PUSH1 0x4 DUP1 CALLDATASIZE SUB DUP2 ADD SWAP1 PUSH2 0x16D SWAP2 SWAP1 PUSH2 0x13B1 JUMP JUMPDEST PUSH2 0x414 JUMP JUMPDEST PUSH1 0x40 MLOAD PUSH2 0x181 SWAP4 SWAP3 SWAP2 SWAP1 PUSH2 0x142E JUMP JUMPDEST PUSH1 0x40 MLOAD DUP1 SWAP2 SUB SWAP1 RETURN JUMPDEST PUSH2 0x192 PUSH2 0x46E JUMP JUMPDEST PUSH1 0x40 MLOAD PUSH2 0x19F SWAP2 SWAP1 PUSH2 0x1465 JUMP JUMPDEST PUSH1 0x40 MLOAD DUP1 SWAP2 SUB SWAP1 RETURN JUMPDEST PUSH2 0x1C2 PUSH1 0x4 DUP1 CALLDATASIZE SUB DUP2 ADD SWAP1 PUSH2 0x1BD SWAP2 SWAP1 PUSH2 0x16AC JUMP JUMPDEST PUSH2 0x474 JUMP JUMPDEST STOP JUMPDEST PUSH2 0x1DE PUSH1 0x4 DUP1 CALLDATASIZE SUB DUP2 ADD SWAP1 PUSH2 0x1D9 SWAP2 SWAP1 PUSH2 0x1777 JUMP JUMPDEST PUSH2 0x5C7 JUMP JUMPDEST PUSH1 0x40 MLOAD PUSH2 0x1EB SWAP2 SWAP1 PUSH2 0x1465 JUMP JUMPDEST PUSH1 0x40 MLOAD DUP1 SWAP2 SUB SWAP1 RETURN JUMPDEST PUSH2 0x1FC PUSH2 0x8DB JUMP JUMPDEST PUSH1 0x40 MLOAD PUSH2 0x209 SWAP2 SWAP1 PUSH2 0x17D2 JUMP JUMPDEST PUSH1 0x40 MLOAD DUP1 SWAP2 SUB SWAP1 RETURN JUMPDEST PUSH2 0x21A PUSH2 0x8EE JUMP JUMPDEST PUSH1 0x40 MLOAD PUSH2 0x227 SWAP2 SWAP1 PUSH2 0x186C JUMP JUMPDEST PUSH1 0x40 MLOAD DUP1 SWAP2 SUB SWAP1 RETURN JUMPDEST PUSH2 0x238 PUSH2 0x97C JUMP JUMPDEST PUSH1 0x40 MLOAD PUSH2 0x245 SWAP2 SWAP1 PUSH2 0x199A JUMP JUMPDEST PUSH1 0x40 MLOAD DUP1 SWAP2 SUB SWAP1 RETURN JUMPDEST PUSH2 0x268 PUSH1 0x4 DUP1 CALLDATASIZE SUB DUP2 ADD SWAP1 PUSH2 0x263 SWAP2 SWAP1 PUSH2 0x13B1 JUMP JUMPDEST PUSH2 0xA55 JUMP JUMPDEST PUSH1 0x40 MLOAD PUSH2 0x275 SWAP2 SWAP1 PUSH2 0x1465 JUMP JUMPDEST PUSH1 0x40 MLOAD DUP1 SWAP2 SUB SWAP1 RETURN JUMPDEST PUSH2 0x286 PUSH2 0xAB7 JUMP JUMPDEST PUSH1 0x40 MLOAD PUSH2 0x293 SWAP2 SWAP1 PUSH2 0x19BC JUMP JUMPDEST PUSH1 0x40 MLOAD DUP1 SWAP2 SUB SWAP1 RETURN JUMPDEST PUSH2 0x2A4 PUSH2 0xADD JUMP JUMPDEST PUSH1 0x40 MLOAD PUSH2 0x2B1 SWAP2 SWAP1 PUSH2 0x19BC JUMP JUMPDEST PUSH1 0x40 MLOAD DUP1 SWAP2 SUB SWAP1 RETURN JUMPDEST PUSH2 0x2C2 PUSH2 0xB03 JUMP JUMPDEST PUSH1 0x40 MLOAD PUSH2 0x2CF SWAP2 SWAP1 PUSH2 0x1465 JUMP JUMPDEST PUSH1 0x40 MLOAD DUP1 SWAP2 SUB SWAP1 RETURN JUMPDEST PUSH2 0x2F2 PUSH1 0x4 DUP1 CALLDATASIZE SUB DUP2 ADD SWAP1 PUSH2 0x2ED SWAP2 SWAP1 PUSH2 0x13B1 JUMP JUMPDEST PUSH2 0xB09 JUMP JUMPDEST PUSH1 0x40 MLOAD PUSH2 0x2FF SWAP2 SWAP1 PUSH2 0x186C JUMP JUMPDEST PUSH1 0x40 MLOAD DUP1 SWAP2 SUB SWAP1 RETURN JUMPDEST PUSH2 0x310 PUSH2 0xBB5 JUMP JUMPDEST PUSH1 0x40 MLOAD PUSH2 0x31D SWAP2 SWAP1 PUSH2 0x1465 JUMP JUMPDEST PUSH1 0x40 MLOAD DUP1 SWAP2 SUB SWAP1 RETURN JUMPDEST PUSH2 0x32E PUSH2 0xBBB JUMP JUMPDEST PUSH1 0x40 MLOAD PUSH2 0x33B SWAP2 SWAP1 PUSH2 0x1465 JUMP JUMPDEST PUSH1 0x40 MLOAD DUP1 SWAP2 SUB SWAP1 RETURN JUMPDEST PUSH2 0x35E PUSH1 0x4 DUP1 CALLDATASIZE SUB DUP2 ADD SWAP1 PUSH2 0x359 SWAP2 SWAP1 PUSH2 0x1777 JUMP JUMPDEST PUSH2 0xBC1 JUMP JUMPDEST STOP JUMPDEST PUSH2 0x368 PUSH2 0xDA1 JUMP JUMPDEST PUSH1 0x40 MLOAD PUSH2 0x375 SWAP2 SWAP1 PUSH2 0x1AE6 JUMP JUMPDEST PUSH1 0x40 MLOAD DUP1 SWAP2 SUB SWAP1 RETURN JUMPDEST PUSH2 0x386 PUSH2 0xE6A JUMP JUMPDEST PUSH1 0x40 MLOAD PUSH2 0x393 SWAP2 SWAP1 PUSH2 0x1465 JUMP JUMPDEST PUSH1 0x40 MLOAD DUP1 SWAP2 SUB SWAP1 RETURN JUMPDEST PUSH2 0x3A4 PUSH2 0xE74 JUMP JUMPDEST PUSH1 0x40 MLOAD PUSH2 0x3B1 SWAP2 SWAP1 PUSH2 0x19BC JUMP JUMPDEST PUSH1 0x40 MLOAD DUP1 SWAP2 SUB SWAP1 RETURN JUMPDEST PUSH1 0x9 DUP2 DUP2 SLOAD DUP2 LT PUSH2 0x3CA JUMPI PUSH1 0x0 DUP1 REVERT JUMPDEST SWAP1 PUSH1 0x0 MSTORE PUSH1 0x20 PUSH1 0x0 KECCAK256 SWAP1 PUSH1 0x3 MUL ADD PUSH1 0x0 SWAP2 POP SWAP1 POP DUP1 PUSH1 0x0 ADD PUSH1 0x0 SWAP1 SLOAD SWAP1 PUSH2 0x100 EXP SWAP1 DIV PUSH20 0xFFFFFFFFFFFFFFFFFFFFFFFFFFFFFFFFFFFFFFFF AND SWAP1 DUP1 PUSH1 0x1 ADD SLOAD SWAP1 DUP1 PUSH1 0x2 ADD SLOAD SWAP1 POP DUP4 JUMP JUMPDEST PUSH1 0xA DUP2 DUP2 SLOAD DUP2 LT PUSH2 0x424 JUMPI PUSH1 0x0 DUP1 REVERT JUMPDEST SWAP1 PUSH1 0x0 MSTORE PUSH1 0x20 PUSH1 0x0 KECCAK256 SWAP1 PUSH1 0x3 MUL ADD PUSH1 0x0 SWAP2 POP SWAP1 POP DUP1 PUSH1 0x0 ADD PUSH1 0x0 SWAP1 SLOAD SWAP1 PUSH2 0x100 EXP SWAP1 DIV PUSH20 0xFFFFFFFFFFFFFFFFFFFFFFFFFFFFFFFFFFFFFFFF AND SWAP1 DUP1 PUSH1 0x1 ADD SLOAD SWAP1 DUP1 PUSH1 0x2 ADD SLOAD SWAP1 POP DUP4 JUMP JUMPDEST PUSH1 0x4 SLOAD DUP2 JUMP JUMPDEST PUSH1 0x6 PUSH1 0x1 SWAP1 SLOAD SWAP1 PUSH2 0x100 EXP SWAP1 DIV PUSH20 0xFFFFFFFFFFFFFFFFFFFFFFFFFFFFFFFFFFFFFFFF AND PUSH20 0xFFFFFFFFFFFFFFFFFFFFFFFFFFFFFFFFFFFFFFFF AND CALLER PUSH20 0xFFFFFFFFFFFFFFFFFFFFFFFFFFFFFFFFFFFFFFFF AND EQ PUSH2 0x504 JUMPI PUSH1 0x40 MLOAD PUSH32 0x8C379A000000000000000000000000000000000000000000000000000000000 DUP2 MSTORE PUSH1 0x4 ADD PUSH2 0x4FB SWAP1 PUSH2 0x1B54 JUMP JUMPDEST PUSH1 0x40 MLOAD DUP1 SWAP2 SUB SWAP1 REVERT JUMPDEST PUSH1 0x3 SLOAD DUP3 GT PUSH2 0x548 JUMPI PUSH1 0x40 MLOAD PUSH32 0x8C379A000000000000000000000000000000000000000000000000000000000 DUP2 MSTORE PUSH1 0x4 ADD PUSH2 0x53F SWAP1 PUSH2 0x1BE6 JUMP JUMPDEST PUSH1 0x40 MLOAD DUP1 SWAP2 SUB SWAP1 REVERT JUMPDEST PUSH1 0x4 SLOAD DUP2 GT PUSH2 0x58C JUMPI PUSH1 0x40 MLOAD PUSH32 0x8C379A000000000000000000000000000000000000000000000000000000000 DUP2 MSTORE PUSH1 0x4 ADD PUSH2 0x583 SWAP1 PUSH2 0x1C78 JUMP JUMPDEST PUSH1 0x40 MLOAD DUP1 SWAP2 SUB SWAP1 REVERT JUMPDEST DUP4 PUSH1 0x0 SWAP1 DUP2 PUSH2 0x59B SWAP2 SWAP1 PUSH2 0x1EA4 JUMP JUMPDEST POP DUP3 PUSH1 0x1 SWAP1 DUP1 MLOAD SWAP1 PUSH1 0x20 ADD SWAP1 PUSH2 0x5B2 SWAP3 SWAP2 SWAP1 PUSH2 0x124C JUMP JUMPDEST POP DUP2 PUSH1 0x2 DUP2 SWAP1 SSTORE POP DUP1 PUSH1 0x4 DUP2 SWAP1 SSTORE POP POP POP POP POP JUMP JUMPDEST PUSH1 0x0 PUSH1 0x4 SLOAD TIMESTAMP LT PUSH2 0x60D JUMPI PUSH1 0x40 MLOAD PUSH32 0x8C379A000000000000000000000000000000000000000000000000000000000 DUP2 MSTORE PUSH1 0x4 ADD PUSH2 0x604 SWAP1 PUSH2 0x1FE8 JUMP JUMPDEST PUSH1 0x40 MLOAD DUP1 SWAP2 SUB SWAP1 REVERT JUMPDEST PUSH1 0x8 PUSH1 0x0 SWAP1 SLOAD SWAP1 PUSH2 0x100 EXP SWAP1 DIV PUSH20 0xFFFFFFFFFFFFFFFFFFFFFFFFFFFFFFFFFFFFFFFF AND PUSH20 0xFFFFFFFFFFFFFFFFFFFFFFFFFFFFFFFFFFFFFFFF AND CALLER PUSH20 0xFFFFFFFFFFFFFFFFFFFFFFFFFFFFFFFFFFFFFFFF AND EQ PUSH2 0x69D JUMPI PUSH1 0x40 MLOAD PUSH32 0x8C379A000000000000000000000000000000000000000000000000000000000 DUP2 MSTORE PUSH1 0x4 ADD PUSH2 0x694 SWAP1 PUSH2 0x2054 JUMP JUMPDEST PUSH1 0x40 MLOAD DUP1 SWAP2 SUB SWAP1 REVERT JUMPDEST PUSH1 0x6 PUSH1 0x0 SWAP1 SLOAD SWAP1 PUSH2 0x100 EXP SWAP1 DIV PUSH1 0xFF AND PUSH2 0x6EC JUMPI PUSH1 0x40 MLOAD PUSH32 0x8C379A000000000000000000000000000000000000000000000000000000000 DUP2 MSTORE PUSH1 0x4 ADD PUSH2 0x6E3 SWAP1 PUSH2 0x20E6 JUMP JUMPDEST PUSH1 0x40 MLOAD DUP1 SWAP2 SUB SWAP1 REVERT JUMPDEST PUSH1 0x0 DUP3 GT PUSH2 0x72F JUMPI PUSH1 0x40 MLOAD PUSH32 0x8C379A000000000000000000000000000000000000000000000000000000000 DUP2 MSTORE PUSH1 0x4 ADD PUSH2 0x726 SWAP1 PUSH2 0x2178 JUMP JUMPDEST PUSH1 0x40 MLOAD DUP1 SWAP2 SUB SWAP1 REVERT JUMPDEST PUSH1 0x2 SLOAD PUSH1 0x3 SLOAD LT PUSH2 0x775 JUMPI PUSH1 0x40 MLOAD PUSH32 0x8C379A000000000000000000000000000000000000000000000000000000000 DUP2 MSTORE PUSH1 0x4 ADD PUSH2 0x76C SWAP1 PUSH2 0x220A JUMP JUMPDEST PUSH1 0x40 MLOAD DUP1 SWAP2 SUB SWAP1 REVERT JUMPDEST PUSH2 0x77E DUP3 PUSH2 0xA55 JUMP JUMPDEST SWAP1 POP PUSH2 0x789 DUP2 PUSH2 0xE9A JUMP JUMPDEST DUP1 PUSH1 0x3 PUSH1 0x0 DUP3 DUP3 SLOAD PUSH2 0x79B SWAP2 SWAP1 PUSH2 0x2259 JUMP JUMPDEST SWAP3 POP POP DUP2 SWAP1 SSTORE POP PUSH2 0x7AA PUSH2 0x12A5 JUMP JUMPDEST DUP4 DUP2 PUSH1 0x0 ADD SWAP1 PUSH20 0xFFFFFFFFFFFFFFFFFFFFFFFFFFFFFFFFFFFFFFFF AND SWAP1 DUP2 PUSH20 0xFFFFFFFFFFFFFFFFFFFFFFFFFFFFFFFFFFFFFFFF AND DUP2 MSTORE POP POP DUP2 DUP2 PUSH1 0x20 ADD DUP2 DUP2 MSTORE POP POP TIMESTAMP DUP2 PUSH1 0x40 ADD DUP2 DUP2 MSTORE POP POP PUSH1 0x9 DUP2 SWAP1 DUP1 PUSH1 0x1 DUP2 SLOAD ADD DUP1 DUP3 SSTORE DUP1 SWAP2 POP POP PUSH1 0x1 SWAP1 SUB SWAP1 PUSH1 0x0 MSTORE PUSH1 0x20 PUSH1 0x0 KECCAK256 SWAP1 PUSH1 0x3 MUL ADD PUSH1 0x0 SWAP1 SWAP2 SWAP1 SWAP2 SWAP1 SWAP2 POP PUSH1 0x0 DUP3 ADD MLOAD DUP2 PUSH1 0x0 ADD PUSH1 0x0 PUSH2 0x100 EXP DUP2 SLOAD DUP2 PUSH20 0xFFFFFFFFFFFFFFFFFFFFFFFFFFFFFFFFFFFFFFFF MUL NOT AND SWAP1 DUP4 PUSH20 0xFFFFFFFFFFFFFFFFFFFFFFFFFFFFFFFFFFFFFFFF AND MUL OR SWAP1 SSTORE POP PUSH1 0x20 DUP3 ADD MLOAD DUP2 PUSH1 0x1 ADD SSTORE PUSH1 0x40 DUP3 ADD MLOAD DUP2 PUSH1 0x2 ADD SSTORE POP POP PUSH2 0x8AD PUSH1 0x7 PUSH1 0x0 SWAP1 SLOAD SWAP1 PUSH2 0x100 EXP SWAP1 DIV PUSH20 0xFFFFFFFFFFFFFFFFFFFFFFFFFFFFFFFFFFFFFFFF AND DUP6 ADDRESS DUP6 PUSH2 0xF33 JUMP JUMPDEST PUSH1 0x2 SLOAD PUSH1 0x3 SLOAD LT PUSH2 0x8D4 JUMPI PUSH1 0x0 PUSH1 0x6 PUSH1 0x0 PUSH2 0x100 EXP DUP2 SLOAD DUP2 PUSH1 0xFF MUL NOT AND SWAP1 DUP4 ISZERO ISZERO MUL OR SWAP1 SSTORE POP JUMPDEST POP SWAP3 SWAP2 POP POP JUMP JUMPDEST PUSH1 0x6 PUSH1 0x0 SWAP1 SLOAD SWAP1 PUSH2 0x100 EXP SWAP1 DIV PUSH1 0xFF AND DUP2 JUMP JUMPDEST PUSH1 0x0 DUP1 SLOAD PUSH2 0x8FB SWAP1 PUSH2 0x1CC7 JUMP JUMPDEST DUP1 PUSH1 0x1F ADD PUSH1 0x20 DUP1 SWAP2 DIV MUL PUSH1 0x20 ADD PUSH1 0x40 MLOAD SWAP1 DUP2 ADD PUSH1 0x40 MSTORE DUP1 SWAP3 SWAP2 SWAP1 DUP2 DUP2 MSTORE PUSH1 0x20 ADD DUP3 DUP1 SLOAD PUSH2 0x927 SWAP1 PUSH2 0x1CC7 JUMP JUMPDEST DUP1 ISZERO PUSH2 0x974 JUMPI DUP1 PUSH1 0x1F LT PUSH2 0x949 JUMPI PUSH2 0x100 DUP1 DUP4 SLOAD DIV MUL DUP4 MSTORE SWAP2 PUSH1 0x20 ADD SWAP2 PUSH2 0x974 JUMP JUMPDEST DUP3 ADD SWAP2 SWAP1 PUSH1 0x0 MSTORE PUSH1 0x20 PUSH1 0x0 KECCAK256 SWAP1 JUMPDEST DUP2 SLOAD DUP2 MSTORE SWAP1 PUSH1 0x1 ADD SWAP1 PUSH1 0x20 ADD DUP1 DUP4 GT PUSH2 0x957 JUMPI DUP3 SWAP1 SUB PUSH1 0x1F AND DUP3 ADD SWAP2 JUMPDEST POP POP POP POP POP DUP2 JUMP JUMPDEST PUSH1 0x60 PUSH1 0x1 DUP1 SLOAD DUP1 PUSH1 0x20 MUL PUSH1 0x20 ADD PUSH1 0x40 MLOAD SWAP1 DUP2 ADD PUSH1 0x40 MSTORE DUP1 SWAP3 SWAP2 SWAP1 DUP2 DUP2 MSTORE PUSH1 0x20 ADD PUSH1 0x0 SWAP1 JUMPDEST DUP3 DUP3 LT ISZERO PUSH2 0xA4C JUMPI DUP4 DUP3 SWAP1 PUSH1 0x0 MSTORE PUSH1 0x20 PUSH1 0x0 KECCAK256 ADD DUP1 SLOAD PUSH2 0x9BF SWAP1 PUSH2 0x1CC7 JUMP JUMPDEST DUP1 PUSH1 0x1F ADD PUSH1 0x20 DUP1 SWAP2 DIV MUL PUSH1 0x20 ADD PUSH1 0x40 MLOAD SWAP1 DUP2 ADD PUSH1 0x40 MSTORE DUP1 SWAP3 SWAP2 SWAP1 DUP2 DUP2 MSTORE PUSH1 0x20 ADD DUP3 DUP1 SLOAD PUSH2 0x9EB SWAP1 PUSH2 0x1CC7 JUMP JUMPDEST DUP1 ISZERO PUSH2 0xA38 JUMPI DUP1 PUSH1 0x1F LT PUSH2 0xA0D JUMPI PUSH2 0x100 DUP1 DUP4 SLOAD DIV MUL DUP4 MSTORE SWAP2 PUSH1 0x20 ADD SWAP2 PUSH2 0xA38 JUMP JUMPDEST DUP3 ADD SWAP2 SWAP1 PUSH1 0x0 MSTORE PUSH1 0x20 PUSH1 0x0 KECCAK256 SWAP1 JUMPDEST DUP2 SLOAD DUP2 MSTORE SWAP1 PUSH1 0x1 ADD SWAP1 PUSH1 0x20 ADD DUP1 DUP4 GT PUSH2 0xA1B JUMPI DUP3 SWAP1 SUB PUSH1 0x1F AND DUP3 ADD SWAP2 JUMPDEST POP POP POP POP POP DUP2 MSTORE PUSH1 0x20 ADD SWAP1 PUSH1 0x1 ADD SWAP1 PUSH2 0x9A0 JUMP JUMPDEST POP POP POP POP SWAP1 POP SWAP1 JUMP JUMPDEST PUSH1 0x0 PUSH1 0x2 SLOAD PUSH1 0x3 SLOAD LT PUSH2 0xA6B JUMPI PUSH1 0x0 SWAP1 POP PUSH2 0xAB2 JUMP JUMPDEST PUSH1 0x4 SLOAD TIMESTAMP GT ISZERO PUSH2 0xA7E JUMPI PUSH1 0x0 SWAP1 POP PUSH2 0xAB2 JUMP JUMPDEST PUSH1 0x0 DUP3 SWAP1 POP PUSH1 0x2 SLOAD DUP2 PUSH1 0x3 SLOAD PUSH2 0xA94 SWAP2 SWAP1 PUSH2 0x2259 JUMP JUMPDEST GT ISZERO PUSH2 0xAAD JUMPI PUSH1 0x3 SLOAD PUSH1 0x2 SLOAD PUSH2 0xAAA SWAP2 SWAP1 PUSH2 0x228D JUMP JUMPDEST SWAP1 POP JUMPDEST DUP1 SWAP2 POP POP JUMPDEST SWAP2 SWAP1 POP JUMP JUMPDEST PUSH1 0x8 PUSH1 0x0 SWAP1 SLOAD SWAP1 PUSH2 0x100 EXP SWAP1 DIV PUSH20 0xFFFFFFFFFFFFFFFFFFFFFFFFFFFFFFFFFFFFFFFF AND DUP2 JUMP JUMPDEST PUSH1 0x7 PUSH1 0x0 SWAP1 SLOAD SWAP1 PUSH2 0x100 EXP SWAP1 DIV PUSH20 0xFFFFFFFFFFFFFFFFFFFFFFFFFFFFFFFFFFFFFFFF AND DUP2 JUMP JUMPDEST PUSH1 0x3 SLOAD DUP2 JUMP JUMPDEST PUSH1 0x1 DUP2 DUP2 SLOAD DUP2 LT PUSH2 0xB19 JUMPI PUSH1 0x0 DUP1 REVERT JUMPDEST SWAP1 PUSH1 0x0 MSTORE PUSH1 0x20 PUSH1 0x0 KECCAK256 ADD PUSH1 0x0 SWAP2 POP SWAP1 POP DUP1 SLOAD PUSH2 0xB34 SWAP1 PUSH2 0x1CC7 JUMP JUMPDEST DUP1 PUSH1 0x1F ADD PUSH1 0x20 DUP1 SWAP2 DIV MUL PUSH1 0x20 ADD PUSH1 0x40 MLOAD SWAP1 DUP2 ADD PUSH1 0x40 MSTORE DUP1 SWAP3 SWAP2 SWAP1 DUP2 DUP2 MSTORE PUSH1 0x20 ADD DUP3 DUP1 SLOAD PUSH2 0xB60 SWAP1 PUSH2 0x1CC7 JUMP JUMPDEST DUP1 ISZERO PUSH2 0xBAD JUMPI DUP1 PUSH1 0x1F LT PUSH2 0xB82 JUMPI PUSH2 0x100 DUP1 DUP4 SLOAD DIV MUL DUP4 MSTORE SWAP2 PUSH1 0x20 ADD SWAP2 PUSH2 0xBAD JUMP JUMPDEST DUP3 ADD SWAP2 SWAP1 PUSH1 0x0 MSTORE PUSH1 0x20 PUSH1 0x0 KECCAK256 SWAP1 JUMPDEST DUP2 SLOAD DUP2 MSTORE SWAP1 PUSH1 0x1 ADD SWAP1 PUSH1 0x20 ADD DUP1 DUP4 GT PUSH2 0xB90 JUMPI DUP3 SWAP1 SUB PUSH1 0x1F AND DUP3 ADD SWAP2 JUMPDEST POP POP POP POP POP DUP2 JUMP JUMPDEST PUSH1 0x5 SLOAD DUP2 JUMP JUMPDEST PUSH1 0x2 SLOAD DUP2 JUMP JUMPDEST PUSH1 0x8 PUSH1 0x0 SWAP1 SLOAD SWAP1 PUSH2 0x100 EXP SWAP1 DIV PUSH20 0xFFFFFFFFFFFFFFFFFFFFFFFFFFFFFFFFFFFFFFFF AND PUSH20 0xFFFFFFFFFFFFFFFFFFFFFFFFFFFFFFFFFFFFFFFF AND CALLER PUSH20 0xFFFFFFFFFFFFFFFFFFFFFFFFFFFFFFFFFFFFFFFF AND EQ PUSH2 0xC51 JUMPI PUSH1 0x40 MLOAD PUSH32 0x8C379A000000000000000000000000000000000000000000000000000000000 DUP2 MSTORE PUSH1 0x4 ADD PUSH2 0xC48 SWAP1 PUSH2 0x2054 JUMP JUMPDEST PUSH1 0x40 MLOAD DUP1 SWAP2 SUB SWAP1 REVERT JUMPDEST PUSH1 0x6 PUSH1 0x0 SWAP1 SLOAD SWAP1 PUSH2 0x100 EXP SWAP1 DIV PUSH1 0xFF AND ISZERO PUSH2 0xCA1 JUMPI PUSH1 0x40 MLOAD PUSH32 0x8C379A000000000000000000000000000000000000000000000000000000000 DUP2 MSTORE PUSH1 0x4 ADD PUSH2 0xC98 SWAP1 PUSH2 0x2333 JUMP JUMPDEST PUSH1 0x40 MLOAD DUP1 SWAP2 SUB SWAP1 REVERT JUMPDEST PUSH1 0x0 DUP2 GT PUSH2 0xCE4 JUMPI PUSH1 0x40 MLOAD PUSH32 0x8C379A000000000000000000000000000000000000000000000000000000000 DUP2 MSTORE PUSH1 0x4 ADD PUSH2 0xCDB SWAP1 PUSH2 0x23C5 JUMP JUMPDEST PUSH1 0x40 MLOAD DUP1 SWAP2 SUB SWAP1 REVERT JUMPDEST DUP1 PUSH1 0x3 SLOAD LT ISZERO PUSH2 0xD29 JUMPI PUSH1 0x40 MLOAD PUSH32 0x8C379A000000000000000000000000000000000000000000000000000000000 DUP2 MSTORE PUSH1 0x4 ADD PUSH2 0xD20 SWAP1 PUSH2 0x2457 JUMP JUMPDEST PUSH1 0x40 MLOAD DUP1 SWAP2 SUB SWAP1 REVERT JUMPDEST DUP1 PUSH1 0x3 PUSH1 0x0 DUP3 DUP3 SLOAD PUSH2 0xD3B SWAP2 SWAP1 PUSH2 0x228D JUMP JUMPDEST SWAP3 POP POP DUP2 SWAP1 SSTORE POP PUSH2 0xD6F PUSH1 0x7 PUSH1 0x0 SWAP1 SLOAD SWAP1 PUSH2 0x100 EXP SWAP1 DIV PUSH20 0xFFFFFFFFFFFFFFFFFFFFFFFFFFFFFFFFFFFFFFFF AND DUP4 DUP4 PUSH2 0x109E JUMP JUMPDEST PUSH2 0xD9D PUSH1 0x7 PUSH1 0x0 SWAP1 SLOAD SWAP1 PUSH2 0x100 EXP SWAP1 DIV PUSH20 0xFFFFFFFFFFFFFFFFFFFFFFFFFFFFFFFFFFFFFFFF AND ADDRESS DUP5 DUP5 PUSH2 0xF33 JUMP JUMPDEST POP POP JUMP JUMPDEST PUSH1 0x60 PUSH1 0x9 DUP1 SLOAD DUP1 PUSH1 0x20 MUL PUSH1 0x20 ADD PUSH1 0x40 MLOAD SWAP1 DUP2 ADD PUSH1 0x40 MSTORE DUP1 SWAP3 SWAP2 SWAP1 DUP2 DUP2 MSTORE PUSH1 0x20 ADD PUSH1 0x0 SWAP1 JUMPDEST DUP3 DUP3 LT ISZERO PUSH2 0xE61 JUMPI DUP4 DUP3 SWAP1 PUSH1 0x0 MSTORE PUSH1 0x20 PUSH1 0x0 KECCAK256 SWAP1 PUSH1 0x3 MUL ADD PUSH1 0x40 MLOAD DUP1 PUSH1 0x60 ADD PUSH1 0x40 MSTORE SWAP1 DUP2 PUSH1 0x0 DUP3 ADD PUSH1 0x0 SWAP1 SLOAD SWAP1 PUSH2 0x100 EXP SWAP1 DIV PUSH20 0xFFFFFFFFFFFFFFFFFFFFFFFFFFFFFFFFFFFFFFFF AND PUSH20 0xFFFFFFFFFFFFFFFFFFFFFFFFFFFFFFFFFFFFFFFF AND PUSH20 0xFFFFFFFFFFFFFFFFFFFFFFFFFFFFFFFFFFFFFFFF AND DUP2 MSTORE PUSH1 0x20 ADD PUSH1 0x1 DUP3 ADD SLOAD DUP2 MSTORE PUSH1 0x20 ADD PUSH1 0x2 DUP3 ADD SLOAD DUP2 MSTORE POP POP DUP2 MSTORE PUSH1 0x20 ADD SWAP1 PUSH1 0x1 ADD SWAP1 PUSH2 0xDC5 JUMP JUMPDEST POP POP POP POP SWAP1 POP SWAP1 JUMP JUMPDEST PUSH1 0x0 PUSH1 0x2 SLOAD SWAP1 POP SWAP1 JUMP JUMPDEST PUSH1 0x6 PUSH1 0x1 SWAP1 SLOAD SWAP1 PUSH2 0x100 EXP SWAP1 DIV PUSH20 0xFFFFFFFFFFFFFFFFFFFFFFFFFFFFFFFFFFFFFFFF AND DUP2 JUMP JUMPDEST PUSH2 0xF30 DUP2 PUSH1 0x40 MLOAD PUSH1 0x24 ADD PUSH2 0xEAE SWAP2 SWAP1 PUSH2 0x1465 JUMP JUMPDEST PUSH1 0x40 MLOAD PUSH1 0x20 DUP2 DUP4 SUB SUB DUP2 MSTORE SWAP1 PUSH1 0x40 MSTORE PUSH32 0xF82C50F100000000000000000000000000000000000000000000000000000000 PUSH28 0xFFFFFFFFFFFFFFFFFFFFFFFFFFFFFFFFFFFFFFFFFFFFFFFFFFFFFFFF NOT AND PUSH1 0x20 DUP3 ADD DUP1 MLOAD PUSH28 0xFFFFFFFFFFFFFFFFFFFFFFFFFFFFFFFFFFFFFFFFFFFFFFFFFFFFFFFF DUP4 DUP2 DUP4 AND OR DUP4 MSTORE POP POP POP POP PUSH2 0x1206 JUMP JUMPDEST POP JUMP JUMPDEST PUSH1 0x0 DUP1 DUP6 PUSH20 0xFFFFFFFFFFFFFFFFFFFFFFFFFFFFFFFFFFFFFFFF AND DUP6 DUP6 DUP6 PUSH1 0x40 MLOAD PUSH1 0x24 ADD PUSH2 0xF62 SWAP4 SWAP3 SWAP2 SWAP1 PUSH2 0x2477 JUMP JUMPDEST PUSH1 0x40 MLOAD PUSH1 0x20 DUP2 DUP4 SUB SUB DUP2 MSTORE SWAP1 PUSH1 0x40 MSTORE PUSH32 0x23B872DD00000000000000000000000000000000000000000000000000000000 PUSH28 0xFFFFFFFFFFFFFFFFFFFFFFFFFFFFFFFFFFFFFFFFFFFFFFFFFFFFFFFF NOT AND PUSH1 0x20 DUP3 ADD DUP1 MLOAD PUSH28 0xFFFFFFFFFFFFFFFFFFFFFFFFFFFFFFFFFFFFFFFFFFFFFFFFFFFFFFFF DUP4 DUP2 DUP4 AND OR DUP4 MSTORE POP POP POP POP PUSH1 0x40 MLOAD PUSH2 0xFEC SWAP2 SWAP1 PUSH2 0x24F5 JUMP JUMPDEST PUSH1 0x0 PUSH1 0x40 MLOAD DUP1 DUP4 SUB DUP2 PUSH1 0x0 DUP7 GAS CALL SWAP2 POP POP RETURNDATASIZE DUP1 PUSH1 0x0 DUP2 EQ PUSH2 0x1029 JUMPI PUSH1 0x40 MLOAD SWAP2 POP PUSH1 0x1F NOT PUSH1 0x3F RETURNDATASIZE ADD AND DUP3 ADD PUSH1 0x40 MSTORE RETURNDATASIZE DUP3 MSTORE RETURNDATASIZE PUSH1 0x0 PUSH1 0x20 DUP5 ADD RETURNDATACOPY PUSH2 0x102E JUMP JUMPDEST PUSH1 0x60 SWAP2 POP JUMPDEST POP SWAP2 POP SWAP2 POP DUP2 ISZERO DUP1 PUSH2 0x105F JUMPI POP PUSH1 0x0 DUP2 MLOAD EQ ISZERO DUP1 ISZERO PUSH2 0x105E JUMPI POP DUP1 DUP1 PUSH1 0x20 ADD SWAP1 MLOAD DUP2 ADD SWAP1 PUSH2 0x105C SWAP2 SWAP1 PUSH2 0x2538 JUMP JUMPDEST ISZERO JUMPDEST JUMPDEST ISZERO PUSH2 0x1096 JUMPI PUSH1 0x40 MLOAD PUSH32 0xFB7F507900000000000000000000000000000000000000000000000000000000 DUP2 MSTORE PUSH1 0x4 ADD PUSH1 0x40 MLOAD DUP1 SWAP2 SUB SWAP1 REVERT JUMPDEST POP POP POP POP POP POP JUMP JUMPDEST PUSH1 0x0 DUP1 DUP5 PUSH20 0xFFFFFFFFFFFFFFFFFFFFFFFFFFFFFFFFFFFFFFFF AND DUP5 DUP5 PUSH1 0x40 MLOAD PUSH1 0x24 ADD PUSH2 0x10CB SWAP3 SWAP2 SWAP1 PUSH2 0x2565 JUMP JUMPDEST PUSH1 0x40 MLOAD PUSH1 0x20 DUP2 DUP4 SUB SUB DUP2 MSTORE SWAP1 PUSH1 0x40 MSTORE PUSH32 0x95EA7B300000000000000000000000000000000000000000000000000000000 PUSH28 0xFFFFFFFFFFFFFFFFFFFFFFFFFFFFFFFFFFFFFFFFFFFFFFFFFFFFFFFF NOT AND PUSH1 0x20 DUP3 ADD DUP1 MLOAD PUSH28 0xFFFFFFFFFFFFFFFFFFFFFFFFFFFFFFFFFFFFFFFFFFFFFFFFFFFFFFFF DUP4 DUP2 DUP4 AND OR DUP4 MSTORE POP POP POP POP PUSH1 0x40 MLOAD PUSH2 0x1155 SWAP2 SWAP1 PUSH2 0x24F5 JUMP JUMPDEST PUSH1 0x0 PUSH1 0x40 MLOAD DUP1 DUP4 SUB DUP2 PUSH1 0x0 DUP7 GAS CALL SWAP2 POP POP RETURNDATASIZE DUP1 PUSH1 0x0 DUP2 EQ PUSH2 0x1192 JUMPI PUSH1 0x40 MLOAD SWAP2 POP PUSH1 0x1F NOT PUSH1 0x3F RETURNDATASIZE ADD AND DUP3 ADD PUSH1 0x40 MSTORE RETURNDATASIZE DUP3 MSTORE RETURNDATASIZE PUSH1 0x0 PUSH1 0x20 DUP5 ADD RETURNDATACOPY PUSH2 0x1197 JUMP JUMPDEST PUSH1 0x60 SWAP2 POP JUMPDEST POP SWAP2 POP SWAP2 POP DUP2 ISZERO DUP1 PUSH2 0x11C8 JUMPI POP PUSH1 0x0 DUP2 MLOAD EQ ISZERO DUP1 ISZERO PUSH2 0x11C7 JUMPI POP DUP1 DUP1 PUSH1 0x20 ADD SWAP1 MLOAD DUP2 ADD SWAP1 PUSH2 0x11C5 SWAP2 SWAP1 PUSH2 0x2538 JUMP JUMPDEST ISZERO JUMPDEST JUMPDEST ISZERO PUSH2 0x11FF JUMPI PUSH1 0x40 MLOAD PUSH32 0x8C51C63A00000000000000000000000000000000000000000000000000000000 DUP2 MSTORE PUSH1 0x4 ADD PUSH1 0x40 MLOAD DUP1 SWAP2 SUB SWAP1 REVERT JUMPDEST POP POP POP POP POP JUMP JUMPDEST PUSH2 0x121D DUP2 PUSH2 0x1215 PUSH2 0x1220 PUSH2 0x1241 JUMP JUMPDEST PUSH4 0xFFFFFFFF AND JUMP JUMPDEST POP JUMP JUMPDEST PUSH1 0x0 PUSH11 0x636F6E736F6C652E6C6F67 SWAP1 POP PUSH1 0x0 DUP1 DUP4 MLOAD PUSH1 0x20 DUP6 ADD DUP5 GAS STATICCALL POP POP POP JUMP JUMPDEST PUSH2 0x12DC DUP2 SWAP1 POP SWAP2 SWAP1 POP JUMP JUMPDEST DUP3 DUP1 SLOAD DUP3 DUP3 SSTORE SWAP1 PUSH1 0x0 MSTORE PUSH1 0x20 PUSH1 0x0 KECCAK256 SWAP1 DUP2 ADD SWAP3 DUP3 ISZERO PUSH2 0x1294 JUMPI SWAP2 PUSH1 0x20 MUL DUP3 ADD JUMPDEST DUP3 DUP2 GT ISZERO PUSH2 0x1293 JUMPI DUP3 MLOAD DUP3 SWAP1 DUP2 PUSH2 0x1283 SWAP2 SWAP1 PUSH2 0x1EA4 JUMP JUMPDEST POP SWAP2 PUSH1 0x20 ADD SWAP2 SWAP1 PUSH1 0x1 ADD SWAP1 PUSH2 0x126C JUMP JUMPDEST JUMPDEST POP SWAP1 POP PUSH2 0x12A1 SWAP2 SWAP1 PUSH2 0x12E6 JUMP JUMPDEST POP SWAP1 JUMP JUMPDEST PUSH1 0x40 MLOAD DUP1 PUSH1 0x60 ADD PUSH1 0x40 MSTORE DUP1 PUSH1 0x0 PUSH20 0xFFFFFFFFFFFFFFFFFFFFFFFFFFFFFFFFFFFFFFFF AND DUP2 MSTORE PUSH1 0x20 ADD PUSH1 0x0 DUP2 MSTORE PUSH1 0x20 ADD PUSH1 0x0 DUP2 MSTORE POP SWAP1 JUMP JUMPDEST PUSH2 0x12E4 PUSH2 0x258E JUMP JUMPDEST JUMP JUMPDEST JUMPDEST DUP1 DUP3 GT ISZERO PUSH2 0x1306 JUMPI PUSH1 0x0 DUP2 DUP2 PUSH2 0x12FD SWAP2 SWAP1 PUSH2 0x130A JUMP JUMPDEST POP PUSH1 0x1 ADD PUSH2 0x12E7 JUMP JUMPDEST POP SWAP1 JUMP JUMPDEST POP DUP1 SLOAD PUSH2 0x1316 SWAP1 PUSH2 0x1CC7 JUMP JUMPDEST PUSH1 0x0 DUP3 SSTORE DUP1 PUSH1 0x1F LT PUSH2 0x1328 JUMPI POP PUSH2 0x1347 JUMP JUMPDEST PUSH1 0x1F ADD PUSH1 0x20 SWAP1 DIV SWAP1 PUSH1 0x0 MSTORE PUSH1 0x20 PUSH1 0x0 KECCAK256 SWAP1 DUP2 ADD SWAP1 PUSH2 0x1346 SWAP2 SWAP1 PUSH2 0x134A JUMP JUMPDEST JUMPDEST POP JUMP JUMPDEST JUMPDEST DUP1 DUP3 GT ISZERO PUSH2 0x1363 JUMPI PUSH1 0x0 DUP2 PUSH1 0x0 SWAP1 SSTORE POP PUSH1 0x1 ADD PUSH2 0x134B JUMP JUMPDEST POP SWAP1 JUMP JUMPDEST PUSH1 0x0 PUSH1 0x40 MLOAD SWAP1 POP SWAP1 JUMP JUMPDEST PUSH1 0x0 DUP1 REVERT JUMPDEST PUSH1 0x0 DUP1 REVERT JUMPDEST PUSH1 0x0 DUP2 SWAP1 POP SWAP2 SWAP1 POP JUMP JUMPDEST PUSH2 0x138E DUP2 PUSH2 0x137B JUMP JUMPDEST DUP2 EQ PUSH2 0x1399 JUMPI PUSH1 0x0 DUP1 REVERT JUMPDEST POP JUMP JUMPDEST PUSH1 0x0 DUP2 CALLDATALOAD SWAP1 POP PUSH2 0x13AB DUP2 PUSH2 0x1385 JUMP JUMPDEST SWAP3 SWAP2 POP POP JUMP JUMPDEST PUSH1 0x0 PUSH1 0x20 DUP3 DUP5 SUB SLT ISZERO PUSH2 0x13C7 JUMPI PUSH2 0x13C6 PUSH2 0x1371 JUMP JUMPDEST JUMPDEST PUSH1 0x0 PUSH2 0x13D5 DUP5 DUP3 DUP6 ADD PUSH2 0x139C JUMP JUMPDEST SWAP2 POP POP SWAP3 SWAP2 POP POP JUMP JUMPDEST PUSH1 0x0 PUSH20 0xFFFFFFFFFFFFFFFFFFFFFFFFFFFFFFFFFFFFFFFF DUP3 AND SWAP1 POP SWAP2 SWAP1 POP JUMP JUMPDEST PUSH1 0x0 PUSH2 0x1409 DUP3 PUSH2 0x13DE JUMP JUMPDEST SWAP1 POP SWAP2 SWAP1 POP JUMP JUMPDEST PUSH2 0x1419 DUP2 PUSH2 0x13FE JUMP JUMPDEST DUP3 MSTORE POP POP JUMP JUMPDEST PUSH2 0x1428 DUP2 PUSH2 0x137B JUMP JUMPDEST DUP3 MSTORE POP POP JUMP JUMPDEST PUSH1 0x0 PUSH1 0x60 DUP3 ADD SWAP1 POP PUSH2 0x1443 PUSH1 0x0 DUP4 ADD DUP7 PUSH2 0x1410 JUMP JUMPDEST PUSH2 0x1450 PUSH1 0x20 DUP4 ADD DUP6 PUSH2 0x141F JUMP JUMPDEST PUSH2 0x145D PUSH1 0x40 DUP4 ADD DUP5 PUSH2 0x141F JUMP JUMPDEST SWAP5 SWAP4 POP POP POP POP JUMP JUMPDEST PUSH1 0x0 PUSH1 0x20 DUP3 ADD SWAP1 POP PUSH2 0x147A PUSH1 0x0 DUP4 ADD DUP5 PUSH2 0x141F JUMP JUMPDEST SWAP3 SWAP2 POP POP JUMP JUMPDEST PUSH1 0x0 DUP1 REVERT JUMPDEST PUSH1 0x0 DUP1 REVERT JUMPDEST PUSH1 0x0 PUSH1 0x1F NOT PUSH1 0x1F DUP4 ADD AND SWAP1 POP SWAP2 SWAP1 POP JUMP JUMPDEST PUSH32 0x4E487B7100000000000000000000000000000000000000000000000000000000 PUSH1 0x0 MSTORE PUSH1 0x41 PUSH1 0x4 MSTORE PUSH1 0x24 PUSH1 0x0 REVERT JUMPDEST PUSH2 0x14D3 DUP3 PUSH2 0x148A JUMP JUMPDEST DUP2 ADD DUP2 DUP2 LT PUSH8 0xFFFFFFFFFFFFFFFF DUP3 GT OR ISZERO PUSH2 0x14F2 JUMPI PUSH2 0x14F1 PUSH2 0x149B JUMP JUMPDEST JUMPDEST DUP1 PUSH1 0x40 MSTORE POP POP POP JUMP JUMPDEST PUSH1 0x0 PUSH2 0x1505 PUSH2 0x1367 JUMP JUMPDEST SWAP1 POP PUSH2 0x1511 DUP3 DUP3 PUSH2 0x14CA JUMP JUMPDEST SWAP2 SWAP1 POP JUMP JUMPDEST PUSH1 0x0 PUSH8 0xFFFFFFFFFFFFFFFF DUP3 GT ISZERO PUSH2 0x1531 JUMPI PUSH2 0x1530 PUSH2 0x149B JUMP JUMPDEST JUMPDEST PUSH2 0x153A DUP3 PUSH2 0x148A JUMP JUMPDEST SWAP1 POP PUSH1 0x20 DUP2 ADD SWAP1 POP SWAP2 SWAP1 POP JUMP JUMPDEST DUP3 DUP2 DUP4 CALLDATACOPY PUSH1 0x0 DUP4 DUP4 ADD MSTORE POP POP POP JUMP JUMPDEST PUSH1 0x0 PUSH2 0x1569 PUSH2 0x1564 DUP5 PUSH2 0x1516 JUMP JUMPDEST PUSH2 0x14FB JUMP JUMPDEST SWAP1 POP DUP3 DUP2 MSTORE PUSH1 0x20 DUP2 ADD DUP5 DUP5 DUP5 ADD GT ISZERO PUSH2 0x1585 JUMPI PUSH2 0x1584 PUSH2 0x1485 JUMP JUMPDEST JUMPDEST PUSH2 0x1590 DUP5 DUP3 DUP6 PUSH2 0x1547 JUMP JUMPDEST POP SWAP4 SWAP3 POP POP POP JUMP JUMPDEST PUSH1 0x0 DUP3 PUSH1 0x1F DUP4 ADD SLT PUSH2 0x15AD JUMPI PUSH2 0x15AC PUSH2 0x1480 JUMP JUMPDEST JUMPDEST DUP2 CALLDATALOAD PUSH2 0x15BD DUP5 DUP3 PUSH1 0x20 DUP7 ADD PUSH2 0x1556 JUMP JUMPDEST SWAP2 POP POP SWAP3 SWAP2 POP POP JUMP JUMPDEST PUSH1 0x0 PUSH8 0xFFFFFFFFFFFFFFFF DUP3 GT ISZERO PUSH2 0x15E1 JUMPI PUSH2 0x15E0 PUSH2 0x149B JUMP JUMPDEST JUMPDEST PUSH1 0x20 DUP3 MUL SWAP1 POP PUSH1 0x20 DUP2 ADD SWAP1 POP SWAP2 SWAP1 POP JUMP JUMPDEST PUSH1 0x0 DUP1 REVERT JUMPDEST PUSH1 0x0 PUSH2 0x160A PUSH2 0x1605 DUP5 PUSH2 0x15C6 JUMP JUMPDEST PUSH2 0x14FB JUMP JUMPDEST SWAP1 POP DUP1 DUP4 DUP3 MSTORE PUSH1 0x20 DUP3 ADD SWAP1 POP PUSH1 0x20 DUP5 MUL DUP4 ADD DUP6 DUP2 GT ISZERO PUSH2 0x162D JUMPI PUSH2 0x162C PUSH2 0x15F2 JUMP JUMPDEST JUMPDEST DUP4 JUMPDEST DUP2 DUP2 LT ISZERO PUSH2 0x1674 JUMPI DUP1 CALLDATALOAD PUSH8 0xFFFFFFFFFFFFFFFF DUP2 GT ISZERO PUSH2 0x1652 JUMPI PUSH2 0x1651 PUSH2 0x1480 JUMP JUMPDEST JUMPDEST DUP1 DUP7 ADD PUSH2 0x165F DUP10 DUP3 PUSH2 0x1598 JUMP JUMPDEST DUP6 MSTORE PUSH1 0x20 DUP6 ADD SWAP5 POP POP POP PUSH1 0x20 DUP2 ADD SWAP1 POP PUSH2 0x162F JUMP JUMPDEST POP POP POP SWAP4 SWAP3 POP POP POP JUMP JUMPDEST PUSH1 0x0 DUP3 PUSH1 0x1F DUP4 ADD SLT PUSH2 0x1693 JUMPI PUSH2 0x1692 PUSH2 0x1480 JUMP JUMPDEST JUMPDEST DUP2 CALLDATALOAD PUSH2 0x16A3 DUP5 DUP3 PUSH1 0x20 DUP7 ADD PUSH2 0x15F7 JUMP JUMPDEST SWAP2 POP POP SWAP3 SWAP2 POP POP JUMP JUMPDEST PUSH1 0x0 DUP1 PUSH1 0x0 DUP1 PUSH1 0x80 DUP6 DUP8 SUB SLT ISZERO PUSH2 0x16C6 JUMPI PUSH2 0x16C5 PUSH2 0x1371 JUMP JUMPDEST JUMPDEST PUSH1 0x0 DUP6 ADD CALLDATALOAD PUSH8 0xFFFFFFFFFFFFFFFF DUP2 GT ISZERO PUSH2 0x16E4 JUMPI PUSH2 0x16E3 PUSH2 0x1376 JUMP JUMPDEST JUMPDEST PUSH2 0x16F0 DUP8 DUP3 DUP9 ADD PUSH2 0x1598 JUMP JUMPDEST SWAP5 POP POP PUSH1 0x20 DUP6 ADD CALLDATALOAD PUSH8 0xFFFFFFFFFFFFFFFF DUP2 GT ISZERO PUSH2 0x1711 JUMPI PUSH2 0x1710 PUSH2 0x1376 JUMP JUMPDEST JUMPDEST PUSH2 0x171D DUP8 DUP3 DUP9 ADD PUSH2 0x167E JUMP JUMPDEST SWAP4 POP POP PUSH1 0x40 PUSH2 0x172E DUP8 DUP3 DUP9 ADD PUSH2 0x139C JUMP JUMPDEST SWAP3 POP POP PUSH1 0x60 PUSH2 0x173F DUP8 DUP3 DUP9 ADD PUSH2 0x139C JUMP JUMPDEST SWAP2 POP POP SWAP3 SWAP6 SWAP2 SWAP5 POP SWAP3 POP JUMP JUMPDEST PUSH2 0x1754 DUP2 PUSH2 0x13FE JUMP JUMPDEST DUP2 EQ PUSH2 0x175F JUMPI PUSH1 0x0 DUP1 REVERT JUMPDEST POP JUMP JUMPDEST PUSH1 0x0 DUP2 CALLDATALOAD SWAP1 POP PUSH2 0x1771 DUP2 PUSH2 0x174B JUMP JUMPDEST SWAP3 SWAP2 POP POP JUMP JUMPDEST PUSH1 0x0 DUP1 PUSH1 0x40 DUP4 DUP6 SUB SLT ISZERO PUSH2 0x178E JUMPI PUSH2 0x178D PUSH2 0x1371 JUMP JUMPDEST JUMPDEST PUSH1 0x0 PUSH2 0x179C DUP6 DUP3 DUP7 ADD PUSH2 0x1762 JUMP JUMPDEST SWAP3 POP POP PUSH1 0x20 PUSH2 0x17AD DUP6 DUP3 DUP7 ADD PUSH2 0x139C JUMP JUMPDEST SWAP2 POP POP SWAP3 POP SWAP3 SWAP1 POP JUMP JUMPDEST PUSH1 0x0 DUP2 ISZERO ISZERO SWAP1 POP SWAP2 SWAP1 POP JUMP JUMPDEST PUSH2 0x17CC DUP2 PUSH2 0x17B7 JUMP JUMPDEST DUP3 MSTORE POP POP JUMP JUMPDEST PUSH1 0x0 PUSH1 0x20 DUP3 ADD SWAP1 POP PUSH2 0x17E7 PUSH1 0x0 DUP4 ADD DUP5 PUSH2 0x17C3 JUMP JUMPDEST SWAP3 SWAP2 POP POP JUMP JUMPDEST PUSH1 0x0 DUP2 MLOAD SWAP1 POP SWAP2 SWAP1 POP JUMP JUMPDEST PUSH1 0x0 DUP3 DUP3 MSTORE PUSH1 0x20 DUP3 ADD SWAP1 POP SWAP3 SWAP2 POP POP JUMP JUMPDEST PUSH1 0x0 JUMPDEST DUP4 DUP2 LT ISZERO PUSH2 0x1827 JUMPI DUP1 DUP3 ADD MLOAD DUP2 DUP5 ADD MSTORE PUSH1 0x20 DUP2 ADD SWAP1 POP PUSH2 0x180C JUMP JUMPDEST PUSH1 0x0 DUP5 DUP5 ADD MSTORE POP POP POP POP JUMP JUMPDEST PUSH1 0x0 PUSH2 0x183E DUP3 PUSH2 0x17ED JUMP JUMPDEST PUSH2 0x1848 DUP2 DUP6 PUSH2 0x17F8 JUMP JUMPDEST SWAP4 POP PUSH2 0x1858 DUP2 DUP6 PUSH1 0x20 DUP7 ADD PUSH2 0x1809 JUMP JUMPDEST PUSH2 0x1861 DUP2 PUSH2 0x148A JUMP JUMPDEST DUP5 ADD SWAP2 POP POP SWAP3 SWAP2 POP POP JUMP JUMPDEST PUSH1 0x0 PUSH1 0x20 DUP3 ADD SWAP1 POP DUP2 DUP2 SUB PUSH1 0x0 DUP4 ADD MSTORE PUSH2 0x1886 DUP2 DUP5 PUSH2 0x1833 JUMP JUMPDEST SWAP1 POP SWAP3 SWAP2 POP POP JUMP JUMPDEST PUSH1 0x0 DUP2 MLOAD SWAP1 POP SWAP2 SWAP1 POP JUMP JUMPDEST PUSH1 0x0 DUP3 DUP3 MSTORE PUSH1 0x20 DUP3 ADD SWAP1 POP SWAP3 SWAP2 POP POP JUMP JUMPDEST PUSH1 0x0 DUP2 SWAP1 POP PUSH1 0x20 DUP3 ADD SWAP1 POP SWAP2 SWAP1 POP JUMP JUMPDEST PUSH1 0x0 DUP3 DUP3 MSTORE PUSH1 0x20 DUP3 ADD SWAP1 POP SWAP3 SWAP2 POP POP JUMP JUMPDEST PUSH1 0x0 PUSH2 0x18D6 DUP3 PUSH2 0x17ED JUMP JUMPDEST PUSH2 0x18E0 DUP2 DUP6 PUSH2 0x18BA JUMP JUMPDEST SWAP4 POP PUSH2 0x18F0 DUP2 DUP6 PUSH1 0x20 DUP7 ADD PUSH2 0x1809 JUMP JUMPDEST PUSH2 0x18F9 DUP2 PUSH2 0x148A JUMP JUMPDEST DUP5 ADD SWAP2 POP POP SWAP3 SWAP2 POP POP JUMP JUMPDEST PUSH1 0x0 PUSH2 0x1910 DUP4 DUP4 PUSH2 0x18CB JUMP JUMPDEST SWAP1 POP SWAP3 SWAP2 POP POP JUMP JUMPDEST PUSH1 0x0 PUSH1 0x20 DUP3 ADD SWAP1 POP SWAP2 SWAP1 POP JUMP JUMPDEST PUSH1 0x0 PUSH2 0x1930 DUP3 PUSH2 0x188E JUMP JUMPDEST PUSH2 0x193A DUP2 DUP6 PUSH2 0x1899 JUMP JUMPDEST SWAP4 POP DUP4 PUSH1 0x20 DUP3 MUL DUP6 ADD PUSH2 0x194C DUP6 PUSH2 0x18AA JUMP JUMPDEST DUP1 PUSH1 0x0 JUMPDEST DUP6 DUP2 LT ISZERO PUSH2 0x1988 JUMPI DUP5 DUP5 SUB DUP10 MSTORE DUP2 MLOAD PUSH2 0x1969 DUP6 DUP3 PUSH2 0x1904 JUMP JUMPDEST SWAP5 POP PUSH2 0x1974 DUP4 PUSH2 0x1918 JUMP JUMPDEST SWAP3 POP PUSH1 0x20 DUP11 ADD SWAP10 POP POP PUSH1 0x1 DUP2 ADD SWAP1 POP PUSH2 0x1950 JUMP JUMPDEST POP DUP3 SWAP8 POP DUP8 SWAP6 POP POP POP POP POP POP SWAP3 SWAP2 POP POP JUMP JUMPDEST PUSH1 0x0 PUSH1 0x20 DUP3 ADD SWAP1 POP DUP2 DUP2 SUB PUSH1 0x0 DUP4 ADD MSTORE PUSH2 0x19B4 DUP2 DUP5 PUSH2 0x1925 JUMP JUMPDEST SWAP1 POP SWAP3 SWAP2 POP POP JUMP JUMPDEST PUSH1 0x0 PUSH1 0x20 DUP3 ADD SWAP1 POP PUSH2 0x19D1 PUSH1 0x0 DUP4 ADD DUP5 PUSH2 0x1410 JUMP JUMPDEST SWAP3 SWAP2 POP POP JUMP JUMPDEST PUSH1 0x0 DUP2 MLOAD SWAP1 POP SWAP2 SWAP1 POP JUMP JUMPDEST PUSH1 0x0 DUP3 DUP3 MSTORE PUSH1 0x20 DUP3 ADD SWAP1 POP SWAP3 SWAP2 POP POP JUMP JUMPDEST PUSH1 0x0 DUP2 SWAP1 POP PUSH1 0x20 DUP3 ADD SWAP1 POP SWAP2 SWAP1 POP JUMP JUMPDEST PUSH2 0x1A0C DUP2 PUSH2 0x13FE JUMP JUMPDEST DUP3 MSTORE POP POP JUMP JUMPDEST PUSH2 0x1A1B DUP2 PUSH2 0x137B JUMP JUMPDEST DUP3 MSTORE POP POP JUMP JUMPDEST PUSH1 0x60 DUP3 ADD PUSH1 0x0 DUP3 ADD MLOAD PUSH2 0x1A37 PUSH1 0x0 DUP6 ADD DUP3 PUSH2 0x1A03 JUMP JUMPDEST POP PUSH1 0x20 DUP3 ADD MLOAD PUSH2 0x1A4A PUSH1 0x20 DUP6 ADD DUP3 PUSH2 0x1A12 JUMP JUMPDEST POP PUSH1 0x40 DUP3 ADD MLOAD PUSH2 0x1A5D PUSH1 0x40 DUP6 ADD DUP3 PUSH2 0x1A12 JUMP JUMPDEST POP POP POP POP JUMP JUMPDEST PUSH1 0x0 PUSH2 0x1A6F DUP4 DUP4 PUSH2 0x1A21 JUMP JUMPDEST PUSH1 0x60 DUP4 ADD SWAP1 POP SWAP3 SWAP2 POP POP JUMP JUMPDEST PUSH1 0x0 PUSH1 0x20 DUP3 ADD SWAP1 POP SWAP2 SWAP1 POP JUMP JUMPDEST PUSH1 0x0 PUSH2 0x1A93 DUP3 PUSH2 0x19D7 JUMP JUMPDEST PUSH2 0x1A9D DUP2 DUP6 PUSH2 0x19E2 JUMP JUMPDEST SWAP4 POP PUSH2 0x1AA8 DUP4 PUSH2 0x19F3 JUMP JUMPDEST DUP1 PUSH1 0x0 JUMPDEST DUP4 DUP2 LT ISZERO PUSH2 0x1AD9 JUMPI DUP2 MLOAD PUSH2 0x1AC0 DUP9 DUP3 PUSH2 0x1A63 JUMP JUMPDEST SWAP8 POP PUSH2 0x1ACB DUP4 PUSH2 0x1A7B JUMP JUMPDEST SWAP3 POP POP PUSH1 0x1 DUP2 ADD SWAP1 POP PUSH2 0x1AAC JUMP JUMPDEST POP DUP6 SWAP4 POP POP POP POP SWAP3 SWAP2 POP POP JUMP JUMPDEST PUSH1 0x0 PUSH1 0x20 DUP3 ADD SWAP1 POP DUP2 DUP2 SUB PUSH1 0x0 DUP4 ADD MSTORE PUSH2 0x1B00 DUP2 DUP5 PUSH2 0x1A88 JUMP JUMPDEST SWAP1 POP SWAP3 SWAP2 POP POP JUMP JUMPDEST PUSH32 0x43726F776466756E64696E673A206F6E6C795374617274657200000000000000 PUSH1 0x0 DUP3 ADD MSTORE POP JUMP JUMPDEST PUSH1 0x0 PUSH2 0x1B3E PUSH1 0x19 DUP4 PUSH2 0x17F8 JUMP JUMPDEST SWAP2 POP PUSH2 0x1B49 DUP3 PUSH2 0x1B08 JUMP JUMPDEST PUSH1 0x20 DUP3 ADD SWAP1 POP SWAP2 SWAP1 POP JUMP JUMPDEST PUSH1 0x0 PUSH1 0x20 DUP3 ADD SWAP1 POP DUP2 DUP2 SUB PUSH1 0x0 DUP4 ADD MSTORE PUSH2 0x1B6D DUP2 PUSH2 0x1B31 JUMP JUMPDEST SWAP1 POP SWAP2 SWAP1 POP JUMP JUMPDEST PUSH32 0x43726F776466756E64696E673A2074617267657420697320746F6F20736D616C PUSH1 0x0 DUP3 ADD MSTORE PUSH32 0x6C00000000000000000000000000000000000000000000000000000000000000 PUSH1 0x20 DUP3 ADD MSTORE POP JUMP JUMPDEST PUSH1 0x0 PUSH2 0x1BD0 PUSH1 0x21 DUP4 PUSH2 0x17F8 JUMP JUMPDEST SWAP2 POP PUSH2 0x1BDB DUP3 PUSH2 0x1B74 JUMP JUMPDEST PUSH1 0x40 DUP3 ADD SWAP1 POP SWAP2 SWAP1 POP JUMP JUMPDEST PUSH1 0x0 PUSH1 0x20 DUP3 ADD SWAP1 POP DUP2 DUP2 SUB PUSH1 0x0 DUP4 ADD MSTORE PUSH2 0x1BFF DUP2 PUSH2 0x1BC3 JUMP JUMPDEST SWAP1 POP SWAP2 SWAP1 POP JUMP JUMPDEST PUSH32 0x43726F776466756E64696E673A206E657720646561646C696E65206973207368 PUSH1 0x0 DUP3 ADD MSTORE PUSH32 0x6F72746572207468616E206265666F7265000000000000000000000000000000 PUSH1 0x20 DUP3 ADD MSTORE POP JUMP JUMPDEST PUSH1 0x0 PUSH2 0x1C62 PUSH1 0x31 DUP4 PUSH2 0x17F8 JUMP JUMPDEST SWAP2 POP PUSH2 0x1C6D DUP3 PUSH2 0x1C06 JUMP JUMPDEST PUSH1 0x40 DUP3 ADD SWAP1 POP SWAP2 SWAP1 POP JUMP JUMPDEST PUSH1 0x0 PUSH1 0x20 DUP3 ADD SWAP1 POP DUP2 DUP2 SUB PUSH1 0x0 DUP4 ADD MSTORE PUSH2 0x1C91 DUP2 PUSH2 0x1C55 JUMP JUMPDEST SWAP1 POP SWAP2 SWAP1 POP JUMP JUMPDEST PUSH32 0x4E487B7100000000000000000000000000000000000000000000000000000000 PUSH1 0x0 MSTORE PUSH1 0x22 PUSH1 0x4 MSTORE PUSH1 0x24 PUSH1 0x0 REVERT JUMPDEST PUSH1 0x0 PUSH1 0x2 DUP3 DIV SWAP1 POP PUSH1 0x1 DUP3 AND DUP1 PUSH2 0x1CDF JUMPI PUSH1 0x7F DUP3 AND SWAP2 POP JUMPDEST PUSH1 0x20 DUP3 LT DUP2 SUB PUSH2 0x1CF2 JUMPI PUSH2 0x1CF1 PUSH2 0x1C98 JUMP JUMPDEST JUMPDEST POP SWAP2 SWAP1 POP JUMP JUMPDEST PUSH1 0x0 DUP2 SWAP1 POP DUP2 PUSH1 0x0 MSTORE PUSH1 0x20 PUSH1 0x0 KECCAK256 SWAP1 POP SWAP2 SWAP1 POP JUMP JUMPDEST PUSH1 0x0 PUSH1 0x20 PUSH1 0x1F DUP4 ADD DIV SWAP1 POP SWAP2 SWAP1 POP JUMP JUMPDEST PUSH1 0x0 DUP3 DUP3 SHL SWAP1 POP SWAP3 SWAP2 POP POP JUMP JUMPDEST PUSH1 0x0 PUSH1 0x8 DUP4 MUL PUSH2 0x1D5A PUSH32 0xFFFFFFFFFFFFFFFFFFFFFFFFFFFFFFFFFFFFFFFFFFFFFFFFFFFFFFFFFFFFFFFF DUP3 PUSH2 0x1D1D JUMP JUMPDEST PUSH2 0x1D64 DUP7 DUP4 PUSH2 0x1D1D JUMP JUMPDEST SWAP6 POP DUP1 NOT DUP5 AND SWAP4 POP DUP1 DUP7 AND DUP5 OR SWAP3 POP POP POP SWAP4 SWAP3 POP POP POP JUMP JUMPDEST PUSH1 0x0 DUP2 SWAP1 POP SWAP2 SWAP1 POP JUMP JUMPDEST PUSH1 0x0 PUSH2 0x1DA1 PUSH2 0x1D9C PUSH2 0x1D97 DUP5 PUSH2 0x137B JUMP JUMPDEST PUSH2 0x1D7C JUMP JUMPDEST PUSH2 0x137B JUMP JUMPDEST SWAP1 POP SWAP2 SWAP1 POP JUMP JUMPDEST PUSH1 0x0 DUP2 SWAP1 POP SWAP2 SWAP1 POP JUMP JUMPDEST PUSH2 0x1DBB DUP4 PUSH2 0x1D86 JUMP JUMPDEST PUSH2 0x1DCF PUSH2 0x1DC7 DUP3 PUSH2 0x1DA8 JUMP JUMPDEST DUP5 DUP5 SLOAD PUSH2 0x1D2A JUMP JUMPDEST DUP3 SSTORE POP POP POP POP JUMP JUMPDEST PUSH1 0x0 SWAP1 JUMP JUMPDEST PUSH2 0x1DE4 PUSH2 0x1DD7 JUMP JUMPDEST PUSH2 0x1DEF DUP2 DUP5 DUP5 PUSH2 0x1DB2 JUMP JUMPDEST POP POP POP JUMP JUMPDEST JUMPDEST DUP2 DUP2 LT ISZERO PUSH2 0x1E13 JUMPI PUSH2 0x1E08 PUSH1 0x0 DUP3 PUSH2 0x1DDC JUMP JUMPDEST PUSH1 0x1 DUP2 ADD SWAP1 POP PUSH2 0x1DF5 JUMP JUMPDEST POP POP JUMP JUMPDEST PUSH1 0x1F DUP3 GT ISZERO PUSH2 0x1E58 JUMPI PUSH2 0x1E29 DUP2 PUSH2 0x1CF8 JUMP JUMPDEST PUSH2 0x1E32 DUP5 PUSH2 0x1D0D JUMP JUMPDEST DUP2 ADD PUSH1 0x20 DUP6 LT ISZERO PUSH2 0x1E41 JUMPI DUP2 SWAP1 POP JUMPDEST PUSH2 0x1E55 PUSH2 0x1E4D DUP6 PUSH2 0x1D0D JUMP JUMPDEST DUP4 ADD DUP3 PUSH2 0x1DF4 JUMP JUMPDEST POP POP JUMPDEST POP POP POP JUMP JUMPDEST PUSH1 0x0 DUP3 DUP3 SHR SWAP1 POP SWAP3 SWAP2 POP POP JUMP JUMPDEST PUSH1 0x0 PUSH2 0x1E7B PUSH1 0x0 NOT DUP5 PUSH1 0x8 MUL PUSH2 0x1E5D JUMP JUMPDEST NOT DUP1 DUP4 AND SWAP2 POP POP SWAP3 SWAP2 POP POP JUMP JUMPDEST PUSH1 0x0 PUSH2 0x1E94 DUP4 DUP4 PUSH2 0x1E6A JUMP JUMPDEST SWAP2 POP DUP3 PUSH1 0x2 MUL DUP3 OR SWAP1 POP SWAP3 SWAP2 POP POP JUMP JUMPDEST PUSH2 0x1EAD DUP3 PUSH2 0x17ED JUMP JUMPDEST PUSH8 0xFFFFFFFFFFFFFFFF DUP2 GT ISZERO PUSH2 0x1EC6 JUMPI PUSH2 0x1EC5 PUSH2 0x149B JUMP JUMPDEST JUMPDEST PUSH2 0x1ED0 DUP3 SLOAD PUSH2 0x1CC7 JUMP JUMPDEST PUSH2 0x1EDB DUP3 DUP3 DUP6 PUSH2 0x1E17 JUMP JUMPDEST PUSH1 0x0 PUSH1 0x20 SWAP1 POP PUSH1 0x1F DUP4 GT PUSH1 0x1 DUP2 EQ PUSH2 0x1F0E JUMPI PUSH1 0x0 DUP5 ISZERO PUSH2 0x1EFC JUMPI DUP3 DUP8 ADD MLOAD SWAP1 POP JUMPDEST PUSH2 0x1F06 DUP6 DUP3 PUSH2 0x1E88 JUMP JUMPDEST DUP7 SSTORE POP PUSH2 0x1F6E JUMP JUMPDEST PUSH1 0x1F NOT DUP5 AND PUSH2 0x1F1C DUP7 PUSH2 0x1CF8 JUMP JUMPDEST PUSH1 0x0 JUMPDEST DUP3 DUP2 LT ISZERO PUSH2 0x1F44 JUMPI DUP5 DUP10 ADD MLOAD DUP3 SSTORE PUSH1 0x1 DUP3 ADD SWAP2 POP PUSH1 0x20 DUP6 ADD SWAP5 POP PUSH1 0x20 DUP2 ADD SWAP1 POP PUSH2 0x1F1F JUMP JUMPDEST DUP7 DUP4 LT ISZERO PUSH2 0x1F61 JUMPI DUP5 DUP10 ADD MLOAD PUSH2 0x1F5D PUSH1 0x1F DUP10 AND DUP3 PUSH2 0x1E6A JUMP JUMPDEST DUP4 SSTORE POP JUMPDEST PUSH1 0x1 PUSH1 0x2 DUP9 MUL ADD DUP9 SSTORE POP POP POP JUMPDEST POP POP POP POP POP POP JUMP JUMPDEST PUSH32 0x43726F776466756E64696E673A20616C72656164792065786365656420646561 PUSH1 0x0 DUP3 ADD MSTORE PUSH32 0x646C696E65000000000000000000000000000000000000000000000000000000 PUSH1 0x20 DUP3 ADD MSTORE POP JUMP JUMPDEST PUSH1 0x0 PUSH2 0x1FD2 PUSH1 0x25 DUP4 PUSH2 0x17F8 JUMP JUMPDEST SWAP2 POP PUSH2 0x1FDD DUP3 PUSH2 0x1F76 JUMP JUMPDEST PUSH1 0x40 DUP3 ADD SWAP1 POP SWAP2 SWAP1 POP JUMP JUMPDEST PUSH1 0x0 PUSH1 0x20 DUP3 ADD SWAP1 POP DUP2 DUP2 SUB PUSH1 0x0 DUP4 ADD MSTORE PUSH2 0x2001 DUP2 PUSH2 0x1FC5 JUMP JUMPDEST SWAP1 POP SWAP2 SWAP1 POP JUMP JUMPDEST PUSH32 0x43726F776466756E64696E673A206F6E6C79466163746F727900000000000000 PUSH1 0x0 DUP3 ADD MSTORE POP JUMP JUMPDEST PUSH1 0x0 PUSH2 0x203E PUSH1 0x19 DUP4 PUSH2 0x17F8 JUMP JUMPDEST SWAP2 POP PUSH2 0x2049 DUP3 PUSH2 0x2008 JUMP JUMPDEST PUSH1 0x20 DUP3 ADD SWAP1 POP SWAP2 SWAP1 POP JUMP JUMPDEST PUSH1 0x0 PUSH1 0x20 DUP3 ADD SWAP1 POP DUP2 DUP2 SUB PUSH1 0x0 DUP4 ADD MSTORE PUSH2 0x206D DUP2 PUSH2 0x2031 JUMP JUMPDEST SWAP1 POP SWAP2 SWAP1 POP JUMP JUMPDEST PUSH32 0x43726F776466756E64696E672E616464436F6E747269627574696F6E3A204372 PUSH1 0x0 DUP3 ADD MSTORE PUSH32 0x6F776466756E64696E67206973206E6F7420666F722073616C65000000000000 PUSH1 0x20 DUP3 ADD MSTORE POP JUMP JUMPDEST PUSH1 0x0 PUSH2 0x20D0 PUSH1 0x3A DUP4 PUSH2 0x17F8 JUMP JUMPDEST SWAP2 POP PUSH2 0x20DB DUP3 PUSH2 0x2074 JUMP JUMPDEST PUSH1 0x40 DUP3 ADD SWAP1 POP SWAP2 SWAP1 POP JUMP JUMPDEST PUSH1 0x0 PUSH1 0x20 DUP3 ADD SWAP1 POP DUP2 DUP2 SUB PUSH1 0x0 DUP4 ADD MSTORE PUSH2 0x20FF DUP2 PUSH2 0x20C3 JUMP JUMPDEST SWAP1 POP SWAP2 SWAP1 POP JUMP JUMPDEST PUSH32 0x43726F776466756E64696E672E616464436F6E747269627574696F6E3A20696E PUSH1 0x0 DUP3 ADD MSTORE PUSH32 0x76616C696420616D6F756E740000000000000000000000000000000000000000 PUSH1 0x20 DUP3 ADD MSTORE POP JUMP JUMPDEST PUSH1 0x0 PUSH2 0x2162 PUSH1 0x2C DUP4 PUSH2 0x17F8 JUMP JUMPDEST SWAP2 POP PUSH2 0x216D DUP3 PUSH2 0x2106 JUMP JUMPDEST PUSH1 0x40 DUP3 ADD SWAP1 POP SWAP2 SWAP1 POP JUMP JUMPDEST PUSH1 0x0 PUSH1 0x20 DUP3 ADD SWAP1 POP DUP2 DUP2 SUB PUSH1 0x0 DUP4 ADD MSTORE PUSH2 0x2191 DUP2 PUSH2 0x2155 JUMP JUMPDEST SWAP1 POP SWAP2 SWAP1 POP JUMP JUMPDEST PUSH32 0x43726F776466756E64696E672E616464436F6E747269627574696F6E3A206372 PUSH1 0x0 DUP3 ADD MSTORE PUSH32 0x6F776466756E64696E6720616C72656164792072656163682074617267657400 PUSH1 0x20 DUP3 ADD MSTORE POP JUMP JUMPDEST PUSH1 0x0 PUSH2 0x21F4 PUSH1 0x3F DUP4 PUSH2 0x17F8 JUMP JUMPDEST SWAP2 POP PUSH2 0x21FF DUP3 PUSH2 0x2198 JUMP JUMPDEST PUSH1 0x40 DUP3 ADD SWAP1 POP SWAP2 SWAP1 POP JUMP JUMPDEST PUSH1 0x0 PUSH1 0x20 DUP3 ADD SWAP1 POP DUP2 DUP2 SUB PUSH1 0x0 DUP4 ADD MSTORE PUSH2 0x2223 DUP2 PUSH2 0x21E7 JUMP JUMPDEST SWAP1 POP SWAP2 SWAP1 POP JUMP JUMPDEST PUSH32 0x4E487B7100000000000000000000000000000000000000000000000000000000 PUSH1 0x0 MSTORE PUSH1 0x11 PUSH1 0x4 MSTORE PUSH1 0x24 PUSH1 0x0 REVERT JUMPDEST PUSH1 0x0 PUSH2 0x2264 DUP3 PUSH2 0x137B JUMP JUMPDEST SWAP2 POP PUSH2 0x226F DUP4 PUSH2 0x137B JUMP JUMPDEST SWAP3 POP DUP3 DUP3 ADD SWAP1 POP DUP1 DUP3 GT ISZERO PUSH2 0x2287 JUMPI PUSH2 0x2286 PUSH2 0x222A JUMP JUMPDEST JUMPDEST SWAP3 SWAP2 POP POP JUMP JUMPDEST PUSH1 0x0 PUSH2 0x2298 DUP3 PUSH2 0x137B JUMP JUMPDEST SWAP2 POP PUSH2 0x22A3 DUP4 PUSH2 0x137B JUMP JUMPDEST SWAP3 POP DUP3 DUP3 SUB SWAP1 POP DUP2 DUP2 GT ISZERO PUSH2 0x22BB JUMPI PUSH2 0x22BA PUSH2 0x222A JUMP JUMPDEST JUMPDEST SWAP3 SWAP2 POP POP JUMP JUMPDEST PUSH32 0x43726F776466756E64696E672E72656D6F7665436F6E747269627574696F6E3A PUSH1 0x0 DUP3 ADD MSTORE PUSH32 0x2043726F776466756E64696E67206973207374696C6C20696E2073616C650000 PUSH1 0x20 DUP3 ADD MSTORE POP JUMP JUMPDEST PUSH1 0x0 PUSH2 0x231D PUSH1 0x3E DUP4 PUSH2 0x17F8 JUMP JUMPDEST SWAP2 POP PUSH2 0x2328 DUP3 PUSH2 0x22C1 JUMP JUMPDEST PUSH1 0x40 DUP3 ADD SWAP1 POP SWAP2 SWAP1 POP JUMP JUMPDEST PUSH1 0x0 PUSH1 0x20 DUP3 ADD SWAP1 POP DUP2 DUP2 SUB PUSH1 0x0 DUP4 ADD MSTORE PUSH2 0x234C DUP2 PUSH2 0x2310 JUMP JUMPDEST SWAP1 POP SWAP2 SWAP1 POP JUMP JUMPDEST PUSH32 0x43726F776466756E64696E672E72656D6F7665436F6E747269627574696F6E3A PUSH1 0x0 DUP3 ADD MSTORE PUSH32 0x20696E76616C696420616D6F756E740000000000000000000000000000000000 PUSH1 0x20 DUP3 ADD MSTORE POP JUMP JUMPDEST PUSH1 0x0 PUSH2 0x23AF PUSH1 0x2F DUP4 PUSH2 0x17F8 JUMP JUMPDEST SWAP2 POP PUSH2 0x23BA DUP3 PUSH2 0x2353 JUMP JUMPDEST PUSH1 0x40 DUP3 ADD SWAP1 POP SWAP2 SWAP1 POP JUMP JUMPDEST PUSH1 0x0 PUSH1 0x20 DUP3 ADD SWAP1 POP DUP2 DUP2 SUB PUSH1 0x0 DUP4 ADD MSTORE PUSH2 0x23DE DUP2 PUSH2 0x23A2 JUMP JUMPDEST SWAP1 POP SWAP2 SWAP1 POP JUMP JUMPDEST PUSH32 0x43726F776466756E64696E672E72656D6F7665436F6E747269627574696F6E3A PUSH1 0x0 DUP3 ADD MSTORE PUSH32 0x20696E73756666696369656E7420616D6F756E74000000000000000000000000 PUSH1 0x20 DUP3 ADD MSTORE POP JUMP JUMPDEST PUSH1 0x0 PUSH2 0x2441 PUSH1 0x34 DUP4 PUSH2 0x17F8 JUMP JUMPDEST SWAP2 POP PUSH2 0x244C DUP3 PUSH2 0x23E5 JUMP JUMPDEST PUSH1 0x40 DUP3 ADD SWAP1 POP SWAP2 SWAP1 POP JUMP JUMPDEST PUSH1 0x0 PUSH1 0x20 DUP3 ADD SWAP1 POP DUP2 DUP2 SUB PUSH1 0x0 DUP4 ADD MSTORE PUSH2 0x2470 DUP2 PUSH2 0x2434 JUMP JUMPDEST SWAP1 POP SWAP2 SWAP1 POP JUMP JUMPDEST PUSH1 0x0 PUSH1 0x60 DUP3 ADD SWAP1 POP PUSH2 0x248C PUSH1 0x0 DUP4 ADD DUP7 PUSH2 0x1410 JUMP JUMPDEST PUSH2 0x2499 PUSH1 0x20 DUP4 ADD DUP6 PUSH2 0x1410 JUMP JUMPDEST PUSH2 0x24A6 PUSH1 0x40 DUP4 ADD DUP5 PUSH2 0x141F JUMP JUMPDEST SWAP5 SWAP4 POP POP POP POP JUMP JUMPDEST PUSH1 0x0 DUP2 MLOAD SWAP1 POP SWAP2 SWAP1 POP JUMP JUMPDEST PUSH1 0x0 DUP2 SWAP1 POP SWAP3 SWAP2 POP POP JUMP JUMPDEST PUSH1 0x0 PUSH2 0x24CF DUP3 PUSH2 0x24AE JUMP JUMPDEST PUSH2 0x24D9 DUP2 DUP6 PUSH2 0x24B9 JUMP JUMPDEST SWAP4 POP PUSH2 0x24E9 DUP2 DUP6 PUSH1 0x20 DUP7 ADD PUSH2 0x1809 JUMP JUMPDEST DUP1 DUP5 ADD SWAP2 POP POP SWAP3 SWAP2 POP POP JUMP JUMPDEST PUSH1 0x0 PUSH2 0x2501 DUP3 DUP5 PUSH2 0x24C4 JUMP JUMPDEST SWAP2 POP DUP2 SWAP1 POP SWAP3 SWAP2 POP POP JUMP JUMPDEST PUSH2 0x2515 DUP2 PUSH2 0x17B7 JUMP JUMPDEST DUP2 EQ PUSH2 0x2520 JUMPI PUSH1 0x0 DUP1 REVERT JUMPDEST POP JUMP JUMPDEST PUSH1 0x0 DUP2 MLOAD SWAP1 POP PUSH2 0x2532 DUP2 PUSH2 0x250C JUMP JUMPDEST SWAP3 SWAP2 POP POP JUMP JUMPDEST PUSH1 0x0 PUSH1 0x20 DUP3 DUP5 SUB SLT ISZERO PUSH2 0x254E JUMPI PUSH2 0x254D PUSH2 0x1371 JUMP JUMPDEST JUMPDEST PUSH1 0x0 PUSH2 0x255C DUP5 DUP3 DUP6 ADD PUSH2 0x2523 JUMP JUMPDEST SWAP2 POP POP SWAP3 SWAP2 POP POP JUMP JUMPDEST PUSH1 0x0 PUSH1 0x40 DUP3 ADD SWAP1 POP PUSH2 0x257A PUSH1 0x0 DUP4 ADD DUP6 PUSH2 0x1410 JUMP JUMPDEST PUSH2 0x2587 PUSH1 0x20 DUP4 ADD DUP5 PUSH2 0x141F JUMP JUMPDEST SWAP4 SWAP3 POP POP POP JUMP JUMPDEST PUSH32 0x4E487B7100000000000000000000000000000000000000000000000000000000 PUSH1 0x0 MSTORE PUSH1 0x51 PUSH1 0x4 MSTORE PUSH1 0x24 PUSH1 0x0 REVERT INVALID LOG2 PUSH5 0x6970667358 0x22 SLT KECCAK256 0xC2 CALL SWAP12 0xA7 DUP5 0xCA 0xD8 PUSH31 0x3372FBC528C2D157243786877A43BF9F885F4EA49576C43264736F6C634300 ADDMOD EQ STOP CALLER "},"methodIdentifiers":{"addContribution(address,uint256)":"39ecacac","burnings(uint256)":"1ef48007","categories(uint256)":"c6cdbe5e","contributionAllowed(uint256)":"83e49019","contributions(uint256)":"1cee0700","current()":"9fa6a6e3","deadline()":"29dcb0cf","editCrowdfunding(string,string[],uint256,uint256)":"33b4e294","factoryAddress()":"966dae0e","getCategories()":"4db0412c","getContributions()":"dda0a81a","getTarget()":"f00e6a2a","isOpen()":"47535d7b","removeContribution(address,uint256)":"d9de1307","startAt()":"c7446565","starter()":"f5a8492f","target()":"d4b83992","title()":"4a79d50c","tokenAddress()":"9d76ea58"}}}}}