{
  "_format": "hh-sol-artifact-1",
  "contractName": "KBRouter",
  "sourceName": "contracts/KBRouter.sol",
  "abi": [
    {
      "inputs": [
        {
          "internalType": "address",
          "name": "cfAddres",
          "type": "address"
        },
        {
          "internalType": "uint256",
          "name": "amount",
          "type": "uint256"
        }
      ],
      "name": "donate",
      "outputs": [],
      "stateMutability": "nonpayable",
      "type": "function"
    },
    {
      "inputs": [],
      "name": "factoryAddress",
      "outputs": [
        {
          "internalType": "address",
          "name": "",
          "type": "address"
        }
      ],
      "stateMutability": "view",
      "type": "function"
    },
    {
      "inputs": [],
      "name": "tokenAddress",
      "outputs": [
        {
          "internalType": "address",
          "name": "",
          "type": "address"
        }
      ],
      "stateMutability": "view",
      "type": "function"
    }
  ],
  "bytecode": "0x608060405234801561001057600080fd5b50610225806100206000396000f3fe608060405234801561001057600080fd5b50600436106100415760003560e01c8063966dae0e146100465780639d76ea5814610064578063e69d849d14610082575b600080fd5b61004e61009e565b60405161005b919061012d565b60405180910390f35b61006c6100c2565b604051610079919061012d565b60405180910390f35b61009c600480360381019061009791906101af565b6100e8565b005b60008054906101000a900473ffffffffffffffffffffffffffffffffffffffff1681565b600160009054906101000a900473ffffffffffffffffffffffffffffffffffffffff1681565b5050565b600073ffffffffffffffffffffffffffffffffffffffff82169050919050565b6000610117826100ec565b9050919050565b6101278161010c565b82525050565b6000602082019050610142600083018461011e565b92915050565b600080fd5b6101568161010c565b811461016157600080fd5b50565b6000813590506101738161014d565b92915050565b6000819050919050565b61018c81610179565b811461019757600080fd5b50565b6000813590506101a981610183565b92915050565b600080604083850312156101c6576101c5610148565b5b60006101d485828601610164565b92505060206101e58582860161019a565b915050925092905056fea2646970667358221220eb12a33b911e14dda7f584fc8a1c3d520a11f1dec974fb4c5c8bb19faf6cab7c64736f6c63430008140033",
  "linkReferences": {},
  "deployedLinkReferences": {}
}