{
  "_format": "hh-sol-artifact-1",
  "contractName": "Factory",
  "sourceName": "contracts/Factory.sol",
  "abi": [
    {
      "inputs": [
        {
          "internalType": "address",
          "name": "_tokenAddress",
          "type": "address"
        }
      ],
      "name": "createExchange",
      "outputs": [
        {
          "internalType": "address",
          "name": "",
          "type": "address"
        }
      ],
      "stateMutability": "nonpayable",
      "type": "function"
    },
    {
      "inputs": [
        {
          "internalType": "address",
          "name": "_tokenAddress",
          "type": "address"
        }
      ],
      "name": "getExchange",
      "outputs": [
        {
          "internalType": "address",
          "name": "",
          "type": "address"
        }
      ],
      "stateMutability": "view",
      "type": "function"
    },
    {
      "inputs": [
        {
          "internalType": "address",
          "name": "",
          "type": "address"
        }
      ],
      "name": "tokenToExchange",
      "outputs": [
        {
          "internalType": "address",
          "name": "",
          "type": "address"
        }
      ],
      "stateMutability": "view",
      "type": "function"
    }
  ],
  "bytecode": "0x608060405234801561001057600080fd5b506130cb806100206000396000f3fe60806040523480156200001157600080fd5b5060043610620000465760003560e01c806306f2bf62146200004b5780631648f38e1462000081578063c3c49a6314620000b7575b600080fd5b62000069600480360381019062000063919062000406565b620000ed565b60405162000078919062000449565b60405180910390f35b6200009f600480360381019062000099919062000406565b62000155565b604051620000ae919062000449565b60405180910390f35b620000d56004803603810190620000cf919062000406565b6200035b565b604051620000e4919062000449565b60405180910390f35b60008060008373ffffffffffffffffffffffffffffffffffffffff1673ffffffffffffffffffffffffffffffffffffffff16815260200190815260200160002060009054906101000a900473ffffffffffffffffffffffffffffffffffffffff169050919050565b60008073ffffffffffffffffffffffffffffffffffffffff168273ffffffffffffffffffffffffffffffffffffffff1603620001c8576040517f08c379a0000000000000000000000000000000000000000000000000000000008152600401620001bf90620004c7565b60405180910390fd5b600073ffffffffffffffffffffffffffffffffffffffff166000808473ffffffffffffffffffffffffffffffffffffffff1673ffffffffffffffffffffffffffffffffffffffff16815260200190815260200160002060009054906101000a900473ffffffffffffffffffffffffffffffffffffffff1673ffffffffffffffffffffffffffffffffffffffff161462000298576040517f08c379a00000000000000000000000000000000000000000000000000000000081526004016200028f9062000539565b60405180910390fd5b600082604051620002a9906200038e565b620002b5919062000449565b604051809103906000f080158015620002d2573d6000803e3d6000fd5b509050806000808573ffffffffffffffffffffffffffffffffffffffff1673ffffffffffffffffffffffffffffffffffffffff16815260200190815260200160002060006101000a81548173ffffffffffffffffffffffffffffffffffffffff021916908373ffffffffffffffffffffffffffffffffffffffff16021790555080915050919050565b60006020528060005260406000206000915054906101000a900473ffffffffffffffffffffffffffffffffffffffff1681565b612b3a806200055c83390190565b600080fd5b600073ffffffffffffffffffffffffffffffffffffffff82169050919050565b6000620003ce82620003a1565b9050919050565b620003e081620003c1565b8114620003ec57600080fd5b50565b6000813590506200040081620003d5565b92915050565b6000602082840312156200041f576200041e6200039c565b5b60006200042f84828501620003ef565b91505092915050565b6200044381620003c1565b82525050565b600060208201905062000460600083018462000438565b92915050565b600082825260208201905092915050565b7f696e76616c696420746f6b656e20616464726573730000000000000000000000600082015250565b6000620004af60158362000466565b9150620004bc8262000477565b602082019050919050565b60006020820190508181036000830152620004e281620004a0565b9050919050565b7f65786368616e676520616c726561647920657869737400000000000000000000600082015250565b60006200052160168362000466565b91506200052e82620004e9565b602082019050919050565b60006020820190508181036000830152620005548162000512565b905091905056fe60806040523480156200001157600080fd5b5060405162002b3a38038062002b3a83398181016040528101906200003791906200022e565b6040518060400160405280600b81526020017f5a756e69737761702d76310000000000000000000000000000000000000000008152506040518060400160405280600781526020017f5a554e492d5631000000000000000000000000000000000000000000000000008152508160039081620000b49190620004da565b508060049081620000c69190620004da565b505050600073ffffffffffffffffffffffffffffffffffffffff168173ffffffffffffffffffffffffffffffffffffffff16036200013b576040517f08c379a0000000000000000000000000000000000000000000000000000000008152600401620001329062000622565b60405180910390fd5b80600560006101000a81548173ffffffffffffffffffffffffffffffffffffffff021916908373ffffffffffffffffffffffffffffffffffffffff16021790555033600660006101000a81548173ffffffffffffffffffffffffffffffffffffffff021916908373ffffffffffffffffffffffffffffffffffffffff1602179055505062000644565b600080fd5b600073ffffffffffffffffffffffffffffffffffffffff82169050919050565b6000620001f682620001c9565b9050919050565b6200020881620001e9565b81146200021457600080fd5b50565b6000815190506200022881620001fd565b92915050565b600060208284031215620002475762000246620001c4565b5b6000620002578482850162000217565b91505092915050565b600081519050919050565b7f4e487b7100000000000000000000000000000000000000000000000000000000600052604160045260246000fd5b7f4e487b7100000000000000000000000000000000000000000000000000000000600052602260045260246000fd5b60006002820490506001821680620002e257607f821691505b602082108103620002f857620002f76200029a565b5b50919050565b60008190508160005260206000209050919050565b60006020601f8301049050919050565b600082821b905092915050565b600060088302620003627fffffffffffffffffffffffffffffffffffffffffffffffffffffffffffffffff8262000323565b6200036e868362000323565b95508019841693508086168417925050509392505050565b6000819050919050565b6000819050919050565b6000620003bb620003b5620003af8462000386565b62000390565b62000386565b9050919050565b6000819050919050565b620003d7836200039a565b620003ef620003e682620003c2565b84845462000330565b825550505050565b600090565b62000406620003f7565b62000413818484620003cc565b505050565b5b818110156200043b576200042f600082620003fc565b60018101905062000419565b5050565b601f8211156200048a576200045481620002fe565b6200045f8462000313565b810160208510156200046f578190505b620004876200047e8562000313565b83018262000418565b50505b505050565b600082821c905092915050565b6000620004af600019846008026200048f565b1980831691505092915050565b6000620004ca83836200049c565b9150826002028217905092915050565b620004e58262000260565b67ffffffffffffffff8111156200050157620005006200026b565b5b6200050d8254620002c9565b6200051a8282856200043f565b600060209050601f8311600181146200055257600084156200053d578287015190505b620005498582620004bc565b865550620005b9565b601f1984166200056286620002fe565b60005b828110156200058c5784890151825560018201915060208501945060208101905062000565565b86831015620005ac5784890151620005a8601f8916826200049c565b8355505b6001600288020188555050505b505050505050565b600082825260208201905092915050565b7f546f6b656e206164647265737320697320696e76616c69640000000000000000600082015250565b60006200060a601883620005c1565b91506200061782620005d2565b602082019050919050565b600060208201905081810360008301526200063d81620005fb565b9050919050565b6124e680620006546000396000f3fe6080604052600436106101355760003560e01c806373b2872e116100ab578063a9059cbb1161006f578063a9059cbb1461042c578063c2507ac114610469578063dd62ed3e146104a6578063ef46b2ab146104e3578063f7a7e32414610520578063f979dcd71461054957610135565b806373b2872e1461035157806395d89b411461036d578063966dae0e146103985780639c8f9f23146103c35780639d76ea581461040157610135565b8063313ce567116100fd578063313ce56714610235578063389d9a401461026057806351c6590a1461027c57806359bf5d39146102ac5780635cf4ee91146102d757806370a082311461031457610135565b806306fdde031461013a578063095ea7b3146101655780630be4b96b146101a257806318160ddd146101cd57806323b872dd146101f8575b600080fd5b34801561014657600080fd5b5061014f610565565b60405161015c9190611ae1565b60405180910390f35b34801561017157600080fd5b5061018c60048036038101906101879190611b9c565b6105f7565b6040516101999190611bf7565b60405180910390f35b3480156101ae57600080fd5b506101b761061a565b6040516101c49190611c21565b60405180910390f35b3480156101d957600080fd5b506101e2610622565b6040516101ef9190611c21565b60405180910390f35b34801561020457600080fd5b5061021f600480360381019061021a9190611c3c565b61062c565b60405161022c9190611bf7565b60405180910390f35b34801561024157600080fd5b5061024a61065b565b6040516102579190611cab565b60405180910390f35b61027a60048036038101906102759190611cc6565b610664565b005b61029660048036038101906102919190611d06565b610672565b6040516102a39190611c21565b60405180910390f35b3480156102b857600080fd5b506102c16108a6565b6040516102ce9190611c21565b60405180910390f35b3480156102e357600080fd5b506102fe60048036038101906102f99190611d33565b610949565b60405161030b9190611c21565b60405180910390f35b34801561032057600080fd5b5061033b60048036038101906103369190611d73565b6109ba565b6040516103489190611c21565b60405180910390f35b61036b60048036038101906103669190611d33565b610a02565b005b34801561037957600080fd5b50610382610b5d565b60405161038f9190611ae1565b60405180910390f35b3480156103a457600080fd5b506103ad610bef565b6040516103ba9190611daf565b60405180910390f35b3480156103cf57600080fd5b506103ea60048036038101906103e59190611d06565b610c15565b6040516103f8929190611dca565b60405180910390f35b34801561040d57600080fd5b50610416610da5565b6040516104239190611daf565b60405180910390f35b34801561043857600080fd5b50610453600480360381019061044e9190611b9c565b610dcb565b6040516104609190611bf7565b60405180910390f35b34801561047557600080fd5b50610490600480360381019061048b9190611d06565b610dee565b60405161049d9190611c21565b60405180910390f35b3480156104b257600080fd5b506104cd60048036038101906104c89190611df3565b610e5e565b6040516104da9190611c21565b60405180910390f35b3480156104ef57600080fd5b5061050a60048036038101906105059190611d06565b610ee5565b6040516105179190611c21565b60405180910390f35b34801561052c57600080fd5b5061054760048036038101906105429190611e33565b610f55565b005b610563600480360381019061055e9190611d06565b6111e0565b005b60606003805461057490611eb5565b80601f01602080910402602001604051908101604052809291908181526020018280546105a090611eb5565b80156105ed5780601f106105c2576101008083540402835291602001916105ed565b820191906000526020600020905b8154815290600101906020018083116105d057829003601f168201915b5050505050905090565b6000806106026111ed565b905061060f8185856111f5565b600191505092915050565b600047905090565b6000600254905090565b6000806106376111ed565b9050610644858285611207565b61064f85858561129b565b60019150509392505050565b60006012905090565b61066e828261138f565b5050565b60008061067d6108a6565b0361074a576000600560009054906101000a900473ffffffffffffffffffffffffffffffffffffffff1690508073ffffffffffffffffffffffffffffffffffffffff166323b872dd3330866040518463ffffffff1660e01b81526004016106e693929190611ee6565b6020604051808303816000875af1158015610705573d6000803e3d6000fd5b505050506040513d601f19601f820116820180604052508101906107299190611f49565b50600061073461061a565b905061074033826114ac565b80925050506108a1565b600034476107589190611fa5565b905060006107646108a6565b9050600082826107749190612008565b3461077f9190612039565b9050808510156107c4576040517f08c379a00000000000000000000000000000000000000000000000000000000081526004016107bb906120c7565b60405180910390fd5b6000600560009054906101000a900473ffffffffffffffffffffffffffffffffffffffff1690508073ffffffffffffffffffffffffffffffffffffffff166323b872dd3330856040518463ffffffff1660e01b815260040161082893929190611ee6565b6020604051808303816000875af1158015610847573d6000803e3d6000fd5b505050506040513d601f19601f8201168201806040525081019061086b9190611f49565b506000843461087a9190612008565b610882610622565b61088c9190612039565b905061089833826114ac565b80955050505050505b919050565b6000600560009054906101000a900473ffffffffffffffffffffffffffffffffffffffff1673ffffffffffffffffffffffffffffffffffffffff166370a08231306040518263ffffffff1660e01b81526004016109039190611daf565b602060405180830381865afa158015610920573d6000803e3d6000fd5b505050506040513d601f19601f8201168201806040525081019061094491906120fc565b905090565b6000808311801561095a5750600082115b610999576040517f08c379a000000000000000000000000000000000000000000000000000000000815260040161099090612175565b60405180910390fd5b816103e8846109a89190612039565b6109b29190612008565b905092915050565b60008060008373ffffffffffffffffffffffffffffffffffffffff1673ffffffffffffffffffffffffffffffffffffffff168152602001908152602001600020549050919050565b6000610a0c6108a6565b90506000610a1861061a565b90506000610a2785848461152e565b905083811015610a6c576040517f08c379a0000000000000000000000000000000000000000000000000000000008152600401610a63906121e1565b60405180910390fd5b600560009054906101000a900473ffffffffffffffffffffffffffffffffffffffff1673ffffffffffffffffffffffffffffffffffffffff166323b872dd3330886040518463ffffffff1660e01b8152600401610acb93929190611ee6565b6020604051808303816000875af1158015610aea573d6000803e3d6000fd5b505050506040513d601f19601f82011682018060405250810190610b0e9190611f49565b503373ffffffffffffffffffffffffffffffffffffffff166108fc829081150290604051600060405180830381858888f19350505050158015610b55573d6000803e3d6000fd5b505050505050565b606060048054610b6c90611eb5565b80601f0160208091040260200160405190810160405280929190818152602001828054610b9890611eb5565b8015610be55780601f10610bba57610100808354040283529160200191610be5565b820191906000526020600020905b815481529060010190602001808311610bc857829003601f168201915b5050505050905090565b600660009054906101000a900473ffffffffffffffffffffffffffffffffffffffff1681565b60008060008311610c5b576040517f08c379a0000000000000000000000000000000000000000000000000000000008152600401610c529061224d565b60405180910390fd5b6000610c65610622565b84610c709190612008565b47610c7b9190612039565b90506000610c87610622565b85610c929190612008565b610c9a6108a6565b610ca49190612039565b9050610cb033866115d3565b3373ffffffffffffffffffffffffffffffffffffffff166108fc839081150290604051600060405180830381858888f19350505050158015610cf6573d6000803e3d6000fd5b50600560009054906101000a900473ffffffffffffffffffffffffffffffffffffffff1673ffffffffffffffffffffffffffffffffffffffff1663a9059cbb33836040518363ffffffff1660e01b8152600401610d5492919061226d565b6020604051808303816000875af1158015610d73573d6000803e3d6000fd5b505050506040513d601f19601f82011682018060405250810190610d979190611f49565b508181935093505050915091565b600560009054906101000a900473ffffffffffffffffffffffffffffffffffffffff1681565b600080610dd66111ed565b9050610de381858561129b565b600191505092915050565b6000808211610e32576040517f08c379a0000000000000000000000000000000000000000000000000000000008152600401610e29906122e2565b60405180910390fd5b6000610e3c6108a6565b90506000610e4861061a565b9050610e5584828461152e565b92505050919050565b6000600160008473ffffffffffffffffffffffffffffffffffffffff1673ffffffffffffffffffffffffffffffffffffffff16815260200190815260200160002060008373ffffffffffffffffffffffffffffffffffffffff1673ffffffffffffffffffffffffffffffffffffffff16815260200190815260200160002054905092915050565b6000808211610f29576040517f08c379a0000000000000000000000000000000000000000000000000000000008152600401610f209061234e565b60405180910390fd5b6000610f336108a6565b90506000610f3f61061a565b9050610f4c84838361152e565b92505050919050565b6000600660009054906101000a900473ffffffffffffffffffffffffffffffffffffffff1673ffffffffffffffffffffffffffffffffffffffff166306f2bf62836040518263ffffffff1660e01b8152600401610fb29190611daf565b6020604051808303816000875af1158015610fd1573d6000803e3d6000fd5b505050506040513d601f19601f82011682018060405250810190610ff59190612383565b90503073ffffffffffffffffffffffffffffffffffffffff168173ffffffffffffffffffffffffffffffffffffffff16141580156110605750600073ffffffffffffffffffffffffffffffffffffffff168173ffffffffffffffffffffffffffffffffffffffff1614155b61109f576040517f08c379a0000000000000000000000000000000000000000000000000000000008152600401611096906123fc565b60405180910390fd5b60006110a96108a6565b905060006110b561061a565b905060006110c487848461152e565b9050600560009054906101000a900473ffffffffffffffffffffffffffffffffffffffff1673ffffffffffffffffffffffffffffffffffffffff166323b872dd33308a6040518463ffffffff1660e01b815260040161112593929190611ee6565b6020604051808303816000875af1158015611144573d6000803e3d6000fd5b505050506040513d601f19601f820116820180604052508101906111689190611f49565b508373ffffffffffffffffffffffffffffffffffffffff1663389d9a408288336040518463ffffffff1660e01b81526004016111a592919061241c565b6000604051808303818588803b1580156111be57600080fd5b505af11580156111d2573d6000803e3d6000fd5b505050505050505050505050565b6111ea813361138f565b50565b600033905090565b6112028383836001611655565b505050565b60006112138484610e5e565b90507fffffffffffffffffffffffffffffffffffffffffffffffffffffffffffffffff81146112955781811015611285578281836040517ffb8f41b200000000000000000000000000000000000000000000000000000000815260040161127c93929190612445565b60405180910390fd5b61129484848484036000611655565b5b50505050565b600073ffffffffffffffffffffffffffffffffffffffff168373ffffffffffffffffffffffffffffffffffffffff160361130d5760006040517f96c6fd1e0000000000000000000000000000000000000000000000000000000081526004016113049190611daf565b60405180910390fd5b600073ffffffffffffffffffffffffffffffffffffffff168273ffffffffffffffffffffffffffffffffffffffff160361137f5760006040517fec442f050000000000000000000000000000000000000000000000000000000081526004016113769190611daf565b60405180910390fd5b61138a83838361182c565b505050565b60006113996108a6565b905060006113a561061a565b905060006113bf3434846113b99190611fa5565b8561152e565b905084811015611404576040517f08c379a00000000000000000000000000000000000000000000000000000000081526004016113fb906121e1565b60405180910390fd5b600560009054906101000a900473ffffffffffffffffffffffffffffffffffffffff1673ffffffffffffffffffffffffffffffffffffffff1663a9059cbb85836040518363ffffffff1660e01b815260040161146192919061226d565b6020604051808303816000875af1158015611480573d6000803e3d6000fd5b505050506040513d601f19601f820116820180604052508101906114a49190611f49565b505050505050565b600073ffffffffffffffffffffffffffffffffffffffff168273ffffffffffffffffffffffffffffffffffffffff160361151e5760006040517fec442f050000000000000000000000000000000000000000000000000000000081526004016115159190611daf565b60405180910390fd5b61152a6000838361182c565b5050565b6000808311801561153f5750600082115b61157e576040517f08c379a000000000000000000000000000000000000000000000000000000000815260040161157590612175565b60405180910390fd5b600060638561158d9190612039565b90506000838261159d9190612039565b90506000826064876115af9190612039565b6115b9919061247c565b905080826115c79190612008565b93505050509392505050565b600073ffffffffffffffffffffffffffffffffffffffff168273ffffffffffffffffffffffffffffffffffffffff16036116455760006040517f96c6fd1e00000000000000000000000000000000000000000000000000000000815260040161163c9190611daf565b60405180910390fd5b6116518260008361182c565b5050565b600073ffffffffffffffffffffffffffffffffffffffff168473ffffffffffffffffffffffffffffffffffffffff16036116c75760006040517fe602df050000000000000000000000000000000000000000000000000000000081526004016116be9190611daf565b60405180910390fd5b600073ffffffffffffffffffffffffffffffffffffffff168373ffffffffffffffffffffffffffffffffffffffff16036117395760006040517f94280d620000000000000000000000000000000000000000000000000000000081526004016117309190611daf565b60405180910390fd5b81600160008673ffffffffffffffffffffffffffffffffffffffff1673ffffffffffffffffffffffffffffffffffffffff16815260200190815260200160002060008573ffffffffffffffffffffffffffffffffffffffff1673ffffffffffffffffffffffffffffffffffffffff168152602001908152602001600020819055508015611826578273ffffffffffffffffffffffffffffffffffffffff168473ffffffffffffffffffffffffffffffffffffffff167f8c5be1e5ebec7d5bd14f71427d1e84f3dd0314c0f7b2291e5b200ac8c7c3b9258460405161181d9190611c21565b60405180910390a35b50505050565b600073ffffffffffffffffffffffffffffffffffffffff168373ffffffffffffffffffffffffffffffffffffffff160361187e578060026000828254611872919061247c565b92505081905550611951565b60008060008573ffffffffffffffffffffffffffffffffffffffff1673ffffffffffffffffffffffffffffffffffffffff1681526020019081526020016000205490508181101561190a578381836040517fe450d38c00000000000000000000000000000000000000000000000000000000815260040161190193929190612445565b60405180910390fd5b8181036000808673ffffffffffffffffffffffffffffffffffffffff1673ffffffffffffffffffffffffffffffffffffffff16815260200190815260200160002081905550505b600073ffffffffffffffffffffffffffffffffffffffff168273ffffffffffffffffffffffffffffffffffffffff160361199a57806002600082825403925050819055506119e7565b806000808473ffffffffffffffffffffffffffffffffffffffff1673ffffffffffffffffffffffffffffffffffffffff168152602001908152602001600020600082825401925050819055505b8173ffffffffffffffffffffffffffffffffffffffff168373ffffffffffffffffffffffffffffffffffffffff167fddf252ad1be2c89b69c2b068fc378daa952ba7f163c4a11628f55a4df523b3ef83604051611a449190611c21565b60405180910390a3505050565b600081519050919050565b600082825260208201905092915050565b60005b83811015611a8b578082015181840152602081019050611a70565b60008484015250505050565b6000601f19601f8301169050919050565b6000611ab382611a51565b611abd8185611a5c565b9350611acd818560208601611a6d565b611ad681611a97565b840191505092915050565b60006020820190508181036000830152611afb8184611aa8565b905092915050565b600080fd5b600073ffffffffffffffffffffffffffffffffffffffff82169050919050565b6000611b3382611b08565b9050919050565b611b4381611b28565b8114611b4e57600080fd5b50565b600081359050611b6081611b3a565b92915050565b6000819050919050565b611b7981611b66565b8114611b8457600080fd5b50565b600081359050611b9681611b70565b92915050565b60008060408385031215611bb357611bb2611b03565b5b6000611bc185828601611b51565b9250506020611bd285828601611b87565b9150509250929050565b60008115159050919050565b611bf181611bdc565b82525050565b6000602082019050611c0c6000830184611be8565b92915050565b611c1b81611b66565b82525050565b6000602082019050611c366000830184611c12565b92915050565b600080600060608486031215611c5557611c54611b03565b5b6000611c6386828701611b51565b9350506020611c7486828701611b51565b9250506040611c8586828701611b87565b9150509250925092565b600060ff82169050919050565b611ca581611c8f565b82525050565b6000602082019050611cc06000830184611c9c565b92915050565b60008060408385031215611cdd57611cdc611b03565b5b6000611ceb85828601611b87565b9250506020611cfc85828601611b51565b9150509250929050565b600060208284031215611d1c57611d1b611b03565b5b6000611d2a84828501611b87565b91505092915050565b60008060408385031215611d4a57611d49611b03565b5b6000611d5885828601611b87565b9250506020611d6985828601611b87565b9150509250929050565b600060208284031215611d8957611d88611b03565b5b6000611d9784828501611b51565b91505092915050565b611da981611b28565b82525050565b6000602082019050611dc46000830184611da0565b92915050565b6000604082019050611ddf6000830185611c12565b611dec6020830184611c12565b9392505050565b60008060408385031215611e0a57611e09611b03565b5b6000611e1885828601611b51565b9250506020611e2985828601611b51565b9150509250929050565b600080600060608486031215611e4c57611e4b611b03565b5b6000611e5a86828701611b87565b9350506020611e6b86828701611b87565b9250506040611e7c86828701611b51565b9150509250925092565b7f4e487b7100000000000000000000000000000000000000000000000000000000600052602260045260246000fd5b60006002820490506001821680611ecd57607f821691505b602082108103611ee057611edf611e86565b5b50919050565b6000606082019050611efb6000830186611da0565b611f086020830185611da0565b611f156040830184611c12565b949350505050565b611f2681611bdc565b8114611f3157600080fd5b50565b600081519050611f4381611f1d565b92915050565b600060208284031215611f5f57611f5e611b03565b5b6000611f6d84828501611f34565b91505092915050565b7f4e487b7100000000000000000000000000000000000000000000000000000000600052601160045260246000fd5b6000611fb082611b66565b9150611fbb83611b66565b9250828203905081811115611fd357611fd2611f76565b5b92915050565b7f4e487b7100000000000000000000000000000000000000000000000000000000600052601260045260246000fd5b600061201382611b66565b915061201e83611b66565b92508261202e5761202d611fd9565b5b828204905092915050565b600061204482611b66565b915061204f83611b66565b925082820261205d81611b66565b9150828204841483151761207457612073611f76565b5b5092915050565b7f696e73756666696369656e7420746f6b656e20616d6f756e7400000000000000600082015250565b60006120b1601983611a5c565b91506120bc8261207b565b602082019050919050565b600060208201905081810360008301526120e0816120a4565b9050919050565b6000815190506120f681611b70565b92915050565b60006020828403121561211257612111611b03565b5b6000612120848285016120e7565b91505092915050565b7f696e76616c696420726573657276650000000000000000000000000000000000600082015250565b600061215f600f83611a5c565b915061216a82612129565b602082019050919050565b6000602082019050818103600083015261218e81612152565b9050919050565b7f696e73756666696369656e74206f757470757420616d6f756e74000000000000600082015250565b60006121cb601a83611a5c565b91506121d682612195565b602082019050919050565b600060208201905081810360008301526121fa816121be565b9050919050565b7f696e76616c696420616d6f756e74000000000000000000000000000000000000600082015250565b6000612237600e83611a5c565b915061224282612201565b602082019050919050565b600060208201905081810360008301526122668161222a565b9050919050565b60006040820190506122826000830185611da0565b61228f6020830184611c12565b9392505050565b7f65746820697320746f6f20736d616c6c00000000000000000000000000000000600082015250565b60006122cc601083611a5c565b91506122d782612296565b602082019050919050565b600060208201905081810360008301526122fb816122bf565b9050919050565b7f746f6b656e20697320746f6f20736d616c6c0000000000000000000000000000600082015250565b6000612338601283611a5c565b915061234382612302565b602082019050919050565b600060208201905081810360008301526123678161232b565b9050919050565b60008151905061237d81611b3a565b92915050565b60006020828403121561239957612398611b03565b5b60006123a78482850161236e565b91505092915050565b7f696e76616c69642065786368616e676520616464726573730000000000000000600082015250565b60006123e6601883611a5c565b91506123f1826123b0565b602082019050919050565b60006020820190508181036000830152612415816123d9565b9050919050565b60006040820190506124316000830185611c12565b61243e6020830184611da0565b9392505050565b600060608201905061245a6000830186611da0565b6124676020830185611c12565b6124746040830184611c12565b949350505050565b600061248782611b66565b915061249283611b66565b92508282019050808211156124aa576124a9611f76565b5b9291505056fea26469706673582212200cf1b7fd77b17a338cbdd2d442e348f6600ef66922dd7699da4b6f9b5e3e27fa64736f6c63430008140033a2646970667358221220571ffd3f097dd5e25789425bd132c4a723a54debdfa3674a3dec4edf35f1944d64736f6c63430008140033",
  "linkReferences": {},
  "deployedLinkReferences": {}
}