{
  "_format": "hh-sol-artifact-1",
  "contractName": "BlogPost",
  "sourceName": "contracts/BlogPost.sol",
  "abi": [
    {
      "inputs": [
        {
          "internalType": "string",
          "name": "_title",
          "type": "string"
        },
        {
          "internalType": "string[]",
          "name": "_keywords",
          "type": "string[]"
        },
        {
          "internalType": "string",
          "name": "_contentURI",
          "type": "string"
        }
      ],
      "stateMutability": "nonpayable",
      "type": "constructor"
    },
    {
      "inputs": [
        {
          "internalType": "address",
          "name": "owner",
          "type": "address"
        }
      ],
      "name": "OwnableInvalidOwner",
      "type": "error"
    },
    {
      "inputs": [
        {
          "internalType": "address",
          "name": "account",
          "type": "address"
        }
      ],
      "name": "OwnableUnauthorizedAccount",
      "type": "error"
    },
    {
      "anonymous": false,
      "inputs": [
        {
          "indexed": true,
          "internalType": "address",
          "name": "previousOwner",
          "type": "address"
        },
        {
          "indexed": true,
          "internalType": "address",
          "name": "newOwner",
          "type": "address"
        }
      ],
      "name": "OwnershipTransferred",
      "type": "event"
    },
    {
      "inputs": [],
      "name": "contentURI",
      "outputs": [
        {
          "internalType": "string",
          "name": "",
          "type": "string"
        }
      ],
      "stateMutability": "view",
      "type": "function"
    },
    {
      "inputs": [
        {
          "internalType": "uint256",
          "name": "",
          "type": "uint256"
        }
      ],
      "name": "keywords",
      "outputs": [
        {
          "internalType": "string",
          "name": "",
          "type": "string"
        }
      ],
      "stateMutability": "view",
      "type": "function"
    },
    {
      "inputs": [],
      "name": "owner",
      "outputs": [
        {
          "internalType": "address",
          "name": "",
          "type": "address"
        }
      ],
      "stateMutability": "view",
      "type": "function"
    },
    {
      "inputs": [],
      "name": "renounceOwnership",
      "outputs": [],
      "stateMutability": "nonpayable",
      "type": "function"
    },
    {
      "inputs": [
        {
          "internalType": "string",
          "name": "_newTitle",
          "type": "string"
        }
      ],
      "name": "setTitle",
      "outputs": [],
      "stateMutability": "nonpayable",
      "type": "function"
    },
    {
      "inputs": [],
      "name": "title",
      "outputs": [
        {
          "internalType": "string",
          "name": "",
          "type": "string"
        }
      ],
      "stateMutability": "view",
      "type": "function"
    },
    {
      "inputs": [
        {
          "internalType": "address",
          "name": "newOwner",
          "type": "address"
        }
      ],
      "name": "transferOwnership",
      "outputs": [],
      "stateMutability": "nonpayable",
      "type": "function"
    }
  ],
  "bytecode": "0x60806040523480156200001157600080fd5b506040516200155138038062001551833981810160405281019062000037919062000545565b33600073ffffffffffffffffffffffffffffffffffffffff168173ffffffffffffffffffffffffffffffffffffffff1603620000ad5760006040517f1e4fbdf7000000000000000000000000000000000000000000000000000000008152600401620000a4919062000643565b60405180910390fd5b620000be816200010560201b60201c565b508260019081620000d09190620008ab565b508160029080519060200190620000e9929190620001c9565b508060039081620000fb9190620008ab565b5050505062000992565b60008060009054906101000a900473ffffffffffffffffffffffffffffffffffffffff169050816000806101000a81548173ffffffffffffffffffffffffffffffffffffffff021916908373ffffffffffffffffffffffffffffffffffffffff1602179055508173ffffffffffffffffffffffffffffffffffffffff168173ffffffffffffffffffffffffffffffffffffffff167f8be0079c531659141344cd1fd0a4f28419497f9722a3daafe3b4186f6b6457e060405160405180910390a35050565b82805482825590600052602060002090810192821562000216579160200282015b8281111562000215578251829081620002049190620008ab565b5091602001919060010190620001ea565b5b50905062000225919062000229565b5090565b5b808211156200024d576000818162000243919062000251565b506001016200022a565b5090565b5080546200025f906200069a565b6000825580601f1062000273575062000294565b601f01602090049060005260206000209081019062000293919062000297565b5b50565b5b80821115620002b257600081600090555060010162000298565b5090565b6000604051905090565b600080fd5b600080fd5b600080fd5b600080fd5b6000601f19601f8301169050919050565b7f4e487b7100000000000000000000000000000000000000000000000000000000600052604160045260246000fd5b6200031f82620002d4565b810181811067ffffffffffffffff82111715620003415762000340620002e5565b5b80604052505050565b600062000356620002b6565b905062000364828262000314565b919050565b600067ffffffffffffffff821115620003875762000386620002e5565b5b6200039282620002d4565b9050602081019050919050565b60005b83811015620003bf578082015181840152602081019050620003a2565b60008484015250505050565b6000620003e2620003dc8462000369565b6200034a565b905082815260208101848484011115620004015762000400620002cf565b5b6200040e8482856200039f565b509392505050565b600082601f8301126200042e576200042d620002ca565b5b815162000440848260208601620003cb565b91505092915050565b600067ffffffffffffffff821115620004675762000466620002e5565b5b602082029050602081019050919050565b600080fd5b6000620004946200048e8462000449565b6200034a565b90508083825260208201905060208402830185811115620004ba57620004b962000478565b5b835b818110156200050857805167ffffffffffffffff811115620004e357620004e2620002ca565b5b808601620004f2898262000416565b85526020850194505050602081019050620004bc565b5050509392505050565b600082601f8301126200052a5762000529620002ca565b5b81516200053c8482602086016200047d565b91505092915050565b600080600060608486031215620005615762000560620002c0565b5b600084015167ffffffffffffffff811115620005825762000581620002c5565b5b620005908682870162000416565b935050602084015167ffffffffffffffff811115620005b457620005b3620002c5565b5b620005c28682870162000512565b925050604084015167ffffffffffffffff811115620005e657620005e5620002c5565b5b620005f48682870162000416565b9150509250925092565b600073ffffffffffffffffffffffffffffffffffffffff82169050919050565b60006200062b82620005fe565b9050919050565b6200063d816200061e565b82525050565b60006020820190506200065a600083018462000632565b92915050565b600081519050919050565b7f4e487b7100000000000000000000000000000000000000000000000000000000600052602260045260246000fd5b60006002820490506001821680620006b357607f821691505b602082108103620006c957620006c86200066b565b5b50919050565b60008190508160005260206000209050919050565b60006020601f8301049050919050565b600082821b905092915050565b600060088302620007337fffffffffffffffffffffffffffffffffffffffffffffffffffffffffffffffff82620006f4565b6200073f8683620006f4565b95508019841693508086168417925050509392505050565b6000819050919050565b6000819050919050565b60006200078c62000786620007808462000757565b62000761565b62000757565b9050919050565b6000819050919050565b620007a8836200076b565b620007c0620007b78262000793565b84845462000701565b825550505050565b600090565b620007d7620007c8565b620007e48184846200079d565b505050565b5b818110156200080c5762000800600082620007cd565b600181019050620007ea565b5050565b601f8211156200085b576200082581620006cf565b6200083084620006e4565b8101602085101562000840578190505b620008586200084f85620006e4565b830182620007e9565b50505b505050565b600082821c905092915050565b6000620008806000198460080262000860565b1980831691505092915050565b60006200089b83836200086d565b9150826002028217905092915050565b620008b68262000660565b67ffffffffffffffff811115620008d257620008d1620002e5565b5b620008de82546200069a565b620008eb82828562000810565b600060209050601f8311600181146200092357600084156200090e578287015190505b6200091a85826200088d565b8655506200098a565b601f1984166200093386620006cf565b60005b828110156200095d5784890151825560018201915060208501945060208101905062000936565b868310156200097d578489015162000979601f8916826200086d565b8355505b6001600288020188555050505b505050505050565b610baf80620009a26000396000f3fe608060405234801561001057600080fd5b506004361061007d5760003560e01c8063715018a61161005b578063715018a6146100ee57806372910be0146100f85780638da5cb5b14610114578063f2fde38b146101325761007d565b8063041c8887146100825780634a79d50c146100b25780634dcd14b2146100d0575b600080fd5b61009c60048036038101906100979190610589565b61014e565b6040516100a99190610646565b60405180910390f35b6100ba6101fa565b6040516100c79190610646565b60405180910390f35b6100d8610288565b6040516100e59190610646565b60405180910390f35b6100f6610316565b005b610112600480360381019061010d919061079d565b61032a565b005b61011c61033d565b6040516101299190610827565b60405180910390f35b61014c6004803603810190610147919061086e565b610366565b005b6002818154811061015e57600080fd5b906000526020600020016000915090508054610179906108ca565b80601f01602080910402602001604051908101604052809291908181526020018280546101a5906108ca565b80156101f25780601f106101c7576101008083540402835291602001916101f2565b820191906000526020600020905b8154815290600101906020018083116101d557829003601f168201915b505050505081565b60018054610207906108ca565b80601f0160208091040260200160405190810160405280929190818152602001828054610233906108ca565b80156102805780601f1061025557610100808354040283529160200191610280565b820191906000526020600020905b81548152906001019060200180831161026357829003601f168201915b505050505081565b60038054610295906108ca565b80601f01602080910402602001604051908101604052809291908181526020018280546102c1906108ca565b801561030e5780601f106102e35761010080835404028352916020019161030e565b820191906000526020600020905b8154815290600101906020018083116102f157829003601f168201915b505050505081565b61031e6103ec565b6103286000610473565b565b80600190816103399190610aa7565b5050565b60008060009054906101000a900473ffffffffffffffffffffffffffffffffffffffff16905090565b61036e6103ec565b600073ffffffffffffffffffffffffffffffffffffffff168173ffffffffffffffffffffffffffffffffffffffff16036103e05760006040517f1e4fbdf70000000000000000000000000000000000000000000000000000000081526004016103d79190610827565b60405180910390fd5b6103e981610473565b50565b6103f4610537565b73ffffffffffffffffffffffffffffffffffffffff1661041261033d565b73ffffffffffffffffffffffffffffffffffffffff161461047157610435610537565b6040517f118cdaa70000000000000000000000000000000000000000000000000000000081526004016104689190610827565b60405180910390fd5b565b60008060009054906101000a900473ffffffffffffffffffffffffffffffffffffffff169050816000806101000a81548173ffffffffffffffffffffffffffffffffffffffff021916908373ffffffffffffffffffffffffffffffffffffffff1602179055508173ffffffffffffffffffffffffffffffffffffffff168173ffffffffffffffffffffffffffffffffffffffff167f8be0079c531659141344cd1fd0a4f28419497f9722a3daafe3b4186f6b6457e060405160405180910390a35050565b600033905090565b6000604051905090565b600080fd5b600080fd5b6000819050919050565b61056681610553565b811461057157600080fd5b50565b6000813590506105838161055d565b92915050565b60006020828403121561059f5761059e610549565b5b60006105ad84828501610574565b91505092915050565b600081519050919050565b600082825260208201905092915050565b60005b838110156105f05780820151818401526020810190506105d5565b60008484015250505050565b6000601f19601f8301169050919050565b6000610618826105b6565b61062281856105c1565b93506106328185602086016105d2565b61063b816105fc565b840191505092915050565b60006020820190508181036000830152610660818461060d565b905092915050565b600080fd5b600080fd5b7f4e487b7100000000000000000000000000000000000000000000000000000000600052604160045260246000fd5b6106aa826105fc565b810181811067ffffffffffffffff821117156106c9576106c8610672565b5b80604052505050565b60006106dc61053f565b90506106e882826106a1565b919050565b600067ffffffffffffffff82111561070857610707610672565b5b610711826105fc565b9050602081019050919050565b82818337600083830152505050565b600061074061073b846106ed565b6106d2565b90508281526020810184848401111561075c5761075b61066d565b5b61076784828561071e565b509392505050565b600082601f83011261078457610783610668565b5b813561079484826020860161072d565b91505092915050565b6000602082840312156107b3576107b2610549565b5b600082013567ffffffffffffffff8111156107d1576107d061054e565b5b6107dd8482850161076f565b91505092915050565b600073ffffffffffffffffffffffffffffffffffffffff82169050919050565b6000610811826107e6565b9050919050565b61082181610806565b82525050565b600060208201905061083c6000830184610818565b92915050565b61084b81610806565b811461085657600080fd5b50565b60008135905061086881610842565b92915050565b60006020828403121561088457610883610549565b5b600061089284828501610859565b91505092915050565b7f4e487b7100000000000000000000000000000000000000000000000000000000600052602260045260246000fd5b600060028204905060018216806108e257607f821691505b6020821081036108f5576108f461089b565b5b50919050565b60008190508160005260206000209050919050565b60006020601f8301049050919050565b600082821b905092915050565b60006008830261095d7fffffffffffffffffffffffffffffffffffffffffffffffffffffffffffffffff82610920565b6109678683610920565b95508019841693508086168417925050509392505050565b6000819050919050565b60006109a461099f61099a84610553565b61097f565b610553565b9050919050565b6000819050919050565b6109be83610989565b6109d26109ca826109ab565b84845461092d565b825550505050565b600090565b6109e76109da565b6109f28184846109b5565b505050565b5b81811015610a1657610a0b6000826109df565b6001810190506109f8565b5050565b601f821115610a5b57610a2c816108fb565b610a3584610910565b81016020851015610a44578190505b610a58610a5085610910565b8301826109f7565b50505b505050565b600082821c905092915050565b6000610a7e60001984600802610a60565b1980831691505092915050565b6000610a978383610a6d565b9150826002028217905092915050565b610ab0826105b6565b67ffffffffffffffff811115610ac957610ac8610672565b5b610ad382546108ca565b610ade828285610a1a565b600060209050601f831160018114610b115760008415610aff578287015190505b610b098582610a8b565b865550610b71565b601f198416610b1f866108fb565b60005b82811015610b4757848901518255600182019150602085019450602081019050610b22565b86831015610b645784890151610b60601f891682610a6d565b8355505b6001600288020188555050505b50505050505056fea26469706673582212204e269e87af7e9ded7e4de1e10a3746ce4c0a218e7444e253b0a4de24f376797d64736f6c63430008140033",
  "linkReferences": {},
  "deployedLinkReferences": {}
}