{
  "_format": "hh-sol-artifact-1",
  "contractName": "Gravity",
  "sourceName": "contracts/Gravity.sol",
  "abi": [
    {
      "inputs": [],
      "stateMutability": "nonpayable",
      "type": "constructor"
    },
    {
      "anonymous": false,
      "inputs": [
        {
          "indexed": false,
          "internalType": "uint256",
          "name": "id",
          "type": "uint256"
        },
        {
          "indexed": false,
          "internalType": "address",
          "name": "owner",
          "type": "address"
        },
        {
          "indexed": false,
          "internalType": "string",
          "name": "displayName",
          "type": "string"
        },
        {
          "indexed": false,
          "internalType": "string",
          "name": "imageUrl",
          "type": "string"
        }
      ],
      "name": "NewGravatar",
      "type": "event"
    },
    {
      "anonymous": false,
      "inputs": [
        {
          "indexed": false,
          "internalType": "uint256",
          "name": "id",
          "type": "uint256"
        },
        {
          "indexed": false,
          "internalType": "address",
          "name": "owner",
          "type": "address"
        },
        {
          "indexed": false,
          "internalType": "string",
          "name": "displayName",
          "type": "string"
        },
        {
          "indexed": false,
          "internalType": "string",
          "name": "imageUrl",
          "type": "string"
        }
      ],
      "name": "UpdatedGravatar",
      "type": "event"
    },
    {
      "inputs": [
        {
          "internalType": "string",
          "name": "_displayName",
          "type": "string"
        },
        {
          "internalType": "string",
          "name": "_imageUrl",
          "type": "string"
        }
      ],
      "name": "createGravatar",
      "outputs": [],
      "stateMutability": "nonpayable",
      "type": "function"
    },
    {
      "inputs": [
        {
          "internalType": "address",
          "name": "owner",
          "type": "address"
        }
      ],
      "name": "getGravatar",
      "outputs": [
        {
          "internalType": "string",
          "name": "",
          "type": "string"
        },
        {
          "internalType": "string",
          "name": "",
          "type": "string"
        }
      ],
      "stateMutability": "view",
      "type": "function"
    },
    {
      "inputs": [
        {
          "internalType": "uint256",
          "name": "",
          "type": "uint256"
        }
      ],
      "name": "gravatarToOwner",
      "outputs": [
        {
          "internalType": "address",
          "name": "",
          "type": "address"
        }
      ],
      "stateMutability": "view",
      "type": "function"
    },
    {
      "inputs": [
        {
          "internalType": "uint256",
          "name": "",
          "type": "uint256"
        }
      ],
      "name": "gravatars",
      "outputs": [
        {
          "internalType": "address",
          "name": "owner",
          "type": "address"
        },
        {
          "internalType": "string",
          "name": "displayName",
          "type": "string"
        },
        {
          "internalType": "string",
          "name": "imageUrl",
          "type": "string"
        }
      ],
      "stateMutability": "view",
      "type": "function"
    },
    {
      "inputs": [
        {
          "internalType": "address",
          "name": "",
          "type": "address"
        }
      ],
      "name": "ownerToGravatar",
      "outputs": [
        {
          "internalType": "uint256",
          "name": "",
          "type": "uint256"
        }
      ],
      "stateMutability": "view",
      "type": "function"
    },
    {
      "inputs": [
        {
          "internalType": "string",
          "name": "_imageUrl",
          "type": "string"
        }
      ],
      "name": "updateGravatarImage",
      "outputs": [],
      "stateMutability": "nonpayable",
      "type": "function"
    },
    {
      "inputs": [
        {
          "internalType": "string",
          "name": "_displayName",
          "type": "string"
        }
      ],
      "name": "updateGravatarName",
      "outputs": [],
      "stateMutability": "nonpayable",
      "type": "function"
    }
  ],
  "bytecode": "0x608060405234801561001057600080fd5b50600060038190555061146b806100286000396000f3fe608060405234801561001057600080fd5b506004361061007c5760003560e01c8063a5ac36341161005b578063a5ac3634146100fe578063b18588fb1461012e578063cdb3344a1461014a578063d5ce24ed146101665761007c565b806281d6e514610081578063359c1f721461009d57806388d0d391146100ce575b600080fd5b61009b60048036038101906100969190610c36565b610198565b005b6100b760048036038101906100b29190610cdd565b61037c565b6040516100c5929190610d89565b60405180910390f35b6100e860048036038101906100e39190610df6565b61052f565b6040516100f59190610e32565b60405180910390f35b61011860048036038101906101139190610cdd565b610562565b6040516101259190610e5c565b60405180910390f35b61014860048036038101906101439190610c36565b61057a565b005b610164600480360381019061015f9190610e77565b61075e565b005b610180600480360381019061017b9190610df6565b610972565b60405161018f93929190610eef565b60405180910390f35b6000600260003373ffffffffffffffffffffffffffffffffffffffff1673ffffffffffffffffffffffffffffffffffffffff16815260200190815260200160002054036101e457600080fd5b6000600260003373ffffffffffffffffffffffffffffffffffffffff1673ffffffffffffffffffffffffffffffffffffffff168152602001908152602001600020548154811061023757610236610f34565b5b906000526020600020906003020160000160009054906101000a900473ffffffffffffffffffffffffffffffffffffffff1673ffffffffffffffffffffffffffffffffffffffff163373ffffffffffffffffffffffffffffffffffffffff16146102a057600080fd5b6000600260003373ffffffffffffffffffffffffffffffffffffffff1673ffffffffffffffffffffffffffffffffffffffff16815260200190815260200160002054905081600082815481106102f9576102f8610f34565b5b90600052602060002090600302016002019081610316919061116f565b507f76571b7a897a1509c641587568218a290018fbdc8b9a724f17b77ff0eec22c0c81336000848154811061034e5761034d610f34565b5b90600052602060002090600302016001018560405161037094939291906112c5565b60405180910390a15050565b6060806000600260008573ffffffffffffffffffffffffffffffffffffffff1673ffffffffffffffffffffffffffffffffffffffff168152602001908152602001600020549050600081815481106103d7576103d6610f34565b5b9060005260206000209060030201600101600082815481106103fc576103fb610f34565b5b906000526020600020906003020160020181805461041990610f92565b80601f016020809104026020016040519081016040528092919081815260200182805461044590610f92565b80156104925780601f1061046757610100808354040283529160200191610492565b820191906000526020600020905b81548152906001019060200180831161047557829003601f168201915b505050505091508080546104a590610f92565b80601f01602080910402602001604051908101604052809291908181526020018280546104d190610f92565b801561051e5780601f106104f35761010080835404028352916020019161051e565b820191906000526020600020905b81548152906001019060200180831161050157829003601f168201915b505050505090509250925050915091565b60016020528060005260406000206000915054906101000a900473ffffffffffffffffffffffffffffffffffffffff1681565b60026020528060005260406000206000915090505481565b6000600260003373ffffffffffffffffffffffffffffffffffffffff1673ffffffffffffffffffffffffffffffffffffffff16815260200190815260200160002054036105c657600080fd5b6000600260003373ffffffffffffffffffffffffffffffffffffffff1673ffffffffffffffffffffffffffffffffffffffff168152602001908152602001600020548154811061061957610618610f34565b5b906000526020600020906003020160000160009054906101000a900473ffffffffffffffffffffffffffffffffffffffff1673ffffffffffffffffffffffffffffffffffffffff163373ffffffffffffffffffffffffffffffffffffffff161461068257600080fd5b6000600260003373ffffffffffffffffffffffffffffffffffffffff1673ffffffffffffffffffffffffffffffffffffffff16815260200190815260200160002054905081600082815481106106db576106da610f34565b5b906000526020600020906003020160010190816106f8919061116f565b507f76571b7a897a1509c641587568218a290018fbdc8b9a724f17b77ff0eec22c0c8133846000858154811061073157610730610f34565b5b90600052602060002090600302016002016040516107529493929190611318565b60405180910390a15050565b6000600260003373ffffffffffffffffffffffffffffffffffffffff1673ffffffffffffffffffffffffffffffffffffffff16815260200190815260200160002054146107aa57600080fd5b600060405180606001604052803373ffffffffffffffffffffffffffffffffffffffff16815260200184815260200183815250908060018154018082558091505060019003906000526020600020906003020160009091909190915060008201518160000160006101000a81548173ffffffffffffffffffffffffffffffffffffffff021916908373ffffffffffffffffffffffffffffffffffffffff1602179055506020820151816001019081610862919061116f565b506040820151816002019081610878919061116f565b50505060006003549050600360008154809291906108959061139a565b9190505550336001600083815260200190815260200160002060006101000a81548173ffffffffffffffffffffffffffffffffffffffff021916908373ffffffffffffffffffffffffffffffffffffffff16021790555080600260003373ffffffffffffffffffffffffffffffffffffffff1673ffffffffffffffffffffffffffffffffffffffff168152602001908152602001600020819055507f9ab3aefb2ba6dc12910ac1bce4692cf5c3c0d06cff16327c64a3ef78228b130b8133858560405161096594939291906113e2565b60405180910390a1505050565b6000818154811061098257600080fd5b90600052602060002090600302016000915090508060000160009054906101000a900473ffffffffffffffffffffffffffffffffffffffff16908060010180546109cb90610f92565b80601f01602080910402602001604051908101604052809291908181526020018280546109f790610f92565b8015610a445780601f10610a1957610100808354040283529160200191610a44565b820191906000526020600020905b815481529060010190602001808311610a2757829003601f168201915b505050505090806002018054610a5990610f92565b80601f0160208091040260200160405190810160405280929190818152602001828054610a8590610f92565b8015610ad25780601f10610aa757610100808354040283529160200191610ad2565b820191906000526020600020905b815481529060010190602001808311610ab557829003601f168201915b5050505050905083565b6000604051905090565b600080fd5b600080fd5b600080fd5b600080fd5b6000601f19601f8301169050919050565b7f4e487b7100000000000000000000000000000000000000000000000000000000600052604160045260246000fd5b610b4382610afa565b810181811067ffffffffffffffff82111715610b6257610b61610b0b565b5b80604052505050565b6000610b75610adc565b9050610b818282610b3a565b919050565b600067ffffffffffffffff821115610ba157610ba0610b0b565b5b610baa82610afa565b9050602081019050919050565b82818337600083830152505050565b6000610bd9610bd484610b86565b610b6b565b905082815260208101848484011115610bf557610bf4610af5565b5b610c00848285610bb7565b509392505050565b600082601f830112610c1d57610c1c610af0565b5b8135610c2d848260208601610bc6565b91505092915050565b600060208284031215610c4c57610c4b610ae6565b5b600082013567ffffffffffffffff811115610c6a57610c69610aeb565b5b610c7684828501610c08565b91505092915050565b600073ffffffffffffffffffffffffffffffffffffffff82169050919050565b6000610caa82610c7f565b9050919050565b610cba81610c9f565b8114610cc557600080fd5b50565b600081359050610cd781610cb1565b92915050565b600060208284031215610cf357610cf2610ae6565b5b6000610d0184828501610cc8565b91505092915050565b600081519050919050565b600082825260208201905092915050565b60005b83811015610d44578082015181840152602081019050610d29565b60008484015250505050565b6000610d5b82610d0a565b610d658185610d15565b9350610d75818560208601610d26565b610d7e81610afa565b840191505092915050565b60006040820190508181036000830152610da38185610d50565b90508181036020830152610db78184610d50565b90509392505050565b6000819050919050565b610dd381610dc0565b8114610dde57600080fd5b50565b600081359050610df081610dca565b92915050565b600060208284031215610e0c57610e0b610ae6565b5b6000610e1a84828501610de1565b91505092915050565b610e2c81610c9f565b82525050565b6000602082019050610e476000830184610e23565b92915050565b610e5681610dc0565b82525050565b6000602082019050610e716000830184610e4d565b92915050565b60008060408385031215610e8e57610e8d610ae6565b5b600083013567ffffffffffffffff811115610eac57610eab610aeb565b5b610eb885828601610c08565b925050602083013567ffffffffffffffff811115610ed957610ed8610aeb565b5b610ee585828601610c08565b9150509250929050565b6000606082019050610f046000830186610e23565b8181036020830152610f168185610d50565b90508181036040830152610f2a8184610d50565b9050949350505050565b7f4e487b7100000000000000000000000000000000000000000000000000000000600052603260045260246000fd5b7f4e487b7100000000000000000000000000000000000000000000000000000000600052602260045260246000fd5b60006002820490506001821680610faa57607f821691505b602082108103610fbd57610fbc610f63565b5b50919050565b60008190508160005260206000209050919050565b60006020601f8301049050919050565b600082821b905092915050565b6000600883026110257fffffffffffffffffffffffffffffffffffffffffffffffffffffffffffffffff82610fe8565b61102f8683610fe8565b95508019841693508086168417925050509392505050565b6000819050919050565b600061106c61106761106284610dc0565b611047565b610dc0565b9050919050565b6000819050919050565b61108683611051565b61109a61109282611073565b848454610ff5565b825550505050565b600090565b6110af6110a2565b6110ba81848461107d565b505050565b5b818110156110de576110d36000826110a7565b6001810190506110c0565b5050565b601f821115611123576110f481610fc3565b6110fd84610fd8565b8101602085101561110c578190505b61112061111885610fd8565b8301826110bf565b50505b505050565b600082821c905092915050565b600061114660001984600802611128565b1980831691505092915050565b600061115f8383611135565b9150826002028217905092915050565b61117882610d0a565b67ffffffffffffffff81111561119157611190610b0b565b5b61119b8254610f92565b6111a68282856110e2565b600060209050601f8311600181146111d957600084156111c7578287015190505b6111d18582611153565b865550611239565b601f1984166111e786610fc3565b60005b8281101561120f578489015182556001820191506020850194506020810190506111ea565b8683101561122c5784890151611228601f891682611135565b8355505b6001600288020188555050505b505050505050565b6000815461124e81610f92565b6112588186610d15565b945060018216600081146112735760018114611289576112bc565b60ff1983168652811515602002860193506112bc565b61129285610fc3565b60005b838110156112b457815481890152600182019150602081019050611295565b808801955050505b50505092915050565b60006080820190506112da6000830187610e4d565b6112e76020830186610e23565b81810360408301526112f98185611241565b9050818103606083015261130d8184610d50565b905095945050505050565b600060808201905061132d6000830187610e4d565b61133a6020830186610e23565b818103604083015261134c8185610d50565b905081810360608301526113608184611241565b905095945050505050565b7f4e487b7100000000000000000000000000000000000000000000000000000000600052601160045260246000fd5b60006113a582610dc0565b91507fffffffffffffffffffffffffffffffffffffffffffffffffffffffffffffffff82036113d7576113d661136b565b5b600182019050919050565b60006080820190506113f76000830187610e4d565b6114046020830186610e23565b81810360408301526114168185610d50565b9050818103606083015261142a8184610d50565b90509594505050505056fea26469706673582212207f19895f2369ec5ad56a9f521984f27de2121a536555789cddfb593f55a72d2b64736f6c63430008140033",
  "linkReferences": {},
  "deployedLinkReferences": {}
}