{
  "_format": "hh-sol-artifact-1",
  "contractName": "Crowdfunding",
  "sourceName": "contracts/Crowdfunding.sol",
  "abi": [
    {
      "inputs": [
        {
          "internalType": "address",
          "name": "_starter",
          "type": "address"
        },
        {
          "internalType": "string",
          "name": "_title",
          "type": "string"
        },
        {
          "internalType": "string",
          "name": "_shortDescription",
          "type": "string"
        },
        {
          "internalType": "string[]",
          "name": "_categories",
          "type": "string[]"
        },
        {
          "internalType": "string",
          "name": "_metadataCID",
          "type": "string"
        },
        {
          "internalType": "uint256",
          "name": "_target",
          "type": "uint256"
        },
        {
          "internalType": "uint256",
          "name": "_deadline",
          "type": "uint256"
        },
        {
          "internalType": "address",
          "name": "_tokenAddress",
          "type": "address"
        }
      ],
      "stateMutability": "nonpayable",
      "type": "constructor"
    },
    {
      "inputs": [],
      "name": "SafeApproveFailed",
      "type": "error"
    },
    {
      "inputs": [],
      "name": "SafeTransferFailed",
      "type": "error"
    },
    {
      "anonymous": false,
      "inputs": [
        {
          "indexed": false,
          "internalType": "address",
          "name": "cfAddress",
          "type": "address"
        },
        {
          "components": [
            {
              "internalType": "address",
              "name": "contributor",
              "type": "address"
            },
            {
              "internalType": "uint256",
              "name": "amount",
              "type": "uint256"
            },
            {
              "internalType": "uint256",
              "name": "timestamp",
              "type": "uint256"
            }
          ],
          "indexed": false,
          "internalType": "struct Crowdfunding.Contribution",
          "name": "contribution",
          "type": "tuple"
        },
        {
          "indexed": false,
          "internalType": "bool",
          "name": "isOpen",
          "type": "bool"
        }
      ],
      "name": "ContributionAdded",
      "type": "event"
    },
    {
      "anonymous": false,
      "inputs": [
        {
          "indexed": false,
          "internalType": "address",
          "name": "cfAddress",
          "type": "address"
        },
        {
          "components": [
            {
              "internalType": "address",
              "name": "to",
              "type": "address"
            },
            {
              "internalType": "uint256",
              "name": "amount",
              "type": "uint256"
            },
            {
              "internalType": "uint256",
              "name": "timestamp",
              "type": "uint256"
            }
          ],
          "indexed": false,
          "internalType": "struct Crowdfunding.Burning",
          "name": "burning",
          "type": "tuple"
        }
      ],
      "name": "Withdraw",
      "type": "event"
    },
    {
      "inputs": [
        {
          "internalType": "address",
          "name": "by",
          "type": "address"
        },
        {
          "internalType": "uint256",
          "name": "amount",
          "type": "uint256"
        }
      ],
      "name": "addContribution",
      "outputs": [
        {
          "internalType": "uint256",
          "name": "contributionAdded",
          "type": "uint256"
        }
      ],
      "stateMutability": "nonpayable",
      "type": "function"
    },
    {
      "inputs": [
        {
          "internalType": "uint256",
          "name": "",
          "type": "uint256"
        }
      ],
      "name": "burnings",
      "outputs": [
        {
          "internalType": "address",
          "name": "to",
          "type": "address"
        },
        {
          "internalType": "uint256",
          "name": "amount",
          "type": "uint256"
        },
        {
          "internalType": "uint256",
          "name": "timestamp",
          "type": "uint256"
        }
      ],
      "stateMutability": "view",
      "type": "function"
    },
    {
      "inputs": [
        {
          "internalType": "uint256",
          "name": "",
          "type": "uint256"
        }
      ],
      "name": "categories",
      "outputs": [
        {
          "internalType": "string",
          "name": "",
          "type": "string"
        }
      ],
      "stateMutability": "view",
      "type": "function"
    },
    {
      "inputs": [
        {
          "internalType": "uint256",
          "name": "amount",
          "type": "uint256"
        }
      ],
      "name": "contributionAllowed",
      "outputs": [
        {
          "internalType": "uint256",
          "name": "",
          "type": "uint256"
        }
      ],
      "stateMutability": "view",
      "type": "function"
    },
    {
      "inputs": [
        {
          "internalType": "uint256",
          "name": "",
          "type": "uint256"
        }
      ],
      "name": "contributions",
      "outputs": [
        {
          "internalType": "address",
          "name": "contributor",
          "type": "address"
        },
        {
          "internalType": "uint256",
          "name": "amount",
          "type": "uint256"
        },
        {
          "internalType": "uint256",
          "name": "timestamp",
          "type": "uint256"
        }
      ],
      "stateMutability": "view",
      "type": "function"
    },
    {
      "inputs": [],
      "name": "current",
      "outputs": [
        {
          "internalType": "uint256",
          "name": "",
          "type": "uint256"
        }
      ],
      "stateMutability": "view",
      "type": "function"
    },
    {
      "inputs": [],
      "name": "deadline",
      "outputs": [
        {
          "internalType": "uint256",
          "name": "",
          "type": "uint256"
        }
      ],
      "stateMutability": "view",
      "type": "function"
    },
    {
      "inputs": [
        {
          "internalType": "uint256",
          "name": "_target",
          "type": "uint256"
        },
        {
          "internalType": "uint256",
          "name": "_deadline",
          "type": "uint256"
        }
      ],
      "name": "editCrowdfunding",
      "outputs": [],
      "stateMutability": "nonpayable",
      "type": "function"
    },
    {
      "inputs": [
        {
          "internalType": "string",
          "name": "newCID",
          "type": "string"
        }
      ],
      "name": "editMetadataCID",
      "outputs": [],
      "stateMutability": "nonpayable",
      "type": "function"
    },
    {
      "inputs": [],
      "name": "factoryAddress",
      "outputs": [
        {
          "internalType": "address",
          "name": "",
          "type": "address"
        }
      ],
      "stateMutability": "view",
      "type": "function"
    },
    {
      "inputs": [],
      "name": "getBurnings",
      "outputs": [
        {
          "components": [
            {
              "internalType": "address",
              "name": "to",
              "type": "address"
            },
            {
              "internalType": "uint256",
              "name": "amount",
              "type": "uint256"
            },
            {
              "internalType": "uint256",
              "name": "timestamp",
              "type": "uint256"
            }
          ],
          "internalType": "struct Crowdfunding.Burning[]",
          "name": "",
          "type": "tuple[]"
        }
      ],
      "stateMutability": "view",
      "type": "function"
    },
    {
      "inputs": [],
      "name": "getCategories",
      "outputs": [
        {
          "internalType": "string[]",
          "name": "",
          "type": "string[]"
        }
      ],
      "stateMutability": "view",
      "type": "function"
    },
    {
      "inputs": [],
      "name": "getContributions",
      "outputs": [
        {
          "components": [
            {
              "internalType": "address",
              "name": "contributor",
              "type": "address"
            },
            {
              "internalType": "uint256",
              "name": "amount",
              "type": "uint256"
            },
            {
              "internalType": "uint256",
              "name": "timestamp",
              "type": "uint256"
            }
          ],
          "internalType": "struct Crowdfunding.Contribution[]",
          "name": "",
          "type": "tuple[]"
        }
      ],
      "stateMutability": "view",
      "type": "function"
    },
    {
      "inputs": [],
      "name": "getTarget",
      "outputs": [
        {
          "internalType": "uint256",
          "name": "",
          "type": "uint256"
        }
      ],
      "stateMutability": "view",
      "type": "function"
    },
    {
      "inputs": [],
      "name": "isOpen",
      "outputs": [
        {
          "internalType": "bool",
          "name": "",
          "type": "bool"
        }
      ],
      "stateMutability": "view",
      "type": "function"
    },
    {
      "inputs": [],
      "name": "metadataCID",
      "outputs": [
        {
          "internalType": "string",
          "name": "",
          "type": "string"
        }
      ],
      "stateMutability": "view",
      "type": "function"
    },
    {
      "inputs": [
        {
          "internalType": "address",
          "name": "to",
          "type": "address"
        },
        {
          "internalType": "uint256",
          "name": "amount",
          "type": "uint256"
        }
      ],
      "name": "removeContribution",
      "outputs": [],
      "stateMutability": "nonpayable",
      "type": "function"
    },
    {
      "inputs": [],
      "name": "shortDescription",
      "outputs": [
        {
          "internalType": "string",
          "name": "",
          "type": "string"
        }
      ],
      "stateMutability": "view",
      "type": "function"
    },
    {
      "inputs": [],
      "name": "startAt",
      "outputs": [
        {
          "internalType": "uint256",
          "name": "",
          "type": "uint256"
        }
      ],
      "stateMutability": "view",
      "type": "function"
    },
    {
      "inputs": [],
      "name": "starter",
      "outputs": [
        {
          "internalType": "address",
          "name": "",
          "type": "address"
        }
      ],
      "stateMutability": "view",
      "type": "function"
    },
    {
      "inputs": [],
      "name": "target",
      "outputs": [
        {
          "internalType": "uint256",
          "name": "",
          "type": "uint256"
        }
      ],
      "stateMutability": "view",
      "type": "function"
    },
    {
      "inputs": [],
      "name": "title",
      "outputs": [
        {
          "internalType": "string",
          "name": "",
          "type": "string"
        }
      ],
      "stateMutability": "view",
      "type": "function"
    },
    {
      "inputs": [],
      "name": "tokenAddress",
      "outputs": [
        {
          "internalType": "address",
          "name": "",
          "type": "address"
        }
      ],
      "stateMutability": "view",
      "type": "function"
    },
    {
      "inputs": [],
      "name": "totalRaised",
      "outputs": [
        {
          "internalType": "uint256",
          "name": "",
          "type": "uint256"
        }
      ],
      "stateMutability": "view",
      "type": "function"
    }
  ],
  "bytecode": "0x60806040523480156200001157600080fd5b50604051620034cc380380620034cc8339818101604052810190620000379190620005f8565b4282116200007c576040517f08c379a00000000000000000000000000000000000000000000000000000000081526004016200007390620007c4565b60405180910390fd5b87600960016101000a81548173ffffffffffffffffffffffffffffffffffffffff021916908373ffffffffffffffffffffffffffffffffffffffff1602179055508660019081620000ce919062000a27565b508560029081620000e0919062000a27565b508460039080519060200190620000f9929190620001dc565b5033600b60006101000a81548173ffffffffffffffffffffffffffffffffffffffff021916908373ffffffffffffffffffffffffffffffffffffffff16021790555083600090816200014c919062000a27565b5082600481905550600060058190555060006006819055508160078190555080600a60006101000a81548173ffffffffffffffffffffffffffffffffffffffff021916908373ffffffffffffffffffffffffffffffffffffffff160217905550426008819055506001600960006101000a81548160ff021916908315150217905550505050505050505062000b0e565b82805482825590600052602060002090810192821562000229579160200282015b828111156200022857825182908162000217919062000a27565b5091602001919060010190620001fd565b5b5090506200023891906200023c565b5090565b5b8082111562000260576000818162000256919062000264565b506001016200023d565b5090565b508054620002729062000820565b6000825580601f10620002865750620002a7565b601f016020900490600052602060002090810190620002a69190620002aa565b5b50565b5b80821115620002c5576000816000905550600101620002ab565b5090565b6000604051905090565b600080fd5b600080fd5b600073ffffffffffffffffffffffffffffffffffffffff82169050919050565b60006200030a82620002dd565b9050919050565b6200031c81620002fd565b81146200032857600080fd5b50565b6000815190506200033c8162000311565b92915050565b600080fd5b600080fd5b6000601f19601f8301169050919050565b7f4e487b7100000000000000000000000000000000000000000000000000000000600052604160045260246000fd5b62000397826200034c565b810181811067ffffffffffffffff82111715620003b957620003b86200035d565b5b80604052505050565b6000620003ce620002c9565b9050620003dc82826200038c565b919050565b600067ffffffffffffffff821115620003ff57620003fe6200035d565b5b6200040a826200034c565b9050602081019050919050565b60005b83811015620004375780820151818401526020810190506200041a565b60008484015250505050565b60006200045a6200045484620003e1565b620003c2565b90508281526020810184848401111562000479576200047862000347565b5b6200048684828562000417565b509392505050565b600082601f830112620004a657620004a562000342565b5b8151620004b884826020860162000443565b91505092915050565b600067ffffffffffffffff821115620004df57620004de6200035d565b5b602082029050602081019050919050565b600080fd5b60006200050c6200050684620004c1565b620003c2565b90508083825260208201905060208402830185811115620005325762000531620004f0565b5b835b818110156200058057805167ffffffffffffffff8111156200055b576200055a62000342565b5b8086016200056a89826200048e565b8552602085019450505060208101905062000534565b5050509392505050565b600082601f830112620005a257620005a162000342565b5b8151620005b4848260208601620004f5565b91505092915050565b6000819050919050565b620005d281620005bd565b8114620005de57600080fd5b50565b600081519050620005f281620005c7565b92915050565b600080600080600080600080610100898b0312156200061c576200061b620002d3565b5b60006200062c8b828c016200032b565b985050602089015167ffffffffffffffff81111562000650576200064f620002d8565b5b6200065e8b828c016200048e565b975050604089015167ffffffffffffffff811115620006825762000681620002d8565b5b620006908b828c016200048e565b965050606089015167ffffffffffffffff811115620006b457620006b3620002d8565b5b620006c28b828c016200058a565b955050608089015167ffffffffffffffff811115620006e657620006e5620002d8565b5b620006f48b828c016200048e565b94505060a0620007078b828c01620005e1565b93505060c06200071a8b828c01620005e1565b92505060e06200072d8b828c016200032b565b9150509295985092959890939650565b600082825260208201905092915050565b7f43726f776466756e64696e673a20446561646c696e65206d757374206265206960008201527f6e20667574757265000000000000000000000000000000000000000000000000602082015250565b6000620007ac6028836200073d565b9150620007b9826200074e565b604082019050919050565b60006020820190508181036000830152620007df816200079d565b9050919050565b600081519050919050565b7f4e487b7100000000000000000000000000000000000000000000000000000000600052602260045260246000fd5b600060028204905060018216806200083957607f821691505b6020821081036200084f576200084e620007f1565b5b50919050565b60008190508160005260206000209050919050565b60006020601f8301049050919050565b600082821b905092915050565b600060088302620008b97fffffffffffffffffffffffffffffffffffffffffffffffffffffffffffffffff826200087a565b620008c586836200087a565b95508019841693508086168417925050509392505050565b6000819050919050565b60006200090862000902620008fc84620005bd565b620008dd565b620005bd565b9050919050565b6000819050919050565b6200092483620008e7565b6200093c62000933826200090f565b84845462000887565b825550505050565b600090565b6200095362000944565b6200096081848462000919565b505050565b5b8181101562000988576200097c60008262000949565b60018101905062000966565b5050565b601f821115620009d757620009a18162000855565b620009ac846200086a565b81016020851015620009bc578190505b620009d4620009cb856200086a565b83018262000965565b50505b505050565b600082821c905092915050565b6000620009fc60001984600802620009dc565b1980831691505092915050565b600062000a178383620009e9565b9150826002028217905092915050565b62000a3282620007e6565b67ffffffffffffffff81111562000a4e5762000a4d6200035d565b5b62000a5a825462000820565b62000a678282856200098c565b600060209050601f83116001811462000a9f576000841562000a8a578287015190505b62000a96858262000a09565b86555062000b06565b601f19841662000aaf8662000855565b60005b8281101562000ad95784890151825560018201915060208501945060208101905062000ab2565b8683101562000af9578489015162000af5601f891682620009e9565b8355505b6001600288020188555050505b505050505050565b6129ae8062000b1e6000396000f3fe608060405234801561001057600080fd5b50600436106101585760003560e01c806399af5cc7116100c3578063cb7cbb8d1161007c578063cb7cbb8d146103d5578063d4b83992146103f1578063d9de13071461040f578063dda0a81a1461042b578063f00e6a2a14610449578063f5a8492f1461046757610158565b806399af5cc7146103115780639d76ea581461032d5780639fa6a6e31461034b578063c5c4744c14610369578063c6cdbe5e14610387578063c7446565146103b757610158565b80634a79d50c116101155780634a79d50c1461024b5780634db0412c1461026957806358871c461461028757806383e49019146102a5578063966dae0e146102d5578063982285a2146102f357610158565b80631cee07001461015d5780631da989601461018f5780631ef48007146101ad57806329dcb0cf146101df57806339ecacac146101fd57806347535d7b1461022d575b600080fd5b61017760048036038101906101729190611671565b610485565b604051610186939291906116ee565b60405180910390f35b6101976104df565b6040516101a491906117b5565b60405180910390f35b6101c760048036038101906101c29190611671565b61056d565b6040516101d6939291906116ee565b60405180910390f35b6101e76105c7565b6040516101f491906117d7565b60405180910390f35b6102176004803603810190610212919061181e565b6105cd565b60405161022491906117d7565b60405180910390f35b610235610944565b6040516102429190611879565b60405180910390f35b610253610957565b60405161026091906117b5565b60405180910390f35b6102716109e5565b60405161027e91906119a0565b60405180910390f35b61028f610abe565b60405161029c91906117b5565b60405180910390f35b6102bf60048036038101906102ba9190611671565b610b4c565b6040516102cc91906117d7565b60405180910390f35b6102dd610bae565b6040516102ea91906119c2565b60405180910390f35b6102fb610bd4565b6040516103089190611aec565b60405180910390f35b61032b60048036038101906103269190611b0e565b610c9d565b005b610335610dc7565b60405161034291906119c2565b60405180910390f35b610353610ded565b60405161036091906117d7565b60405180910390f35b610371610df3565b60405161037e91906117d7565b60405180910390f35b6103a1600480360381019061039c9190611671565b610df9565b6040516103ae91906117b5565b60405180910390f35b6103bf610ea5565b6040516103cc91906117d7565b60405180910390f35b6103ef60048036038101906103ea9190611c83565b610eab565b005b6103f9610ebe565b60405161040691906117d7565b60405180910390f35b6104296004803603810190610424919061181e565b610ec4565b005b610433611104565b6040516104409190611dbd565b60405180910390f35b6104516111cd565b60405161045e91906117d7565b60405180910390f35b61046f6111d7565b60405161047c91906119c2565b60405180910390f35b600c818154811061049557600080fd5b90600052602060002090600302016000915090508060000160009054906101000a900473ffffffffffffffffffffffffffffffffffffffff16908060010154908060020154905083565b600280546104ec90611e0e565b80601f016020809104026020016040519081016040528092919081815260200182805461051890611e0e565b80156105655780601f1061053a57610100808354040283529160200191610565565b820191906000526020600020905b81548152906001019060200180831161054857829003601f168201915b505050505081565b600d818154811061057d57600080fd5b90600052602060002090600302016000915090508060000160009054906101000a900473ffffffffffffffffffffffffffffffffffffffff16908060010154908060020154905083565b60075481565b60006007544210610613576040517f08c379a000000000000000000000000000000000000000000000000000000000815260040161060a90611eb1565b60405180910390fd5b600b60009054906101000a900473ffffffffffffffffffffffffffffffffffffffff1673ffffffffffffffffffffffffffffffffffffffff163373ffffffffffffffffffffffffffffffffffffffff16146106a3576040517f08c379a000000000000000000000000000000000000000000000000000000000815260040161069a90611f1d565b60405180910390fd5b600960009054906101000a900460ff166106f2576040517f08c379a00000000000000000000000000000000000000000000000000000000081526004016106e990611faf565b60405180910390fd5b60008211610735576040517f08c379a000000000000000000000000000000000000000000000000000000000815260040161072c90612041565b60405180910390fd5b6004546005541061077b576040517f08c379a0000000000000000000000000000000000000000000000000000000008152600401610772906120d3565b60405180910390fd5b61078482610b4c565b905061078f816111fd565b80600560008282546107a19190612122565b9250508190555080600660008282546107ba9190612122565b925050819055506107c96115af565b83816000019073ffffffffffffffffffffffffffffffffffffffff16908173ffffffffffffffffffffffffffffffffffffffff16815250508181602001818152505042816040018181525050600c81908060018154018082558091505060019003906000526020600020906003020160009091909190915060008201518160000160006101000a81548173ffffffffffffffffffffffffffffffffffffffff021916908373ffffffffffffffffffffffffffffffffffffffff160217905550602082015181600101556040820151816002015550506108cc600a60009054906101000a900473ffffffffffffffffffffffffffffffffffffffff16853085611296565b600454600554106108f3576000600960006101000a81548160ff0219169083151502179055505b7f681be902c7d2810348d7b84ec16d39988e35db61ec623f847501069f0b75e8673082600960009054906101000a900460ff1660405161093593929190612198565b60405180910390a15092915050565b600960009054906101000a900460ff1681565b6001805461096490611e0e565b80601f016020809104026020016040519081016040528092919081815260200182805461099090611e0e565b80156109dd5780601f106109b2576101008083540402835291602001916109dd565b820191906000526020600020905b8154815290600101906020018083116109c057829003601f168201915b505050505081565b60606003805480602002602001604051908101604052809291908181526020016000905b82821015610ab5578382906000526020600020018054610a2890611e0e565b80601f0160208091040260200160405190810160405280929190818152602001828054610a5490611e0e565b8015610aa15780601f10610a7657610100808354040283529160200191610aa1565b820191906000526020600020905b815481529060010190602001808311610a8457829003601f168201915b505050505081526020019060010190610a09565b50505050905090565b60008054610acb90611e0e565b80601f0160208091040260200160405190810160405280929190818152602001828054610af790611e0e565b8015610b445780601f10610b1957610100808354040283529160200191610b44565b820191906000526020600020905b815481529060010190602001808311610b2757829003601f168201915b505050505081565b600060045460055410610b625760009050610ba9565b600754421115610b755760009050610ba9565b600082905060045481600554610b8b9190612122565b1115610ba457600554600454610ba191906121cf565b90505b809150505b919050565b600b60009054906101000a900473ffffffffffffffffffffffffffffffffffffffff1681565b6060600d805480602002602001604051908101604052809291908181526020016000905b82821015610c9457838290600052602060002090600302016040518060600160405290816000820160009054906101000a900473ffffffffffffffffffffffffffffffffffffffff1673ffffffffffffffffffffffffffffffffffffffff1673ffffffffffffffffffffffffffffffffffffffff1681526020016001820154815260200160028201548152505081526020019060010190610bf8565b50505050905090565b600960019054906101000a900473ffffffffffffffffffffffffffffffffffffffff1673ffffffffffffffffffffffffffffffffffffffff163373ffffffffffffffffffffffffffffffffffffffff1614610d2d576040517f08c379a0000000000000000000000000000000000000000000000000000000008152600401610d249061224f565b60405180910390fd5b6005548211610d71576040517f08c379a0000000000000000000000000000000000000000000000000000000008152600401610d68906122e1565b60405180910390fd5b6007548111610db5576040517f08c379a0000000000000000000000000000000000000000000000000000000008152600401610dac90612373565b60405180910390fd5b81600481905550806007819055505050565b600a60009054906101000a900473ffffffffffffffffffffffffffffffffffffffff1681565b60055481565b60065481565b60038181548110610e0957600080fd5b906000526020600020016000915090508054610e2490611e0e565b80601f0160208091040260200160405190810160405280929190818152602001828054610e5090611e0e565b8015610e9d5780601f10610e7257610100808354040283529160200191610e9d565b820191906000526020600020905b815481529060010190602001808311610e8057829003601f168201915b505050505081565b60085481565b8060009081610eba919061253f565b5050565b60045481565b600b60009054906101000a900473ffffffffffffffffffffffffffffffffffffffff1673ffffffffffffffffffffffffffffffffffffffff163373ffffffffffffffffffffffffffffffffffffffff1614610f54576040517f08c379a0000000000000000000000000000000000000000000000000000000008152600401610f4b90611f1d565b60405180910390fd5b600960009054906101000a900460ff1615610fa4576040517f08c379a0000000000000000000000000000000000000000000000000000000008152600401610f9b90612683565b60405180910390fd5b60008111610fe7576040517f08c379a0000000000000000000000000000000000000000000000000000000008152600401610fde90612715565b60405180910390fd5b80600554101561102c576040517f08c379a0000000000000000000000000000000000000000000000000000000008152600401611023906127a7565b60405180910390fd5b806005600082825461103e91906121cf565b9250508190555061104d6115e6565b8181602001818152505082816000019073ffffffffffffffffffffffffffffffffffffffff16908173ffffffffffffffffffffffffffffffffffffffff1681525050428160400181815250506110c6600a60009054906101000a900473ffffffffffffffffffffffffffffffffffffffff168484611401565b7f57829d3a59eee0b50bf40c3e3fa252a219bdf0fa536fd94ae3cf281902fe993630826040516110f7929190612809565b60405180910390a1505050565b6060600c805480602002602001604051908101604052809291908181526020016000905b828210156111c457838290600052602060002090600302016040518060600160405290816000820160009054906101000a900473ffffffffffffffffffffffffffffffffffffffff1673ffffffffffffffffffffffffffffffffffffffff1673ffffffffffffffffffffffffffffffffffffffff1681526020016001820154815260200160028201548152505081526020019060010190611128565b50505050905090565b6000600454905090565b600960019054906101000a900473ffffffffffffffffffffffffffffffffffffffff1681565b6112938160405160240161121191906117d7565b6040516020818303038152906040527ff82c50f1000000000000000000000000000000000000000000000000000000007bffffffffffffffffffffffffffffffffffffffffffffffffffffffff19166020820180517bffffffffffffffffffffffffffffffffffffffffffffffffffffffff8381831617835250505050611569565b50565b6000808573ffffffffffffffffffffffffffffffffffffffff168585856040516024016112c593929190612832565b6040516020818303038152906040527f23b872dd000000000000000000000000000000000000000000000000000000007bffffffffffffffffffffffffffffffffffffffffffffffffffffffff19166020820180517bffffffffffffffffffffffffffffffffffffffffffffffffffffffff838183161783525050505060405161134f91906128b0565b6000604051808303816000865af19150503d806000811461138c576040519150601f19603f3d011682016040523d82523d6000602084013e611391565b606091505b50915091508115806113c2575060008151141580156113c15750808060200190518101906113bf91906128f3565b155b5b156113f9576040517ffb7f507900000000000000000000000000000000000000000000000000000000815260040160405180910390fd5b505050505050565b6000808473ffffffffffffffffffffffffffffffffffffffff16848460405160240161142e929190612920565b6040516020818303038152906040527fa9059cbb000000000000000000000000000000000000000000000000000000007bffffffffffffffffffffffffffffffffffffffffffffffffffffffff19166020820180517bffffffffffffffffffffffffffffffffffffffffffffffffffffffff83818316178352505050506040516114b891906128b0565b6000604051808303816000865af19150503d80600081146114f5576040519150601f19603f3d011682016040523d82523d6000602084013e6114fa565b606091505b509150915081158061152b5750600081511415801561152a57508080602001905181019061152891906128f3565b155b5b15611562576040517ffb7f507900000000000000000000000000000000000000000000000000000000815260040160405180910390fd5b5050505050565b611580816115786115836115a4565b63ffffffff16565b50565b60006a636f6e736f6c652e6c6f679050600080835160208501845afa505050565b61161d819050919050565b6040518060600160405280600073ffffffffffffffffffffffffffffffffffffffff16815260200160008152602001600081525090565b6040518060600160405280600073ffffffffffffffffffffffffffffffffffffffff16815260200160008152602001600081525090565b611625612949565b565b6000604051905090565b600080fd5b600080fd5b6000819050919050565b61164e8161163b565b811461165957600080fd5b50565b60008135905061166b81611645565b92915050565b60006020828403121561168757611686611631565b5b60006116958482850161165c565b91505092915050565b600073ffffffffffffffffffffffffffffffffffffffff82169050919050565b60006116c98261169e565b9050919050565b6116d9816116be565b82525050565b6116e88161163b565b82525050565b600060608201905061170360008301866116d0565b61171060208301856116df565b61171d60408301846116df565b949350505050565b600081519050919050565b600082825260208201905092915050565b60005b8381101561175f578082015181840152602081019050611744565b60008484015250505050565b6000601f19601f8301169050919050565b600061178782611725565b6117918185611730565b93506117a1818560208601611741565b6117aa8161176b565b840191505092915050565b600060208201905081810360008301526117cf818461177c565b905092915050565b60006020820190506117ec60008301846116df565b92915050565b6117fb816116be565b811461180657600080fd5b50565b600081359050611818816117f2565b92915050565b6000806040838503121561183557611834611631565b5b600061184385828601611809565b92505060206118548582860161165c565b9150509250929050565b60008115159050919050565b6118738161185e565b82525050565b600060208201905061188e600083018461186a565b92915050565b600081519050919050565b600082825260208201905092915050565b6000819050602082019050919050565b600082825260208201905092915050565b60006118dc82611725565b6118e681856118c0565b93506118f6818560208601611741565b6118ff8161176b565b840191505092915050565b600061191683836118d1565b905092915050565b6000602082019050919050565b600061193682611894565b611940818561189f565b935083602082028501611952856118b0565b8060005b8581101561198e578484038952815161196f858261190a565b945061197a8361191e565b925060208a01995050600181019050611956565b50829750879550505050505092915050565b600060208201905081810360008301526119ba818461192b565b905092915050565b60006020820190506119d760008301846116d0565b92915050565b600081519050919050565b600082825260208201905092915050565b6000819050602082019050919050565b611a12816116be565b82525050565b611a218161163b565b82525050565b606082016000820151611a3d6000850182611a09565b506020820151611a506020850182611a18565b506040820151611a636040850182611a18565b50505050565b6000611a758383611a27565b60608301905092915050565b6000602082019050919050565b6000611a99826119dd565b611aa381856119e8565b9350611aae836119f9565b8060005b83811015611adf578151611ac68882611a69565b9750611ad183611a81565b925050600181019050611ab2565b5085935050505092915050565b60006020820190508181036000830152611b068184611a8e565b905092915050565b60008060408385031215611b2557611b24611631565b5b6000611b338582860161165c565b9250506020611b448582860161165c565b9150509250929050565b600080fd5b600080fd5b7f4e487b7100000000000000000000000000000000000000000000000000000000600052604160045260246000fd5b611b908261176b565b810181811067ffffffffffffffff82111715611baf57611bae611b58565b5b80604052505050565b6000611bc2611627565b9050611bce8282611b87565b919050565b600067ffffffffffffffff821115611bee57611bed611b58565b5b611bf78261176b565b9050602081019050919050565b82818337600083830152505050565b6000611c26611c2184611bd3565b611bb8565b905082815260208101848484011115611c4257611c41611b53565b5b611c4d848285611c04565b509392505050565b600082601f830112611c6a57611c69611b4e565b5b8135611c7a848260208601611c13565b91505092915050565b600060208284031215611c9957611c98611631565b5b600082013567ffffffffffffffff811115611cb757611cb6611636565b5b611cc384828501611c55565b91505092915050565b600081519050919050565b600082825260208201905092915050565b6000819050602082019050919050565b606082016000820151611d0e6000850182611a09565b506020820151611d216020850182611a18565b506040820151611d346040850182611a18565b50505050565b6000611d468383611cf8565b60608301905092915050565b6000602082019050919050565b6000611d6a82611ccc565b611d748185611cd7565b9350611d7f83611ce8565b8060005b83811015611db0578151611d978882611d3a565b9750611da283611d52565b925050600181019050611d83565b5085935050505092915050565b60006020820190508181036000830152611dd78184611d5f565b905092915050565b7f4e487b7100000000000000000000000000000000000000000000000000000000600052602260045260246000fd5b60006002820490506001821680611e2657607f821691505b602082108103611e3957611e38611ddf565b5b50919050565b7f43726f776466756e64696e673a20616c7265616479206578636565642064656160008201527f646c696e65000000000000000000000000000000000000000000000000000000602082015250565b6000611e9b602583611730565b9150611ea682611e3f565b604082019050919050565b60006020820190508181036000830152611eca81611e8e565b9050919050565b7f43726f776466756e64696e673a206f6e6c79466163746f727900000000000000600082015250565b6000611f07601983611730565b9150611f1282611ed1565b602082019050919050565b60006020820190508181036000830152611f3681611efa565b9050919050565b7f43726f776466756e64696e672e616464436f6e747269627574696f6e3a20437260008201527f6f776466756e64696e67206973206e6f7420666f722073616c65000000000000602082015250565b6000611f99603a83611730565b9150611fa482611f3d565b604082019050919050565b60006020820190508181036000830152611fc881611f8c565b9050919050565b7f43726f776466756e64696e672e616464436f6e747269627574696f6e3a20696e60008201527f76616c696420616d6f756e740000000000000000000000000000000000000000602082015250565b600061202b602c83611730565b915061203682611fcf565b604082019050919050565b6000602082019050818103600083015261205a8161201e565b9050919050565b7f43726f776466756e64696e672e616464436f6e747269627574696f6e3a20637260008201527f6f776466756e64696e6720616c72656164792072656163682074617267657400602082015250565b60006120bd603f83611730565b91506120c882612061565b604082019050919050565b600060208201905081810360008301526120ec816120b0565b9050919050565b7f4e487b7100000000000000000000000000000000000000000000000000000000600052601160045260246000fd5b600061212d8261163b565b91506121388361163b565b92508282019050808211156121505761214f6120f3565b5b92915050565b60608201600082015161216c6000850182611a09565b50602082015161217f6020850182611a18565b5060408201516121926040850182611a18565b50505050565b600060a0820190506121ad60008301866116d0565b6121ba6020830185612156565b6121c7608083018461186a565b949350505050565b60006121da8261163b565b91506121e58361163b565b92508282039050818111156121fd576121fc6120f3565b5b92915050565b7f43726f776466756e64696e673a206f6e6c795374617274657200000000000000600082015250565b6000612239601983611730565b915061224482612203565b602082019050919050565b600060208201905081810360008301526122688161222c565b9050919050565b7f43726f776466756e64696e673a2074617267657420697320746f6f20736d616c60008201527f6c00000000000000000000000000000000000000000000000000000000000000602082015250565b60006122cb602183611730565b91506122d68261226f565b604082019050919050565b600060208201905081810360008301526122fa816122be565b9050919050565b7f43726f776466756e64696e673a206e657720646561646c696e6520697320736860008201527f6f72746572207468616e206265666f7265000000000000000000000000000000602082015250565b600061235d603183611730565b915061236882612301565b604082019050919050565b6000602082019050818103600083015261238c81612350565b9050919050565b60008190508160005260206000209050919050565b60006020601f8301049050919050565b600082821b905092915050565b6000600883026123f57fffffffffffffffffffffffffffffffffffffffffffffffffffffffffffffffff826123b8565b6123ff86836123b8565b95508019841693508086168417925050509392505050565b6000819050919050565b600061243c6124376124328461163b565b612417565b61163b565b9050919050565b6000819050919050565b61245683612421565b61246a61246282612443565b8484546123c5565b825550505050565b600090565b61247f612472565b61248a81848461244d565b505050565b5b818110156124ae576124a3600082612477565b600181019050612490565b5050565b601f8211156124f3576124c481612393565b6124cd846123a8565b810160208510156124dc578190505b6124f06124e8856123a8565b83018261248f565b50505b505050565b600082821c905092915050565b6000612516600019846008026124f8565b1980831691505092915050565b600061252f8383612505565b9150826002028217905092915050565b61254882611725565b67ffffffffffffffff81111561256157612560611b58565b5b61256b8254611e0e565b6125768282856124b2565b600060209050601f8311600181146125a95760008415612597578287015190505b6125a18582612523565b865550612609565b601f1984166125b786612393565b60005b828110156125df578489015182556001820191506020850194506020810190506125ba565b868310156125fc57848901516125f8601f891682612505565b8355505b6001600288020188555050505b505050505050565b7f43726f776466756e64696e672e72656d6f7665436f6e747269627574696f6e3a60008201527f2043726f776466756e64696e67206973207374696c6c20696e2073616c650000602082015250565b600061266d603e83611730565b915061267882612611565b604082019050919050565b6000602082019050818103600083015261269c81612660565b9050919050565b7f43726f776466756e64696e672e72656d6f7665436f6e747269627574696f6e3a60008201527f20696e76616c696420616d6f756e740000000000000000000000000000000000602082015250565b60006126ff602f83611730565b915061270a826126a3565b604082019050919050565b6000602082019050818103600083015261272e816126f2565b9050919050565b7f43726f776466756e64696e672e72656d6f7665436f6e747269627574696f6e3a60008201527f20696e73756666696369656e7420616d6f756e74000000000000000000000000602082015250565b6000612791603483611730565b915061279c82612735565b604082019050919050565b600060208201905081810360008301526127c081612784565b9050919050565b6060820160008201516127dd6000850182611a09565b5060208201516127f06020850182611a18565b5060408201516128036040850182611a18565b50505050565b600060808201905061281e60008301856116d0565b61282b60208301846127c7565b9392505050565b600060608201905061284760008301866116d0565b61285460208301856116d0565b61286160408301846116df565b949350505050565b600081519050919050565b600081905092915050565b600061288a82612869565b6128948185612874565b93506128a4818560208601611741565b80840191505092915050565b60006128bc828461287f565b915081905092915050565b6128d08161185e565b81146128db57600080fd5b50565b6000815190506128ed816128c7565b92915050565b60006020828403121561290957612908611631565b5b6000612917848285016128de565b91505092915050565b600060408201905061293560008301856116d0565b61294260208301846116df565b9392505050565b7f4e487b7100000000000000000000000000000000000000000000000000000000600052605160045260246000fdfea2646970667358221220a308fbf7b0a9e7eec26ce8fd78e27f64dd3b32b803e783d7b1300e1eb2e6f2ba64736f6c63430008140033",
  "linkReferences": {},
  "deployedLinkReferences": {}
}