{
  "_format": "hh-sol-artifact-1",
  "contractName": "Crowdfunding",
  "sourceName": "contracts/Crowdfunding.sol",
  "abi": [
    {
      "inputs": [
        {
          "internalType": "address",
          "name": "_starter",
          "type": "address"
        },
        {
          "internalType": "string",
          "name": "_title",
          "type": "string"
        },
        {
          "internalType": "string[]",
          "name": "_categories",
          "type": "string[]"
        },
        {
          "internalType": "uint256",
          "name": "_target",
          "type": "uint256"
        },
        {
          "internalType": "uint256",
          "name": "_deadline",
          "type": "uint256"
        },
        {
          "internalType": "address",
          "name": "_tokenAddress",
          "type": "address"
        }
      ],
      "stateMutability": "nonpayable",
      "type": "constructor"
    },
    {
      "inputs": [],
      "name": "SafeTransferFailed",
      "type": "error"
    },
    {
      "inputs": [
        {
          "internalType": "address",
          "name": "by",
          "type": "address"
        },
        {
          "internalType": "uint256",
          "name": "amount",
          "type": "uint256"
        }
      ],
      "name": "addContribution",
      "outputs": [
        {
          "internalType": "uint256",
          "name": "contributionAdded",
          "type": "uint256"
        }
      ],
      "stateMutability": "nonpayable",
      "type": "function"
    },
    {
      "inputs": [
        {
          "internalType": "uint256",
          "name": "",
          "type": "uint256"
        }
      ],
      "name": "burnings",
      "outputs": [
        {
          "internalType": "address",
          "name": "to",
          "type": "address"
        },
        {
          "internalType": "uint256",
          "name": "amount",
          "type": "uint256"
        },
        {
          "internalType": "uint256",
          "name": "timestamp",
          "type": "uint256"
        }
      ],
      "stateMutability": "view",
      "type": "function"
    },
    {
      "inputs": [
        {
          "internalType": "uint256",
          "name": "",
          "type": "uint256"
        }
      ],
      "name": "categories",
      "outputs": [
        {
          "internalType": "string",
          "name": "",
          "type": "string"
        }
      ],
      "stateMutability": "view",
      "type": "function"
    },
    {
      "inputs": [
        {
          "internalType": "uint256",
          "name": "amount",
          "type": "uint256"
        }
      ],
      "name": "contributionAllowed",
      "outputs": [
        {
          "internalType": "uint256",
          "name": "",
          "type": "uint256"
        }
      ],
      "stateMutability": "view",
      "type": "function"
    },
    {
      "inputs": [
        {
          "internalType": "uint256",
          "name": "",
          "type": "uint256"
        }
      ],
      "name": "contributions",
      "outputs": [
        {
          "internalType": "address",
          "name": "contributor",
          "type": "address"
        },
        {
          "internalType": "uint256",
          "name": "amount",
          "type": "uint256"
        },
        {
          "internalType": "uint256",
          "name": "timestamp",
          "type": "uint256"
        }
      ],
      "stateMutability": "view",
      "type": "function"
    },
    {
      "inputs": [],
      "name": "current",
      "outputs": [
        {
          "internalType": "uint256",
          "name": "",
          "type": "uint256"
        }
      ],
      "stateMutability": "view",
      "type": "function"
    },
    {
      "inputs": [],
      "name": "deadline",
      "outputs": [
        {
          "internalType": "uint256",
          "name": "",
          "type": "uint256"
        }
      ],
      "stateMutability": "view",
      "type": "function"
    },
    {
      "inputs": [],
      "name": "factoryAddress",
      "outputs": [
        {
          "internalType": "address",
          "name": "",
          "type": "address"
        }
      ],
      "stateMutability": "view",
      "type": "function"
    },
    {
      "inputs": [],
      "name": "getCategories",
      "outputs": [
        {
          "internalType": "string[]",
          "name": "",
          "type": "string[]"
        }
      ],
      "stateMutability": "view",
      "type": "function"
    },
    {
      "inputs": [],
      "name": "isOpen",
      "outputs": [
        {
          "internalType": "bool",
          "name": "",
          "type": "bool"
        }
      ],
      "stateMutability": "view",
      "type": "function"
    },
    {
      "inputs": [
        {
          "internalType": "address",
          "name": "to",
          "type": "address"
        },
        {
          "internalType": "uint256",
          "name": "amount",
          "type": "uint256"
        }
      ],
      "name": "removeContribution",
      "outputs": [],
      "stateMutability": "nonpayable",
      "type": "function"
    },
    {
      "inputs": [],
      "name": "starter",
      "outputs": [
        {
          "internalType": "address",
          "name": "",
          "type": "address"
        }
      ],
      "stateMutability": "view",
      "type": "function"
    },
    {
      "inputs": [],
      "name": "target",
      "outputs": [
        {
          "internalType": "uint256",
          "name": "",
          "type": "uint256"
        }
      ],
      "stateMutability": "view",
      "type": "function"
    },
    {
      "inputs": [],
      "name": "title",
      "outputs": [
        {
          "internalType": "string",
          "name": "",
          "type": "string"
        }
      ],
      "stateMutability": "view",
      "type": "function"
    },
    {
      "inputs": [],
      "name": "tokenAddress",
      "outputs": [
        {
          "internalType": "address",
          "name": "",
          "type": "address"
        }
      ],
      "stateMutability": "view",
      "type": "function"
    }
  ],
  "bytecode": "0x60806040523480156200001157600080fd5b50604051620022b9380380620022b98339818101604052810190620000379190620005c3565b4282116200007c576040517f08c379a0000000000000000000000000000000000000000000000000000000008152600401620000739062000724565b60405180910390fd5b85600560016101000a81548173ffffffffffffffffffffffffffffffffffffffff021916908373ffffffffffffffffffffffffffffffffffffffff16021790555033600760006101000a81548173ffffffffffffffffffffffffffffffffffffffff021916908373ffffffffffffffffffffffffffffffffffffffff16021790555084600090816200010f919062000987565b50836001908051906020019062000128929190620001a7565b508260028190555060006003819055508160048190555080600660006101000a81548173ffffffffffffffffffffffffffffffffffffffff021916908373ffffffffffffffffffffffffffffffffffffffff1602179055506001600560006101000a81548160ff02191690831515021790555050505050505062000a6e565b828054828255906000526020600020908101928215620001f4579160200282015b82811115620001f3578251829081620001e2919062000987565b5091602001919060010190620001c8565b5b50905062000203919062000207565b5090565b5b808211156200022b57600081816200022191906200022f565b5060010162000208565b5090565b5080546200023d9062000780565b6000825580601f1062000251575062000272565b601f01602090049060005260206000209081019062000271919062000275565b5b50565b5b808211156200029057600081600090555060010162000276565b5090565b6000604051905090565b600080fd5b600080fd5b600073ffffffffffffffffffffffffffffffffffffffff82169050919050565b6000620002d582620002a8565b9050919050565b620002e781620002c8565b8114620002f357600080fd5b50565b6000815190506200030781620002dc565b92915050565b600080fd5b600080fd5b6000601f19601f8301169050919050565b7f4e487b7100000000000000000000000000000000000000000000000000000000600052604160045260246000fd5b620003628262000317565b810181811067ffffffffffffffff8211171562000384576200038362000328565b5b80604052505050565b60006200039962000294565b9050620003a7828262000357565b919050565b600067ffffffffffffffff821115620003ca57620003c962000328565b5b620003d58262000317565b9050602081019050919050565b60005b8381101562000402578082015181840152602081019050620003e5565b60008484015250505050565b6000620004256200041f84620003ac565b6200038d565b90508281526020810184848401111562000444576200044362000312565b5b62000451848285620003e2565b509392505050565b600082601f8301126200047157620004706200030d565b5b8151620004838482602086016200040e565b91505092915050565b600067ffffffffffffffff821115620004aa57620004a962000328565b5b602082029050602081019050919050565b600080fd5b6000620004d7620004d1846200048c565b6200038d565b90508083825260208201905060208402830185811115620004fd57620004fc620004bb565b5b835b818110156200054b57805167ffffffffffffffff8111156200052657620005256200030d565b5b80860162000535898262000459565b85526020850194505050602081019050620004ff565b5050509392505050565b600082601f8301126200056d576200056c6200030d565b5b81516200057f848260208601620004c0565b91505092915050565b6000819050919050565b6200059d8162000588565b8114620005a957600080fd5b50565b600081519050620005bd8162000592565b92915050565b60008060008060008060c08789031215620005e357620005e26200029e565b5b6000620005f389828a01620002f6565b965050602087015167ffffffffffffffff811115620006175762000616620002a3565b5b6200062589828a0162000459565b955050604087015167ffffffffffffffff811115620006495762000648620002a3565b5b6200065789828a0162000555565b94505060606200066a89828a01620005ac565b93505060806200067d89828a01620005ac565b92505060a06200069089828a01620002f6565b9150509295509295509295565b600082825260208201905092915050565b7f43726f776466756e64696e673a20446561646c696e65206d757374206265206960008201527f6e20667574757265000000000000000000000000000000000000000000000000602082015250565b60006200070c6028836200069d565b91506200071982620006ae565b604082019050919050565b600060208201905081810360008301526200073f81620006fd565b9050919050565b600081519050919050565b7f4e487b7100000000000000000000000000000000000000000000000000000000600052602260045260246000fd5b600060028204905060018216806200079957607f821691505b602082108103620007af57620007ae62000751565b5b50919050565b60008190508160005260206000209050919050565b60006020601f8301049050919050565b600082821b905092915050565b600060088302620008197fffffffffffffffffffffffffffffffffffffffffffffffffffffffffffffffff82620007da565b620008258683620007da565b95508019841693508086168417925050509392505050565b6000819050919050565b600062000868620008626200085c8462000588565b6200083d565b62000588565b9050919050565b6000819050919050565b620008848362000847565b6200089c62000893826200086f565b848454620007e7565b825550505050565b600090565b620008b3620008a4565b620008c081848462000879565b505050565b5b81811015620008e857620008dc600082620008a9565b600181019050620008c6565b5050565b601f82111562000937576200090181620007b5565b6200090c84620007ca565b810160208510156200091c578190505b620009346200092b85620007ca565b830182620008c5565b50505b505050565b600082821c905092915050565b60006200095c600019846008026200093c565b1980831691505092915050565b600062000977838362000949565b9150826002028217905092915050565b620009928262000746565b67ffffffffffffffff811115620009ae57620009ad62000328565b5b620009ba825462000780565b620009c7828285620008ec565b600060209050601f831160018114620009ff5760008415620009ea578287015190505b620009f6858262000969565b86555062000a66565b601f19841662000a0f86620007b5565b60005b8281101562000a395784890151825560018201915060208501945060208101905062000a12565b8683101562000a59578489015162000a55601f89168262000949565b8355505b6001600288020188555050505b505050505050565b61183b8062000a7e6000396000f3fe608060405234801561001057600080fd5b50600436106100f55760003560e01c806383e4901911610097578063c6cdbe5e11610066578063c6cdbe5e14610290578063d4b83992146102c0578063d9de1307146102de578063f5a8492f146102fa576100f5565b806383e4901914610206578063966dae0e146102365780639d76ea58146102545780639fa6a6e314610272576100f5565b806339ecacac116100d357806339ecacac1461017c57806347535d7b146101ac5780634a79d50c146101ca5780634db0412c146101e8576100f5565b80631cee0700146100fa5780631ef480071461012c57806329dcb0cf1461015e575b600080fd5b610114600480360381019061010f9190610db8565b610318565b60405161012393929190610e35565b60405180910390f35b61014660048036038101906101419190610db8565b610372565b60405161015593929190610e35565b60405180910390f35b6101666103cc565b6040516101739190610e6c565b60405180910390f35b61019660048036038101906101919190610eb3565b6103d2565b6040516101a39190610e6c565b60405180910390f35b6101b46106dd565b6040516101c19190610f0e565b60405180910390f35b6101d26106f0565b6040516101df9190610fb9565b60405180910390f35b6101f061077e565b6040516101fd91906110e7565b60405180910390f35b610220600480360381019061021b9190610db8565b610857565b60405161022d9190610e6c565b60405180910390f35b61023e6108b9565b60405161024b9190611109565b60405180910390f35b61025c6108df565b6040516102699190611109565b60405180910390f35b61027a610905565b6040516102879190610e6c565b60405180910390f35b6102aa60048036038101906102a59190610db8565b61090b565b6040516102b79190610fb9565b60405180910390f35b6102c86109b7565b6040516102d59190610e6c565b60405180910390f35b6102f860048036038101906102f39190610eb3565b6109bd565b005b610302610bb5565b60405161030f9190611109565b60405180910390f35b6008818154811061032857600080fd5b90600052602060002090600302016000915090508060000160009054906101000a900473ffffffffffffffffffffffffffffffffffffffff16908060010154908060020154905083565b6009818154811061038257600080fd5b90600052602060002090600302016000915090508060000160009054906101000a900473ffffffffffffffffffffffffffffffffffffffff16908060010154908060020154905083565b60045481565b60006004544210610418576040517f08c379a000000000000000000000000000000000000000000000000000000000815260040161040f90611196565b60405180910390fd5b600760009054906101000a900473ffffffffffffffffffffffffffffffffffffffff1673ffffffffffffffffffffffffffffffffffffffff163373ffffffffffffffffffffffffffffffffffffffff16146104a8576040517f08c379a000000000000000000000000000000000000000000000000000000000815260040161049f90611202565b60405180910390fd5b600560009054906101000a900460ff166104f7576040517f08c379a00000000000000000000000000000000000000000000000000000000081526004016104ee90611294565b60405180910390fd5b6000821161053a576040517f08c379a000000000000000000000000000000000000000000000000000000000815260040161053190611326565b60405180910390fd5b60025460035410610580576040517f08c379a0000000000000000000000000000000000000000000000000000000008152600401610577906113b8565b60405180910390fd5b61058982610857565b9050806003600082825461059d9190611407565b925050819055506105ac610d46565b83816000019073ffffffffffffffffffffffffffffffffffffffff16908173ffffffffffffffffffffffffffffffffffffffff16815250508181602001818152505042816040018181525050600881908060018154018082558091505060019003906000526020600020906003020160009091909190915060008201518160000160006101000a81548173ffffffffffffffffffffffffffffffffffffffff021916908373ffffffffffffffffffffffffffffffffffffffff160217905550602082015181600101556040820151816002015550506106af600660009054906101000a900473ffffffffffffffffffffffffffffffffffffffff16853085610bdb565b600254600354106106d6576000600560006101000a81548160ff0219169083151502179055505b5092915050565b600560009054906101000a900460ff1681565b600080546106fd9061146a565b80601f01602080910402602001604051908101604052809291908181526020018280546107299061146a565b80156107765780601f1061074b57610100808354040283529160200191610776565b820191906000526020600020905b81548152906001019060200180831161075957829003601f168201915b505050505081565b60606001805480602002602001604051908101604052809291908181526020016000905b8282101561084e5783829060005260206000200180546107c19061146a565b80601f01602080910402602001604051908101604052809291908181526020018280546107ed9061146a565b801561083a5780601f1061080f5761010080835404028352916020019161083a565b820191906000526020600020905b81548152906001019060200180831161081d57829003601f168201915b5050505050815260200190600101906107a2565b50505050905090565b60006002546003541061086d57600090506108b4565b60045442111561088057600090506108b4565b6000829050600254816003546108969190611407565b11156108af576003546002546108ac919061149b565b90505b809150505b919050565b600760009054906101000a900473ffffffffffffffffffffffffffffffffffffffff1681565b600660009054906101000a900473ffffffffffffffffffffffffffffffffffffffff1681565b60035481565b6001818154811061091b57600080fd5b9060005260206000200160009150905080546109369061146a565b80601f01602080910402602001604051908101604052809291908181526020018280546109629061146a565b80156109af5780601f10610984576101008083540402835291602001916109af565b820191906000526020600020905b81548152906001019060200180831161099257829003601f168201915b505050505081565b60025481565b600760009054906101000a900473ffffffffffffffffffffffffffffffffffffffff1673ffffffffffffffffffffffffffffffffffffffff163373ffffffffffffffffffffffffffffffffffffffff1614610a4d576040517f08c379a0000000000000000000000000000000000000000000000000000000008152600401610a4490611202565b60405180910390fd5b600454421015610a92576040517f08c379a0000000000000000000000000000000000000000000000000000000008152600401610a8990611541565b60405180910390fd5b600560009054906101000a900460ff1615610ae2576040517f08c379a0000000000000000000000000000000000000000000000000000000008152600401610ad9906115d3565b60405180910390fd5b60008111610b25576040517f08c379a0000000000000000000000000000000000000000000000000000000008152600401610b1c90611665565b60405180910390fd5b806003541015610b6a576040517f08c379a0000000000000000000000000000000000000000000000000000000008152600401610b61906116f7565b60405180910390fd5b8060036000828254610b7c919061149b565b92505081905550610bb1600660009054906101000a900473ffffffffffffffffffffffffffffffffffffffff16308484610bdb565b5050565b600560019054906101000a900473ffffffffffffffffffffffffffffffffffffffff1681565b6000808573ffffffffffffffffffffffffffffffffffffffff16858585604051602401610c0a93929190611717565b6040516020818303038152906040527f23b872dd000000000000000000000000000000000000000000000000000000007bffffffffffffffffffffffffffffffffffffffffffffffffffffffff19166020820180517bffffffffffffffffffffffffffffffffffffffffffffffffffffffff8381831617835250505050604051610c949190611795565b6000604051808303816000865af19150503d8060008114610cd1576040519150601f19603f3d011682016040523d82523d6000602084013e610cd6565b606091505b5091509150811580610d0757506000815114158015610d06575080806020019051810190610d0491906117d8565b155b5b15610d3e576040517ffb7f507900000000000000000000000000000000000000000000000000000000815260040160405180910390fd5b505050505050565b6040518060600160405280600073ffffffffffffffffffffffffffffffffffffffff16815260200160008152602001600081525090565b600080fd5b6000819050919050565b610d9581610d82565b8114610da057600080fd5b50565b600081359050610db281610d8c565b92915050565b600060208284031215610dce57610dcd610d7d565b5b6000610ddc84828501610da3565b91505092915050565b600073ffffffffffffffffffffffffffffffffffffffff82169050919050565b6000610e1082610de5565b9050919050565b610e2081610e05565b82525050565b610e2f81610d82565b82525050565b6000606082019050610e4a6000830186610e17565b610e576020830185610e26565b610e646040830184610e26565b949350505050565b6000602082019050610e816000830184610e26565b92915050565b610e9081610e05565b8114610e9b57600080fd5b50565b600081359050610ead81610e87565b92915050565b60008060408385031215610eca57610ec9610d7d565b5b6000610ed885828601610e9e565b9250506020610ee985828601610da3565b9150509250929050565b60008115159050919050565b610f0881610ef3565b82525050565b6000602082019050610f236000830184610eff565b92915050565b600081519050919050565b600082825260208201905092915050565b60005b83811015610f63578082015181840152602081019050610f48565b60008484015250505050565b6000601f19601f8301169050919050565b6000610f8b82610f29565b610f958185610f34565b9350610fa5818560208601610f45565b610fae81610f6f565b840191505092915050565b60006020820190508181036000830152610fd38184610f80565b905092915050565b600081519050919050565b600082825260208201905092915050565b6000819050602082019050919050565b600082825260208201905092915050565b600061102382610f29565b61102d8185611007565b935061103d818560208601610f45565b61104681610f6f565b840191505092915050565b600061105d8383611018565b905092915050565b6000602082019050919050565b600061107d82610fdb565b6110878185610fe6565b93508360208202850161109985610ff7565b8060005b858110156110d557848403895281516110b68582611051565b94506110c183611065565b925060208a0199505060018101905061109d565b50829750879550505050505092915050565b600060208201905081810360008301526111018184611072565b905092915050565b600060208201905061111e6000830184610e17565b92915050565b7f43726f776466756e64696e673a20616c7265616479206578636565642064656160008201527f646c696e65000000000000000000000000000000000000000000000000000000602082015250565b6000611180602583610f34565b915061118b82611124565b604082019050919050565b600060208201905081810360008301526111af81611173565b9050919050565b7f43726f776466756e64696e673a206f6e6c79466163746f727900000000000000600082015250565b60006111ec601983610f34565b91506111f7826111b6565b602082019050919050565b6000602082019050818103600083015261121b816111df565b9050919050565b7f43726f776466756e64696e672e616464436f6e747269627574696f6e3a20437260008201527f6f776466756e64696e67206973206e6f7420666f722073616c65000000000000602082015250565b600061127e603a83610f34565b915061128982611222565b604082019050919050565b600060208201905081810360008301526112ad81611271565b9050919050565b7f43726f776466756e64696e672e616464436f6e747269627574696f6e3a20696e60008201527f76616c696420616d6f756e740000000000000000000000000000000000000000602082015250565b6000611310602c83610f34565b915061131b826112b4565b604082019050919050565b6000602082019050818103600083015261133f81611303565b9050919050565b7f43726f776466756e64696e672e616464436f6e747269627574696f6e3a20637260008201527f6f776466756e64696e6720616c72656164792072656163682074617267657400602082015250565b60006113a2603f83610f34565b91506113ad82611346565b604082019050919050565b600060208201905081810360008301526113d181611395565b9050919050565b7f4e487b7100000000000000000000000000000000000000000000000000000000600052601160045260246000fd5b600061141282610d82565b915061141d83610d82565b9250828201905080821115611435576114346113d8565b5b92915050565b7f4e487b7100000000000000000000000000000000000000000000000000000000600052602260045260246000fd5b6000600282049050600182168061148257607f821691505b6020821081036114955761149461143b565b5b50919050565b60006114a682610d82565b91506114b183610d82565b92508282039050818111156114c9576114c86113d8565b5b92915050565b7f43726f776466756e64696e673a206d75737420616674657220646561646c696e60008201527f6500000000000000000000000000000000000000000000000000000000000000602082015250565b600061152b602183610f34565b9150611536826114cf565b604082019050919050565b6000602082019050818103600083015261155a8161151e565b9050919050565b7f43726f776466756e64696e672e72656d6f7665436f6e747269627574696f6e3a60008201527f2043726f776466756e64696e67206973207374696c6c20696e2073616c650000602082015250565b60006115bd603e83610f34565b91506115c882611561565b604082019050919050565b600060208201905081810360008301526115ec816115b0565b9050919050565b7f43726f776466756e64696e672e72656d6f7665436f6e747269627574696f6e3a60008201527f20696e76616c696420616d6f756e740000000000000000000000000000000000602082015250565b600061164f602f83610f34565b915061165a826115f3565b604082019050919050565b6000602082019050818103600083015261167e81611642565b9050919050565b7f43726f776466756e64696e672e72656d6f7665436f6e747269627574696f6e3a60008201527f20696e73756666696369656e7420616d6f756e74000000000000000000000000602082015250565b60006116e1603483610f34565b91506116ec82611685565b604082019050919050565b60006020820190508181036000830152611710816116d4565b9050919050565b600060608201905061172c6000830186610e17565b6117396020830185610e17565b6117466040830184610e26565b949350505050565b600081519050919050565b600081905092915050565b600061176f8261174e565b6117798185611759565b9350611789818560208601610f45565b80840191505092915050565b60006117a18284611764565b915081905092915050565b6117b581610ef3565b81146117c057600080fd5b50565b6000815190506117d2816117ac565b92915050565b6000602082840312156117ee576117ed610d7d565b5b60006117fc848285016117c3565b9150509291505056fea264697066735822122077e4add8ffcf63b895b163cb25fa908a9f38a5afc3d5096add854cb8173cec3964736f6c63430008140033",
  "linkReferences": {},
  "deployedLinkReferences": {}
}