{
  "_format": "hh-sol-artifact-1",
  "contractName": "Crowdfunding",
  "sourceName": "contracts/Crowdfunding.sol",
  "abi": [
    {
      "inputs": [
        {
          "internalType": "address",
          "name": "_starter",
          "type": "address"
        },
        {
          "internalType": "string",
          "name": "_title",
          "type": "string"
        },
        {
          "internalType": "string",
          "name": "_shortDescription",
          "type": "string"
        },
        {
          "internalType": "string[]",
          "name": "_categories",
          "type": "string[]"
        },
        {
          "internalType": "string",
          "name": "_metadataCID",
          "type": "string"
        },
        {
          "internalType": "uint256",
          "name": "_target",
          "type": "uint256"
        },
        {
          "internalType": "uint256",
          "name": "_deadline",
          "type": "uint256"
        },
        {
          "internalType": "address",
          "name": "_tokenAddress",
          "type": "address"
        }
      ],
      "stateMutability": "nonpayable",
      "type": "constructor"
    },
    {
      "inputs": [],
      "name": "SafeApproveFailed",
      "type": "error"
    },
    {
      "inputs": [],
      "name": "SafeTransferFailed",
      "type": "error"
    },
    {
      "anonymous": false,
      "inputs": [
        {
          "indexed": false,
          "internalType": "address",
          "name": "cfAddress",
          "type": "address"
        },
        {
          "components": [
            {
              "internalType": "address",
              "name": "contributor",
              "type": "address"
            },
            {
              "internalType": "uint256",
              "name": "amount",
              "type": "uint256"
            },
            {
              "internalType": "uint256",
              "name": "timestamp",
              "type": "uint256"
            }
          ],
          "indexed": false,
          "internalType": "struct Crowdfunding.Contribution",
          "name": "contribution",
          "type": "tuple"
        },
        {
          "indexed": false,
          "internalType": "bool",
          "name": "isOpen",
          "type": "bool"
        }
      ],
      "name": "ContributionAdded",
      "type": "event"
    },
    {
      "anonymous": false,
      "inputs": [
        {
          "indexed": false,
          "internalType": "address",
          "name": "cfAddress",
          "type": "address"
        },
        {
          "components": [
            {
              "internalType": "address",
              "name": "to",
              "type": "address"
            },
            {
              "internalType": "uint256",
              "name": "amount",
              "type": "uint256"
            },
            {
              "internalType": "uint256",
              "name": "timestamp",
              "type": "uint256"
            }
          ],
          "indexed": false,
          "internalType": "struct Crowdfunding.Burning",
          "name": "burning",
          "type": "tuple"
        }
      ],
      "name": "Withdraw",
      "type": "event"
    },
    {
      "inputs": [
        {
          "internalType": "address",
          "name": "by",
          "type": "address"
        },
        {
          "internalType": "uint256",
          "name": "amount",
          "type": "uint256"
        }
      ],
      "name": "addContribution",
      "outputs": [
        {
          "internalType": "uint256",
          "name": "contributionAdded",
          "type": "uint256"
        }
      ],
      "stateMutability": "nonpayable",
      "type": "function"
    },
    {
      "inputs": [
        {
          "internalType": "uint256",
          "name": "",
          "type": "uint256"
        }
      ],
      "name": "burnings",
      "outputs": [
        {
          "internalType": "address",
          "name": "to",
          "type": "address"
        },
        {
          "internalType": "uint256",
          "name": "amount",
          "type": "uint256"
        },
        {
          "internalType": "uint256",
          "name": "timestamp",
          "type": "uint256"
        }
      ],
      "stateMutability": "view",
      "type": "function"
    },
    {
      "inputs": [
        {
          "internalType": "uint256",
          "name": "",
          "type": "uint256"
        }
      ],
      "name": "categories",
      "outputs": [
        {
          "internalType": "string",
          "name": "",
          "type": "string"
        }
      ],
      "stateMutability": "view",
      "type": "function"
    },
    {
      "inputs": [
        {
          "internalType": "uint256",
          "name": "amount",
          "type": "uint256"
        }
      ],
      "name": "contributionAllowed",
      "outputs": [
        {
          "internalType": "uint256",
          "name": "",
          "type": "uint256"
        }
      ],
      "stateMutability": "view",
      "type": "function"
    },
    {
      "inputs": [
        {
          "internalType": "uint256",
          "name": "",
          "type": "uint256"
        }
      ],
      "name": "contributions",
      "outputs": [
        {
          "internalType": "address",
          "name": "contributor",
          "type": "address"
        },
        {
          "internalType": "uint256",
          "name": "amount",
          "type": "uint256"
        },
        {
          "internalType": "uint256",
          "name": "timestamp",
          "type": "uint256"
        }
      ],
      "stateMutability": "view",
      "type": "function"
    },
    {
      "inputs": [],
      "name": "current",
      "outputs": [
        {
          "internalType": "uint256",
          "name": "",
          "type": "uint256"
        }
      ],
      "stateMutability": "view",
      "type": "function"
    },
    {
      "inputs": [],
      "name": "deadline",
      "outputs": [
        {
          "internalType": "uint256",
          "name": "",
          "type": "uint256"
        }
      ],
      "stateMutability": "view",
      "type": "function"
    },
    {
      "inputs": [
        {
          "internalType": "uint256",
          "name": "_target",
          "type": "uint256"
        },
        {
          "internalType": "uint256",
          "name": "_deadline",
          "type": "uint256"
        }
      ],
      "name": "editCrowdfunding",
      "outputs": [],
      "stateMutability": "nonpayable",
      "type": "function"
    },
    {
      "inputs": [
        {
          "internalType": "string",
          "name": "newCID",
          "type": "string"
        }
      ],
      "name": "editMetadataCID",
      "outputs": [],
      "stateMutability": "nonpayable",
      "type": "function"
    },
    {
      "inputs": [],
      "name": "factoryAddress",
      "outputs": [
        {
          "internalType": "address",
          "name": "",
          "type": "address"
        }
      ],
      "stateMutability": "view",
      "type": "function"
    },
    {
      "inputs": [],
      "name": "getCategories",
      "outputs": [
        {
          "internalType": "string[]",
          "name": "",
          "type": "string[]"
        }
      ],
      "stateMutability": "view",
      "type": "function"
    },
    {
      "inputs": [],
      "name": "getContributions",
      "outputs": [
        {
          "components": [
            {
              "internalType": "address",
              "name": "contributor",
              "type": "address"
            },
            {
              "internalType": "uint256",
              "name": "amount",
              "type": "uint256"
            },
            {
              "internalType": "uint256",
              "name": "timestamp",
              "type": "uint256"
            }
          ],
          "internalType": "struct Crowdfunding.Contribution[]",
          "name": "",
          "type": "tuple[]"
        }
      ],
      "stateMutability": "view",
      "type": "function"
    },
    {
      "inputs": [],
      "name": "getTarget",
      "outputs": [
        {
          "internalType": "uint256",
          "name": "",
          "type": "uint256"
        }
      ],
      "stateMutability": "view",
      "type": "function"
    },
    {
      "inputs": [],
      "name": "isOpen",
      "outputs": [
        {
          "internalType": "bool",
          "name": "",
          "type": "bool"
        }
      ],
      "stateMutability": "view",
      "type": "function"
    },
    {
      "inputs": [],
      "name": "metadataCID",
      "outputs": [
        {
          "internalType": "string",
          "name": "",
          "type": "string"
        }
      ],
      "stateMutability": "view",
      "type": "function"
    },
    {
      "inputs": [
        {
          "internalType": "address",
          "name": "to",
          "type": "address"
        },
        {
          "internalType": "uint256",
          "name": "amount",
          "type": "uint256"
        }
      ],
      "name": "removeContribution",
      "outputs": [],
      "stateMutability": "nonpayable",
      "type": "function"
    },
    {
      "inputs": [],
      "name": "shortDescription",
      "outputs": [
        {
          "internalType": "string",
          "name": "",
          "type": "string"
        }
      ],
      "stateMutability": "view",
      "type": "function"
    },
    {
      "inputs": [],
      "name": "startAt",
      "outputs": [
        {
          "internalType": "uint256",
          "name": "",
          "type": "uint256"
        }
      ],
      "stateMutability": "view",
      "type": "function"
    },
    {
      "inputs": [],
      "name": "starter",
      "outputs": [
        {
          "internalType": "address",
          "name": "",
          "type": "address"
        }
      ],
      "stateMutability": "view",
      "type": "function"
    },
    {
      "inputs": [],
      "name": "target",
      "outputs": [
        {
          "internalType": "uint256",
          "name": "",
          "type": "uint256"
        }
      ],
      "stateMutability": "view",
      "type": "function"
    },
    {
      "inputs": [],
      "name": "title",
      "outputs": [
        {
          "internalType": "string",
          "name": "",
          "type": "string"
        }
      ],
      "stateMutability": "view",
      "type": "function"
    },
    {
      "inputs": [],
      "name": "tokenAddress",
      "outputs": [
        {
          "internalType": "address",
          "name": "",
          "type": "address"
        }
      ],
      "stateMutability": "view",
      "type": "function"
    }
  ],
  "bytecode": "0x60806040523480156200001157600080fd5b5060405162003277380380620032778339818101604052810190620000379190620005f0565b4282116200007c576040517f08c379a00000000000000000000000000000000000000000000000000000000081526004016200007390620007bc565b60405180910390fd5b87600860016101000a81548173ffffffffffffffffffffffffffffffffffffffff021916908373ffffffffffffffffffffffffffffffffffffffff1602179055508660019081620000ce919062000a1f565b508560029081620000e0919062000a1f565b508460039080519060200190620000f9929190620001d4565b5033600a60006101000a81548173ffffffffffffffffffffffffffffffffffffffff021916908373ffffffffffffffffffffffffffffffffffffffff16021790555083600090816200014c919062000a1f565b508260048190555060006005819055508160068190555080600960006101000a81548173ffffffffffffffffffffffffffffffffffffffff021916908373ffffffffffffffffffffffffffffffffffffffff160217905550426007819055506001600860006101000a81548160ff021916908315150217905550505050505050505062000b06565b82805482825590600052602060002090810192821562000221579160200282015b82811115620002205782518290816200020f919062000a1f565b5091602001919060010190620001f5565b5b50905062000230919062000234565b5090565b5b808211156200025857600081816200024e91906200025c565b5060010162000235565b5090565b5080546200026a9062000818565b6000825580601f106200027e57506200029f565b601f0160209004906000526020600020908101906200029e9190620002a2565b5b50565b5b80821115620002bd576000816000905550600101620002a3565b5090565b6000604051905090565b600080fd5b600080fd5b600073ffffffffffffffffffffffffffffffffffffffff82169050919050565b60006200030282620002d5565b9050919050565b6200031481620002f5565b81146200032057600080fd5b50565b600081519050620003348162000309565b92915050565b600080fd5b600080fd5b6000601f19601f8301169050919050565b7f4e487b7100000000000000000000000000000000000000000000000000000000600052604160045260246000fd5b6200038f8262000344565b810181811067ffffffffffffffff82111715620003b157620003b062000355565b5b80604052505050565b6000620003c6620002c1565b9050620003d4828262000384565b919050565b600067ffffffffffffffff821115620003f757620003f662000355565b5b620004028262000344565b9050602081019050919050565b60005b838110156200042f57808201518184015260208101905062000412565b60008484015250505050565b6000620004526200044c84620003d9565b620003ba565b9050828152602081018484840111156200047157620004706200033f565b5b6200047e8482856200040f565b509392505050565b600082601f8301126200049e576200049d6200033a565b5b8151620004b08482602086016200043b565b91505092915050565b600067ffffffffffffffff821115620004d757620004d662000355565b5b602082029050602081019050919050565b600080fd5b600062000504620004fe84620004b9565b620003ba565b905080838252602082019050602084028301858111156200052a5762000529620004e8565b5b835b818110156200057857805167ffffffffffffffff8111156200055357620005526200033a565b5b80860162000562898262000486565b855260208501945050506020810190506200052c565b5050509392505050565b600082601f8301126200059a57620005996200033a565b5b8151620005ac848260208601620004ed565b91505092915050565b6000819050919050565b620005ca81620005b5565b8114620005d657600080fd5b50565b600081519050620005ea81620005bf565b92915050565b600080600080600080600080610100898b031215620006145762000613620002cb565b5b6000620006248b828c0162000323565b985050602089015167ffffffffffffffff811115620006485762000647620002d0565b5b620006568b828c0162000486565b975050604089015167ffffffffffffffff8111156200067a5762000679620002d0565b5b620006888b828c0162000486565b965050606089015167ffffffffffffffff811115620006ac57620006ab620002d0565b5b620006ba8b828c0162000582565b955050608089015167ffffffffffffffff811115620006de57620006dd620002d0565b5b620006ec8b828c0162000486565b94505060a0620006ff8b828c01620005d9565b93505060c0620007128b828c01620005d9565b92505060e0620007258b828c0162000323565b9150509295985092959890939650565b600082825260208201905092915050565b7f43726f776466756e64696e673a20446561646c696e65206d757374206265206960008201527f6e20667574757265000000000000000000000000000000000000000000000000602082015250565b6000620007a460288362000735565b9150620007b18262000746565b604082019050919050565b60006020820190508181036000830152620007d78162000795565b9050919050565b600081519050919050565b7f4e487b7100000000000000000000000000000000000000000000000000000000600052602260045260246000fd5b600060028204905060018216806200083157607f821691505b602082108103620008475762000846620007e9565b5b50919050565b60008190508160005260206000209050919050565b60006020601f8301049050919050565b600082821b905092915050565b600060088302620008b17fffffffffffffffffffffffffffffffffffffffffffffffffffffffffffffffff8262000872565b620008bd868362000872565b95508019841693508086168417925050509392505050565b6000819050919050565b600062000900620008fa620008f484620005b5565b620008d5565b620005b5565b9050919050565b6000819050919050565b6200091c83620008df565b620009346200092b8262000907565b8484546200087f565b825550505050565b600090565b6200094b6200093c565b6200095881848462000911565b505050565b5b8181101562000980576200097460008262000941565b6001810190506200095e565b5050565b601f821115620009cf5762000999816200084d565b620009a48462000862565b81016020851015620009b4578190505b620009cc620009c38562000862565b8301826200095d565b50505b505050565b600082821c905092915050565b6000620009f460001984600802620009d4565b1980831691505092915050565b600062000a0f8383620009e1565b9150826002028217905092915050565b62000a2a82620007de565b67ffffffffffffffff81111562000a465762000a4562000355565b5b62000a52825462000818565b62000a5f82828562000984565b600060209050601f83116001811462000a97576000841562000a82578287015190505b62000a8e858262000a01565b86555062000afe565b601f19841662000aa7866200084d565b60005b8281101562000ad15784890151825560018201915060208501945060208101905062000aaa565b8683101562000af1578489015162000aed601f891682620009e1565b8355505b6001600288020188555050505b505050505050565b6127618062000b166000396000f3fe608060405234801561001057600080fd5b50600436106101425760003560e01c806399af5cc7116100b8578063cb7cbb8d1161007c578063cb7cbb8d14610383578063d4b839921461039f578063d9de1307146103bd578063dda0a81a146103d9578063f00e6a2a146103f7578063f5a8492f1461041557610142565b806399af5cc7146102dd5780639d76ea58146102f95780639fa6a6e314610317578063c6cdbe5e14610335578063c74465651461036557610142565b806347535d7b1161010a57806347535d7b146102175780634a79d50c146102355780634db0412c1461025357806358871c461461027157806383e490191461028f578063966dae0e146102bf57610142565b80631cee0700146101475780631da98960146101795780631ef480071461019757806329dcb0cf146101c957806339ecacac146101e7575b600080fd5b610161600480360381019061015c9190611537565b610433565b604051610170939291906115b4565b60405180910390f35b61018161048d565b60405161018e919061167b565b60405180910390f35b6101b160048036038101906101ac9190611537565b61051b565b6040516101c0939291906115b4565b60405180910390f35b6101d1610575565b6040516101de919061169d565b60405180910390f35b61020160048036038101906101fc91906116e4565b61057b565b60405161020e919061169d565b60405180910390f35b61021f6108d9565b60405161022c919061173f565b60405180910390f35b61023d6108ec565b60405161024a919061167b565b60405180910390f35b61025b61097a565b6040516102689190611866565b60405180910390f35b610279610a53565b604051610286919061167b565b60405180910390f35b6102a960048036038101906102a49190611537565b610ae1565b6040516102b6919061169d565b60405180910390f35b6102c7610b43565b6040516102d49190611888565b60405180910390f35b6102f760048036038101906102f291906118a3565b610b69565b005b610301610c93565b60405161030e9190611888565b60405180910390f35b61031f610cb9565b60405161032c919061169d565b60405180910390f35b61034f600480360381019061034a9190611537565b610cbf565b60405161035c919061167b565b60405180910390f35b61036d610d6b565b60405161037a919061169d565b60405180910390f35b61039d60048036038101906103989190611a18565b610d71565b005b6103a7610d84565b6040516103b4919061169d565b60405180910390f35b6103d760048036038101906103d291906116e4565b610d8a565b005b6103e1610fca565b6040516103ee9190611b70565b60405180910390f35b6103ff611093565b60405161040c919061169d565b60405180910390f35b61041d61109d565b60405161042a9190611888565b60405180910390f35b600b818154811061044357600080fd5b90600052602060002090600302016000915090508060000160009054906101000a900473ffffffffffffffffffffffffffffffffffffffff16908060010154908060020154905083565b6002805461049a90611bc1565b80601f01602080910402602001604051908101604052809291908181526020018280546104c690611bc1565b80156105135780601f106104e857610100808354040283529160200191610513565b820191906000526020600020905b8154815290600101906020018083116104f657829003601f168201915b505050505081565b600c818154811061052b57600080fd5b90600052602060002090600302016000915090508060000160009054906101000a900473ffffffffffffffffffffffffffffffffffffffff16908060010154908060020154905083565b60065481565b600060065442106105c1576040517f08c379a00000000000000000000000000000000000000000000000000000000081526004016105b890611c64565b60405180910390fd5b600a60009054906101000a900473ffffffffffffffffffffffffffffffffffffffff1673ffffffffffffffffffffffffffffffffffffffff163373ffffffffffffffffffffffffffffffffffffffff1614610651576040517f08c379a000000000000000000000000000000000000000000000000000000000815260040161064890611cd0565b60405180910390fd5b600860009054906101000a900460ff166106a0576040517f08c379a000000000000000000000000000000000000000000000000000000000815260040161069790611d62565b60405180910390fd5b600082116106e3576040517f08c379a00000000000000000000000000000000000000000000000000000000081526004016106da90611df4565b60405180910390fd5b60045460055410610729576040517f08c379a000000000000000000000000000000000000000000000000000000000815260040161072090611e86565b60405180910390fd5b61073282610ae1565b905061073d816110c3565b806005600082825461074f9190611ed5565b9250508190555061075e611475565b83816000019073ffffffffffffffffffffffffffffffffffffffff16908173ffffffffffffffffffffffffffffffffffffffff16815250508181602001818152505042816040018181525050600b81908060018154018082558091505060019003906000526020600020906003020160009091909190915060008201518160000160006101000a81548173ffffffffffffffffffffffffffffffffffffffff021916908373ffffffffffffffffffffffffffffffffffffffff16021790555060208201518160010155604082015181600201555050610861600960009054906101000a900473ffffffffffffffffffffffffffffffffffffffff1685308561115c565b60045460055410610888576000600860006101000a81548160ff0219169083151502179055505b7f681be902c7d2810348d7b84ec16d39988e35db61ec623f847501069f0b75e8673082600860009054906101000a900460ff166040516108ca93929190611f4b565b60405180910390a15092915050565b600860009054906101000a900460ff1681565b600180546108f990611bc1565b80601f016020809104026020016040519081016040528092919081815260200182805461092590611bc1565b80156109725780601f1061094757610100808354040283529160200191610972565b820191906000526020600020905b81548152906001019060200180831161095557829003601f168201915b505050505081565b60606003805480602002602001604051908101604052809291908181526020016000905b82821015610a4a5783829060005260206000200180546109bd90611bc1565b80601f01602080910402602001604051908101604052809291908181526020018280546109e990611bc1565b8015610a365780601f10610a0b57610100808354040283529160200191610a36565b820191906000526020600020905b815481529060010190602001808311610a1957829003601f168201915b50505050508152602001906001019061099e565b50505050905090565b60008054610a6090611bc1565b80601f0160208091040260200160405190810160405280929190818152602001828054610a8c90611bc1565b8015610ad95780601f10610aae57610100808354040283529160200191610ad9565b820191906000526020600020905b815481529060010190602001808311610abc57829003601f168201915b505050505081565b600060045460055410610af75760009050610b3e565b600654421115610b0a5760009050610b3e565b600082905060045481600554610b209190611ed5565b1115610b3957600554600454610b369190611f82565b90505b809150505b919050565b600a60009054906101000a900473ffffffffffffffffffffffffffffffffffffffff1681565b600860019054906101000a900473ffffffffffffffffffffffffffffffffffffffff1673ffffffffffffffffffffffffffffffffffffffff163373ffffffffffffffffffffffffffffffffffffffff1614610bf9576040517f08c379a0000000000000000000000000000000000000000000000000000000008152600401610bf090612002565b60405180910390fd5b6005548211610c3d576040517f08c379a0000000000000000000000000000000000000000000000000000000008152600401610c3490612094565b60405180910390fd5b6006548111610c81576040517f08c379a0000000000000000000000000000000000000000000000000000000008152600401610c7890612126565b60405180910390fd5b81600481905550806006819055505050565b600960009054906101000a900473ffffffffffffffffffffffffffffffffffffffff1681565b60055481565b60038181548110610ccf57600080fd5b906000526020600020016000915090508054610cea90611bc1565b80601f0160208091040260200160405190810160405280929190818152602001828054610d1690611bc1565b8015610d635780601f10610d3857610100808354040283529160200191610d63565b820191906000526020600020905b815481529060010190602001808311610d4657829003601f168201915b505050505081565b60075481565b8060009081610d8091906122f2565b5050565b60045481565b600a60009054906101000a900473ffffffffffffffffffffffffffffffffffffffff1673ffffffffffffffffffffffffffffffffffffffff163373ffffffffffffffffffffffffffffffffffffffff1614610e1a576040517f08c379a0000000000000000000000000000000000000000000000000000000008152600401610e1190611cd0565b60405180910390fd5b600860009054906101000a900460ff1615610e6a576040517f08c379a0000000000000000000000000000000000000000000000000000000008152600401610e6190612436565b60405180910390fd5b60008111610ead576040517f08c379a0000000000000000000000000000000000000000000000000000000008152600401610ea4906124c8565b60405180910390fd5b806005541015610ef2576040517f08c379a0000000000000000000000000000000000000000000000000000000008152600401610ee99061255a565b60405180910390fd5b8060056000828254610f049190611f82565b92505081905550610f136114ac565b8181602001818152505082816000019073ffffffffffffffffffffffffffffffffffffffff16908173ffffffffffffffffffffffffffffffffffffffff168152505042816040018181525050610f8c600960009054906101000a900473ffffffffffffffffffffffffffffffffffffffff1684846112c7565b7f57829d3a59eee0b50bf40c3e3fa252a219bdf0fa536fd94ae3cf281902fe99363082604051610fbd9291906125bc565b60405180910390a1505050565b6060600b805480602002602001604051908101604052809291908181526020016000905b8282101561108a57838290600052602060002090600302016040518060600160405290816000820160009054906101000a900473ffffffffffffffffffffffffffffffffffffffff1673ffffffffffffffffffffffffffffffffffffffff1673ffffffffffffffffffffffffffffffffffffffff1681526020016001820154815260200160028201548152505081526020019060010190610fee565b50505050905090565b6000600454905090565b600860019054906101000a900473ffffffffffffffffffffffffffffffffffffffff1681565b611159816040516024016110d7919061169d565b6040516020818303038152906040527ff82c50f1000000000000000000000000000000000000000000000000000000007bffffffffffffffffffffffffffffffffffffffffffffffffffffffff19166020820180517bffffffffffffffffffffffffffffffffffffffffffffffffffffffff838183161783525050505061142f565b50565b6000808573ffffffffffffffffffffffffffffffffffffffff1685858560405160240161118b939291906125e5565b6040516020818303038152906040527f23b872dd000000000000000000000000000000000000000000000000000000007bffffffffffffffffffffffffffffffffffffffffffffffffffffffff19166020820180517bffffffffffffffffffffffffffffffffffffffffffffffffffffffff83818316178352505050506040516112159190612663565b6000604051808303816000865af19150503d8060008114611252576040519150601f19603f3d011682016040523d82523d6000602084013e611257565b606091505b50915091508115806112885750600081511415801561128757508080602001905181019061128591906126a6565b155b5b156112bf576040517ffb7f507900000000000000000000000000000000000000000000000000000000815260040160405180910390fd5b505050505050565b6000808473ffffffffffffffffffffffffffffffffffffffff1684846040516024016112f49291906126d3565b6040516020818303038152906040527fa9059cbb000000000000000000000000000000000000000000000000000000007bffffffffffffffffffffffffffffffffffffffffffffffffffffffff19166020820180517bffffffffffffffffffffffffffffffffffffffffffffffffffffffff838183161783525050505060405161137e9190612663565b6000604051808303816000865af19150503d80600081146113bb576040519150601f19603f3d011682016040523d82523d6000602084013e6113c0565b606091505b50915091508115806113f1575060008151141580156113f05750808060200190518101906113ee91906126a6565b155b5b15611428576040517ffb7f507900000000000000000000000000000000000000000000000000000000815260040160405180910390fd5b5050505050565b6114468161143e61144961146a565b63ffffffff16565b50565b60006a636f6e736f6c652e6c6f679050600080835160208501845afa505050565b6114e3819050919050565b6040518060600160405280600073ffffffffffffffffffffffffffffffffffffffff16815260200160008152602001600081525090565b6040518060600160405280600073ffffffffffffffffffffffffffffffffffffffff16815260200160008152602001600081525090565b6114eb6126fc565b565b6000604051905090565b600080fd5b600080fd5b6000819050919050565b61151481611501565b811461151f57600080fd5b50565b6000813590506115318161150b565b92915050565b60006020828403121561154d5761154c6114f7565b5b600061155b84828501611522565b91505092915050565b600073ffffffffffffffffffffffffffffffffffffffff82169050919050565b600061158f82611564565b9050919050565b61159f81611584565b82525050565b6115ae81611501565b82525050565b60006060820190506115c96000830186611596565b6115d660208301856115a5565b6115e360408301846115a5565b949350505050565b600081519050919050565b600082825260208201905092915050565b60005b8381101561162557808201518184015260208101905061160a565b60008484015250505050565b6000601f19601f8301169050919050565b600061164d826115eb565b61165781856115f6565b9350611667818560208601611607565b61167081611631565b840191505092915050565b600060208201905081810360008301526116958184611642565b905092915050565b60006020820190506116b260008301846115a5565b92915050565b6116c181611584565b81146116cc57600080fd5b50565b6000813590506116de816116b8565b92915050565b600080604083850312156116fb576116fa6114f7565b5b6000611709858286016116cf565b925050602061171a85828601611522565b9150509250929050565b60008115159050919050565b61173981611724565b82525050565b60006020820190506117546000830184611730565b92915050565b600081519050919050565b600082825260208201905092915050565b6000819050602082019050919050565b600082825260208201905092915050565b60006117a2826115eb565b6117ac8185611786565b93506117bc818560208601611607565b6117c581611631565b840191505092915050565b60006117dc8383611797565b905092915050565b6000602082019050919050565b60006117fc8261175a565b6118068185611765565b93508360208202850161181885611776565b8060005b85811015611854578484038952815161183585826117d0565b9450611840836117e4565b925060208a0199505060018101905061181c565b50829750879550505050505092915050565b6000602082019050818103600083015261188081846117f1565b905092915050565b600060208201905061189d6000830184611596565b92915050565b600080604083850312156118ba576118b96114f7565b5b60006118c885828601611522565b92505060206118d985828601611522565b9150509250929050565b600080fd5b600080fd5b7f4e487b7100000000000000000000000000000000000000000000000000000000600052604160045260246000fd5b61192582611631565b810181811067ffffffffffffffff82111715611944576119436118ed565b5b80604052505050565b60006119576114ed565b9050611963828261191c565b919050565b600067ffffffffffffffff821115611983576119826118ed565b5b61198c82611631565b9050602081019050919050565b82818337600083830152505050565b60006119bb6119b684611968565b61194d565b9050828152602081018484840111156119d7576119d66118e8565b5b6119e2848285611999565b509392505050565b600082601f8301126119ff576119fe6118e3565b5b8135611a0f8482602086016119a8565b91505092915050565b600060208284031215611a2e57611a2d6114f7565b5b600082013567ffffffffffffffff811115611a4c57611a4b6114fc565b5b611a58848285016119ea565b91505092915050565b600081519050919050565b600082825260208201905092915050565b6000819050602082019050919050565b611a9681611584565b82525050565b611aa581611501565b82525050565b606082016000820151611ac16000850182611a8d565b506020820151611ad46020850182611a9c565b506040820151611ae76040850182611a9c565b50505050565b6000611af98383611aab565b60608301905092915050565b6000602082019050919050565b6000611b1d82611a61565b611b278185611a6c565b9350611b3283611a7d565b8060005b83811015611b63578151611b4a8882611aed565b9750611b5583611b05565b925050600181019050611b36565b5085935050505092915050565b60006020820190508181036000830152611b8a8184611b12565b905092915050565b7f4e487b7100000000000000000000000000000000000000000000000000000000600052602260045260246000fd5b60006002820490506001821680611bd957607f821691505b602082108103611bec57611beb611b92565b5b50919050565b7f43726f776466756e64696e673a20616c7265616479206578636565642064656160008201527f646c696e65000000000000000000000000000000000000000000000000000000602082015250565b6000611c4e6025836115f6565b9150611c5982611bf2565b604082019050919050565b60006020820190508181036000830152611c7d81611c41565b9050919050565b7f43726f776466756e64696e673a206f6e6c79466163746f727900000000000000600082015250565b6000611cba6019836115f6565b9150611cc582611c84565b602082019050919050565b60006020820190508181036000830152611ce981611cad565b9050919050565b7f43726f776466756e64696e672e616464436f6e747269627574696f6e3a20437260008201527f6f776466756e64696e67206973206e6f7420666f722073616c65000000000000602082015250565b6000611d4c603a836115f6565b9150611d5782611cf0565b604082019050919050565b60006020820190508181036000830152611d7b81611d3f565b9050919050565b7f43726f776466756e64696e672e616464436f6e747269627574696f6e3a20696e60008201527f76616c696420616d6f756e740000000000000000000000000000000000000000602082015250565b6000611dde602c836115f6565b9150611de982611d82565b604082019050919050565b60006020820190508181036000830152611e0d81611dd1565b9050919050565b7f43726f776466756e64696e672e616464436f6e747269627574696f6e3a20637260008201527f6f776466756e64696e6720616c72656164792072656163682074617267657400602082015250565b6000611e70603f836115f6565b9150611e7b82611e14565b604082019050919050565b60006020820190508181036000830152611e9f81611e63565b9050919050565b7f4e487b7100000000000000000000000000000000000000000000000000000000600052601160045260246000fd5b6000611ee082611501565b9150611eeb83611501565b9250828201905080821115611f0357611f02611ea6565b5b92915050565b606082016000820151611f1f6000850182611a8d565b506020820151611f326020850182611a9c565b506040820151611f456040850182611a9c565b50505050565b600060a082019050611f606000830186611596565b611f6d6020830185611f09565b611f7a6080830184611730565b949350505050565b6000611f8d82611501565b9150611f9883611501565b9250828203905081811115611fb057611faf611ea6565b5b92915050565b7f43726f776466756e64696e673a206f6e6c795374617274657200000000000000600082015250565b6000611fec6019836115f6565b9150611ff782611fb6565b602082019050919050565b6000602082019050818103600083015261201b81611fdf565b9050919050565b7f43726f776466756e64696e673a2074617267657420697320746f6f20736d616c60008201527f6c00000000000000000000000000000000000000000000000000000000000000602082015250565b600061207e6021836115f6565b915061208982612022565b604082019050919050565b600060208201905081810360008301526120ad81612071565b9050919050565b7f43726f776466756e64696e673a206e657720646561646c696e6520697320736860008201527f6f72746572207468616e206265666f7265000000000000000000000000000000602082015250565b60006121106031836115f6565b915061211b826120b4565b604082019050919050565b6000602082019050818103600083015261213f81612103565b9050919050565b60008190508160005260206000209050919050565b60006020601f8301049050919050565b600082821b905092915050565b6000600883026121a87fffffffffffffffffffffffffffffffffffffffffffffffffffffffffffffffff8261216b565b6121b2868361216b565b95508019841693508086168417925050509392505050565b6000819050919050565b60006121ef6121ea6121e584611501565b6121ca565b611501565b9050919050565b6000819050919050565b612209836121d4565b61221d612215826121f6565b848454612178565b825550505050565b600090565b612232612225565b61223d818484612200565b505050565b5b818110156122615761225660008261222a565b600181019050612243565b5050565b601f8211156122a65761227781612146565b6122808461215b565b8101602085101561228f578190505b6122a361229b8561215b565b830182612242565b50505b505050565b600082821c905092915050565b60006122c9600019846008026122ab565b1980831691505092915050565b60006122e283836122b8565b9150826002028217905092915050565b6122fb826115eb565b67ffffffffffffffff811115612314576123136118ed565b5b61231e8254611bc1565b612329828285612265565b600060209050601f83116001811461235c576000841561234a578287015190505b61235485826122d6565b8655506123bc565b601f19841661236a86612146565b60005b828110156123925784890151825560018201915060208501945060208101905061236d565b868310156123af57848901516123ab601f8916826122b8565b8355505b6001600288020188555050505b505050505050565b7f43726f776466756e64696e672e72656d6f7665436f6e747269627574696f6e3a60008201527f2043726f776466756e64696e67206973207374696c6c20696e2073616c650000602082015250565b6000612420603e836115f6565b915061242b826123c4565b604082019050919050565b6000602082019050818103600083015261244f81612413565b9050919050565b7f43726f776466756e64696e672e72656d6f7665436f6e747269627574696f6e3a60008201527f20696e76616c696420616d6f756e740000000000000000000000000000000000602082015250565b60006124b2602f836115f6565b91506124bd82612456565b604082019050919050565b600060208201905081810360008301526124e1816124a5565b9050919050565b7f43726f776466756e64696e672e72656d6f7665436f6e747269627574696f6e3a60008201527f20696e73756666696369656e7420616d6f756e74000000000000000000000000602082015250565b60006125446034836115f6565b915061254f826124e8565b604082019050919050565b6000602082019050818103600083015261257381612537565b9050919050565b6060820160008201516125906000850182611a8d565b5060208201516125a36020850182611a9c565b5060408201516125b66040850182611a9c565b50505050565b60006080820190506125d16000830185611596565b6125de602083018461257a565b9392505050565b60006060820190506125fa6000830186611596565b6126076020830185611596565b61261460408301846115a5565b949350505050565b600081519050919050565b600081905092915050565b600061263d8261261c565b6126478185612627565b9350612657818560208601611607565b80840191505092915050565b600061266f8284612632565b915081905092915050565b61268381611724565b811461268e57600080fd5b50565b6000815190506126a08161267a565b92915050565b6000602082840312156126bc576126bb6114f7565b5b60006126ca84828501612691565b91505092915050565b60006040820190506126e86000830185611596565b6126f560208301846115a5565b9392505050565b7f4e487b7100000000000000000000000000000000000000000000000000000000600052605160045260246000fdfea26469706673582212206845315aa02a036964cac74842839e4973a44710fa45f3212022cbfee269bc9a64736f6c63430008140033",
  "linkReferences": {},
  "deployedLinkReferences": {}
}