{
  "_format": "hh-sol-artifact-1",
  "contractName": "KBConfig",
  "sourceName": "contracts/KBConfig.sol",
  "abi": [
    {
      "inputs": [
        {
          "internalType": "string[]",
          "name": "categories",
          "type": "string[]"
        }
      ],
      "name": "isCategoryAvailable",
      "outputs": [
        {
          "internalType": "bool",
          "name": "",
          "type": "bool"
        }
      ],
      "stateMutability": "pure",
      "type": "function"
    },
    {
      "inputs": [],
      "name": "maxTitleCharacter",
      "outputs": [
        {
          "internalType": "uint256",
          "name": "",
          "type": "uint256"
        }
      ],
      "stateMutability": "pure",
      "type": "function"
    },
    {
      "inputs": [],
      "name": "maximumCFSpan",
      "outputs": [
        {
          "internalType": "uint256",
          "name": "",
          "type": "uint256"
        }
      ],
      "stateMutability": "pure",
      "type": "function"
    },
    {
      "inputs": [],
      "name": "maximumTarget",
      "outputs": [
        {
          "internalType": "uint256",
          "name": "",
          "type": "uint256"
        }
      ],
      "stateMutability": "pure",
      "type": "function"
    },
    {
      "inputs": [],
      "name": "minimumCFSpan",
      "outputs": [
        {
          "internalType": "uint256",
          "name": "",
          "type": "uint256"
        }
      ],
      "stateMutability": "pure",
      "type": "function"
    },
    {
      "inputs": [],
      "name": "minimumTarget",
      "outputs": [
        {
          "internalType": "uint256",
          "name": "",
          "type": "uint256"
        }
      ],
      "stateMutability": "pure",
      "type": "function"
    }
  ],
  "bytecode": "0x608060405234801561001057600080fd5b50610498806100206000396000f3fe608060405234801561001057600080fd5b50600436106100625760003560e01c8063269714dd1461006757806334f221331461008557806342235da6146100b55780637ef189dd146100d3578063c495a75e146100f1578063ce3804181461010f575b600080fd5b61006f61012d565b60405161007c9190610188565b60405180910390f35b61009f600480360381019061009a91906103e3565b610139565b6040516100ac9190610447565b60405180910390f35b6100bd610144565b6040516100ca9190610188565b60405180910390f35b6100db61014f565b6040516100e89190610188565b60405180910390f35b6100f961015a565b6040516101069190610188565b60405180910390f35b610117610165565b6040516101249190610188565b60405180910390f35b6000633b9aca00905090565b600060019050919050565b6000620f4240905090565b600062093a80905090565b600062ed4e00905090565b6000610100905090565b6000819050919050565b6101828161016f565b82525050565b600060208201905061019d6000830184610179565b92915050565b6000604051905090565b600080fd5b600080fd5b600080fd5b6000601f19601f8301169050919050565b7f4e487b7100000000000000000000000000000000000000000000000000000000600052604160045260246000fd5b610205826101bc565b810181811067ffffffffffffffff82111715610224576102236101cd565b5b80604052505050565b60006102376101a3565b905061024382826101fc565b919050565b600067ffffffffffffffff821115610263576102626101cd565b5b602082029050602081019050919050565b600080fd5b600080fd5b600067ffffffffffffffff821115610299576102986101cd565b5b6102a2826101bc565b9050602081019050919050565b82818337600083830152505050565b60006102d16102cc8461027e565b61022d565b9050828152602081018484840111156102ed576102ec610279565b5b6102f88482856102af565b509392505050565b600082601f830112610315576103146101b7565b5b81356103258482602086016102be565b91505092915050565b600061034161033c84610248565b61022d565b9050808382526020820190506020840283018581111561036457610363610274565b5b835b818110156103ab57803567ffffffffffffffff811115610389576103886101b7565b5b8086016103968982610300565b85526020850194505050602081019050610366565b5050509392505050565b600082601f8301126103ca576103c96101b7565b5b81356103da84826020860161032e565b91505092915050565b6000602082840312156103f9576103f86101ad565b5b600082013567ffffffffffffffff811115610417576104166101b2565b5b610423848285016103b5565b91505092915050565b60008115159050919050565b6104418161042c565b82525050565b600060208201905061045c6000830184610438565b9291505056fea26469706673582212209f7c7743b5ce8ae49aa6ec95af293d2e6709966fd3975ce84f69e09d653c1c4b64736f6c63430008140033",
  "linkReferences": {},
  "deployedLinkReferences": {}
}