{
  "_format": "hh-sol-artifact-1",
  "contractName": "KBFactory",
  "sourceName": "contracts/KBFactory.sol",
  "abi": [
    {
      "inputs": [
        {
          "internalType": "address",
          "name": "_tokenAddress",
          "type": "address"
        }
      ],
      "stateMutability": "nonpayable",
      "type": "constructor"
    },
    {
      "inputs": [
        {
          "internalType": "address",
          "name": "owner",
          "type": "address"
        }
      ],
      "name": "OwnableInvalidOwner",
      "type": "error"
    },
    {
      "inputs": [
        {
          "internalType": "address",
          "name": "account",
          "type": "address"
        }
      ],
      "name": "OwnableUnauthorizedAccount",
      "type": "error"
    },
    {
      "inputs": [],
      "name": "SafeTransferFailed",
      "type": "error"
    },
    {
      "anonymous": false,
      "inputs": [
        {
          "indexed": false,
          "internalType": "address",
          "name": "",
          "type": "address"
        }
      ],
      "name": "ConfigChanged",
      "type": "event"
    },
    {
      "anonymous": false,
      "inputs": [
        {
          "indexed": true,
          "internalType": "address",
          "name": "previousOwner",
          "type": "address"
        },
        {
          "indexed": true,
          "internalType": "address",
          "name": "newOwner",
          "type": "address"
        }
      ],
      "name": "OwnershipTransferred",
      "type": "event"
    },
    {
      "inputs": [
        {
          "internalType": "uint256",
          "name": "",
          "type": "uint256"
        }
      ],
      "name": "cfList",
      "outputs": [
        {
          "internalType": "address",
          "name": "",
          "type": "address"
        }
      ],
      "stateMutability": "view",
      "type": "function"
    },
    {
      "inputs": [
        {
          "internalType": "string",
          "name": "title",
          "type": "string"
        },
        {
          "internalType": "string[]",
          "name": "categories",
          "type": "string[]"
        },
        {
          "internalType": "uint256",
          "name": "target",
          "type": "uint256"
        },
        {
          "internalType": "uint256",
          "name": "deadline",
          "type": "uint256"
        }
      ],
      "name": "createCrowdfunding",
      "outputs": [
        {
          "internalType": "address",
          "name": "cfAddress",
          "type": "address"
        }
      ],
      "stateMutability": "nonpayable",
      "type": "function"
    },
    {
      "inputs": [
        {
          "internalType": "address",
          "name": "cfAddress",
          "type": "address"
        },
        {
          "internalType": "uint256",
          "name": "amount",
          "type": "uint256"
        }
      ],
      "name": "donate",
      "outputs": [
        {
          "internalType": "uint256",
          "name": "",
          "type": "uint256"
        }
      ],
      "stateMutability": "nonpayable",
      "type": "function"
    },
    {
      "inputs": [],
      "name": "getAllCrowdfundingAddress",
      "outputs": [
        {
          "internalType": "address[]",
          "name": "",
          "type": "address[]"
        }
      ],
      "stateMutability": "view",
      "type": "function"
    },
    {
      "inputs": [
        {
          "internalType": "address",
          "name": "cfAddress",
          "type": "address"
        }
      ],
      "name": "isCFExist",
      "outputs": [
        {
          "internalType": "bool",
          "name": "",
          "type": "bool"
        }
      ],
      "stateMutability": "view",
      "type": "function"
    },
    {
      "inputs": [],
      "name": "owner",
      "outputs": [
        {
          "internalType": "address",
          "name": "",
          "type": "address"
        }
      ],
      "stateMutability": "view",
      "type": "function"
    },
    {
      "inputs": [],
      "name": "renounceOwnership",
      "outputs": [],
      "stateMutability": "nonpayable",
      "type": "function"
    },
    {
      "inputs": [
        {
          "internalType": "address",
          "name": "cfgAddress",
          "type": "address"
        }
      ],
      "name": "setConfig",
      "outputs": [],
      "stateMutability": "nonpayable",
      "type": "function"
    },
    {
      "inputs": [
        {
          "internalType": "address",
          "name": "newOwner",
          "type": "address"
        }
      ],
      "name": "transferOwnership",
      "outputs": [],
      "stateMutability": "nonpayable",
      "type": "function"
    },
    {
      "inputs": [
        {
          "internalType": "address",
          "name": "to",
          "type": "address"
        },
        {
          "internalType": "address",
          "name": "cfAddress",
          "type": "address"
        },
        {
          "internalType": "uint256",
          "name": "amount",
          "type": "uint256"
        }
      ],
      "name": "withdraw",
      "outputs": [
        {
          "internalType": "uint256",
          "name": "",
          "type": "uint256"
        }
      ],
      "stateMutability": "nonpayable",
      "type": "function"
    }
  ],
  "bytecode": "0x608060405260036004553480156200001657600080fd5b506040516200590f3803806200590f83398181016040528101906200003c91906200023a565b33600073ffffffffffffffffffffffffffffffffffffffff168173ffffffffffffffffffffffffffffffffffffffff1603620000b25760006040517f1e4fbdf7000000000000000000000000000000000000000000000000000000008152600401620000a991906200027d565b60405180910390fd5b620000c3816200010c60201b60201c565b5080600160006101000a81548173ffffffffffffffffffffffffffffffffffffffff021916908373ffffffffffffffffffffffffffffffffffffffff160217905550506200029a565b60008060009054906101000a900473ffffffffffffffffffffffffffffffffffffffff169050816000806101000a81548173ffffffffffffffffffffffffffffffffffffffff021916908373ffffffffffffffffffffffffffffffffffffffff1602179055508173ffffffffffffffffffffffffffffffffffffffff168173ffffffffffffffffffffffffffffffffffffffff167f8be0079c531659141344cd1fd0a4f28419497f9722a3daafe3b4186f6b6457e060405160405180910390a35050565b600080fd5b600073ffffffffffffffffffffffffffffffffffffffff82169050919050565b60006200020282620001d5565b9050919050565b6200021481620001f5565b81146200022057600080fd5b50565b600081519050620002348162000209565b92915050565b600060208284031215620002535762000252620001d0565b5b6000620002638482850162000223565b91505092915050565b6200027781620001f5565b82525050565b60006020820190506200029460008301846200026c565b92915050565b61566580620002aa6000396000f3fe60806040523480156200001157600080fd5b5060043610620000ac5760003560e01c80638da5cb5b116200006f5780638da5cb5b146200016b578063ae32b377146200018d578063d9caed1214620001c3578063e69d849d14620001f9578063f2fde38b146200022f57620000ac565b806320e3dbd414620000b1578063597588f714620000d15780636e76bce71462000107578063715018a61462000129578063803050401462000135575b600080fd5b620000cf6004803603810190620000c99190620015ac565b6200024f565b005b620000ef6004803603810190620000e9919062001619565b620002d6565b604051620000fe91906200165c565b60405180910390f35b6200011162000316565b60405162000120919062001747565b60405180910390f35b62000133620003a6565b005b6200015360048036038101906200014d9190620019c9565b620003be565b6040516200016291906200165c565b60405180910390f35b6200017562000b8a565b6040516200018491906200165c565b60405180910390f35b620001ab6004803603810190620001a59190620015ac565b62000bb3565b604051620001ba919062001a96565b60405180910390f35b620001e16004803603810190620001db919062001ab3565b62000c09565b604051620001f0919062001b20565b60405180910390f35b62000217600480360381019062000211919062001b3d565b62000dd2565b60405162000226919062001b20565b60405180910390f35b6200024d6004803603810190620002479190620015ac565b62000f3c565b005b6200025962000fc9565b80600360006101000a81548173ffffffffffffffffffffffffffffffffffffffff021916908373ffffffffffffffffffffffffffffffffffffffff1602179055507fb29072de36006e078d9d2d9d5894ba820fadba97476bee71d31dc7ca3de7af5281604051620002cb91906200165c565b60405180910390a150565b60028181548110620002e757600080fd5b906000526020600020016000915054906101000a900473ffffffffffffffffffffffffffffffffffffffff1681565b606060028054806020026020016040519081016040528092919081815260200182805480156200039c57602002820191906000526020600020905b8160009054906101000a900473ffffffffffffffffffffffffffffffffffffffff1673ffffffffffffffffffffffffffffffffffffffff168152602001906001019080831162000351575b5050505050905090565b620003b062000fc9565b620003bc600062001059565b565b6000620003ed600360009054906101000a900473ffffffffffffffffffffffffffffffffffffffff166200111d565b600073ffffffffffffffffffffffffffffffffffffffff16600360009054906101000a900473ffffffffffffffffffffffffffffffffffffffff1673ffffffffffffffffffffffffffffffffffffffff160362000481576040517f08c379a0000000000000000000000000000000000000000000000000000000008152600401620004789062001c0b565b60405180910390fd5b428211620004c6576040517f08c379a0000000000000000000000000000000000000000000000000000000008152600401620004bd9062001ca3565b60405180910390fd5b6000600360009054906101000a900473ffffffffffffffffffffffffffffffffffffffff1673ffffffffffffffffffffffffffffffffffffffff1663ce3804186040518163ffffffff1660e01b8152600401602060405180830381865afa15801562000536573d6000803e3d6000fd5b505050506040513d601f19601f820116820180604052508101906200055c919062001cdc565b9050806200056a87620011ba565b1115620005ae576040517f08c379a0000000000000000000000000000000000000000000000000000000008152600401620005a59062001d84565b60405180910390fd5b620005ee6040518060400160405280600b81526020017f53414d50452053494e49490000000000000000000000000000000000000000008152506200138c565b600360009054906101000a900473ffffffffffffffffffffffffffffffffffffffff1673ffffffffffffffffffffffffffffffffffffffff166342235da66040518163ffffffff1660e01b8152600401602060405180830381865afa1580156200065c573d6000803e3d6000fd5b505050506040513d601f19601f8201168201806040525081019062000682919062001cdc565b841015620006c7576040517f08c379a0000000000000000000000000000000000000000000000000000000008152600401620006be9062001e1c565b60405180910390fd5b600360009054906101000a900473ffffffffffffffffffffffffffffffffffffffff1673ffffffffffffffffffffffffffffffffffffffff1663269714dd6040518163ffffffff1660e01b8152600401602060405180830381865afa15801562000735573d6000803e3d6000fd5b505050506040513d601f19601f820116820180604052508101906200075b919062001cdc565b841115620007a0576040517f08c379a0000000000000000000000000000000000000000000000000000000008152600401620007979062001eb4565b60405180910390fd5b600360009054906101000a900473ffffffffffffffffffffffffffffffffffffffff1673ffffffffffffffffffffffffffffffffffffffff166334f22133866040518263ffffffff1660e01b8152600401620007fd91906200202f565b602060405180830381865afa1580156200081b573d6000803e3d6000fd5b505050506040513d601f19601f8201168201806040525081019062000841919062002084565b62000883576040517f08c379a00000000000000000000000000000000000000000000000000000000081526004016200087a906200212c565b60405180910390fd5b600042846200089391906200217d565b9050620008a08162001429565b600360009054906101000a900473ffffffffffffffffffffffffffffffffffffffff1673ffffffffffffffffffffffffffffffffffffffff16637ef189dd6040518163ffffffff1660e01b8152600401602060405180830381865afa1580156200090e573d6000803e3d6000fd5b505050506040513d601f19601f8201168201806040525081019062000934919062001cdc565b81101562000979576040517f08c379a000000000000000000000000000000000000000000000000000000000815260040162000970906200222e565b60405180910390fd5b600360009054906101000a900473ffffffffffffffffffffffffffffffffffffffff1673ffffffffffffffffffffffffffffffffffffffff1663c495a75e6040518163ffffffff1660e01b8152600401602060405180830381865afa158015620009e7573d6000803e3d6000fd5b505050506040513d601f19601f8201168201806040525081019062000a0d919062001cdc565b81111562000a52576040517f08c379a000000000000000000000000000000000000000000000000000000000815260040162000a4990620022c6565b60405180910390fd5b600033905060008189898989600160009054906101000a900473ffffffffffffffffffffffffffffffffffffffff1660405162000a8f9062001519565b62000aa09695949392919062002329565b604051809103906000f08015801562000abd573d6000803e3d6000fd5b5090508094506002859080600181540180825580915050600190039060005260206000200160009091909190916101000a81548173ffffffffffffffffffffffffffffffffffffffff021916908373ffffffffffffffffffffffffffffffffffffffff1602179055506001600560008773ffffffffffffffffffffffffffffffffffffffff1673ffffffffffffffffffffffffffffffffffffffff16815260200190815260200160002060006101000a81548160ff02191690831515021790555050505050949350505050565b60008060009054906101000a900473ffffffffffffffffffffffffffffffffffffffff16905090565b6000600560008373ffffffffffffffffffffffffffffffffffffffff1673ffffffffffffffffffffffffffffffffffffffff16815260200190815260200160002060009054906101000a900460ff169050919050565b600082600560008273ffffffffffffffffffffffffffffffffffffffff1673ffffffffffffffffffffffffffffffffffffffff16815260200190815260200160002060009054906101000a900460ff1662000c9b576040517f08c379a000000000000000000000000000000000000000000000000000000000815260040162000c9290620023f4565b60405180910390fd5b60008490508073ffffffffffffffffffffffffffffffffffffffff166347535d7b6040518163ffffffff1660e01b8152600401602060405180830381865afa15801562000cec573d6000803e3d6000fd5b505050506040513d601f19601f8201168201806040525081019062000d12919062002084565b1562000d55576040517f08c379a000000000000000000000000000000000000000000000000000000000815260040162000d4c906200248c565b60405180910390fd5b8073ffffffffffffffffffffffffffffffffffffffff1663d9de130787866040518363ffffffff1660e01b815260040162000d92929190620024ae565b600060405180830381600087803b15801562000dad57600080fd5b505af115801562000dc2573d6000803e3d6000fd5b5050505083925050509392505050565b600082600560008273ffffffffffffffffffffffffffffffffffffffff1673ffffffffffffffffffffffffffffffffffffffff16815260200190815260200160002060009054906101000a900460ff1662000e64576040517f08c379a000000000000000000000000000000000000000000000000000000000815260040162000e5b90620023f4565b60405180910390fd5b6000339050600085905062000eae6040518060400160405280600c81526020017f53414d50452053494e49494900000000000000000000000000000000000000008152506200138c565b8073ffffffffffffffffffffffffffffffffffffffff166339ecacac83876040518363ffffffff1660e01b815260040162000eeb929190620024ae565b6020604051808303816000875af115801562000f0b573d6000803e3d6000fd5b505050506040513d601f19601f8201168201806040525081019062000f31919062001cdc565b935050505092915050565b62000f4662000fc9565b600073ffffffffffffffffffffffffffffffffffffffff168173ffffffffffffffffffffffffffffffffffffffff160362000fbb5760006040517f1e4fbdf700000000000000000000000000000000000000000000000000000000815260040162000fb291906200165c565b60405180910390fd5b62000fc68162001059565b50565b62000fd3620014c6565b73ffffffffffffffffffffffffffffffffffffffff1662000ff362000b8a565b73ffffffffffffffffffffffffffffffffffffffff1614620010575762001019620014c6565b6040517f118cdaa70000000000000000000000000000000000000000000000000000000081526004016200104e91906200165c565b60405180910390fd5b565b60008060009054906101000a900473ffffffffffffffffffffffffffffffffffffffff169050816000806101000a81548173ffffffffffffffffffffffffffffffffffffffff021916908373ffffffffffffffffffffffffffffffffffffffff1602179055508173ffffffffffffffffffffffffffffffffffffffff168173ffffffffffffffffffffffffffffffffffffffff167f8be0079c531659141344cd1fd0a4f28419497f9722a3daafe3b4186f6b6457e060405160405180910390a35050565b620011b7816040516024016200113491906200165c565b6040516020818303038152906040527f2c2ecbc2000000000000000000000000000000000000000000000000000000007bffffffffffffffffffffffffffffffffffffffffffffffffffffffff19166020820180517bffffffffffffffffffffffffffffffffffffffffffffffffffffffff8381831617835250505050620014ce565b50565b60008060008084519050600092505b8082101562001381576000858381518110620011ea57620011e9620024db565b5b602001015160f81c60f81b9050608060f81b817effffffffffffffffffffffffffffffffffffffffffffffffffffffffffffff191610156200123d576001836200123591906200250a565b92506200136a565b60e060f81b817effffffffffffffffffffffffffffffffffffffffffffffffffffffffffffff1916101562001283576002836200127b91906200250a565b925062001369565b60f060f81b817effffffffffffffffffffffffffffffffffffffffffffffffffffffffffffff19161015620012c957600383620012c191906200250a565b925062001368565b60f8801b817effffffffffffffffffffffffffffffffffffffffffffffffffffffffffffff191610156200130e576004836200130691906200250a565b925062001367565b60fc60f81b817effffffffffffffffffffffffffffffffffffffffffffffffffffffffffffff1916101562001354576005836200134c91906200250a565b925062001366565b6006836200136391906200250a565b92505b5b5b5b5b508280620013789062002545565b935050620011c9565b829350505050919050565b6200142681604051602401620013a3919062002592565b6040516020818303038152906040527f41304fac000000000000000000000000000000000000000000000000000000007bffffffffffffffffffffffffffffffffffffffffffffffffffffffff19166020820180517bffffffffffffffffffffffffffffffffffffffffffffffffffffffff8381831617835250505050620014ce565b50565b620014c38160405160240162001440919062001b20565b6040516020818303038152906040527ff82c50f1000000000000000000000000000000000000000000000000000000007bffffffffffffffffffffffffffffffffffffffffffffffffffffffff19166020820180517bffffffffffffffffffffffffffffffffffffffffffffffffffffffff8381831617835250505050620014ce565b50565b600033905090565b620014e981620014e1620014ec6200150d565b63ffffffff16565b50565b60006a636f6e736f6c652e6c6f679050600080835160208501845afa505050565b62001527819050919050565b61304a80620025e683390190565b62001531620025b6565b565b6000604051905090565b600080fd5b600080fd5b600073ffffffffffffffffffffffffffffffffffffffff82169050919050565b6000620015748262001547565b9050919050565b620015868162001567565b81146200159257600080fd5b50565b600081359050620015a6816200157b565b92915050565b600060208284031215620015c557620015c46200153d565b5b6000620015d58482850162001595565b91505092915050565b6000819050919050565b620015f381620015de565b8114620015ff57600080fd5b50565b6000813590506200161381620015e8565b92915050565b6000602082840312156200163257620016316200153d565b5b6000620016428482850162001602565b91505092915050565b620016568162001567565b82525050565b60006020820190506200167360008301846200164b565b92915050565b600081519050919050565b600082825260208201905092915050565b6000819050602082019050919050565b620016b08162001567565b82525050565b6000620016c48383620016a5565b60208301905092915050565b6000602082019050919050565b6000620016ea8262001679565b620016f6818562001684565b9350620017038362001695565b8060005b838110156200173a5781516200171e8882620016b6565b97506200172b83620016d0565b92505060018101905062001707565b5085935050505092915050565b60006020820190508181036000830152620017638184620016dd565b905092915050565b600080fd5b600080fd5b6000601f19601f8301169050919050565b7f4e487b7100000000000000000000000000000000000000000000000000000000600052604160045260246000fd5b620017c08262001775565b810181811067ffffffffffffffff82111715620017e257620017e162001786565b5b80604052505050565b6000620017f762001533565b9050620018058282620017b5565b919050565b600067ffffffffffffffff82111562001828576200182762001786565b5b620018338262001775565b9050602081019050919050565b82818337600083830152505050565b60006200186662001860846200180a565b620017eb565b90508281526020810184848401111562001885576200188462001770565b5b6200189284828562001840565b509392505050565b600082601f830112620018b257620018b16200176b565b5b8135620018c48482602086016200184f565b91505092915050565b600067ffffffffffffffff821115620018eb57620018ea62001786565b5b602082029050602081019050919050565b600080fd5b6000620019186200191284620018cd565b620017eb565b905080838252602082019050602084028301858111156200193e576200193d620018fc565b5b835b818110156200198c57803567ffffffffffffffff8111156200196757620019666200176b565b5b8086016200197689826200189a565b8552602085019450505060208101905062001940565b5050509392505050565b600082601f830112620019ae57620019ad6200176b565b5b8135620019c084826020860162001901565b91505092915050565b60008060008060808587031215620019e657620019e56200153d565b5b600085013567ffffffffffffffff81111562001a075762001a0662001542565b5b62001a15878288016200189a565b945050602085013567ffffffffffffffff81111562001a395762001a3862001542565b5b62001a478782880162001996565b935050604062001a5a8782880162001602565b925050606062001a6d8782880162001602565b91505092959194509250565b60008115159050919050565b62001a908162001a79565b82525050565b600060208201905062001aad600083018462001a85565b92915050565b60008060006060848603121562001acf5762001ace6200153d565b5b600062001adf8682870162001595565b935050602062001af28682870162001595565b925050604062001b058682870162001602565b9150509250925092565b62001b1a81620015de565b82525050565b600060208201905062001b37600083018462001b0f565b92915050565b6000806040838503121562001b575762001b566200153d565b5b600062001b678582860162001595565b925050602062001b7a8582860162001602565b9150509250929050565b600082825260208201905092915050565b7f4b42466163746f72792e63726561746543726f776466756e64696e673a20636f60008201527f6e666967206e6f74207365742079657400000000000000000000000000000000602082015250565b600062001bf360308362001b84565b915062001c008262001b95565b604082019050919050565b6000602082019050818103600083015262001c268162001be4565b9050919050565b7f4b42466163746f72792e63726561746543726f776466756e64696e673a20646560008201527f61646c696e65206d75737420626520696e206675747572650000000000000000602082015250565b600062001c8b60388362001b84565b915062001c988262001c2d565b604082019050919050565b6000602082019050818103600083015262001cbe8162001c7c565b9050919050565b60008151905062001cd681620015e8565b92915050565b60006020828403121562001cf55762001cf46200153d565b5b600062001d058482850162001cc5565b91505092915050565b7f4b42466163746f72792e63726561746543726f776466756e64696e673a20746960008201527f746c6520657863656564206d6178206c656e6774680000000000000000000000602082015250565b600062001d6c60358362001b84565b915062001d798262001d0e565b604082019050919050565b6000602082019050818103600083015262001d9f8162001d5d565b9050919050565b7f4b42466163746f72792e63726561746543726f776466756e64696e673a206e6f60008201527f74207265616368206d696e696d756d2074617267657400000000000000000000602082015250565b600062001e0460368362001b84565b915062001e118262001da6565b604082019050919050565b6000602082019050818103600083015262001e378162001df5565b9050919050565b7f4b42466163746f72792e63726561746543726f776466756e64696e673a20657860008201527f63656564206d6178696d756d2074617267657400000000000000000000000000602082015250565b600062001e9c60338362001b84565b915062001ea98262001e3e565b604082019050919050565b6000602082019050818103600083015262001ecf8162001e8d565b9050919050565b600081519050919050565b600082825260208201905092915050565b6000819050602082019050919050565b600081519050919050565b600082825260208201905092915050565b60005b8381101562001f3e57808201518184015260208101905062001f21565b60008484015250505050565b600062001f578262001f02565b62001f63818562001f0d565b935062001f7581856020860162001f1e565b62001f808162001775565b840191505092915050565b600062001f99838362001f4a565b905092915050565b6000602082019050919050565b600062001fbb8262001ed6565b62001fc7818562001ee1565b93508360208202850162001fdb8562001ef2565b8060005b858110156200201d578484038952815162001ffb858262001f8b565b9450620020088362001fa1565b925060208a0199505060018101905062001fdf565b50829750879550505050505092915050565b600060208201905081810360008301526200204b818462001fae565b905092915050565b6200205e8162001a79565b81146200206a57600080fd5b50565b6000815190506200207e8162002053565b92915050565b6000602082840312156200209d576200209c6200153d565b5b6000620020ad848285016200206d565b91505092915050565b7f4b42466163746f72792e63726561746543726f776466756e64696e673a20666f60008201527f7262696464656e2063617465676f727900000000000000000000000000000000602082015250565b60006200211460308362001b84565b91506200212182620020b6565b604082019050919050565b60006020820190508181036000830152620021478162002105565b9050919050565b7f4e487b7100000000000000000000000000000000000000000000000000000000600052601160045260246000fd5b60006200218a82620015de565b91506200219783620015de565b9250828203905081811115620021b257620021b16200214e565b5b92915050565b7f4b42466163746f72792e63726561746543726f776466756e64696e673a206e6f60008201527f74207265616368206d696e696d756d206c6966657370616e0000000000000000602082015250565b60006200221660388362001b84565b91506200222382620021b8565b604082019050919050565b60006020820190508181036000830152620022498162002207565b9050919050565b7f4b42466163746f72792e63726561746543726f776466756e64696e673a20657860008201527f63656564206d6178696d756d206c6966657370616e0000000000000000000000602082015250565b6000620022ae60358362001b84565b9150620022bb8262002250565b604082019050919050565b60006020820190508181036000830152620022e1816200229f565b9050919050565b6000620022f58262001f02565b62002301818562001b84565b93506200231381856020860162001f1e565b6200231e8162001775565b840191505092915050565b600060c0820190506200234060008301896200164b565b8181036020830152620023548188620022e8565b905081810360408301526200236a818762001fae565b90506200237b606083018662001b0f565b6200238a608083018562001b0f565b6200239960a08301846200164b565b979650505050505050565b7f4b42466163746f72792e63664d75737445786973740000000000000000000000600082015250565b6000620023dc60158362001b84565b9150620023e982620023a4565b602082019050919050565b600060208201905081810360008301526200240f81620023cd565b9050919050565b7f4b42466163746f72792e77697468647261773a2043726f776466756e64696e6760008201527f206973207374696c6c206f6e2073616c65000000000000000000000000000000602082015250565b60006200247460318362001b84565b9150620024818262002416565b604082019050919050565b60006020820190508181036000830152620024a78162002465565b9050919050565b6000604082019050620024c560008301856200164b565b620024d4602083018462001b0f565b9392505050565b7f4e487b7100000000000000000000000000000000000000000000000000000000600052603260045260246000fd5b60006200251782620015de565b91506200252483620015de565b92508282019050808211156200253f576200253e6200214e565b5b92915050565b60006200255282620015de565b91507fffffffffffffffffffffffffffffffffffffffffffffffffffffffffffffffff82036200258757620025866200214e565b5b600182019050919050565b60006020820190508181036000830152620025ae8184620022e8565b905092915050565b7f4e487b7100000000000000000000000000000000000000000000000000000000600052605160045260246000fdfe60806040523480156200001157600080fd5b506040516200304a3803806200304a8339818101604052810190620000379190620005ca565b4282116200007c576040517f08c379a000000000000000000000000000000000000000000000000000000000815260040162000073906200072b565b60405180910390fd5b85600660016101000a81548173ffffffffffffffffffffffffffffffffffffffff021916908373ffffffffffffffffffffffffffffffffffffffff16021790555033600860006101000a81548173ffffffffffffffffffffffffffffffffffffffff021916908373ffffffffffffffffffffffffffffffffffffffff16021790555084600090816200010f91906200098e565b50836001908051906020019062000128929190620001ae565b508260028190555060006003819055508160048190555080600760006101000a81548173ffffffffffffffffffffffffffffffffffffffff021916908373ffffffffffffffffffffffffffffffffffffffff160217905550426005819055506001600660006101000a81548160ff02191690831515021790555050505050505062000a75565b828054828255906000526020600020908101928215620001fb579160200282015b82811115620001fa578251829081620001e991906200098e565b5091602001919060010190620001cf565b5b5090506200020a91906200020e565b5090565b5b8082111562000232576000818162000228919062000236565b506001016200020f565b5090565b508054620002449062000787565b6000825580601f1062000258575062000279565b601f0160209004906000526020600020908101906200027891906200027c565b5b50565b5b80821115620002975760008160009055506001016200027d565b5090565b6000604051905090565b600080fd5b600080fd5b600073ffffffffffffffffffffffffffffffffffffffff82169050919050565b6000620002dc82620002af565b9050919050565b620002ee81620002cf565b8114620002fa57600080fd5b50565b6000815190506200030e81620002e3565b92915050565b600080fd5b600080fd5b6000601f19601f8301169050919050565b7f4e487b7100000000000000000000000000000000000000000000000000000000600052604160045260246000fd5b62000369826200031e565b810181811067ffffffffffffffff821117156200038b576200038a6200032f565b5b80604052505050565b6000620003a06200029b565b9050620003ae82826200035e565b919050565b600067ffffffffffffffff821115620003d157620003d06200032f565b5b620003dc826200031e565b9050602081019050919050565b60005b8381101562000409578082015181840152602081019050620003ec565b60008484015250505050565b60006200042c6200042684620003b3565b62000394565b9050828152602081018484840111156200044b576200044a62000319565b5b62000458848285620003e9565b509392505050565b600082601f83011262000478576200047762000314565b5b81516200048a84826020860162000415565b91505092915050565b600067ffffffffffffffff821115620004b157620004b06200032f565b5b602082029050602081019050919050565b600080fd5b6000620004de620004d88462000493565b62000394565b90508083825260208201905060208402830185811115620005045762000503620004c2565b5b835b818110156200055257805167ffffffffffffffff8111156200052d576200052c62000314565b5b8086016200053c898262000460565b8552602085019450505060208101905062000506565b5050509392505050565b600082601f83011262000574576200057362000314565b5b815162000586848260208601620004c7565b91505092915050565b6000819050919050565b620005a4816200058f565b8114620005b057600080fd5b50565b600081519050620005c48162000599565b92915050565b60008060008060008060c08789031215620005ea57620005e9620002a5565b5b6000620005fa89828a01620002fd565b965050602087015167ffffffffffffffff8111156200061e576200061d620002aa565b5b6200062c89828a0162000460565b955050604087015167ffffffffffffffff81111562000650576200064f620002aa565b5b6200065e89828a016200055c565b94505060606200067189828a01620005b3565b93505060806200068489828a01620005b3565b92505060a06200069789828a01620002fd565b9150509295509295509295565b600082825260208201905092915050565b7f43726f776466756e64696e673a20446561646c696e65206d757374206265206960008201527f6e20667574757265000000000000000000000000000000000000000000000000602082015250565b600062000713602883620006a4565b91506200072082620006b5565b604082019050919050565b60006020820190508181036000830152620007468162000704565b9050919050565b600081519050919050565b7f4e487b7100000000000000000000000000000000000000000000000000000000600052602260045260246000fd5b60006002820490506001821680620007a057607f821691505b602082108103620007b657620007b562000758565b5b50919050565b60008190508160005260206000209050919050565b60006020601f8301049050919050565b600082821b905092915050565b600060088302620008207fffffffffffffffffffffffffffffffffffffffffffffffffffffffffffffffff82620007e1565b6200082c8683620007e1565b95508019841693508086168417925050509392505050565b6000819050919050565b60006200086f6200086962000863846200058f565b62000844565b6200058f565b9050919050565b6000819050919050565b6200088b836200084e565b620008a36200089a8262000876565b848454620007ee565b825550505050565b600090565b620008ba620008ab565b620008c781848462000880565b505050565b5b81811015620008ef57620008e3600082620008b0565b600181019050620008cd565b5050565b601f8211156200093e576200090881620007bc565b6200091384620007d1565b8101602085101562000923578190505b6200093b6200093285620007d1565b830182620008cc565b50505b505050565b600082821c905092915050565b6000620009636000198460080262000943565b1980831691505092915050565b60006200097e838362000950565b9150826002028217905092915050565b62000999826200074d565b67ffffffffffffffff811115620009b557620009b46200032f565b5b620009c1825462000787565b620009ce828285620008f3565b600060209050601f83116001811462000a065760008415620009f1578287015190505b620009fd858262000970565b86555062000a6d565b601f19841662000a1686620007bc565b60005b8281101562000a405784890151825560018201915060208501945060208101905062000a19565b8683101562000a60578489015162000a5c601f89168262000950565b8355505b6001600288020188555050505b505050505050565b6125c58062000a856000396000f3fe608060405234801561001057600080fd5b50600436106101215760003560e01c8063966dae0e116100ad578063d4b8399211610071578063d4b8399214610326578063d9de130714610344578063dda0a81a14610360578063f00e6a2a1461037e578063f5a8492f1461039c57610121565b8063966dae0e1461027e5780639d76ea581461029c5780639fa6a6e3146102ba578063c6cdbe5e146102d8578063c74465651461030857610121565b806339ecacac116100f457806339ecacac146101c457806347535d7b146101f45780634a79d50c146102125780634db0412c1461023057806383e490191461024e57610121565b80631cee0700146101265780631ef480071461015857806329dcb0cf1461018a57806333b4e294146101a8575b600080fd5b610140600480360381019061013b9190611383565b6103ba565b60405161014f93929190611400565b60405180910390f35b610172600480360381019061016d9190611383565b610414565b60405161018193929190611400565b60405180910390f35b61019261046e565b60405161019f9190611437565b60405180910390f35b6101c260048036038101906101bd919061167e565b610474565b005b6101de60048036038101906101d99190611749565b6105c7565b6040516101eb9190611437565b60405180910390f35b6101fc6108db565b60405161020991906117a4565b60405180910390f35b61021a6108ee565b604051610227919061183e565b60405180910390f35b61023861097c565b604051610245919061196c565b60405180910390f35b61026860048036038101906102639190611383565b610a55565b6040516102759190611437565b60405180910390f35b610286610ab7565b604051610293919061198e565b60405180910390f35b6102a4610add565b6040516102b1919061198e565b60405180910390f35b6102c2610b03565b6040516102cf9190611437565b60405180910390f35b6102f260048036038101906102ed9190611383565b610b09565b6040516102ff919061183e565b60405180910390f35b610310610bb5565b60405161031d9190611437565b60405180910390f35b61032e610bbb565b60405161033b9190611437565b60405180910390f35b61035e60048036038101906103599190611749565b610bc1565b005b610368610d73565b6040516103759190611ab8565b60405180910390f35b610386610e3c565b6040516103939190611437565b60405180910390f35b6103a4610e46565b6040516103b1919061198e565b60405180910390f35b600981815481106103ca57600080fd5b90600052602060002090600302016000915090508060000160009054906101000a900473ffffffffffffffffffffffffffffffffffffffff16908060010154908060020154905083565b600a818154811061042457600080fd5b90600052602060002090600302016000915090508060000160009054906101000a900473ffffffffffffffffffffffffffffffffffffffff16908060010154908060020154905083565b60045481565b600660019054906101000a900473ffffffffffffffffffffffffffffffffffffffff1673ffffffffffffffffffffffffffffffffffffffff163373ffffffffffffffffffffffffffffffffffffffff1614610504576040517f08c379a00000000000000000000000000000000000000000000000000000000081526004016104fb90611b26565b60405180910390fd5b6003548211610548576040517f08c379a000000000000000000000000000000000000000000000000000000000815260040161053f90611bb8565b60405180910390fd5b600454811161058c576040517f08c379a000000000000000000000000000000000000000000000000000000000815260040161058390611c4a565b60405180910390fd5b836000908161059b9190611e76565b5082600190805190602001906105b292919061121e565b50816002819055508060048190555050505050565b6000600454421061060d576040517f08c379a000000000000000000000000000000000000000000000000000000000815260040161060490611fba565b60405180910390fd5b600860009054906101000a900473ffffffffffffffffffffffffffffffffffffffff1673ffffffffffffffffffffffffffffffffffffffff163373ffffffffffffffffffffffffffffffffffffffff161461069d576040517f08c379a000000000000000000000000000000000000000000000000000000000815260040161069490612026565b60405180910390fd5b600660009054906101000a900460ff166106ec576040517f08c379a00000000000000000000000000000000000000000000000000000000081526004016106e3906120b8565b60405180910390fd5b6000821161072f576040517f08c379a00000000000000000000000000000000000000000000000000000000081526004016107269061214a565b60405180910390fd5b60025460035410610775576040517f08c379a000000000000000000000000000000000000000000000000000000000815260040161076c906121dc565b60405180910390fd5b61077e82610a55565b905061078981610e6c565b806003600082825461079b919061222b565b925050819055506107aa611277565b83816000019073ffffffffffffffffffffffffffffffffffffffff16908173ffffffffffffffffffffffffffffffffffffffff16815250508181602001818152505042816040018181525050600981908060018154018082558091505060019003906000526020600020906003020160009091909190915060008201518160000160006101000a81548173ffffffffffffffffffffffffffffffffffffffff021916908373ffffffffffffffffffffffffffffffffffffffff160217905550602082015181600101556040820151816002015550506108ad600760009054906101000a900473ffffffffffffffffffffffffffffffffffffffff16853085610f05565b600254600354106108d4576000600660006101000a81548160ff0219169083151502179055505b5092915050565b600660009054906101000a900460ff1681565b600080546108fb90611c99565b80601f016020809104026020016040519081016040528092919081815260200182805461092790611c99565b80156109745780601f1061094957610100808354040283529160200191610974565b820191906000526020600020905b81548152906001019060200180831161095757829003601f168201915b505050505081565b60606001805480602002602001604051908101604052809291908181526020016000905b82821015610a4c5783829060005260206000200180546109bf90611c99565b80601f01602080910402602001604051908101604052809291908181526020018280546109eb90611c99565b8015610a385780601f10610a0d57610100808354040283529160200191610a38565b820191906000526020600020905b815481529060010190602001808311610a1b57829003601f168201915b5050505050815260200190600101906109a0565b50505050905090565b600060025460035410610a6b5760009050610ab2565b600454421115610a7e5760009050610ab2565b600082905060025481600354610a94919061222b565b1115610aad57600354600254610aaa919061225f565b90505b809150505b919050565b600860009054906101000a900473ffffffffffffffffffffffffffffffffffffffff1681565b600760009054906101000a900473ffffffffffffffffffffffffffffffffffffffff1681565b60035481565b60018181548110610b1957600080fd5b906000526020600020016000915090508054610b3490611c99565b80601f0160208091040260200160405190810160405280929190818152602001828054610b6090611c99565b8015610bad5780601f10610b8257610100808354040283529160200191610bad565b820191906000526020600020905b815481529060010190602001808311610b9057829003601f168201915b505050505081565b60055481565b60025481565b600860009054906101000a900473ffffffffffffffffffffffffffffffffffffffff1673ffffffffffffffffffffffffffffffffffffffff163373ffffffffffffffffffffffffffffffffffffffff1614610c51576040517f08c379a0000000000000000000000000000000000000000000000000000000008152600401610c4890612026565b60405180910390fd5b600660009054906101000a900460ff1615610ca1576040517f08c379a0000000000000000000000000000000000000000000000000000000008152600401610c9890612305565b60405180910390fd5b60008111610ce4576040517f08c379a0000000000000000000000000000000000000000000000000000000008152600401610cdb90612397565b60405180910390fd5b806003541015610d29576040517f08c379a0000000000000000000000000000000000000000000000000000000008152600401610d2090612429565b60405180910390fd5b8060036000828254610d3b919061225f565b92505081905550610d6f600760009054906101000a900473ffffffffffffffffffffffffffffffffffffffff168383611070565b5050565b60606009805480602002602001604051908101604052809291908181526020016000905b82821015610e3357838290600052602060002090600302016040518060600160405290816000820160009054906101000a900473ffffffffffffffffffffffffffffffffffffffff1673ffffffffffffffffffffffffffffffffffffffff1673ffffffffffffffffffffffffffffffffffffffff1681526020016001820154815260200160028201548152505081526020019060010190610d97565b50505050905090565b6000600254905090565b600660019054906101000a900473ffffffffffffffffffffffffffffffffffffffff1681565b610f0281604051602401610e809190611437565b6040516020818303038152906040527ff82c50f1000000000000000000000000000000000000000000000000000000007bffffffffffffffffffffffffffffffffffffffffffffffffffffffff19166020820180517bffffffffffffffffffffffffffffffffffffffffffffffffffffffff83818316178352505050506111d8565b50565b6000808573ffffffffffffffffffffffffffffffffffffffff16858585604051602401610f3493929190612449565b6040516020818303038152906040527f23b872dd000000000000000000000000000000000000000000000000000000007bffffffffffffffffffffffffffffffffffffffffffffffffffffffff19166020820180517bffffffffffffffffffffffffffffffffffffffffffffffffffffffff8381831617835250505050604051610fbe91906124c7565b6000604051808303816000865af19150503d8060008114610ffb576040519150601f19603f3d011682016040523d82523d6000602084013e611000565b606091505b50915091508115806110315750600081511415801561103057508080602001905181019061102e919061250a565b155b5b15611068576040517ffb7f507900000000000000000000000000000000000000000000000000000000815260040160405180910390fd5b505050505050565b6000808473ffffffffffffffffffffffffffffffffffffffff16848460405160240161109d929190612537565b6040516020818303038152906040527fa9059cbb000000000000000000000000000000000000000000000000000000007bffffffffffffffffffffffffffffffffffffffffffffffffffffffff19166020820180517bffffffffffffffffffffffffffffffffffffffffffffffffffffffff838183161783525050505060405161112791906124c7565b6000604051808303816000865af19150503d8060008114611164576040519150601f19603f3d011682016040523d82523d6000602084013e611169565b606091505b509150915081158061119a57506000815114158015611199575080806020019051810190611197919061250a565b155b5b156111d1576040517ffb7f507900000000000000000000000000000000000000000000000000000000815260040160405180910390fd5b5050505050565b6111ef816111e76111f2611213565b63ffffffff16565b50565b60006a636f6e736f6c652e6c6f679050600080835160208501845afa505050565b6112ae819050919050565b828054828255906000526020600020908101928215611266579160200282015b828111156112655782518290816112559190611e76565b509160200191906001019061123e565b5b50905061127391906112b8565b5090565b6040518060600160405280600073ffffffffffffffffffffffffffffffffffffffff16815260200160008152602001600081525090565b6112b6612560565b565b5b808211156112d857600081816112cf91906112dc565b506001016112b9565b5090565b5080546112e890611c99565b6000825580601f106112fa5750611319565b601f016020900490600052602060002090810190611318919061131c565b5b50565b5b8082111561133557600081600090555060010161131d565b5090565b6000604051905090565b600080fd5b600080fd5b6000819050919050565b6113608161134d565b811461136b57600080fd5b50565b60008135905061137d81611357565b92915050565b60006020828403121561139957611398611343565b5b60006113a78482850161136e565b91505092915050565b600073ffffffffffffffffffffffffffffffffffffffff82169050919050565b60006113db826113b0565b9050919050565b6113eb816113d0565b82525050565b6113fa8161134d565b82525050565b600060608201905061141560008301866113e2565b61142260208301856113f1565b61142f60408301846113f1565b949350505050565b600060208201905061144c60008301846113f1565b92915050565b600080fd5b600080fd5b6000601f19601f8301169050919050565b7f4e487b7100000000000000000000000000000000000000000000000000000000600052604160045260246000fd5b6114a58261145c565b810181811067ffffffffffffffff821117156114c4576114c361146d565b5b80604052505050565b60006114d7611339565b90506114e3828261149c565b919050565b600067ffffffffffffffff8211156115035761150261146d565b5b61150c8261145c565b9050602081019050919050565b82818337600083830152505050565b600061153b611536846114e8565b6114cd565b90508281526020810184848401111561155757611556611457565b5b611562848285611519565b509392505050565b600082601f83011261157f5761157e611452565b5b813561158f848260208601611528565b91505092915050565b600067ffffffffffffffff8211156115b3576115b261146d565b5b602082029050602081019050919050565b600080fd5b60006115dc6115d784611598565b6114cd565b905080838252602082019050602084028301858111156115ff576115fe6115c4565b5b835b8181101561164657803567ffffffffffffffff81111561162457611623611452565b5b808601611631898261156a565b85526020850194505050602081019050611601565b5050509392505050565b600082601f83011261166557611664611452565b5b81356116758482602086016115c9565b91505092915050565b6000806000806080858703121561169857611697611343565b5b600085013567ffffffffffffffff8111156116b6576116b5611348565b5b6116c28782880161156a565b945050602085013567ffffffffffffffff8111156116e3576116e2611348565b5b6116ef87828801611650565b93505060406117008782880161136e565b92505060606117118782880161136e565b91505092959194509250565b611726816113d0565b811461173157600080fd5b50565b6000813590506117438161171d565b92915050565b600080604083850312156117605761175f611343565b5b600061176e85828601611734565b925050602061177f8582860161136e565b9150509250929050565b60008115159050919050565b61179e81611789565b82525050565b60006020820190506117b96000830184611795565b92915050565b600081519050919050565b600082825260208201905092915050565b60005b838110156117f95780820151818401526020810190506117de565b60008484015250505050565b6000611810826117bf565b61181a81856117ca565b935061182a8185602086016117db565b6118338161145c565b840191505092915050565b600060208201905081810360008301526118588184611805565b905092915050565b600081519050919050565b600082825260208201905092915050565b6000819050602082019050919050565b600082825260208201905092915050565b60006118a8826117bf565b6118b2818561188c565b93506118c28185602086016117db565b6118cb8161145c565b840191505092915050565b60006118e2838361189d565b905092915050565b6000602082019050919050565b600061190282611860565b61190c818561186b565b93508360208202850161191e8561187c565b8060005b8581101561195a578484038952815161193b85826118d6565b9450611946836118ea565b925060208a01995050600181019050611922565b50829750879550505050505092915050565b6000602082019050818103600083015261198681846118f7565b905092915050565b60006020820190506119a360008301846113e2565b92915050565b600081519050919050565b600082825260208201905092915050565b6000819050602082019050919050565b6119de816113d0565b82525050565b6119ed8161134d565b82525050565b606082016000820151611a0960008501826119d5565b506020820151611a1c60208501826119e4565b506040820151611a2f60408501826119e4565b50505050565b6000611a4183836119f3565b60608301905092915050565b6000602082019050919050565b6000611a65826119a9565b611a6f81856119b4565b9350611a7a836119c5565b8060005b83811015611aab578151611a928882611a35565b9750611a9d83611a4d565b925050600181019050611a7e565b5085935050505092915050565b60006020820190508181036000830152611ad28184611a5a565b905092915050565b7f43726f776466756e64696e673a206f6e6c795374617274657200000000000000600082015250565b6000611b106019836117ca565b9150611b1b82611ada565b602082019050919050565b60006020820190508181036000830152611b3f81611b03565b9050919050565b7f43726f776466756e64696e673a2074617267657420697320746f6f20736d616c60008201527f6c00000000000000000000000000000000000000000000000000000000000000602082015250565b6000611ba26021836117ca565b9150611bad82611b46565b604082019050919050565b60006020820190508181036000830152611bd181611b95565b9050919050565b7f43726f776466756e64696e673a206e657720646561646c696e6520697320736860008201527f6f72746572207468616e206265666f7265000000000000000000000000000000602082015250565b6000611c346031836117ca565b9150611c3f82611bd8565b604082019050919050565b60006020820190508181036000830152611c6381611c27565b9050919050565b7f4e487b7100000000000000000000000000000000000000000000000000000000600052602260045260246000fd5b60006002820490506001821680611cb157607f821691505b602082108103611cc457611cc3611c6a565b5b50919050565b60008190508160005260206000209050919050565b60006020601f8301049050919050565b600082821b905092915050565b600060088302611d2c7fffffffffffffffffffffffffffffffffffffffffffffffffffffffffffffffff82611cef565b611d368683611cef565b95508019841693508086168417925050509392505050565b6000819050919050565b6000611d73611d6e611d698461134d565b611d4e565b61134d565b9050919050565b6000819050919050565b611d8d83611d58565b611da1611d9982611d7a565b848454611cfc565b825550505050565b600090565b611db6611da9565b611dc1818484611d84565b505050565b5b81811015611de557611dda600082611dae565b600181019050611dc7565b5050565b601f821115611e2a57611dfb81611cca565b611e0484611cdf565b81016020851015611e13578190505b611e27611e1f85611cdf565b830182611dc6565b50505b505050565b600082821c905092915050565b6000611e4d60001984600802611e2f565b1980831691505092915050565b6000611e668383611e3c565b9150826002028217905092915050565b611e7f826117bf565b67ffffffffffffffff811115611e9857611e9761146d565b5b611ea28254611c99565b611ead828285611de9565b600060209050601f831160018114611ee05760008415611ece578287015190505b611ed88582611e5a565b865550611f40565b601f198416611eee86611cca565b60005b82811015611f1657848901518255600182019150602085019450602081019050611ef1565b86831015611f335784890151611f2f601f891682611e3c565b8355505b6001600288020188555050505b505050505050565b7f43726f776466756e64696e673a20616c7265616479206578636565642064656160008201527f646c696e65000000000000000000000000000000000000000000000000000000602082015250565b6000611fa46025836117ca565b9150611faf82611f48565b604082019050919050565b60006020820190508181036000830152611fd381611f97565b9050919050565b7f43726f776466756e64696e673a206f6e6c79466163746f727900000000000000600082015250565b60006120106019836117ca565b915061201b82611fda565b602082019050919050565b6000602082019050818103600083015261203f81612003565b9050919050565b7f43726f776466756e64696e672e616464436f6e747269627574696f6e3a20437260008201527f6f776466756e64696e67206973206e6f7420666f722073616c65000000000000602082015250565b60006120a2603a836117ca565b91506120ad82612046565b604082019050919050565b600060208201905081810360008301526120d181612095565b9050919050565b7f43726f776466756e64696e672e616464436f6e747269627574696f6e3a20696e60008201527f76616c696420616d6f756e740000000000000000000000000000000000000000602082015250565b6000612134602c836117ca565b915061213f826120d8565b604082019050919050565b6000602082019050818103600083015261216381612127565b9050919050565b7f43726f776466756e64696e672e616464436f6e747269627574696f6e3a20637260008201527f6f776466756e64696e6720616c72656164792072656163682074617267657400602082015250565b60006121c6603f836117ca565b91506121d18261216a565b604082019050919050565b600060208201905081810360008301526121f5816121b9565b9050919050565b7f4e487b7100000000000000000000000000000000000000000000000000000000600052601160045260246000fd5b60006122368261134d565b91506122418361134d565b9250828201905080821115612259576122586121fc565b5b92915050565b600061226a8261134d565b91506122758361134d565b925082820390508181111561228d5761228c6121fc565b5b92915050565b7f43726f776466756e64696e672e72656d6f7665436f6e747269627574696f6e3a60008201527f2043726f776466756e64696e67206973207374696c6c20696e2073616c650000602082015250565b60006122ef603e836117ca565b91506122fa82612293565b604082019050919050565b6000602082019050818103600083015261231e816122e2565b9050919050565b7f43726f776466756e64696e672e72656d6f7665436f6e747269627574696f6e3a60008201527f20696e76616c696420616d6f756e740000000000000000000000000000000000602082015250565b6000612381602f836117ca565b915061238c82612325565b604082019050919050565b600060208201905081810360008301526123b081612374565b9050919050565b7f43726f776466756e64696e672e72656d6f7665436f6e747269627574696f6e3a60008201527f20696e73756666696369656e7420616d6f756e74000000000000000000000000602082015250565b60006124136034836117ca565b915061241e826123b7565b604082019050919050565b6000602082019050818103600083015261244281612406565b9050919050565b600060608201905061245e60008301866113e2565b61246b60208301856113e2565b61247860408301846113f1565b949350505050565b600081519050919050565b600081905092915050565b60006124a182612480565b6124ab818561248b565b93506124bb8185602086016117db565b80840191505092915050565b60006124d38284612496565b915081905092915050565b6124e781611789565b81146124f257600080fd5b50565b600081519050612504816124de565b92915050565b6000602082840312156125205761251f611343565b5b600061252e848285016124f5565b91505092915050565b600060408201905061254c60008301856113e2565b61255960208301846113f1565b9392505050565b7f4e487b7100000000000000000000000000000000000000000000000000000000600052605160045260246000fdfea2646970667358221220b58ae85d32af3119120df82dbc41b6951a462a5894ed5198858c57b486f116bc64736f6c63430008140033a2646970667358221220b96739f766ffae3439693f52415c10e865c195fdab827a1a57eb31466ce89cbf64736f6c63430008140033",
  "linkReferences": {},
  "deployedLinkReferences": {}
}