{
  "_format": "hh-sol-artifact-1",
  "contractName": "KBFactory",
  "sourceName": "contracts/KBFactory.sol",
  "abi": [
    {
      "inputs": [
        {
          "internalType": "address",
          "name": "_tokenAddress",
          "type": "address"
        }
      ],
      "stateMutability": "nonpayable",
      "type": "constructor"
    },
    {
      "inputs": [
        {
          "internalType": "address",
          "name": "owner",
          "type": "address"
        }
      ],
      "name": "OwnableInvalidOwner",
      "type": "error"
    },
    {
      "inputs": [
        {
          "internalType": "address",
          "name": "account",
          "type": "address"
        }
      ],
      "name": "OwnableUnauthorizedAccount",
      "type": "error"
    },
    {
      "inputs": [],
      "name": "SafeTransferFailed",
      "type": "error"
    },
    {
      "anonymous": false,
      "inputs": [
        {
          "indexed": true,
          "internalType": "address",
          "name": "previousOwner",
          "type": "address"
        },
        {
          "indexed": true,
          "internalType": "address",
          "name": "newOwner",
          "type": "address"
        }
      ],
      "name": "OwnershipTransferred",
      "type": "event"
    },
    {
      "inputs": [
        {
          "internalType": "uint256",
          "name": "",
          "type": "uint256"
        }
      ],
      "name": "cfList",
      "outputs": [
        {
          "internalType": "address",
          "name": "",
          "type": "address"
        }
      ],
      "stateMutability": "view",
      "type": "function"
    },
    {
      "inputs": [
        {
          "internalType": "string",
          "name": "title",
          "type": "string"
        },
        {
          "internalType": "string[]",
          "name": "categories",
          "type": "string[]"
        },
        {
          "internalType": "uint256",
          "name": "target",
          "type": "uint256"
        },
        {
          "internalType": "uint256",
          "name": "deadline",
          "type": "uint256"
        }
      ],
      "name": "createCrowdfunding",
      "outputs": [
        {
          "internalType": "address",
          "name": "cfAddress",
          "type": "address"
        }
      ],
      "stateMutability": "nonpayable",
      "type": "function"
    },
    {
      "inputs": [
        {
          "internalType": "address",
          "name": "cfAddress",
          "type": "address"
        },
        {
          "internalType": "uint256",
          "name": "amount",
          "type": "uint256"
        }
      ],
      "name": "donate",
      "outputs": [
        {
          "internalType": "uint256",
          "name": "",
          "type": "uint256"
        }
      ],
      "stateMutability": "nonpayable",
      "type": "function"
    },
    {
      "inputs": [],
      "name": "getAllCrowdfundingAddress",
      "outputs": [
        {
          "internalType": "address[]",
          "name": "",
          "type": "address[]"
        }
      ],
      "stateMutability": "view",
      "type": "function"
    },
    {
      "inputs": [
        {
          "internalType": "address",
          "name": "cfAddress",
          "type": "address"
        }
      ],
      "name": "isCFExist",
      "outputs": [
        {
          "internalType": "bool",
          "name": "",
          "type": "bool"
        }
      ],
      "stateMutability": "view",
      "type": "function"
    },
    {
      "inputs": [],
      "name": "owner",
      "outputs": [
        {
          "internalType": "address",
          "name": "",
          "type": "address"
        }
      ],
      "stateMutability": "view",
      "type": "function"
    },
    {
      "inputs": [],
      "name": "renounceOwnership",
      "outputs": [],
      "stateMutability": "nonpayable",
      "type": "function"
    },
    {
      "inputs": [
        {
          "internalType": "address",
          "name": "cfgAddress",
          "type": "address"
        }
      ],
      "name": "setConfig",
      "outputs": [],
      "stateMutability": "nonpayable",
      "type": "function"
    },
    {
      "inputs": [
        {
          "internalType": "address",
          "name": "newOwner",
          "type": "address"
        }
      ],
      "name": "transferOwnership",
      "outputs": [],
      "stateMutability": "nonpayable",
      "type": "function"
    },
    {
      "inputs": [
        {
          "internalType": "address",
          "name": "to",
          "type": "address"
        },
        {
          "internalType": "address",
          "name": "cfAddress",
          "type": "address"
        },
        {
          "internalType": "uint256",
          "name": "amount",
          "type": "uint256"
        }
      ],
      "name": "withdraw",
      "outputs": [
        {
          "internalType": "uint256",
          "name": "",
          "type": "uint256"
        }
      ],
      "stateMutability": "nonpayable",
      "type": "function"
    }
  ],
  "bytecode": "0x608060405260036004553480156200001657600080fd5b50604051620048243803806200482483398181016040528101906200003c91906200023a565b33600073ffffffffffffffffffffffffffffffffffffffff168173ffffffffffffffffffffffffffffffffffffffff1603620000b25760006040517f1e4fbdf7000000000000000000000000000000000000000000000000000000008152600401620000a991906200027d565b60405180910390fd5b620000c3816200010c60201b60201c565b5080600160006101000a81548173ffffffffffffffffffffffffffffffffffffffff021916908373ffffffffffffffffffffffffffffffffffffffff160217905550506200029a565b60008060009054906101000a900473ffffffffffffffffffffffffffffffffffffffff169050816000806101000a81548173ffffffffffffffffffffffffffffffffffffffff021916908373ffffffffffffffffffffffffffffffffffffffff1602179055508173ffffffffffffffffffffffffffffffffffffffff168173ffffffffffffffffffffffffffffffffffffffff167f8be0079c531659141344cd1fd0a4f28419497f9722a3daafe3b4186f6b6457e060405160405180910390a35050565b600080fd5b600073ffffffffffffffffffffffffffffffffffffffff82169050919050565b60006200020282620001d5565b9050919050565b6200021481620001f5565b81146200022057600080fd5b50565b600081519050620002348162000209565b92915050565b600060208284031215620002535762000252620001d0565b5b6000620002638482850162000223565b91505092915050565b6200027781620001f5565b82525050565b60006020820190506200029460008301846200026c565b92915050565b61457a80620002aa6000396000f3fe60806040523480156200001157600080fd5b5060043610620000ac5760003560e01c80638da5cb5b116200006f5780638da5cb5b146200016b578063ae32b377146200018d578063d9caed1214620001c3578063e69d849d14620001f9578063f2fde38b146200022f57620000ac565b806320e3dbd414620000b1578063597588f714620000d15780636e76bce71462000107578063715018a61462000129578063803050401462000135575b600080fd5b620000cf6004803603810190620000c991906200130e565b6200024f565b005b620000ef6004803603810190620000e991906200137b565b6200029d565b604051620000fe9190620013be565b60405180910390f35b62000111620002dd565b604051620001209190620014a9565b60405180910390f35b620001336200036d565b005b6200015360048036038101906200014d91906200172b565b62000385565b604051620001629190620013be565b60405180910390f35b6200017562000a66565b604051620001849190620013be565b60405180910390f35b620001ab6004803603810190620001a591906200130e565b62000a8f565b604051620001ba9190620017f8565b60405180910390f35b620001e16004803603810190620001db919062001815565b62000ae5565b604051620001f0919062001882565b60405180910390f35b6200021760048036038101906200021191906200189f565b62000cae565b60405162000226919062001882565b60405180910390f35b6200024d60048036038101906200024791906200130e565b62000dd8565b005b6200025962000e65565b80600360006101000a81548173ffffffffffffffffffffffffffffffffffffffff021916908373ffffffffffffffffffffffffffffffffffffffff16021790555050565b60028181548110620002ae57600080fd5b906000526020600020016000915054906101000a900473ffffffffffffffffffffffffffffffffffffffff1681565b606060028054806020026020016040519081016040528092919081815260200182805480156200036357602002820191906000526020600020905b8160009054906101000a900473ffffffffffffffffffffffffffffffffffffffff1673ffffffffffffffffffffffffffffffffffffffff168152602001906001019080831162000318575b5050505050905090565b6200037762000e65565b62000383600062000ef5565b565b6000428211620003cc576040517f08c379a0000000000000000000000000000000000000000000000000000000008152600401620003c3906200196d565b60405180910390fd5b6000600360009054906101000a900473ffffffffffffffffffffffffffffffffffffffff1673ffffffffffffffffffffffffffffffffffffffff1663ce3804186040518163ffffffff1660e01b8152600401602060405180830381865afa1580156200043c573d6000803e3d6000fd5b505050506040513d601f19601f82011682018060405250810190620004629190620019a6565b905080620004708762000fb9565b1115620004b4576040517f08c379a0000000000000000000000000000000000000000000000000000000008152600401620004ab9062001a4e565b60405180910390fd5b600360009054906101000a900473ffffffffffffffffffffffffffffffffffffffff1673ffffffffffffffffffffffffffffffffffffffff166342235da66040518163ffffffff1660e01b8152600401602060405180830381865afa15801562000522573d6000803e3d6000fd5b505050506040513d601f19601f82011682018060405250810190620005489190620019a6565b8410156200058d576040517f08c379a0000000000000000000000000000000000000000000000000000000008152600401620005849062001ae6565b60405180910390fd5b600360009054906101000a900473ffffffffffffffffffffffffffffffffffffffff1673ffffffffffffffffffffffffffffffffffffffff1663269714dd6040518163ffffffff1660e01b8152600401602060405180830381865afa158015620005fb573d6000803e3d6000fd5b505050506040513d601f19601f82011682018060405250810190620006219190620019a6565b84111562000666576040517f08c379a00000000000000000000000000000000000000000000000000000000081526004016200065d9062001b7e565b60405180910390fd5b600360009054906101000a900473ffffffffffffffffffffffffffffffffffffffff1673ffffffffffffffffffffffffffffffffffffffff166334f22133866040518263ffffffff1660e01b8152600401620006c3919062001cf9565b602060405180830381865afa158015620006e1573d6000803e3d6000fd5b505050506040513d601f19601f8201168201806040525081019062000707919062001d4e565b62000749576040517f08c379a0000000000000000000000000000000000000000000000000000000008152600401620007409062001df6565b60405180910390fd5b62000754836200118b565b6200075f426200118b565b600042846200076f919062001e47565b90506200077c816200118b565b600360009054906101000a900473ffffffffffffffffffffffffffffffffffffffff1673ffffffffffffffffffffffffffffffffffffffff16637ef189dd6040518163ffffffff1660e01b8152600401602060405180830381865afa158015620007ea573d6000803e3d6000fd5b505050506040513d601f19601f82011682018060405250810190620008109190620019a6565b81101562000855576040517f08c379a00000000000000000000000000000000000000000000000000000000081526004016200084c9062001ef8565b60405180910390fd5b600360009054906101000a900473ffffffffffffffffffffffffffffffffffffffff1673ffffffffffffffffffffffffffffffffffffffff1663c495a75e6040518163ffffffff1660e01b8152600401602060405180830381865afa158015620008c3573d6000803e3d6000fd5b505050506040513d601f19601f82011682018060405250810190620008e99190620019a6565b8111156200092e576040517f08c379a0000000000000000000000000000000000000000000000000000000008152600401620009259062001f90565b60405180910390fd5b600033905060008189898989600160009054906101000a900473ffffffffffffffffffffffffffffffffffffffff166040516200096b906200127b565b6200097c9695949392919062001ff3565b604051809103906000f08015801562000999573d6000803e3d6000fd5b5090508094506002859080600181540180825580915050600190039060005260206000200160009091909190916101000a81548173ffffffffffffffffffffffffffffffffffffffff021916908373ffffffffffffffffffffffffffffffffffffffff1602179055506001600560008773ffffffffffffffffffffffffffffffffffffffff1673ffffffffffffffffffffffffffffffffffffffff16815260200190815260200160002060006101000a81548160ff02191690831515021790555050505050949350505050565b60008060009054906101000a900473ffffffffffffffffffffffffffffffffffffffff16905090565b6000600560008373ffffffffffffffffffffffffffffffffffffffff1673ffffffffffffffffffffffffffffffffffffffff16815260200190815260200160002060009054906101000a900460ff169050919050565b600082600560008273ffffffffffffffffffffffffffffffffffffffff1673ffffffffffffffffffffffffffffffffffffffff16815260200190815260200160002060009054906101000a900460ff1662000b77576040517f08c379a000000000000000000000000000000000000000000000000000000000815260040162000b6e90620020be565b60405180910390fd5b60008490508073ffffffffffffffffffffffffffffffffffffffff166347535d7b6040518163ffffffff1660e01b8152600401602060405180830381865afa15801562000bc8573d6000803e3d6000fd5b505050506040513d601f19601f8201168201806040525081019062000bee919062001d4e565b1562000c31576040517f08c379a000000000000000000000000000000000000000000000000000000000815260040162000c289062002156565b60405180910390fd5b8073ffffffffffffffffffffffffffffffffffffffff1663d9de130787866040518363ffffffff1660e01b815260040162000c6e92919062002178565b600060405180830381600087803b15801562000c8957600080fd5b505af115801562000c9e573d6000803e3d6000fd5b5050505083925050509392505050565b600082600560008273ffffffffffffffffffffffffffffffffffffffff1673ffffffffffffffffffffffffffffffffffffffff16815260200190815260200160002060009054906101000a900460ff1662000d40576040517f08c379a000000000000000000000000000000000000000000000000000000000815260040162000d3790620020be565b60405180910390fd5b600033905060008590508073ffffffffffffffffffffffffffffffffffffffff166339ecacac83876040518363ffffffff1660e01b815260040162000d8792919062002178565b6020604051808303816000875af115801562000da7573d6000803e3d6000fd5b505050506040513d601f19601f8201168201806040525081019062000dcd9190620019a6565b935050505092915050565b62000de262000e65565b600073ffffffffffffffffffffffffffffffffffffffff168173ffffffffffffffffffffffffffffffffffffffff160362000e575760006040517f1e4fbdf700000000000000000000000000000000000000000000000000000000815260040162000e4e9190620013be565b60405180910390fd5b62000e628162000ef5565b50565b62000e6f62001228565b73ffffffffffffffffffffffffffffffffffffffff1662000e8f62000a66565b73ffffffffffffffffffffffffffffffffffffffff161462000ef35762000eb562001228565b6040517f118cdaa700000000000000000000000000000000000000000000000000000000815260040162000eea9190620013be565b60405180910390fd5b565b60008060009054906101000a900473ffffffffffffffffffffffffffffffffffffffff169050816000806101000a81548173ffffffffffffffffffffffffffffffffffffffff021916908373ffffffffffffffffffffffffffffffffffffffff1602179055508173ffffffffffffffffffffffffffffffffffffffff168173ffffffffffffffffffffffffffffffffffffffff167f8be0079c531659141344cd1fd0a4f28419497f9722a3daafe3b4186f6b6457e060405160405180910390a35050565b60008060008084519050600092505b808210156200118057600085838151811062000fe95762000fe8620021a5565b5b602001015160f81c60f81b9050608060f81b817effffffffffffffffffffffffffffffffffffffffffffffffffffffffffffff191610156200103c57600183620010349190620021d4565b925062001169565b60e060f81b817effffffffffffffffffffffffffffffffffffffffffffffffffffffffffffff1916101562001082576002836200107a9190620021d4565b925062001168565b60f060f81b817effffffffffffffffffffffffffffffffffffffffffffffffffffffffffffff19161015620010c857600383620010c09190620021d4565b925062001167565b60f8801b817effffffffffffffffffffffffffffffffffffffffffffffffffffffffffffff191610156200110d57600483620011059190620021d4565b925062001166565b60fc60f81b817effffffffffffffffffffffffffffffffffffffffffffffffffffffffffffff1916101562001153576005836200114b9190620021d4565b925062001165565b600683620011629190620021d4565b92505b5b5b5b5b50828062001177906200220f565b93505062000fc8565b829350505050919050565b6200122581604051602401620011a2919062001882565b6040516020818303038152906040527ff82c50f1000000000000000000000000000000000000000000000000000000007bffffffffffffffffffffffffffffffffffffffffffffffffffffffff19166020820180517bffffffffffffffffffffffffffffffffffffffffffffffffffffffff838183161783525050505062001230565b50565b600033905090565b6200124b81620012436200124e6200126f565b63ffffffff16565b50565b60006a636f6e736f6c652e6c6f679050600080835160208501845afa505050565b62001289819050919050565b6122b9806200228c83390190565b620012936200225c565b565b6000604051905090565b600080fd5b600080fd5b600073ffffffffffffffffffffffffffffffffffffffff82169050919050565b6000620012d682620012a9565b9050919050565b620012e881620012c9565b8114620012f457600080fd5b50565b6000813590506200130881620012dd565b92915050565b6000602082840312156200132757620013266200129f565b5b60006200133784828501620012f7565b91505092915050565b6000819050919050565b620013558162001340565b81146200136157600080fd5b50565b60008135905062001375816200134a565b92915050565b6000602082840312156200139457620013936200129f565b5b6000620013a48482850162001364565b91505092915050565b620013b881620012c9565b82525050565b6000602082019050620013d56000830184620013ad565b92915050565b600081519050919050565b600082825260208201905092915050565b6000819050602082019050919050565b6200141281620012c9565b82525050565b600062001426838362001407565b60208301905092915050565b6000602082019050919050565b60006200144c82620013db565b620014588185620013e6565b93506200146583620013f7565b8060005b838110156200149c57815162001480888262001418565b97506200148d8362001432565b92505060018101905062001469565b5085935050505092915050565b60006020820190508181036000830152620014c581846200143f565b905092915050565b600080fd5b600080fd5b6000601f19601f8301169050919050565b7f4e487b7100000000000000000000000000000000000000000000000000000000600052604160045260246000fd5b6200152282620014d7565b810181811067ffffffffffffffff82111715620015445762001543620014e8565b5b80604052505050565b60006200155962001295565b905062001567828262001517565b919050565b600067ffffffffffffffff8211156200158a5762001589620014e8565b5b6200159582620014d7565b9050602081019050919050565b82818337600083830152505050565b6000620015c8620015c2846200156c565b6200154d565b905082815260208101848484011115620015e757620015e6620014d2565b5b620015f4848285620015a2565b509392505050565b600082601f830112620016145762001613620014cd565b5b813562001626848260208601620015b1565b91505092915050565b600067ffffffffffffffff8211156200164d576200164c620014e8565b5b602082029050602081019050919050565b600080fd5b60006200167a62001674846200162f565b6200154d565b90508083825260208201905060208402830185811115620016a0576200169f6200165e565b5b835b81811015620016ee57803567ffffffffffffffff811115620016c957620016c8620014cd565b5b808601620016d88982620015fc565b85526020850194505050602081019050620016a2565b5050509392505050565b600082601f83011262001710576200170f620014cd565b5b81356200172284826020860162001663565b91505092915050565b600080600080608085870312156200174857620017476200129f565b5b600085013567ffffffffffffffff811115620017695762001768620012a4565b5b6200177787828801620015fc565b945050602085013567ffffffffffffffff8111156200179b576200179a620012a4565b5b620017a987828801620016f8565b9350506040620017bc8782880162001364565b9250506060620017cf8782880162001364565b91505092959194509250565b60008115159050919050565b620017f281620017db565b82525050565b60006020820190506200180f6000830184620017e7565b92915050565b6000806000606084860312156200183157620018306200129f565b5b60006200184186828701620012f7565b93505060206200185486828701620012f7565b9250506040620018678682870162001364565b9150509250925092565b6200187c8162001340565b82525050565b600060208201905062001899600083018462001871565b92915050565b60008060408385031215620018b957620018b86200129f565b5b6000620018c985828601620012f7565b9250506020620018dc8582860162001364565b9150509250929050565b600082825260208201905092915050565b7f4b42466163746f72792e63726561746543726f776466756e64696e673a20646560008201527f61646c696e65206d75737420626520696e206675747572650000000000000000602082015250565b600062001955603883620018e6565b91506200196282620018f7565b604082019050919050565b60006020820190508181036000830152620019888162001946565b9050919050565b600081519050620019a0816200134a565b92915050565b600060208284031215620019bf57620019be6200129f565b5b6000620019cf848285016200198f565b91505092915050565b7f4b42466163746f72792e63726561746543726f776466756e64696e673a20746960008201527f746c6520657863656564206d6178206c656e6774680000000000000000000000602082015250565b600062001a36603583620018e6565b915062001a4382620019d8565b604082019050919050565b6000602082019050818103600083015262001a698162001a27565b9050919050565b7f4b42466163746f72792e63726561746543726f776466756e64696e673a206e6f60008201527f74207265616368206d696e696d756d2074617267657400000000000000000000602082015250565b600062001ace603683620018e6565b915062001adb8262001a70565b604082019050919050565b6000602082019050818103600083015262001b018162001abf565b9050919050565b7f4b42466163746f72792e63726561746543726f776466756e64696e673a20657860008201527f63656564206d6178696d756d2074617267657400000000000000000000000000602082015250565b600062001b66603383620018e6565b915062001b738262001b08565b604082019050919050565b6000602082019050818103600083015262001b998162001b57565b9050919050565b600081519050919050565b600082825260208201905092915050565b6000819050602082019050919050565b600081519050919050565b600082825260208201905092915050565b60005b8381101562001c0857808201518184015260208101905062001beb565b60008484015250505050565b600062001c218262001bcc565b62001c2d818562001bd7565b935062001c3f81856020860162001be8565b62001c4a81620014d7565b840191505092915050565b600062001c63838362001c14565b905092915050565b6000602082019050919050565b600062001c858262001ba0565b62001c91818562001bab565b93508360208202850162001ca58562001bbc565b8060005b8581101562001ce7578484038952815162001cc5858262001c55565b945062001cd28362001c6b565b925060208a0199505060018101905062001ca9565b50829750879550505050505092915050565b6000602082019050818103600083015262001d15818462001c78565b905092915050565b62001d2881620017db565b811462001d3457600080fd5b50565b60008151905062001d488162001d1d565b92915050565b60006020828403121562001d675762001d666200129f565b5b600062001d778482850162001d37565b91505092915050565b7f4b42466163746f72792e63726561746543726f776466756e64696e673a20666f60008201527f7262696464656e2063617465676f727900000000000000000000000000000000602082015250565b600062001dde603083620018e6565b915062001deb8262001d80565b604082019050919050565b6000602082019050818103600083015262001e118162001dcf565b9050919050565b7f4e487b7100000000000000000000000000000000000000000000000000000000600052601160045260246000fd5b600062001e548262001340565b915062001e618362001340565b925082820390508181111562001e7c5762001e7b62001e18565b5b92915050565b7f4b42466163746f72792e63726561746543726f776466756e64696e673a206e6f60008201527f74207265616368206d696e696d756d206c6966657370616e0000000000000000602082015250565b600062001ee0603883620018e6565b915062001eed8262001e82565b604082019050919050565b6000602082019050818103600083015262001f138162001ed1565b9050919050565b7f4b42466163746f72792e63726561746543726f776466756e64696e673a20657860008201527f63656564206d6178696d756d206c6966657370616e0000000000000000000000602082015250565b600062001f78603583620018e6565b915062001f858262001f1a565b604082019050919050565b6000602082019050818103600083015262001fab8162001f69565b9050919050565b600062001fbf8262001bcc565b62001fcb8185620018e6565b935062001fdd81856020860162001be8565b62001fe881620014d7565b840191505092915050565b600060c0820190506200200a6000830189620013ad565b81810360208301526200201e818862001fb2565b9050818103604083015262002034818762001c78565b905062002045606083018662001871565b62002054608083018562001871565b6200206360a0830184620013ad565b979650505050505050565b7f4b42466163746f72792e63664d75737445786973740000000000000000000000600082015250565b6000620020a6601583620018e6565b9150620020b3826200206e565b602082019050919050565b60006020820190508181036000830152620020d98162002097565b9050919050565b7f4b42466163746f72792e77697468647261773a2043726f776466756e64696e6760008201527f206973207374696c6c206f6e2073616c65000000000000000000000000000000602082015250565b60006200213e603183620018e6565b91506200214b82620020e0565b604082019050919050565b6000602082019050818103600083015262002171816200212f565b9050919050565b60006040820190506200218f6000830185620013ad565b6200219e602083018462001871565b9392505050565b7f4e487b7100000000000000000000000000000000000000000000000000000000600052603260045260246000fd5b6000620021e18262001340565b9150620021ee8362001340565b925082820190508082111562002209576200220862001e18565b5b92915050565b60006200221c8262001340565b91507fffffffffffffffffffffffffffffffffffffffffffffffffffffffffffffffff820362002251576200225062001e18565b5b600182019050919050565b7f4e487b7100000000000000000000000000000000000000000000000000000000600052605160045260246000fdfe60806040523480156200001157600080fd5b50604051620022b9380380620022b98339818101604052810190620000379190620005c3565b4282116200007c576040517f08c379a0000000000000000000000000000000000000000000000000000000008152600401620000739062000724565b60405180910390fd5b85600560016101000a81548173ffffffffffffffffffffffffffffffffffffffff021916908373ffffffffffffffffffffffffffffffffffffffff16021790555033600760006101000a81548173ffffffffffffffffffffffffffffffffffffffff021916908373ffffffffffffffffffffffffffffffffffffffff16021790555084600090816200010f919062000987565b50836001908051906020019062000128929190620001a7565b508260028190555060006003819055508160048190555080600660006101000a81548173ffffffffffffffffffffffffffffffffffffffff021916908373ffffffffffffffffffffffffffffffffffffffff1602179055506001600560006101000a81548160ff02191690831515021790555050505050505062000a6e565b828054828255906000526020600020908101928215620001f4579160200282015b82811115620001f3578251829081620001e2919062000987565b5091602001919060010190620001c8565b5b50905062000203919062000207565b5090565b5b808211156200022b57600081816200022191906200022f565b5060010162000208565b5090565b5080546200023d9062000780565b6000825580601f1062000251575062000272565b601f01602090049060005260206000209081019062000271919062000275565b5b50565b5b808211156200029057600081600090555060010162000276565b5090565b6000604051905090565b600080fd5b600080fd5b600073ffffffffffffffffffffffffffffffffffffffff82169050919050565b6000620002d582620002a8565b9050919050565b620002e781620002c8565b8114620002f357600080fd5b50565b6000815190506200030781620002dc565b92915050565b600080fd5b600080fd5b6000601f19601f8301169050919050565b7f4e487b7100000000000000000000000000000000000000000000000000000000600052604160045260246000fd5b620003628262000317565b810181811067ffffffffffffffff8211171562000384576200038362000328565b5b80604052505050565b60006200039962000294565b9050620003a7828262000357565b919050565b600067ffffffffffffffff821115620003ca57620003c962000328565b5b620003d58262000317565b9050602081019050919050565b60005b8381101562000402578082015181840152602081019050620003e5565b60008484015250505050565b6000620004256200041f84620003ac565b6200038d565b90508281526020810184848401111562000444576200044362000312565b5b62000451848285620003e2565b509392505050565b600082601f8301126200047157620004706200030d565b5b8151620004838482602086016200040e565b91505092915050565b600067ffffffffffffffff821115620004aa57620004a962000328565b5b602082029050602081019050919050565b600080fd5b6000620004d7620004d1846200048c565b6200038d565b90508083825260208201905060208402830185811115620004fd57620004fc620004bb565b5b835b818110156200054b57805167ffffffffffffffff8111156200052657620005256200030d565b5b80860162000535898262000459565b85526020850194505050602081019050620004ff565b5050509392505050565b600082601f8301126200056d576200056c6200030d565b5b81516200057f848260208601620004c0565b91505092915050565b6000819050919050565b6200059d8162000588565b8114620005a957600080fd5b50565b600081519050620005bd8162000592565b92915050565b60008060008060008060c08789031215620005e357620005e26200029e565b5b6000620005f389828a01620002f6565b965050602087015167ffffffffffffffff811115620006175762000616620002a3565b5b6200062589828a0162000459565b955050604087015167ffffffffffffffff811115620006495762000648620002a3565b5b6200065789828a0162000555565b94505060606200066a89828a01620005ac565b93505060806200067d89828a01620005ac565b92505060a06200069089828a01620002f6565b9150509295509295509295565b600082825260208201905092915050565b7f43726f776466756e64696e673a20446561646c696e65206d757374206265206960008201527f6e20667574757265000000000000000000000000000000000000000000000000602082015250565b60006200070c6028836200069d565b91506200071982620006ae565b604082019050919050565b600060208201905081810360008301526200073f81620006fd565b9050919050565b600081519050919050565b7f4e487b7100000000000000000000000000000000000000000000000000000000600052602260045260246000fd5b600060028204905060018216806200079957607f821691505b602082108103620007af57620007ae62000751565b5b50919050565b60008190508160005260206000209050919050565b60006020601f8301049050919050565b600082821b905092915050565b600060088302620008197fffffffffffffffffffffffffffffffffffffffffffffffffffffffffffffffff82620007da565b620008258683620007da565b95508019841693508086168417925050509392505050565b6000819050919050565b600062000868620008626200085c8462000588565b6200083d565b62000588565b9050919050565b6000819050919050565b620008848362000847565b6200089c62000893826200086f565b848454620007e7565b825550505050565b600090565b620008b3620008a4565b620008c081848462000879565b505050565b5b81811015620008e857620008dc600082620008a9565b600181019050620008c6565b5050565b601f82111562000937576200090181620007b5565b6200090c84620007ca565b810160208510156200091c578190505b620009346200092b85620007ca565b830182620008c5565b50505b505050565b600082821c905092915050565b60006200095c600019846008026200093c565b1980831691505092915050565b600062000977838362000949565b9150826002028217905092915050565b620009928262000746565b67ffffffffffffffff811115620009ae57620009ad62000328565b5b620009ba825462000780565b620009c7828285620008ec565b600060209050601f831160018114620009ff5760008415620009ea578287015190505b620009f6858262000969565b86555062000a66565b601f19841662000a0f86620007b5565b60005b8281101562000a395784890151825560018201915060208501945060208101905062000a12565b8683101562000a59578489015162000a55601f89168262000949565b8355505b6001600288020188555050505b505050505050565b61183b8062000a7e6000396000f3fe608060405234801561001057600080fd5b50600436106100f55760003560e01c806383e4901911610097578063c6cdbe5e11610066578063c6cdbe5e14610290578063d4b83992146102c0578063d9de1307146102de578063f5a8492f146102fa576100f5565b806383e4901914610206578063966dae0e146102365780639d76ea58146102545780639fa6a6e314610272576100f5565b806339ecacac116100d357806339ecacac1461017c57806347535d7b146101ac5780634a79d50c146101ca5780634db0412c146101e8576100f5565b80631cee0700146100fa5780631ef480071461012c57806329dcb0cf1461015e575b600080fd5b610114600480360381019061010f9190610db8565b610318565b60405161012393929190610e35565b60405180910390f35b61014660048036038101906101419190610db8565b610372565b60405161015593929190610e35565b60405180910390f35b6101666103cc565b6040516101739190610e6c565b60405180910390f35b61019660048036038101906101919190610eb3565b6103d2565b6040516101a39190610e6c565b60405180910390f35b6101b46106dd565b6040516101c19190610f0e565b60405180910390f35b6101d26106f0565b6040516101df9190610fb9565b60405180910390f35b6101f061077e565b6040516101fd91906110e7565b60405180910390f35b610220600480360381019061021b9190610db8565b610857565b60405161022d9190610e6c565b60405180910390f35b61023e6108b9565b60405161024b9190611109565b60405180910390f35b61025c6108df565b6040516102699190611109565b60405180910390f35b61027a610905565b6040516102879190610e6c565b60405180910390f35b6102aa60048036038101906102a59190610db8565b61090b565b6040516102b79190610fb9565b60405180910390f35b6102c86109b7565b6040516102d59190610e6c565b60405180910390f35b6102f860048036038101906102f39190610eb3565b6109bd565b005b610302610bb5565b60405161030f9190611109565b60405180910390f35b6008818154811061032857600080fd5b90600052602060002090600302016000915090508060000160009054906101000a900473ffffffffffffffffffffffffffffffffffffffff16908060010154908060020154905083565b6009818154811061038257600080fd5b90600052602060002090600302016000915090508060000160009054906101000a900473ffffffffffffffffffffffffffffffffffffffff16908060010154908060020154905083565b60045481565b60006004544210610418576040517f08c379a000000000000000000000000000000000000000000000000000000000815260040161040f90611196565b60405180910390fd5b600760009054906101000a900473ffffffffffffffffffffffffffffffffffffffff1673ffffffffffffffffffffffffffffffffffffffff163373ffffffffffffffffffffffffffffffffffffffff16146104a8576040517f08c379a000000000000000000000000000000000000000000000000000000000815260040161049f90611202565b60405180910390fd5b600560009054906101000a900460ff166104f7576040517f08c379a00000000000000000000000000000000000000000000000000000000081526004016104ee90611294565b60405180910390fd5b6000821161053a576040517f08c379a000000000000000000000000000000000000000000000000000000000815260040161053190611326565b60405180910390fd5b60025460035410610580576040517f08c379a0000000000000000000000000000000000000000000000000000000008152600401610577906113b8565b60405180910390fd5b61058982610857565b9050806003600082825461059d9190611407565b925050819055506105ac610d46565b83816000019073ffffffffffffffffffffffffffffffffffffffff16908173ffffffffffffffffffffffffffffffffffffffff16815250508181602001818152505042816040018181525050600881908060018154018082558091505060019003906000526020600020906003020160009091909190915060008201518160000160006101000a81548173ffffffffffffffffffffffffffffffffffffffff021916908373ffffffffffffffffffffffffffffffffffffffff160217905550602082015181600101556040820151816002015550506106af600660009054906101000a900473ffffffffffffffffffffffffffffffffffffffff16853085610bdb565b600254600354106106d6576000600560006101000a81548160ff0219169083151502179055505b5092915050565b600560009054906101000a900460ff1681565b600080546106fd9061146a565b80601f01602080910402602001604051908101604052809291908181526020018280546107299061146a565b80156107765780601f1061074b57610100808354040283529160200191610776565b820191906000526020600020905b81548152906001019060200180831161075957829003601f168201915b505050505081565b60606001805480602002602001604051908101604052809291908181526020016000905b8282101561084e5783829060005260206000200180546107c19061146a565b80601f01602080910402602001604051908101604052809291908181526020018280546107ed9061146a565b801561083a5780601f1061080f5761010080835404028352916020019161083a565b820191906000526020600020905b81548152906001019060200180831161081d57829003601f168201915b5050505050815260200190600101906107a2565b50505050905090565b60006002546003541061086d57600090506108b4565b60045442111561088057600090506108b4565b6000829050600254816003546108969190611407565b11156108af576003546002546108ac919061149b565b90505b809150505b919050565b600760009054906101000a900473ffffffffffffffffffffffffffffffffffffffff1681565b600660009054906101000a900473ffffffffffffffffffffffffffffffffffffffff1681565b60035481565b6001818154811061091b57600080fd5b9060005260206000200160009150905080546109369061146a565b80601f01602080910402602001604051908101604052809291908181526020018280546109629061146a565b80156109af5780601f10610984576101008083540402835291602001916109af565b820191906000526020600020905b81548152906001019060200180831161099257829003601f168201915b505050505081565b60025481565b600760009054906101000a900473ffffffffffffffffffffffffffffffffffffffff1673ffffffffffffffffffffffffffffffffffffffff163373ffffffffffffffffffffffffffffffffffffffff1614610a4d576040517f08c379a0000000000000000000000000000000000000000000000000000000008152600401610a4490611202565b60405180910390fd5b600454421015610a92576040517f08c379a0000000000000000000000000000000000000000000000000000000008152600401610a8990611541565b60405180910390fd5b600560009054906101000a900460ff1615610ae2576040517f08c379a0000000000000000000000000000000000000000000000000000000008152600401610ad9906115d3565b60405180910390fd5b60008111610b25576040517f08c379a0000000000000000000000000000000000000000000000000000000008152600401610b1c90611665565b60405180910390fd5b806003541015610b6a576040517f08c379a0000000000000000000000000000000000000000000000000000000008152600401610b61906116f7565b60405180910390fd5b8060036000828254610b7c919061149b565b92505081905550610bb1600660009054906101000a900473ffffffffffffffffffffffffffffffffffffffff16308484610bdb565b5050565b600560019054906101000a900473ffffffffffffffffffffffffffffffffffffffff1681565b6000808573ffffffffffffffffffffffffffffffffffffffff16858585604051602401610c0a93929190611717565b6040516020818303038152906040527f23b872dd000000000000000000000000000000000000000000000000000000007bffffffffffffffffffffffffffffffffffffffffffffffffffffffff19166020820180517bffffffffffffffffffffffffffffffffffffffffffffffffffffffff8381831617835250505050604051610c949190611795565b6000604051808303816000865af19150503d8060008114610cd1576040519150601f19603f3d011682016040523d82523d6000602084013e610cd6565b606091505b5091509150811580610d0757506000815114158015610d06575080806020019051810190610d0491906117d8565b155b5b15610d3e576040517ffb7f507900000000000000000000000000000000000000000000000000000000815260040160405180910390fd5b505050505050565b6040518060600160405280600073ffffffffffffffffffffffffffffffffffffffff16815260200160008152602001600081525090565b600080fd5b6000819050919050565b610d9581610d82565b8114610da057600080fd5b50565b600081359050610db281610d8c565b92915050565b600060208284031215610dce57610dcd610d7d565b5b6000610ddc84828501610da3565b91505092915050565b600073ffffffffffffffffffffffffffffffffffffffff82169050919050565b6000610e1082610de5565b9050919050565b610e2081610e05565b82525050565b610e2f81610d82565b82525050565b6000606082019050610e4a6000830186610e17565b610e576020830185610e26565b610e646040830184610e26565b949350505050565b6000602082019050610e816000830184610e26565b92915050565b610e9081610e05565b8114610e9b57600080fd5b50565b600081359050610ead81610e87565b92915050565b60008060408385031215610eca57610ec9610d7d565b5b6000610ed885828601610e9e565b9250506020610ee985828601610da3565b9150509250929050565b60008115159050919050565b610f0881610ef3565b82525050565b6000602082019050610f236000830184610eff565b92915050565b600081519050919050565b600082825260208201905092915050565b60005b83811015610f63578082015181840152602081019050610f48565b60008484015250505050565b6000601f19601f8301169050919050565b6000610f8b82610f29565b610f958185610f34565b9350610fa5818560208601610f45565b610fae81610f6f565b840191505092915050565b60006020820190508181036000830152610fd38184610f80565b905092915050565b600081519050919050565b600082825260208201905092915050565b6000819050602082019050919050565b600082825260208201905092915050565b600061102382610f29565b61102d8185611007565b935061103d818560208601610f45565b61104681610f6f565b840191505092915050565b600061105d8383611018565b905092915050565b6000602082019050919050565b600061107d82610fdb565b6110878185610fe6565b93508360208202850161109985610ff7565b8060005b858110156110d557848403895281516110b68582611051565b94506110c183611065565b925060208a0199505060018101905061109d565b50829750879550505050505092915050565b600060208201905081810360008301526111018184611072565b905092915050565b600060208201905061111e6000830184610e17565b92915050565b7f43726f776466756e64696e673a20616c7265616479206578636565642064656160008201527f646c696e65000000000000000000000000000000000000000000000000000000602082015250565b6000611180602583610f34565b915061118b82611124565b604082019050919050565b600060208201905081810360008301526111af81611173565b9050919050565b7f43726f776466756e64696e673a206f6e6c79466163746f727900000000000000600082015250565b60006111ec601983610f34565b91506111f7826111b6565b602082019050919050565b6000602082019050818103600083015261121b816111df565b9050919050565b7f43726f776466756e64696e672e616464436f6e747269627574696f6e3a20437260008201527f6f776466756e64696e67206973206e6f7420666f722073616c65000000000000602082015250565b600061127e603a83610f34565b915061128982611222565b604082019050919050565b600060208201905081810360008301526112ad81611271565b9050919050565b7f43726f776466756e64696e672e616464436f6e747269627574696f6e3a20696e60008201527f76616c696420616d6f756e740000000000000000000000000000000000000000602082015250565b6000611310602c83610f34565b915061131b826112b4565b604082019050919050565b6000602082019050818103600083015261133f81611303565b9050919050565b7f43726f776466756e64696e672e616464436f6e747269627574696f6e3a20637260008201527f6f776466756e64696e6720616c72656164792072656163682074617267657400602082015250565b60006113a2603f83610f34565b91506113ad82611346565b604082019050919050565b600060208201905081810360008301526113d181611395565b9050919050565b7f4e487b7100000000000000000000000000000000000000000000000000000000600052601160045260246000fd5b600061141282610d82565b915061141d83610d82565b9250828201905080821115611435576114346113d8565b5b92915050565b7f4e487b7100000000000000000000000000000000000000000000000000000000600052602260045260246000fd5b6000600282049050600182168061148257607f821691505b6020821081036114955761149461143b565b5b50919050565b60006114a682610d82565b91506114b183610d82565b92508282039050818111156114c9576114c86113d8565b5b92915050565b7f43726f776466756e64696e673a206d75737420616674657220646561646c696e60008201527f6500000000000000000000000000000000000000000000000000000000000000602082015250565b600061152b602183610f34565b9150611536826114cf565b604082019050919050565b6000602082019050818103600083015261155a8161151e565b9050919050565b7f43726f776466756e64696e672e72656d6f7665436f6e747269627574696f6e3a60008201527f2043726f776466756e64696e67206973207374696c6c20696e2073616c650000602082015250565b60006115bd603e83610f34565b91506115c882611561565b604082019050919050565b600060208201905081810360008301526115ec816115b0565b9050919050565b7f43726f776466756e64696e672e72656d6f7665436f6e747269627574696f6e3a60008201527f20696e76616c696420616d6f756e740000000000000000000000000000000000602082015250565b600061164f602f83610f34565b915061165a826115f3565b604082019050919050565b6000602082019050818103600083015261167e81611642565b9050919050565b7f43726f776466756e64696e672e72656d6f7665436f6e747269627574696f6e3a60008201527f20696e73756666696369656e7420616d6f756e74000000000000000000000000602082015250565b60006116e1603483610f34565b91506116ec82611685565b604082019050919050565b60006020820190508181036000830152611710816116d4565b9050919050565b600060608201905061172c6000830186610e17565b6117396020830185610e17565b6117466040830184610e26565b949350505050565b600081519050919050565b600081905092915050565b600061176f8261174e565b6117798185611759565b9350611789818560208601610f45565b80840191505092915050565b60006117a18284611764565b915081905092915050565b6117b581610ef3565b81146117c057600080fd5b50565b6000815190506117d2816117ac565b92915050565b6000602082840312156117ee576117ed610d7d565b5b60006117fc848285016117c3565b9150509291505056fea264697066735822122077e4add8ffcf63b895b163cb25fa908a9f38a5afc3d5096add854cb8173cec3964736f6c63430008140033a264697066735822122003c51031aab884502d6569ec72a7bc0250f34ade3f8e929ab7d84b14d9463a8a64736f6c63430008140033",
  "linkReferences": {},
  "deployedLinkReferences": {}
}