{
  "_format": "hh-sol-artifact-1",
  "contractName": "BadgeToken",
  "sourceName": "contracts/BadgeToken.sol",
  "abi": [
    {
      "inputs": [
        {
          "internalType": "string",
          "name": "_name",
          "type": "string"
        },
        {
          "internalType": "string",
          "name": "_symbol",
          "type": "string"
        }
      ],
      "stateMutability": "nonpayable",
      "type": "constructor"
    },
    {
      "inputs": [
        {
          "internalType": "address",
          "name": "sender",
          "type": "address"
        },
        {
          "internalType": "uint256",
          "name": "tokenId",
          "type": "uint256"
        },
        {
          "internalType": "address",
          "name": "owner",
          "type": "address"
        }
      ],
      "name": "ERC721IncorrectOwner",
      "type": "error"
    },
    {
      "inputs": [
        {
          "internalType": "address",
          "name": "operator",
          "type": "address"
        },
        {
          "internalType": "uint256",
          "name": "tokenId",
          "type": "uint256"
        }
      ],
      "name": "ERC721InsufficientApproval",
      "type": "error"
    },
    {
      "inputs": [
        {
          "internalType": "address",
          "name": "approver",
          "type": "address"
        }
      ],
      "name": "ERC721InvalidApprover",
      "type": "error"
    },
    {
      "inputs": [
        {
          "internalType": "address",
          "name": "operator",
          "type": "address"
        }
      ],
      "name": "ERC721InvalidOperator",
      "type": "error"
    },
    {
      "inputs": [
        {
          "internalType": "address",
          "name": "owner",
          "type": "address"
        }
      ],
      "name": "ERC721InvalidOwner",
      "type": "error"
    },
    {
      "inputs": [
        {
          "internalType": "address",
          "name": "receiver",
          "type": "address"
        }
      ],
      "name": "ERC721InvalidReceiver",
      "type": "error"
    },
    {
      "inputs": [
        {
          "internalType": "address",
          "name": "sender",
          "type": "address"
        }
      ],
      "name": "ERC721InvalidSender",
      "type": "error"
    },
    {
      "inputs": [
        {
          "internalType": "uint256",
          "name": "tokenId",
          "type": "uint256"
        }
      ],
      "name": "ERC721NonexistentToken",
      "type": "error"
    },
    {
      "anonymous": false,
      "inputs": [
        {
          "indexed": true,
          "internalType": "address",
          "name": "owner",
          "type": "address"
        },
        {
          "indexed": true,
          "internalType": "address",
          "name": "approved",
          "type": "address"
        },
        {
          "indexed": true,
          "internalType": "uint256",
          "name": "tokenId",
          "type": "uint256"
        }
      ],
      "name": "Approval",
      "type": "event"
    },
    {
      "anonymous": false,
      "inputs": [
        {
          "indexed": true,
          "internalType": "address",
          "name": "owner",
          "type": "address"
        },
        {
          "indexed": true,
          "internalType": "address",
          "name": "operator",
          "type": "address"
        },
        {
          "indexed": false,
          "internalType": "bool",
          "name": "approved",
          "type": "bool"
        }
      ],
      "name": "ApprovalForAll",
      "type": "event"
    },
    {
      "anonymous": false,
      "inputs": [
        {
          "indexed": true,
          "internalType": "address",
          "name": "from",
          "type": "address"
        },
        {
          "indexed": true,
          "internalType": "address",
          "name": "to",
          "type": "address"
        },
        {
          "indexed": true,
          "internalType": "uint256",
          "name": "tokenId",
          "type": "uint256"
        }
      ],
      "name": "Transfer",
      "type": "event"
    },
    {
      "inputs": [
        {
          "internalType": "address",
          "name": "to",
          "type": "address"
        },
        {
          "internalType": "uint256",
          "name": "tokenId",
          "type": "uint256"
        }
      ],
      "name": "approve",
      "outputs": [],
      "stateMutability": "nonpayable",
      "type": "function"
    },
    {
      "inputs": [
        {
          "internalType": "address",
          "name": "owner",
          "type": "address"
        }
      ],
      "name": "balanceOf",
      "outputs": [
        {
          "internalType": "uint256",
          "name": "",
          "type": "uint256"
        }
      ],
      "stateMutability": "view",
      "type": "function"
    },
    {
      "inputs": [
        {
          "internalType": "uint256",
          "name": "tokenId",
          "type": "uint256"
        }
      ],
      "name": "getApproved",
      "outputs": [
        {
          "internalType": "address",
          "name": "",
          "type": "address"
        }
      ],
      "stateMutability": "view",
      "type": "function"
    },
    {
      "inputs": [
        {
          "internalType": "address",
          "name": "owner",
          "type": "address"
        },
        {
          "internalType": "address",
          "name": "operator",
          "type": "address"
        }
      ],
      "name": "isApprovedForAll",
      "outputs": [
        {
          "internalType": "bool",
          "name": "",
          "type": "bool"
        }
      ],
      "stateMutability": "view",
      "type": "function"
    },
    {
      "inputs": [
        {
          "internalType": "address",
          "name": "_to",
          "type": "address"
        }
      ],
      "name": "mintTo",
      "outputs": [],
      "stateMutability": "nonpayable",
      "type": "function"
    },
    {
      "inputs": [],
      "name": "name",
      "outputs": [
        {
          "internalType": "string",
          "name": "",
          "type": "string"
        }
      ],
      "stateMutability": "view",
      "type": "function"
    },
    {
      "inputs": [
        {
          "internalType": "uint256",
          "name": "tokenId",
          "type": "uint256"
        }
      ],
      "name": "ownerOf",
      "outputs": [
        {
          "internalType": "address",
          "name": "",
          "type": "address"
        }
      ],
      "stateMutability": "view",
      "type": "function"
    },
    {
      "inputs": [
        {
          "internalType": "address",
          "name": "from",
          "type": "address"
        },
        {
          "internalType": "address",
          "name": "to",
          "type": "address"
        },
        {
          "internalType": "uint256",
          "name": "tokenId",
          "type": "uint256"
        }
      ],
      "name": "safeTransferFrom",
      "outputs": [],
      "stateMutability": "nonpayable",
      "type": "function"
    },
    {
      "inputs": [
        {
          "internalType": "address",
          "name": "from",
          "type": "address"
        },
        {
          "internalType": "address",
          "name": "to",
          "type": "address"
        },
        {
          "internalType": "uint256",
          "name": "tokenId",
          "type": "uint256"
        },
        {
          "internalType": "bytes",
          "name": "data",
          "type": "bytes"
        }
      ],
      "name": "safeTransferFrom",
      "outputs": [],
      "stateMutability": "nonpayable",
      "type": "function"
    },
    {
      "inputs": [
        {
          "internalType": "address",
          "name": "operator",
          "type": "address"
        },
        {
          "internalType": "bool",
          "name": "approved",
          "type": "bool"
        }
      ],
      "name": "setApprovalForAll",
      "outputs": [],
      "stateMutability": "nonpayable",
      "type": "function"
    },
    {
      "inputs": [
        {
          "internalType": "bytes4",
          "name": "interfaceId",
          "type": "bytes4"
        }
      ],
      "name": "supportsInterface",
      "outputs": [
        {
          "internalType": "bool",
          "name": "",
          "type": "bool"
        }
      ],
      "stateMutability": "view",
      "type": "function"
    },
    {
      "inputs": [],
      "name": "symbol",
      "outputs": [
        {
          "internalType": "string",
          "name": "",
          "type": "string"
        }
      ],
      "stateMutability": "view",
      "type": "function"
    },
    {
      "inputs": [
        {
          "internalType": "uint256",
          "name": "tokenId",
          "type": "uint256"
        }
      ],
      "name": "tokenURI",
      "outputs": [
        {
          "internalType": "string",
          "name": "",
          "type": "string"
        }
      ],
      "stateMutability": "pure",
      "type": "function"
    },
    {
      "inputs": [
        {
          "internalType": "address",
          "name": "from",
          "type": "address"
        },
        {
          "internalType": "address",
          "name": "to",
          "type": "address"
        },
        {
          "internalType": "uint256",
          "name": "tokenId",
          "type": "uint256"
        }
      ],
      "name": "transferFrom",
      "outputs": [],
      "stateMutability": "nonpayable",
      "type": "function"
    }
  ],
  "bytecode": "0x608060405260006006553480156200001657600080fd5b5060405162002b3c38038062002b3c83398181016040528101906200003c9190620001ff565b818181600090816200004f9190620004cf565b508060019081620000619190620004cf565b5050505050620005b6565b6000604051905090565b600080fd5b600080fd5b600080fd5b600080fd5b6000601f19601f8301169050919050565b7f4e487b7100000000000000000000000000000000000000000000000000000000600052604160045260246000fd5b620000d5826200008a565b810181811067ffffffffffffffff82111715620000f757620000f66200009b565b5b80604052505050565b60006200010c6200006c565b90506200011a8282620000ca565b919050565b600067ffffffffffffffff8211156200013d576200013c6200009b565b5b62000148826200008a565b9050602081019050919050565b60005b838110156200017557808201518184015260208101905062000158565b60008484015250505050565b60006200019862000192846200011f565b62000100565b905082815260208101848484011115620001b757620001b662000085565b5b620001c484828562000155565b509392505050565b600082601f830112620001e457620001e362000080565b5b8151620001f684826020860162000181565b91505092915050565b6000806040838503121562000219576200021862000076565b5b600083015167ffffffffffffffff8111156200023a57620002396200007b565b5b6200024885828601620001cc565b925050602083015167ffffffffffffffff8111156200026c576200026b6200007b565b5b6200027a85828601620001cc565b9150509250929050565b600081519050919050565b7f4e487b7100000000000000000000000000000000000000000000000000000000600052602260045260246000fd5b60006002820490506001821680620002d757607f821691505b602082108103620002ed57620002ec6200028f565b5b50919050565b60008190508160005260206000209050919050565b60006020601f8301049050919050565b600082821b905092915050565b600060088302620003577fffffffffffffffffffffffffffffffffffffffffffffffffffffffffffffffff8262000318565b62000363868362000318565b95508019841693508086168417925050509392505050565b6000819050919050565b6000819050919050565b6000620003b0620003aa620003a4846200037b565b62000385565b6200037b565b9050919050565b6000819050919050565b620003cc836200038f565b620003e4620003db82620003b7565b84845462000325565b825550505050565b600090565b620003fb620003ec565b62000408818484620003c1565b505050565b5b81811015620004305762000424600082620003f1565b6001810190506200040e565b5050565b601f8211156200047f576200044981620002f3565b620004548462000308565b8101602085101562000464578190505b6200047c620004738562000308565b8301826200040d565b50505b505050565b600082821c905092915050565b6000620004a46000198460080262000484565b1980831691505092915050565b6000620004bf838362000491565b9150826002028217905092915050565b620004da8262000284565b67ffffffffffffffff811115620004f657620004f56200009b565b5b620005028254620002be565b6200050f82828562000434565b600060209050601f83116001811462000547576000841562000532578287015190505b6200053e8582620004b1565b865550620005ae565b601f1984166200055786620002f3565b60005b8281101562000581578489015182556001820191506020850194506020810190506200055a565b86831015620005a157848901516200059d601f89168262000491565b8355505b6001600288020188555050505b505050505050565b61257680620005c66000396000f3fe608060405234801561001057600080fd5b50600436106100ea5760003560e01c806370a082311161008c578063a22cb46511610066578063a22cb4651461025b578063b88d4fde14610277578063c87b56dd14610293578063e985e9c5146102c3576100ea565b806370a08231146101f1578063755edd171461022157806395d89b411461023d576100ea565b8063095ea7b3116100c8578063095ea7b31461016d57806323b872dd1461018957806342842e0e146101a55780636352211e146101c1576100ea565b806301ffc9a7146100ef57806306fdde031461011f578063081812fc1461013d575b600080fd5b610109600480360381019061010491906118ec565b6102f3565b6040516101169190611934565b60405180910390f35b6101276103d5565b60405161013491906119df565b60405180910390f35b61015760048036038101906101529190611a37565b610467565b6040516101649190611aa5565b60405180910390f35b61018760048036038101906101829190611aec565b610483565b005b6101a3600480360381019061019e9190611b2c565b610499565b005b6101bf60048036038101906101ba9190611b2c565b61059b565b005b6101db60048036038101906101d69190611a37565b6105bb565b6040516101e89190611aa5565b60405180910390f35b61020b60048036038101906102069190611b7f565b6105cd565b6040516102189190611bbb565b60405180910390f35b61023b60048036038101906102369190611b7f565b610687565b005b6102456106a9565b60405161025291906119df565b60405180910390f35b61027560048036038101906102709190611c02565b61073b565b005b610291600480360381019061028c9190611d77565b610751565b005b6102ad60048036038101906102a89190611a37565b61076e565b6040516102ba91906119df565b60405180910390f35b6102dd60048036038101906102d89190611dfa565b6108f9565b6040516102ea9190611934565b60405180910390f35b60007f80ac58cd000000000000000000000000000000000000000000000000000000007bffffffffffffffffffffffffffffffffffffffffffffffffffffffff1916827bffffffffffffffffffffffffffffffffffffffffffffffffffffffff191614806103be57507f5b5e139f000000000000000000000000000000000000000000000000000000007bffffffffffffffffffffffffffffffffffffffffffffffffffffffff1916827bffffffffffffffffffffffffffffffffffffffffffffffffffffffff1916145b806103ce57506103cd8261098d565b5b9050919050565b6060600080546103e490611e69565b80601f016020809104026020016040519081016040528092919081815260200182805461041090611e69565b801561045d5780601f106104325761010080835404028352916020019161045d565b820191906000526020600020905b81548152906001019060200180831161044057829003601f168201915b5050505050905090565b6000610472826109f7565b5061047c82610a7f565b9050919050565b6104958282610490610abc565b610ac4565b5050565b600073ffffffffffffffffffffffffffffffffffffffff168273ffffffffffffffffffffffffffffffffffffffff160361050b5760006040517f64a0ae920000000000000000000000000000000000000000000000000000000081526004016105029190611aa5565b60405180910390fd5b600061051f838361051a610abc565b610ad6565b90508373ffffffffffffffffffffffffffffffffffffffff168173ffffffffffffffffffffffffffffffffffffffff1614610595578382826040517f64283d7b00000000000000000000000000000000000000000000000000000000815260040161058c93929190611e9a565b60405180910390fd5b50505050565b6105b683838360405180602001604052806000815250610751565b505050565b60006105c6826109f7565b9050919050565b60008073ffffffffffffffffffffffffffffffffffffffff168273ffffffffffffffffffffffffffffffffffffffff16036106405760006040517f89c62b640000000000000000000000000000000000000000000000000000000081526004016106379190611aa5565b60405180910390fd5b600360008373ffffffffffffffffffffffffffffffffffffffff1673ffffffffffffffffffffffffffffffffffffffff168152602001908152602001600020549050919050565b6000610691610cf0565b905061069d8282610d06565b6106a5610dff565b5050565b6060600180546106b890611e69565b80601f01602080910402602001604051908101604052809291908181526020018280546106e490611e69565b80156107315780601f1061070657610100808354040283529160200191610731565b820191906000526020600020905b81548152906001019060200180831161071457829003601f168201915b5050505050905090565b61074d610746610abc565b8383610e19565b5050565b61075c848484610499565b61076884848484610f88565b50505050565b6060610778611859565b60405180610120016040528061010081526020016124416101009139816000600381106107a8576107a7611ed1565b5b60200201819052506107b98361113f565b816001600381106107cd576107cc611ed1565b5b60200201819052506040518060400160405280600d81526020017f3c2f746578743e3c2f7376673e000000000000000000000000000000000000008152508160026003811061081f5761081e611ed1565b5b602002018190525060006108ce6108358561113f565b6108a98460006003811061084c5761084b611ed1565b5b60200201518560016003811061086557610864611ed1565b5b60200201518660026003811061087e5761087d611ed1565b5b602002015160405160200161089593929190611f3c565b60405160208183030381529060405261120d565b6040516020016108ba9291906120e9565b60405160208183030381529060405261120d565b9050806040516020016108e19190612185565b60405160208183030381529060405292505050919050565b6000600560008473ffffffffffffffffffffffffffffffffffffffff1673ffffffffffffffffffffffffffffffffffffffff16815260200190815260200160002060008373ffffffffffffffffffffffffffffffffffffffff1673ffffffffffffffffffffffffffffffffffffffff16815260200190815260200160002060009054906101000a900460ff16905092915050565b60007f01ffc9a7000000000000000000000000000000000000000000000000000000007bffffffffffffffffffffffffffffffffffffffffffffffffffffffff1916827bffffffffffffffffffffffffffffffffffffffffffffffffffffffff1916149050919050565b600080610a038361137f565b9050600073ffffffffffffffffffffffffffffffffffffffff168173ffffffffffffffffffffffffffffffffffffffff1603610a7657826040517f7e273289000000000000000000000000000000000000000000000000000000008152600401610a6d9190611bbb565b60405180910390fd5b80915050919050565b60006004600083815260200190815260200160002060009054906101000a900473ffffffffffffffffffffffffffffffffffffffff169050919050565b600033905090565b610ad183838360016113bc565b505050565b600080610ae28461137f565b9050600073ffffffffffffffffffffffffffffffffffffffff168373ffffffffffffffffffffffffffffffffffffffff1614610b2457610b23818486611581565b5b600073ffffffffffffffffffffffffffffffffffffffff168173ffffffffffffffffffffffffffffffffffffffff1614610bb557610b666000856000806113bc565b6001600360008373ffffffffffffffffffffffffffffffffffffffff1673ffffffffffffffffffffffffffffffffffffffff168152602001908152602001600020600082825403925050819055505b600073ffffffffffffffffffffffffffffffffffffffff168573ffffffffffffffffffffffffffffffffffffffff1614610c38576001600360008773ffffffffffffffffffffffffffffffffffffffff1673ffffffffffffffffffffffffffffffffffffffff168152602001908152602001600020600082825401925050819055505b846002600086815260200190815260200160002060006101000a81548173ffffffffffffffffffffffffffffffffffffffff021916908373ffffffffffffffffffffffffffffffffffffffff160217905550838573ffffffffffffffffffffffffffffffffffffffff168273ffffffffffffffffffffffffffffffffffffffff167fddf252ad1be2c89b69c2b068fc378daa952ba7f163c4a11628f55a4df523b3ef60405160405180910390a4809150509392505050565b60006001600654610d0191906121d6565b905090565b600073ffffffffffffffffffffffffffffffffffffffff168273ffffffffffffffffffffffffffffffffffffffff1603610d785760006040517f64a0ae92000000000000000000000000000000000000000000000000000000008152600401610d6f9190611aa5565b60405180910390fd5b6000610d8683836000610ad6565b9050600073ffffffffffffffffffffffffffffffffffffffff168173ffffffffffffffffffffffffffffffffffffffff1614610dfa5760006040517f73c6ac6e000000000000000000000000000000000000000000000000000000008152600401610df19190611aa5565b60405180910390fd5b505050565b60066000815480929190610e129061220a565b9190505550565b600073ffffffffffffffffffffffffffffffffffffffff168273ffffffffffffffffffffffffffffffffffffffff1603610e8a57816040517f5b08ba18000000000000000000000000000000000000000000000000000000008152600401610e819190611aa5565b60405180910390fd5b80600560008573ffffffffffffffffffffffffffffffffffffffff1673ffffffffffffffffffffffffffffffffffffffff16815260200190815260200160002060008473ffffffffffffffffffffffffffffffffffffffff1673ffffffffffffffffffffffffffffffffffffffff16815260200190815260200160002060006101000a81548160ff0219169083151502179055508173ffffffffffffffffffffffffffffffffffffffff168373ffffffffffffffffffffffffffffffffffffffff167f17307eab39ab6107e8899845ad3d59bd9653f200f220920489ca2b5937696c3183604051610f7b9190611934565b60405180910390a3505050565b60008373ffffffffffffffffffffffffffffffffffffffff163b1115611139578273ffffffffffffffffffffffffffffffffffffffff1663150b7a02610fcc610abc565b8685856040518563ffffffff1660e01b8152600401610fee94939291906122a7565b6020604051808303816000875af192505050801561102a57506040513d601f19601f820116820180604052508101906110279190612308565b60015b6110ae573d806000811461105a576040519150601f19603f3d011682016040523d82523d6000602084013e61105f565b606091505b5060008151036110a657836040517f64a0ae9200000000000000000000000000000000000000000000000000000000815260040161109d9190611aa5565b60405180910390fd5b805181602001fd5b63150b7a0260e01b7bffffffffffffffffffffffffffffffffffffffffffffffffffffffff1916817bffffffffffffffffffffffffffffffffffffffffffffffffffffffff19161461113757836040517f64a0ae9200000000000000000000000000000000000000000000000000000000815260040161112e9190611aa5565b60405180910390fd5b505b50505050565b60606000600161114e84611645565b01905060008167ffffffffffffffff81111561116d5761116c611c4c565b5b6040519080825280601f01601f19166020018201604052801561119f5781602001600182028036833780820191505090505b509050600082602001820190505b600115611202578080600190039150507f3031323334353637383961626364656600000000000000000000000000000000600a86061a8153600a85816111f6576111f5612335565b5b049450600085036111ad575b819350505050919050565b6060600082510361122f5760405180602001604052806000815250905061137a565b6000604051806060016040528060408152602001612401604091399050600060036002855161125e91906121d6565b6112689190612364565b60046112749190612395565b67ffffffffffffffff81111561128d5761128c611c4c565b5b6040519080825280601f01601f1916602001820160405280156112bf5781602001600182028036833780820191505090505b50905060018201602082018586518701602081018051600082525b82841015611335576003840193508351603f8160121c168701518653600186019550603f81600c1c168701518653600186019550603f8160061c168701518653600186019550603f81168701518653600186019550506112da565b80825260038a51066001811461135257600281146113655761136d565b603d6001870353603d600287035361136d565b603d60018703535b5050505050505080925050505b919050565b60006002600083815260200190815260200160002060009054906101000a900473ffffffffffffffffffffffffffffffffffffffff169050919050565b80806113f55750600073ffffffffffffffffffffffffffffffffffffffff168273ffffffffffffffffffffffffffffffffffffffff1614155b15611529576000611405846109f7565b9050600073ffffffffffffffffffffffffffffffffffffffff168373ffffffffffffffffffffffffffffffffffffffff161415801561147057508273ffffffffffffffffffffffffffffffffffffffff168173ffffffffffffffffffffffffffffffffffffffff1614155b8015611483575061148181846108f9565b155b156114c557826040517fa9fbf51f0000000000000000000000000000000000000000000000000000000081526004016114bc9190611aa5565b60405180910390fd5b811561152757838573ffffffffffffffffffffffffffffffffffffffff168273ffffffffffffffffffffffffffffffffffffffff167f8c5be1e5ebec7d5bd14f71427d1e84f3dd0314c0f7b2291e5b200ac8c7c3b92560405160405180910390a45b505b836004600085815260200190815260200160002060006101000a81548173ffffffffffffffffffffffffffffffffffffffff021916908373ffffffffffffffffffffffffffffffffffffffff16021790555050505050565b61158c838383611798565b61164057600073ffffffffffffffffffffffffffffffffffffffff168373ffffffffffffffffffffffffffffffffffffffff160361160157806040517f7e2732890000000000000000000000000000000000000000000000000000000081526004016115f89190611bbb565b60405180910390fd5b81816040517f177e802f0000000000000000000000000000000000000000000000000000000081526004016116379291906123d7565b60405180910390fd5b505050565b600080600090507a184f03e93ff9f4daa797ed6e38ed64bf6a1f01000000000000000083106116a3577a184f03e93ff9f4daa797ed6e38ed64bf6a1f010000000000000000838161169957611698612335565b5b0492506040810190505b6d04ee2d6d415b85acef810000000083106116e0576d04ee2d6d415b85acef810000000083816116d6576116d5612335565b5b0492506020810190505b662386f26fc10000831061170f57662386f26fc10000838161170557611704612335565b5b0492506010810190505b6305f5e1008310611738576305f5e100838161172e5761172d612335565b5b0492506008810190505b612710831061175d57612710838161175357611752612335565b5b0492506004810190505b60648310611780576064838161177657611775612335565b5b0492506002810190505b600a831061178f576001810190505b80915050919050565b60008073ffffffffffffffffffffffffffffffffffffffff168373ffffffffffffffffffffffffffffffffffffffff161415801561185057508273ffffffffffffffffffffffffffffffffffffffff168473ffffffffffffffffffffffffffffffffffffffff161480611811575061181084846108f9565b5b8061184f57508273ffffffffffffffffffffffffffffffffffffffff1661183783610a7f565b73ffffffffffffffffffffffffffffffffffffffff16145b5b90509392505050565b60405180606001604052806003905b60608152602001906001900390816118685790505090565b6000604051905090565b600080fd5b600080fd5b60007fffffffff0000000000000000000000000000000000000000000000000000000082169050919050565b6118c981611894565b81146118d457600080fd5b50565b6000813590506118e6816118c0565b92915050565b6000602082840312156119025761190161188a565b5b6000611910848285016118d7565b91505092915050565b60008115159050919050565b61192e81611919565b82525050565b60006020820190506119496000830184611925565b92915050565b600081519050919050565b600082825260208201905092915050565b60005b8381101561198957808201518184015260208101905061196e565b60008484015250505050565b6000601f19601f8301169050919050565b60006119b18261194f565b6119bb818561195a565b93506119cb81856020860161196b565b6119d481611995565b840191505092915050565b600060208201905081810360008301526119f981846119a6565b905092915050565b6000819050919050565b611a1481611a01565b8114611a1f57600080fd5b50565b600081359050611a3181611a0b565b92915050565b600060208284031215611a4d57611a4c61188a565b5b6000611a5b84828501611a22565b91505092915050565b600073ffffffffffffffffffffffffffffffffffffffff82169050919050565b6000611a8f82611a64565b9050919050565b611a9f81611a84565b82525050565b6000602082019050611aba6000830184611a96565b92915050565b611ac981611a84565b8114611ad457600080fd5b50565b600081359050611ae681611ac0565b92915050565b60008060408385031215611b0357611b0261188a565b5b6000611b1185828601611ad7565b9250506020611b2285828601611a22565b9150509250929050565b600080600060608486031215611b4557611b4461188a565b5b6000611b5386828701611ad7565b9350506020611b6486828701611ad7565b9250506040611b7586828701611a22565b9150509250925092565b600060208284031215611b9557611b9461188a565b5b6000611ba384828501611ad7565b91505092915050565b611bb581611a01565b82525050565b6000602082019050611bd06000830184611bac565b92915050565b611bdf81611919565b8114611bea57600080fd5b50565b600081359050611bfc81611bd6565b92915050565b60008060408385031215611c1957611c1861188a565b5b6000611c2785828601611ad7565b9250506020611c3885828601611bed565b9150509250929050565b600080fd5b600080fd5b7f4e487b7100000000000000000000000000000000000000000000000000000000600052604160045260246000fd5b611c8482611995565b810181811067ffffffffffffffff82111715611ca357611ca2611c4c565b5b80604052505050565b6000611cb6611880565b9050611cc28282611c7b565b919050565b600067ffffffffffffffff821115611ce257611ce1611c4c565b5b611ceb82611995565b9050602081019050919050565b82818337600083830152505050565b6000611d1a611d1584611cc7565b611cac565b905082815260208101848484011115611d3657611d35611c47565b5b611d41848285611cf8565b509392505050565b600082601f830112611d5e57611d5d611c42565b5b8135611d6e848260208601611d07565b91505092915050565b60008060008060808587031215611d9157611d9061188a565b5b6000611d9f87828801611ad7565b9450506020611db087828801611ad7565b9350506040611dc187828801611a22565b925050606085013567ffffffffffffffff811115611de257611de161188f565b5b611dee87828801611d49565b91505092959194509250565b60008060408385031215611e1157611e1061188a565b5b6000611e1f85828601611ad7565b9250506020611e3085828601611ad7565b9150509250929050565b7f4e487b7100000000000000000000000000000000000000000000000000000000600052602260045260246000fd5b60006002820490506001821680611e8157607f821691505b602082108103611e9457611e93611e3a565b5b50919050565b6000606082019050611eaf6000830186611a96565b611ebc6020830185611bac565b611ec96040830184611a96565b949350505050565b7f4e487b7100000000000000000000000000000000000000000000000000000000600052603260045260246000fd5b600081905092915050565b6000611f168261194f565b611f208185611f00565b9350611f3081856020860161196b565b80840191505092915050565b6000611f488286611f0b565b9150611f548285611f0b565b9150611f608284611f0b565b9150819050949350505050565b7f7b226e616d65223a224261646765202300000000000000000000000000000000600082015250565b6000611fa3601083611f00565b9150611fae82611f6d565b601082019050919050565b7f222c226465736372697074696f6e223a224261646765204e465420776974682060008201527f6f6e2d636861696e2053564720696d6167652e222c0000000000000000000000602082015250565b6000612015603583611f00565b915061202082611fb9565b603582019050919050565b7f22696d616765223a2022646174613a696d6167652f7376672b786d6c3b62617360008201527f6536342c00000000000000000000000000000000000000000000000000000000602082015250565b6000612087602483611f00565b91506120928261202b565b602482019050919050565b7f227d000000000000000000000000000000000000000000000000000000000000600082015250565b60006120d3600283611f00565b91506120de8261209d565b600282019050919050565b60006120f482611f96565b91506121008285611f0b565b915061210b82612008565b91506121168261207a565b91506121228284611f0b565b915061212d826120c6565b91508190509392505050565b7f646174613a6170706c69636174696f6e2f6a736f6e3b6261736536342c000000600082015250565b600061216f601d83611f00565b915061217a82612139565b601d82019050919050565b600061219082612162565b915061219c8284611f0b565b915081905092915050565b7f4e487b7100000000000000000000000000000000000000000000000000000000600052601160045260246000fd5b60006121e182611a01565b91506121ec83611a01565b9250828201905080821115612204576122036121a7565b5b92915050565b600061221582611a01565b91507fffffffffffffffffffffffffffffffffffffffffffffffffffffffffffffffff8203612247576122466121a7565b5b600182019050919050565b600081519050919050565b600082825260208201905092915050565b600061227982612252565b612283818561225d565b935061229381856020860161196b565b61229c81611995565b840191505092915050565b60006080820190506122bc6000830187611a96565b6122c96020830186611a96565b6122d66040830185611bac565b81810360608301526122e8818461226e565b905095945050505050565b600081519050612302816118c0565b92915050565b60006020828403121561231e5761231d61188a565b5b600061232c848285016122f3565b91505092915050565b7f4e487b7100000000000000000000000000000000000000000000000000000000600052601260045260246000fd5b600061236f82611a01565b915061237a83611a01565b92508261238a57612389612335565b5b828204905092915050565b60006123a082611a01565b91506123ab83611a01565b92508282026123b981611a01565b915082820484148315176123d0576123cf6121a7565b5b5092915050565b60006040820190506123ec6000830185611a96565b6123f96020830184611bac565b939250505056fe4142434445464748494a4b4c4d4e4f505152535455565758595a6162636465666768696a6b6c6d6e6f707172737475767778797a303132333435363738392b2f3c73766720786d6c6e733d27687474703a2f2f7777772e77332e6f72672f323030302f73766727207072657365727665417370656374526174696f3d27784d696e594d696e206d656574272076696577426f783d273020302033353020333530273e3c7374796c653e2e62617365207b2066696c6c3a2077686974653b20666f6e742d66616d696c793a2073657269663b20666f6e742d73697a653a2033303070783b207d3c2f7374796c653e3c726563742077696474683d273130302527206865696768743d2731303025272066696c6c3d2762726f776e27202f3e3c7465787420783d273130302720793d273236302720636c6173733d2762617365273ea2646970667358221220d5eb96cab855343c5d6318e299c92fda7570ba0810bf006ef0aa4bb4b4405a6a64736f6c63430008140033",
  "linkReferences": {},
  "deployedLinkReferences": {}
}